{
  "fileName": "BouncePro.sol",
  "contractName": "BouncePro",
  "source": "// SPDX-License-Identifier: MIT\n\npragma solidity ^0.6.0;\npragma experimental ABIEncoderV2;\n\nimport \"@openzeppelin/contracts-ethereum-package/contracts/math/SafeMath.sol\";\nimport \"@openzeppelin/contracts-ethereum-package/contracts/token/ERC20/SafeERC20.sol\";\nimport \"@openzeppelin/contracts-ethereum-package/contracts/token/ERC20/IERC20.sol\";\nimport \"@openzeppelin/contracts-ethereum-package/contracts/cryptography/ECDSA.sol\";\nimport \"@uniswap/v2-periphery/contracts/interfaces/IUniswapV2Router02.sol\";\nimport \"./Governable.sol\";\n\ncontract BouncePro is Configurable {\n    using SafeMath for uint;\n    using SafeERC20 for IERC20;\n    using ECDSA for bytes32;\n\n    bytes32 internal constant TxFeeRatio            = bytes32(\"BPRO::TxFeeRatio\");\n    bytes32 internal constant MinValueOfBotHolder   = bytes32(\"BPRO::MinValueOfBotHolder\");\n    bytes32 internal constant BotToken              = bytes32(\"BPRO::BotToken\");\n    bytes32 internal constant AuctionToken          = bytes32(\"BPRO::AuctionToken\");\n    bytes32 internal constant UsdtToken             = bytes32(\"BPRO::UsdtToken\");\n    bytes32 internal constant UniswapV2Router02     = bytes32(\"BPRO::UniswapV2Router02\");\n    bytes32 internal constant EnableUniSwap         = bytes32(\"BPRO::EnableUniSwap\");\n\n    address internal constant DeadAddress           = 0x000000000000000000000000000000000000dEaD;\n\n    struct CreateReq {\n        uint projectId;\n        // beneficiary of the pool\n        address payable beneficiary;\n        // address of sell token\n        address token0;\n        // address of buy token\n        address token1;\n        // total amount of token0\n        uint amountTotal0;\n        // total amount of token1\n        uint amountTotal1;\n        // the duration in seconds the pool will be closed\n        uint duration;\n        // the timestamp in seconds the pool will open\n        uint openAt;\n        // the delay timestamp in seconds when buyers can claim after pool filled\n        uint claimDelaySec;\n        bool onlyBot;\n        uint maxEthPerWallet;\n        bool enableWhiteList;\n        bool enableKycList;\n    }\n\n    struct Pool {\n        uint projectId;\n        // beneficiary of the pool\n        address payable beneficiary;\n        // address of sell token\n        address token0;\n        // address of buy token\n        address token1;\n        // total amount of token0\n        uint amountTotal0;\n        // total amount of token1\n        uint amountTotal1;\n        // the timestamp in seconds the pool will open\n        uint openAt;\n        // the timestamp in seconds the pool will be closed\n        uint closeAt;\n        // the delay timestamp in seconds when buyers can claim after pool filled\n        uint claimDelaySec;\n        // whether or not whitelist is enable\n        bool enableWhiteList;\n        // whether or not kyc list is enable\n        bool enableKycList;\n    }\n\n    Pool[] public pools;\n\n    // pool index => the timestamp which the pool filled at\n    mapping(uint => uint) public filledAtP;\n    // pool index => swap amount of token0\n    mapping(uint => uint) public amountSwap0P;\n    // pool index => swap amount of token1\n    mapping(uint => uint) public amountSwap1P;\n    // pool index => the swap pool only allow BOT holder to take part in\n    mapping(uint => bool) public onlyBotHolderP;\n    // pool index => maximum swap amount of ETH per wallet, if the value is not set, the default value is zero\n    mapping(uint => uint) public maxEthPerWalletP;\n    // team address => pool index => whether or not the pool is belong to the address\n    mapping(address => mapping(uint => bool)) public teamPool;\n    // team address => pool index => whether or not team's pool has been claimed\n    mapping(address => mapping(uint => bool)) public teamClaimed;\n    // user address => pool index => swapped amount of token0\n    mapping(address => mapping(uint => uint)) public myAmountSwapped0;\n    // user address => pool index => swapped amount of token1\n    mapping(address => mapping(uint => uint)) public myAmountSwapped1;\n    // user address => pool index => whether or not my pool has been claimed\n    mapping(address => mapping(uint => bool)) public myClaimed;\n\n    // pool index => account => whether or not in white list\n    mapping(uint => mapping(address => bool)) public whitelistP;\n    // account => whether or not in kyc list\n    mapping(address => bool) public kyclist;\n    // creator address => whether or not it's a creator address\n    mapping(address => bool) public creator;\n    // signer address of kyc\n    address public kycSigner;\n    // pool index => transaction fee\n    mapping(uint => uint) public txFeeP;\n\n    event Created(uint indexed index, address indexed sender, Pool pool);\n    event Swapped(uint indexed index, address indexed sender, uint amount0, uint amount1, uint txFee);\n    event Claimed(uint indexed index, address indexed sender, uint amount0, uint txFee);\n    event UserClaimed(uint indexed index, address indexed sender, uint amount0);\n    event KycAdded(address indexed kycAddr);\n\n    function initialize(address _governor, address kycSigner_, address[] memory creators_) public {\n        require(msg.sender == governor || governor == address(0), \"invalid governor\");\n        governor = _governor;\n        kycSigner = kycSigner_;\n\n        for (uint i = 0; i < creators_.length; i++) {\n            addCreator(creators_[i]);\n        }\n\n        config[TxFeeRatio] = 0.015 ether;\n        config[MinValueOfBotHolder] = 30 ether;\n        config[EnableUniSwap] = 1;\n\n        // kycSigner = 0xB18D48937C44c28620F3ae2F02C87E811B392501\n        // creator = [0x14Fe1c6ADb626A8235b079d4ff66C6b0a3a2E68a, 0xDFfF7b40E289C8da3F0C5b163aCDac1b6d8B24Ee, 0xc6a34b2bf59baF984884A0cf4C84eD1541E710d7]\n\n        // mainnet\n        config[UniswapV2Router02] = uint(0x7a250d5630B4cF539739dF2C5dAcb4c659F2488D);\n        config[BotToken] = uint(0xA9B1Eb5908CfC3cdf91F9B8B3a74108598009096);\n        config[AuctionToken] = uint(0xA9B1Eb5908CfC3cdf91F9B8B3a74108598009096);\n        config[UsdtToken] = uint(0xdAC17F958D2ee523a2206206994597C13D831ec7);\n    }\n\n    function initialize_rinkeby(address _governor, address kycSigner_, address[] memory creators_) public {\n        initialize(_governor, kycSigner_, creators_);\n\n        // rinkeby\n        config[BotToken] = uint(0x5E26FA0FE067d28aae8aFf2fB85Ac2E693BD9EfA);\n        config[AuctionToken] = uint(0x5E26FA0FE067d28aae8aFf2fB85Ac2E693BD9EfA);\n        config[UsdtToken] = uint(0x101194a3FF67f83A05B3E15AfA52D45D588614ca);\n    }\n\n    function initialize_bsc(address _governor, address kycSigner_, address[] memory creators_) public {\n        initialize(_governor, kycSigner_, creators_);\n\n        config[EnableUniSwap] = 0;\n        config[BotToken] = uint(0x1188d953aFC697C031851169EEf640F23ac8529C);\n        config[AuctionToken] = uint(0x1188d953aFC697C031851169EEf640F23ac8529C);\n        config[UsdtToken] = uint(0x55d398326f99059fF775485246999027B3197955); // BUSD-T\n    }\n\n    function create(CreateReq memory poolReq, address[] memory whitelist_) public payable\n        isCreator(msg.sender)\n    {\n        uint index = pools.length;\n        require(poolReq.token0 != poolReq.token1, \"token0 and token1 is same\");\n        require(poolReq.amountTotal0 != 0, \"invalid amountTotal0\");\n        require(poolReq.amountTotal1 != 0, \"invalid amountTotal1\");\n        require(poolReq.openAt >= now, \"invalid openAt\");\n        require(poolReq.duration != 0, \"invalid duration\");\n\n        if (poolReq.maxEthPerWallet != 0) {\n            maxEthPerWalletP[index] = poolReq.maxEthPerWallet;\n        }\n        if (poolReq.onlyBot) {\n            onlyBotHolderP[index] = poolReq.onlyBot;\n        }\n\n        // transfer amount of token0 to this contract\n        IERC20  _token0 = IERC20(poolReq.token0);\n        uint token0BalanceBefore = _token0.balanceOf(address(this));\n        _token0.safeTransferFrom(poolReq.beneficiary, address(this), poolReq.amountTotal0);\n        require(\n            _token0.balanceOf(address(this)).sub(token0BalanceBefore) == poolReq.amountTotal0,\n            \"not support deflationary token\"\n        );\n        // reset allowance to 0\n        _token0.safeApprove(address(this), 0);\n\n        addWhitelist(index, whitelist_);\n\n        Pool memory pool;\n        pool.projectId = poolReq.projectId;\n        pool.beneficiary = poolReq.beneficiary;\n        pool.token0 = poolReq.token0;\n        pool.token1 = poolReq.token1;\n        pool.amountTotal0 = poolReq.amountTotal0;\n        pool.amountTotal1 = poolReq.amountTotal1;\n        pool.openAt = poolReq.openAt;\n        pool.closeAt = poolReq.openAt.add(poolReq.duration);\n        pool.claimDelaySec = poolReq.claimDelaySec;\n        pool.enableWhiteList = poolReq.enableWhiteList;\n        pool.enableKycList = poolReq.enableKycList;\n        pools.push(pool);\n\n        teamPool[poolReq.beneficiary][index] = true;\n\n        emit Created(index, msg.sender, pool);\n    }\n\n    function swap(uint index, uint amount1) external payable\n        isPoolExist(index)\n        isPoolNotClosed(index)\n        checkBotHolder(index)\n    {\n        address payable sender = msg.sender;\n        Pool memory pool = pools[index];\n        if (pool.enableWhiteList) {\n            require(whitelistP[index][sender], \"sender not in whitelist\");\n        }\n        if (pool.enableKycList) {\n            require(kyclist[sender], \"sender not in KYC list\");\n        }\n        require(pool.openAt <= now, \"pool not open\");\n        require(pool.amountTotal1 > amountSwap1P[index], \"swap amount is zero\");\n\n        // check if amount1 is exceeded\n        uint excessAmount1 = 0;\n        uint _amount1 = pool.amountTotal1.sub(amountSwap1P[index]);\n        if (_amount1 < amount1) {\n            excessAmount1 = amount1.sub(_amount1);\n        } else {\n            _amount1 = amount1;\n        }\n\n        // check if amount0 is exceeded\n        uint amount0 = _amount1.mul(pool.amountTotal0).div(pool.amountTotal1);\n        uint _amount0 = pool.amountTotal0.sub(amountSwap0P[index]);\n        if (_amount0 < amount0) {\n            require(amount0 - _amount0 > 100, \"amount0 is too big\");\n        } else {\n            _amount0 = amount0;\n        }\n\n        amountSwap0P[index] = amountSwap0P[index].add(_amount0);\n        amountSwap1P[index] = amountSwap1P[index].add(_amount1);\n        myAmountSwapped0[sender][index] = myAmountSwapped0[sender][index].add(_amount0);\n        // check if swapped amount of token1 is exceeded maximum allowance\n        if (maxEthPerWalletP[index] != 0) {\n            require(\n                myAmountSwapped1[sender][index].add(_amount1) <= maxEthPerWalletP[index],\n                \"swapped amount of token1 is exceeded maximum allowance\"\n            );\n            myAmountSwapped1[sender][index] = myAmountSwapped1[sender][index].add(_amount1);\n        }\n\n        if (pool.amountTotal1 == amountSwap1P[index]) {\n            filledAtP[index] = now;\n        }\n\n        // transfer amount of token1 to this contract\n        if (pool.token1 == address(0)) {\n            require(msg.value == amount1, \"invalid amount of ETH\");\n        } else {\n            IERC20(pool.token1).safeTransferFrom(sender, address(this), amount1);\n        }\n\n        if (pool.claimDelaySec == 0) {\n            if (_amount0 > 0) {\n                // send token0 to sender\n                if (pool.token0 == address(0)) {\n                    sender.transfer(_amount0);\n                } else {\n                    IERC20(pool.token0).safeTransfer(sender, _amount0);\n                }\n            }\n        }\n        if (excessAmount1 > 0) {\n            // send excess amount of token1 back to sender\n            if (pool.token1 == address(0)) {\n                sender.transfer(excessAmount1);\n            } else {\n                IERC20(pool.token1).safeTransfer(sender, excessAmount1);\n            }\n        }\n\n        // send token1 to beneficiary\n        uint256 txFee = _amount1.mul(getTxFeeRatio()).div(1 ether);\n        txFeeP[index] = txFeeP[index].add(txFee);\n        uint256 _actualAmount1 = _amount1.sub(txFee);\n        if (_actualAmount1 > 0) {\n            if (pool.token1 == address(0)) {\n                pool.beneficiary.transfer(_actualAmount1);\n            } else {\n                IERC20(pool.token1).safeTransfer(pool.beneficiary, _actualAmount1);\n            }\n        }\n\n        emit Swapped(index, sender, _amount0, _actualAmount1, txFee);\n    }\n\n    function claim(uint index) external\n        isPoolExist(index)\n    {\n        Pool memory pool = pools[index];\n        require(!teamClaimed[pool.beneficiary][index], \"claimed\");\n        teamClaimed[pool.beneficiary][index] = true;\n\n        if (pool.amountTotal1 != amountSwap1P[index]) {\n            require(pool.closeAt <= now, \"this pool is not closed\");\n        }\n\n        if (txFeeP[index] > 0) {\n            if (pool.token1 == address(0)) {\n                swapETH2BotAndBurn(txFeeP[index]);\n            } else if (pool.token1 == getUsdtToken()) {\n                swapToken2BotAndBurn(getUsdtToken(), txFeeP[index]);\n            }\n        }\n\n        uint unSwapAmount0 = pool.amountTotal0 - amountSwap0P[index];\n        if (unSwapAmount0 > 0) {\n            IERC20(pool.token0).safeTransfer(pool.beneficiary, unSwapAmount0);\n        }\n\n        emit Claimed(index, msg.sender, unSwapAmount0, txFeeP[index]);\n    }\n\n    function userClaim(uint index) external\n        isPoolExist(index)\n    {\n        Pool memory pool = pools[index];\n        address sender = msg.sender;\n        require(pools[index].claimDelaySec > 0, \"invalid claim\");\n        require(!myClaimed[sender][index], \"claimed\");\n        require(filledAtP[index] > 0 && filledAtP[index].add(pool.claimDelaySec) <= now || pool.closeAt <= now, \"claim not ready\");\n        myClaimed[sender][index] = true;\n        if (myAmountSwapped0[sender][index] > 0) {\n            // send token0 to sender\n            if (pool.token0 == address(0)) {\n                msg.sender.transfer(myAmountSwapped0[sender][index]);\n            } else {\n                IERC20(pool.token0).safeTransfer(msg.sender, myAmountSwapped0[sender][index]);\n            }\n        }\n        emit UserClaimed(index, sender, myAmountSwapped0[sender][index]);\n    }\n\n    function transferGovernor(address _governor) external\n        isGovernor(msg.sender)\n    {\n        governor = _governor;\n    }\n\n    function addWhitelist(uint index, address[] memory whitelist_) public\n        isCreator(msg.sender)\n    {\n        for (uint i = 0; i < whitelist_.length; i++) {\n            whitelistP[index][whitelist_[i]] = true;\n        }\n    }\n\n    function removeWhitelist(uint index, address[] memory whitelist_) external\n        isCreator(msg.sender)\n    {\n        for (uint i = 0; i < whitelist_.length; i++) {\n            delete whitelistP[index][whitelist_[i]];\n        }\n    }\n\n    function addKycList(address[] memory kyclist_) external\n        isCreator(msg.sender)\n    {\n        for (uint i = 0; i < kyclist_.length; i++) {\n            kyclist[kyclist_[i]] = true;\n        }\n    }\n\n    function removeKycList(address[] memory kyclist_) external\n        isCreator(msg.sender)\n    {\n        for (uint i = 0; i < kyclist_.length; i++) {\n            delete kyclist[kyclist_[i]];\n        }\n    }\n\n    function setKycSigner(address kycSigner_) external\n        isGovernor(msg.sender)\n    {\n        kycSigner = kycSigner_;\n    }\n\n    function registerKyc(bytes memory signature) external {\n        bytes32 message = keccak256(abi.encode(msg.sender));\n        bytes32 hashMessage = message.toEthSignedMessageHash();\n        require(kycSigner == hashMessage.recover(signature), \"invalid signature\");\n        kyclist[msg.sender] = true;\n        emit KycAdded(msg.sender);\n    }\n\n    function addCreator(address creator_) public\n        isGovernor(msg.sender)\n    {\n        creator[creator_] = true;\n    }\n\n    function removeCreator(address removeCreator_) external\n        isGovernor(msg.sender)\n    {\n        delete creator[removeCreator_];\n    }\n\n    function setUniswapV2Router(address router_) external\n        isGovernor(msg.sender)\n    {\n        config[UniswapV2Router02] = uint(router_);\n    }\n\n    function swapETH2BotAndBurn(uint txFee) private {\n        if (getEnableUniSwap()) {\n            uint amountOutMin = 0;\n            address[] memory path = getPath();\n            address to = DeadAddress;\n            uint deadline = now.add(20 minutes);\n            IUniswapV2Router02(getUniswapV2Router()).swapExactETHForTokens{value: txFee}(amountOutMin, path, to, deadline);\n        }\n    }\n\n    function swapToken2BotAndBurn(address token, uint txFee) private {\n        if (getEnableUniSwap()) {\n            address router = getUniswapV2Router();\n            IERC20(token).safeApprove(router, txFee);\n            uint amountOutMin = 0;\n            address[] memory path = getPath2(token);\n            address to = DeadAddress;\n            uint deadline = now.add(20 minutes);\n            IUniswapV2Router02(router).swapExactTokensForTokens(txFee, amountOutMin, path, to, deadline);\n        }\n    }\n\n    function getPath() internal view returns (address[] memory) {\n        address[] memory path = new address[](2);\n        path[0] = IUniswapV2Router02(getUniswapV2Router()).WETH();\n        path[1] = getBotToken();\n\n        return path;\n    }\n\n    function getPath2(address token) internal view returns (address[] memory) {\n        address[] memory path = new address[](3);\n        path[0] = token;\n        path[1] = IUniswapV2Router02(getUniswapV2Router()).WETH();\n        path[2] = getBotToken();\n\n        return path;\n    }\n\n    function getEnableUniSwap() public view returns (bool) {\n        return config[EnableUniSwap] != 0;\n    }\n\n    function getUniswapV2Router() public view returns (address) {\n        return address(config[UniswapV2Router02]);\n    }\n\n    function getPoolCount() public view returns (uint) {\n        return pools.length;\n    }\n\n    function getTxFeeRatio() public view returns (uint) {\n        return config[TxFeeRatio];\n    }\n\n    function getMinValueOfBotHolder() public view returns (uint) {\n        return config[MinValueOfBotHolder];\n    }\n\n    function getBotToken() public view returns (address) {\n        return address(config[BotToken]);\n    }\n\n    function getAuctionToken() public view returns (address) {\n        return address(config[AuctionToken]);\n    }\n\n    function getUsdtToken() public view returns (address) {\n        return address(config[UsdtToken]);\n    }\n\n    modifier isPoolClosed(uint index) {\n        require(pools[index].closeAt <= now, \"this pool is not closed\");\n        _;\n    }\n\n    modifier isPoolNotClosed(uint index) {\n        require(pools[index].closeAt > now, \"this pool is closed\");\n        _;\n    }\n\n    modifier isPoolExist(uint index) {\n        require(index < pools.length, \"this pool does not exist\");\n        _;\n    }\n\n    modifier checkBotHolder(uint index) {\n        if (onlyBotHolderP[index]) {\n            require(\n                IERC20(getBotToken()).balanceOf(msg.sender) >= getMinValueOfBotHolder()\n                || IERC20(getAuctionToken()).balanceOf(msg.sender) >= getMinValueOfBotHolder().mul(100),\n                \"BOT or Auction is not enough\"\n            );\n        }\n        _;\n    }\n\n    modifier isCreator(address target) {\n        require(creator[target], \"invalid creator\");\n        _;\n    }\n\n    modifier isGovernor(address governor_) {\n        require(governor_ == governor, \"invalid governor\");\n        _;\n    }\n}\n",
  "sourcePath": "contracts/BouncePro.sol",
  "abi": [
    {
      "anonymous": false,
      "inputs": [
        {
          "indexed": true,
          "internalType": "uint256",
          "name": "index",
          "type": "uint256"
        },
        {
          "indexed": true,
          "internalType": "address",
          "name": "sender",
          "type": "address"
        },
        {
          "indexed": false,
          "internalType": "uint256",
          "name": "amount0",
          "type": "uint256"
        },
        {
          "indexed": false,
          "internalType": "uint256",
          "name": "txFee",
          "type": "uint256"
        }
      ],
      "name": "Claimed",
      "type": "event"
    },
    {
      "anonymous": false,
      "inputs": [
        {
          "indexed": true,
          "internalType": "uint256",
          "name": "index",
          "type": "uint256"
        },
        {
          "indexed": true,
          "internalType": "address",
          "name": "sender",
          "type": "address"
        },
        {
          "components": [
            {
              "internalType": "uint256",
              "name": "projectId",
              "type": "uint256"
            },
            {
              "internalType": "address payable",
              "name": "beneficiary",
              "type": "address"
            },
            {
              "internalType": "address",
              "name": "token0",
              "type": "address"
            },
            {
              "internalType": "address",
              "name": "token1",
              "type": "address"
            },
            {
              "internalType": "uint256",
              "name": "amountTotal0",
              "type": "uint256"
            },
            {
              "internalType": "uint256",
              "name": "amountTotal1",
              "type": "uint256"
            },
            {
              "internalType": "uint256",
              "name": "openAt",
              "type": "uint256"
            },
            {
              "internalType": "uint256",
              "name": "closeAt",
              "type": "uint256"
            },
            {
              "internalType": "uint256",
              "name": "claimDelaySec",
              "type": "uint256"
            },
            {
              "internalType": "bool",
              "name": "enableWhiteList",
              "type": "bool"
            },
            {
              "internalType": "bool",
              "name": "enableKycList",
              "type": "bool"
            }
          ],
          "indexed": false,
          "internalType": "struct BouncePro.Pool",
          "name": "pool",
          "type": "tuple"
        }
      ],
      "name": "Created",
      "type": "event"
    },
    {
      "anonymous": false,
      "inputs": [
        {
          "indexed": true,
          "internalType": "address",
          "name": "previousGovernor",
          "type": "address"
        },
        {
          "indexed": true,
          "internalType": "address",
          "name": "newGovernor",
          "type": "address"
        }
      ],
      "name": "GovernorshipTransferred",
      "type": "event"
    },
    {
      "anonymous": false,
      "inputs": [
        {
          "indexed": true,
          "internalType": "address",
          "name": "kycAddr",
          "type": "address"
        }
      ],
      "name": "KycAdded",
      "type": "event"
    },
    {
      "anonymous": false,
      "inputs": [
        {
          "indexed": true,
          "internalType": "uint256",
          "name": "index",
          "type": "uint256"
        },
        {
          "indexed": true,
          "internalType": "address",
          "name": "sender",
          "type": "address"
        },
        {
          "indexed": false,
          "internalType": "uint256",
          "name": "amount0",
          "type": "uint256"
        },
        {
          "indexed": false,
          "internalType": "uint256",
          "name": "amount1",
          "type": "uint256"
        },
        {
          "indexed": false,
          "internalType": "uint256",
          "name": "txFee",
          "type": "uint256"
        }
      ],
      "name": "Swapped",
      "type": "event"
    },
    {
      "anonymous": false,
      "inputs": [
        {
          "indexed": true,
          "internalType": "uint256",
          "name": "index",
          "type": "uint256"
        },
        {
          "indexed": true,
          "internalType": "address",
          "name": "sender",
          "type": "address"
        },
        {
          "indexed": false,
          "internalType": "uint256",
          "name": "amount0",
          "type": "uint256"
        }
      ],
      "name": "UserClaimed",
      "type": "event"
    },
    {
      "inputs": [
        {
          "internalType": "address",
          "name": "creator_",
          "type": "address"
        }
      ],
      "name": "addCreator",
      "outputs": [],
      "stateMutability": "nonpayable",
      "type": "function"
    },
    {
      "inputs": [
        {
          "internalType": "address[]",
          "name": "kyclist_",
          "type": "address[]"
        }
      ],
      "name": "addKycList",
      "outputs": [],
      "stateMutability": "nonpayable",
      "type": "function"
    },
    {
      "inputs": [
        {
          "internalType": "uint256",
          "name": "index",
          "type": "uint256"
        },
        {
          "internalType": "address[]",
          "name": "whitelist_",
          "type": "address[]"
        }
      ],
      "name": "addWhitelist",
      "outputs": [],
      "stateMutability": "nonpayable",
      "type": "function"
    },
    {
      "inputs": [
        {
          "internalType": "uint256",
          "name": "",
          "type": "uint256"
        }
      ],
      "name": "amountSwap0P",
      "outputs": [
        {
          "internalType": "uint256",
          "name": "",
          "type": "uint256"
        }
      ],
      "stateMutability": "view",
      "type": "function"
    },
    {
      "inputs": [
        {
          "internalType": "uint256",
          "name": "",
          "type": "uint256"
        }
      ],
      "name": "amountSwap1P",
      "outputs": [
        {
          "internalType": "uint256",
          "name": "",
          "type": "uint256"
        }
      ],
      "stateMutability": "view",
      "type": "function"
    },
    {
      "inputs": [
        {
          "internalType": "uint256",
          "name": "index",
          "type": "uint256"
        }
      ],
      "name": "claim",
      "outputs": [],
      "stateMutability": "nonpayable",
      "type": "function"
    },
    {
      "inputs": [
        {
          "components": [
            {
              "internalType": "uint256",
              "name": "projectId",
              "type": "uint256"
            },
            {
              "internalType": "address payable",
              "name": "beneficiary",
              "type": "address"
            },
            {
              "internalType": "address",
              "name": "token0",
              "type": "address"
            },
            {
              "internalType": "address",
              "name": "token1",
              "type": "address"
            },
            {
              "internalType": "uint256",
              "name": "amountTotal0",
              "type": "uint256"
            },
            {
              "internalType": "uint256",
              "name": "amountTotal1",
              "type": "uint256"
            },
            {
              "internalType": "uint256",
              "name": "duration",
              "type": "uint256"
            },
            {
              "internalType": "uint256",
              "name": "openAt",
              "type": "uint256"
            },
            {
              "internalType": "uint256",
              "name": "claimDelaySec",
              "type": "uint256"
            },
            {
              "internalType": "bool",
              "name": "onlyBot",
              "type": "bool"
            },
            {
              "internalType": "uint256",
              "name": "maxEthPerWallet",
              "type": "uint256"
            },
            {
              "internalType": "bool",
              "name": "enableWhiteList",
              "type": "bool"
            },
            {
              "internalType": "bool",
              "name": "enableKycList",
              "type": "bool"
            }
          ],
          "internalType": "struct BouncePro.CreateReq",
          "name": "poolReq",
          "type": "tuple"
        },
        {
          "internalType": "address[]",
          "name": "whitelist_",
          "type": "address[]"
        }
      ],
      "name": "create",
      "outputs": [],
      "stateMutability": "payable",
      "type": "function"
    },
    {
      "inputs": [
        {
          "internalType": "address",
          "name": "",
          "type": "address"
        }
      ],
      "name": "creator",
      "outputs": [
        {
          "internalType": "bool",
          "name": "",
          "type": "bool"
        }
      ],
      "stateMutability": "view",
      "type": "function"
    },
    {
      "inputs": [
        {
          "internalType": "uint256",
          "name": "",
          "type": "uint256"
        }
      ],
      "name": "filledAtP",
      "outputs": [
        {
          "internalType": "uint256",
          "name": "",
          "type": "uint256"
        }
      ],
      "stateMutability": "view",
      "type": "function"
    },
    {
      "inputs": [],
      "name": "getAuctionToken",
      "outputs": [
        {
          "internalType": "address",
          "name": "",
          "type": "address"
        }
      ],
      "stateMutability": "view",
      "type": "function"
    },
    {
      "inputs": [],
      "name": "getBotToken",
      "outputs": [
        {
          "internalType": "address",
          "name": "",
          "type": "address"
        }
      ],
      "stateMutability": "view",
      "type": "function"
    },
    {
      "inputs": [
        {
          "internalType": "bytes32",
          "name": "key",
          "type": "bytes32"
        },
        {
          "internalType": "address",
          "name": "addr",
          "type": "address"
        }
      ],
      "name": "getConfig",
      "outputs": [
        {
          "internalType": "uint256",
          "name": "",
          "type": "uint256"
        }
      ],
      "stateMutability": "view",
      "type": "function"
    },
    {
      "inputs": [
        {
          "internalType": "bytes32",
          "name": "key",
          "type": "bytes32"
        }
      ],
      "name": "getConfig",
      "outputs": [
        {
          "internalType": "uint256",
          "name": "",
          "type": "uint256"
        }
      ],
      "stateMutability": "view",
      "type": "function"
    },
    {
      "inputs": [
        {
          "internalType": "bytes32",
          "name": "key",
          "type": "bytes32"
        },
        {
          "internalType": "uint256",
          "name": "index",
          "type": "uint256"
        }
      ],
      "name": "getConfig",
      "outputs": [
        {
          "internalType": "uint256",
          "name": "",
          "type": "uint256"
        }
      ],
      "stateMutability": "view",
      "type": "function"
    },
    {
      "inputs": [],
      "name": "getEnableUniSwap",
      "outputs": [
        {
          "internalType": "bool",
          "name": "",
          "type": "bool"
        }
      ],
      "stateMutability": "view",
      "type": "function"
    },
    {
      "inputs": [],
      "name": "getMinValueOfBotHolder",
      "outputs": [
        {
          "internalType": "uint256",
          "name": "",
          "type": "uint256"
        }
      ],
      "stateMutability": "view",
      "type": "function"
    },
    {
      "inputs": [],
      "name": "getPoolCount",
      "outputs": [
        {
          "internalType": "uint256",
          "name": "",
          "type": "uint256"
        }
      ],
      "stateMutability": "view",
      "type": "function"
    },
    {
      "inputs": [],
      "name": "getTxFeeRatio",
      "outputs": [
        {
          "internalType": "uint256",
          "name": "",
          "type": "uint256"
        }
      ],
      "stateMutability": "view",
      "type": "function"
    },
    {
      "inputs": [],
      "name": "getUniswapV2Router",
      "outputs": [
        {
          "internalType": "address",
          "name": "",
          "type": "address"
        }
      ],
      "stateMutability": "view",
      "type": "function"
    },
    {
      "inputs": [],
      "name": "getUsdtToken",
      "outputs": [
        {
          "internalType": "address",
          "name": "",
          "type": "address"
        }
      ],
      "stateMutability": "view",
      "type": "function"
    },
    {
      "inputs": [],
      "name": "governor",
      "outputs": [
        {
          "internalType": "address",
          "name": "",
          "type": "address"
        }
      ],
      "stateMutability": "view",
      "type": "function"
    },
    {
      "inputs": [
        {
          "internalType": "address",
          "name": "_governor",
          "type": "address"
        },
        {
          "internalType": "address",
          "name": "kycSigner_",
          "type": "address"
        },
        {
          "internalType": "address[]",
          "name": "creators_",
          "type": "address[]"
        }
      ],
      "name": "initialize",
      "outputs": [],
      "stateMutability": "nonpayable",
      "type": "function"
    },
    {
      "inputs": [
        {
          "internalType": "address",
          "name": "governor_",
          "type": "address"
        }
      ],
      "name": "initialize",
      "outputs": [],
      "stateMutability": "nonpayable",
      "type": "function"
    },
    {
      "inputs": [
        {
          "internalType": "address",
          "name": "_governor",
          "type": "address"
        },
        {
          "internalType": "address",
          "name": "kycSigner_",
          "type": "address"
        },
        {
          "internalType": "address[]",
          "name": "creators_",
          "type": "address[]"
        }
      ],
      "name": "initialize_bsc",
      "outputs": [],
      "stateMutability": "nonpayable",
      "type": "function"
    },
    {
      "inputs": [
        {
          "internalType": "address",
          "name": "_governor",
          "type": "address"
        },
        {
          "internalType": "address",
          "name": "kycSigner_",
          "type": "address"
        },
        {
          "internalType": "address[]",
          "name": "creators_",
          "type": "address[]"
        }
      ],
      "name": "initialize_rinkeby",
      "outputs": [],
      "stateMutability": "nonpayable",
      "type": "function"
    },
    {
      "inputs": [],
      "name": "kycSigner",
      "outputs": [
        {
          "internalType": "address",
          "name": "",
          "type": "address"
        }
      ],
      "stateMutability": "view",
      "type": "function"
    },
    {
      "inputs": [
        {
          "internalType": "address",
          "name": "",
          "type": "address"
        }
      ],
      "name": "kyclist",
      "outputs": [
        {
          "internalType": "bool",
          "name": "",
          "type": "bool"
        }
      ],
      "stateMutability": "view",
      "type": "function"
    },
    {
      "inputs": [
        {
          "internalType": "uint256",
          "name": "",
          "type": "uint256"
        }
      ],
      "name": "maxEthPerWalletP",
      "outputs": [
        {
          "internalType": "uint256",
          "name": "",
          "type": "uint256"
        }
      ],
      "stateMutability": "view",
      "type": "function"
    },
    {
      "inputs": [
        {
          "internalType": "address",
          "name": "",
          "type": "address"
        },
        {
          "internalType": "uint256",
          "name": "",
          "type": "uint256"
        }
      ],
      "name": "myAmountSwapped0",
      "outputs": [
        {
          "internalType": "uint256",
          "name": "",
          "type": "uint256"
        }
      ],
      "stateMutability": "view",
      "type": "function"
    },
    {
      "inputs": [
        {
          "internalType": "address",
          "name": "",
          "type": "address"
        },
        {
          "internalType": "uint256",
          "name": "",
          "type": "uint256"
        }
      ],
      "name": "myAmountSwapped1",
      "outputs": [
        {
          "internalType": "uint256",
          "name": "",
          "type": "uint256"
        }
      ],
      "stateMutability": "view",
      "type": "function"
    },
    {
      "inputs": [
        {
          "internalType": "address",
          "name": "",
          "type": "address"
        },
        {
          "internalType": "uint256",
          "name": "",
          "type": "uint256"
        }
      ],
      "name": "myClaimed",
      "outputs": [
        {
          "internalType": "bool",
          "name": "",
          "type": "bool"
        }
      ],
      "stateMutability": "view",
      "type": "function"
    },
    {
      "inputs": [
        {
          "internalType": "uint256",
          "name": "",
          "type": "uint256"
        }
      ],
      "name": "onlyBotHolderP",
      "outputs": [
        {
          "internalType": "bool",
          "name": "",
          "type": "bool"
        }
      ],
      "stateMutability": "view",
      "type": "function"
    },
    {
      "inputs": [
        {
          "internalType": "uint256",
          "name": "",
          "type": "uint256"
        }
      ],
      "name": "pools",
      "outputs": [
        {
          "internalType": "uint256",
          "name": "projectId",
          "type": "uint256"
        },
        {
          "internalType": "address payable",
          "name": "beneficiary",
          "type": "address"
        },
        {
          "internalType": "address",
          "name": "token0",
          "type": "address"
        },
        {
          "internalType": "address",
          "name": "token1",
          "type": "address"
        },
        {
          "internalType": "uint256",
          "name": "amountTotal0",
          "type": "uint256"
        },
        {
          "internalType": "uint256",
          "name": "amountTotal1",
          "type": "uint256"
        },
        {
          "internalType": "uint256",
          "name": "openAt",
          "type": "uint256"
        },
        {
          "internalType": "uint256",
          "name": "closeAt",
          "type": "uint256"
        },
        {
          "internalType": "uint256",
          "name": "claimDelaySec",
          "type": "uint256"
        },
        {
          "internalType": "bool",
          "name": "enableWhiteList",
          "type": "bool"
        },
        {
          "internalType": "bool",
          "name": "enableKycList",
          "type": "bool"
        }
      ],
      "stateMutability": "view",
      "type": "function"
    },
    {
      "inputs": [
        {
          "internalType": "bytes",
          "name": "signature",
          "type": "bytes"
        }
      ],
      "name": "registerKyc",
      "outputs": [],
      "stateMutability": "nonpayable",
      "type": "function"
    },
    {
      "inputs": [
        {
          "internalType": "address",
          "name": "removeCreator_",
          "type": "address"
        }
      ],
      "name": "removeCreator",
      "outputs": [],
      "stateMutability": "nonpayable",
      "type": "function"
    },
    {
      "inputs": [
        {
          "internalType": "address[]",
          "name": "kyclist_",
          "type": "address[]"
        }
      ],
      "name": "removeKycList",
      "outputs": [],
      "stateMutability": "nonpayable",
      "type": "function"
    },
    {
      "inputs": [
        {
          "internalType": "uint256",
          "name": "index",
          "type": "uint256"
        },
        {
          "internalType": "address[]",
          "name": "whitelist_",
          "type": "address[]"
        }
      ],
      "name": "removeWhitelist",
      "outputs": [],
      "stateMutability": "nonpayable",
      "type": "function"
    },
    {
      "inputs": [],
      "name": "renounceGovernorship",
      "outputs": [],
      "stateMutability": "nonpayable",
      "type": "function"
    },
    {
      "inputs": [
        {
          "internalType": "bytes32",
          "name": "key",
          "type": "bytes32"
        },
        {
          "internalType": "uint256",
          "name": "value",
          "type": "uint256"
        }
      ],
      "name": "setConfig",
      "outputs": [],
      "stateMutability": "nonpayable",
      "type": "function"
    },
    {
      "inputs": [
        {
          "internalType": "bytes32",
          "name": "key",
          "type": "bytes32"
        },
        {
          "internalType": "address",
          "name": "addr",
          "type": "address"
        },
        {
          "internalType": "uint256",
          "name": "value",
          "type": "uint256"
        }
      ],
      "name": "setConfig",
      "outputs": [],
      "stateMutability": "nonpayable",
      "type": "function"
    },
    {
      "inputs": [
        {
          "internalType": "bytes32",
          "name": "key",
          "type": "bytes32"
        },
        {
          "internalType": "uint256",
          "name": "index",
          "type": "uint256"
        },
        {
          "internalType": "uint256",
          "name": "value",
          "type": "uint256"
        }
      ],
      "name": "setConfig",
      "outputs": [],
      "stateMutability": "nonpayable",
      "type": "function"
    },
    {
      "inputs": [
        {
          "internalType": "address",
          "name": "kycSigner_",
          "type": "address"
        }
      ],
      "name": "setKycSigner",
      "outputs": [],
      "stateMutability": "nonpayable",
      "type": "function"
    },
    {
      "inputs": [
        {
          "internalType": "address",
          "name": "router_",
          "type": "address"
        }
      ],
      "name": "setUniswapV2Router",
      "outputs": [],
      "stateMutability": "nonpayable",
      "type": "function"
    },
    {
      "inputs": [
        {
          "internalType": "uint256",
          "name": "index",
          "type": "uint256"
        },
        {
          "internalType": "uint256",
          "name": "amount1",
          "type": "uint256"
        }
      ],
      "name": "swap",
      "outputs": [],
      "stateMutability": "payable",
      "type": "function"
    },
    {
      "inputs": [
        {
          "internalType": "address",
          "name": "",
          "type": "address"
        },
        {
          "internalType": "uint256",
          "name": "",
          "type": "uint256"
        }
      ],
      "name": "teamClaimed",
      "outputs": [
        {
          "internalType": "bool",
          "name": "",
          "type": "bool"
        }
      ],
      "stateMutability": "view",
      "type": "function"
    },
    {
      "inputs": [
        {
          "internalType": "address",
          "name": "",
          "type": "address"
        },
        {
          "internalType": "uint256",
          "name": "",
          "type": "uint256"
        }
      ],
      "name": "teamPool",
      "outputs": [
        {
          "internalType": "bool",
          "name": "",
          "type": "bool"
        }
      ],
      "stateMutability": "view",
      "type": "function"
    },
    {
      "inputs": [
        {
          "internalType": "address",
          "name": "_governor",
          "type": "address"
        }
      ],
      "name": "transferGovernor",
      "outputs": [],
      "stateMutability": "nonpayable",
      "type": "function"
    },
    {
      "inputs": [
        {
          "internalType": "address",
          "name": "newGovernor",
          "type": "address"
        }
      ],
      "name": "transferGovernorship",
      "outputs": [],
      "stateMutability": "nonpayable",
      "type": "function"
    },
    {
      "inputs": [
        {
          "internalType": "uint256",
          "name": "",
          "type": "uint256"
        }
      ],
      "name": "txFeeP",
      "outputs": [
        {
          "internalType": "uint256",
          "name": "",
          "type": "uint256"
        }
      ],
      "stateMutability": "view",
      "type": "function"
    },
    {
      "inputs": [
        {
          "internalType": "uint256",
          "name": "index",
          "type": "uint256"
        }
      ],
      "name": "userClaim",
      "outputs": [],
      "stateMutability": "nonpayable",
      "type": "function"
    },
    {
      "inputs": [
        {
          "internalType": "uint256",
          "name": "",
          "type": "uint256"
        },
        {
          "internalType": "address",
          "name": "",
          "type": "address"
        }
      ],
      "name": "whitelistP",
      "outputs": [
        {
          "internalType": "bool",
          "name": "",
          "type": "bool"
        }
      ],
      "stateMutability": "view",
      "type": "function"
    }
  ],
  "bytecode": "0x608060405234801561001057600080fd5b506143b2806100206000396000f3fe6080604052600436106102e35760003560e01c80638d0929af11610190578063c7011b7b116100dc578063ddf2be3f11610095578063ed9ec8c61161006f578063ed9ec8c614610889578063f4e520171461089e578063fc0cdf76146108be578063fe43efda146108de576102e3565b8063ddf2be3f14610834578063e471039014610854578063ebfa341714610874576102e3565b8063c7011b7b1461078c578063c92a46bb146107a1578063ca0262bd146107c1578063d8ab734c146107e1578063d8b99cb214610801578063d96073cf14610821576102e3565b8063ac4afa3811610149578063b8cc9ce611610123578063b8cc9ce61461070c578063bd6018bb1461072c578063c4d66de81461074c578063c6472b121461076c576102e3565b8063ac4afa3814610695578063b21544f3146106cc578063b6aa515b146106ec576102e3565b80638d0929af146105f85780638ec872e3146106185780638eec5d701461063857806391e9e9291461064d578063a5b6260e14610660578063a5ed536f14610675576102e3565b806352665f471161024f57806377a24f361161020857806388fd825b116101e257806388fd825b146105785780638aa1e44e146105985780638ad8b6e5146105b85780638cfbe9d5146105d8576102e3565b806377a24f36146105235780637adaeebe1461054357806381c0c26314610563576102e3565b806352665f471461046e578063548644151461048e578063636b0475146104ae57806363cb6c42146104ce5780636c221098146104e35780636dd5b69d14610503576102e3565b80631bb2dd6c116102a15780631bb2dd6c146103c4578063211f4191146103d957806326d3e5de146103f957806331ca7eef14610419578063379607f51461042e5780633b9dce051461044e576102e3565b806271c175146102e85780630c340a2414610313578063110808a6146103285780631419841d14610355578063150482411461037757806315fe96dc146103a4575b600080fd5b3480156102f457600080fd5b506102fd6108fe565b60405161030a919061390e565b60405180910390f35b34801561031f57600080fd5b506102fd610946565b34801561033457600080fd5b506103486103433660046135c1565b610955565b60405161030a9190614189565b34801561036157600080fd5b5061037561037036600461341f565b610967565b005b34801561038357600080fd5b506103976103923660046134b7565b6109ed565b60405161030a9190613979565b3480156103b057600080fd5b506103756103bf36600461363f565b610a0d565b3480156103d057600080fd5b50610348610a32565b3480156103e557600080fd5b506103486103f43660046134b7565b610a73565b34801561040557600080fd5b506103756104143660046134e2565b610a90565b34801561042557600080fd5b506102fd610b13565b34801561043a57600080fd5b506103756104493660046135c1565b610b41565b34801561045a57600080fd5b5061037561046936600461341f565b610dd3565b34801561047a57600080fd5b506103486104893660046135d9565b610e24565b34801561049a57600080fd5b506103486104a93660046135c1565b610e46565b3480156104ba57600080fd5b506103486104c93660046135c1565b610e58565b3480156104da57600080fd5b50610348610e6a565b3480156104ef57600080fd5b506103756104fe36600461383c565b610eb8565b34801561050f57600080fd5b5061034861051e3660046135c1565b610f4d565b34801561052f57600080fd5b5061037561053e366004613457565b610f5f565b34801561054f57600080fd5b5061037561055e36600461341f565b61112b565b34801561056f57600080fd5b5061037561117a565b34801561058457600080fd5b506103756105933660046134e2565b6111db565b3480156105a457600080fd5b506103756105b336600461383c565b611262565b3480156105c457600080fd5b506103756105d3366004613457565b6112fa565b3480156105e457600080fd5b506103486105f33660046135c1565b611381565b34801561060457600080fd5b506103976106133660046135d9565b611393565b34801561062457600080fd5b5061034861063336600461363f565b6113b0565b34801561064457600080fd5b506103486113c3565b61037561065b366004613714565b6113c9565b34801561066c57600080fd5b50610397611981565b34801561068157600080fd5b506103486106903660046134b7565b6119c7565b3480156106a157600080fd5b506106b56106b03660046135c1565b6119e4565b60405161030a9b9a99989796959493929190614192565b3480156106d857600080fd5b506103756106e7366004613608565b611a60565b3480156106f857600080fd5b5061037561070736600461341f565b611a8c565b34801561071857600080fd5b5061037561072736600461341f565b611aaf565b34801561073857600080fd5b5061037561074736600461341f565b611afe565b34801561075857600080fd5b5061037561076736600461341f565b611b4c565b34801561077857600080fd5b506103976107873660046135c1565b611c1e565b34801561079857600080fd5b506102fd611c33565b3480156107ad57600080fd5b506103486107bc3660046135c1565b611c60565b3480156107cd57600080fd5b506103976107dc3660046134b7565b611c72565b3480156107ed57600080fd5b506103756107fc36600461368b565b611c92565b34801561080d57600080fd5b5061039761081c36600461341f565b611d46565b61037561082f36600461363f565b611d5b565b34801561084057600080fd5b5061037561084f366004613660565b61255a565b34801561086057600080fd5b5061039761086f3660046134b7565b61257d565b34801561088057600080fd5b506102fd61259d565b34801561089557600080fd5b506102fd6125ce565b3480156108aa57600080fd5b506103756108b9366004613457565b6125dd565b3480156108ca57600080fd5b506103976108d936600461341f565b612689565b3480156108ea57600080fd5b506103756108f93660046135c1565b61269e565b76212829279d1d2ab734b9bbb0b82b192937baba32b9181960491b60005260346020527f19324f8c65b1b46568d99317ddc0b306a56091a5bb70f4078e3c3771d51311d95490565b6033546001600160a01b031681565b60446020526000908152604090205481565b60335433906001600160a01b0316811461099c5760405162461bcd60e51b815260040161099390613aa5565b60405180910390fd5b5076212829279d1d2ab734b9bbb0b82b192937baba32b9181960491b60005260346020526001600160a01b03167f19324f8c65b1b46568d99317ddc0b306a56091a5bb70f4078e3c3771d51311d955565b603b60209081526000928352604080842090915290825290205460ff1681565b6033546001600160a01b03163314610a2457600080fd5b610a2e82826129a6565b5050565b6f4250524f3a3a5478466565526174696f60801b60005260346020527fffbf84605eb52262a41c847c7791b7b6dd535e0b4316697de9753a2beb5d90c25490565b603e60209081526000928352604080842090915290825290205481565b3360008181526042602052604090205460ff16610abf5760405162461bcd60e51b815260040161099390613c87565b60005b8251811015610b0e5760416000848381518110610adb57fe5b6020908102919091018101516001600160a01b03168252810191909152604001600020805460ff19169055600101610ac2565b505050565b6e212829279d1d2ab9b23a2a37b5b2b760891b600052603460205260008051602061431d8339815191525490565b60355481908110610b645760405162461bcd60e51b815260040161099390613b06565b610b6c613319565b60358381548110610b7957fe5b600091825260208083206040805161016081018252600a9094029091018054845260018101546001600160a01b0390811685850181905260028301548216868501526003830154909116606086015260048201546080860152600582015460a0860152600682015460c0860152600782015460e086015260088201546101008087019190915260099092015460ff8082161515610120880152929004821615156101408601528552603c8352818520888652909252909220549092501615610c535760405162461bcd60e51b815260040161099390613c66565b6020808201516001600160a01b03166000908152603c825260408082208683528352808220805460ff191660011790556038909252205460a082015114610cb857428160e001511115610cb85760405162461bcd60e51b8152600401610993906140ab565b60008381526044602052604090205415610d3f5760608101516001600160a01b0316610cfb57600083815260446020526040902054610cf6906129cd565b610d3f565b610d03610b13565b6001600160a01b031681606001516001600160a01b03161415610d3f57610d3f610d2b610b13565b600085815260446020526040902054612a93565b6000838152603760205260409020546080820151038015610d8057610d8082602001518284604001516001600160a01b0316612b779092919063ffffffff16565b60008481526044602052604090819020549051339186917fd9cb1e2714d65a111c0f20f060176ad657496bd47a3de04ec7c3d4ca232112ac91610dc591869190614226565b60405180910390a350505050565b60335433906001600160a01b03168114610dff5760405162461bcd60e51b815260040161099390613aa5565b506001600160a01b03166000908152604260205260409020805460ff19166001179055565b6001600160a01b03811682186000908152603460205260409020545b92915050565b60366020526000908152604090205481565b60386020526000908152604090205481565b7f4250524f3a3a4d696e56616c75654f66426f74486f6c6465720000000000000060005260346020527f91e939d72bdb77b6a15376661a793418c7afd7afe8bca794c87800142364c7165490565b3360008181526042602052604090205460ff16610ee75760405162461bcd60e51b815260040161099390613c87565b60005b8251811015610f4757604060008581526020019081526020016000206000848381518110610f1457fe5b6020908102919091018101516001600160a01b03168252810191909152604001600020805460ff19169055600101610eea565b50505050565b60009081526034602052604090205490565b6033546001600160a01b0316331480610f8157506033546001600160a01b0316155b610f9d5760405162461bcd60e51b815260040161099390613aa5565b603380546001600160a01b038086166001600160a01b031992831617909255604380549285169290911691909117905560005b8151811015610ffd57610ff5828281518110610fe857fe5b6020026020010151610dd3565b600101610fd0565b50506034602052505066354a6ba7a180007fffbf84605eb52262a41c847c7791b7b6dd535e0b4316697de9753a2beb5d90c2556801a055690d9db800007f91e939d72bdb77b6a15376661a793418c7afd7afe8bca794c87800142364c7165560017fae3ef6dc6be491fdc64c3524c01babc365e4dcaa1549159461db57f654f3f6c555737a250d5630b4cf539739df2c5dacb4c659f2488d7f19324f8c65b1b46568d99317ddc0b306a56091a5bb70f4078e3c3771d51311d95573a9b1eb5908cfc3cdf91f9b8b3a7410859800909660008051602061433d83398151915281905560008051602061435d833981519152556e212829279d1d2ab9b23a2a37b5b2b760891b60005273dac17f958d2ee523a2206206994597c13d831ec760008051602061431d83398151915255565b60335433906001600160a01b031681146111575760405162461bcd60e51b815260040161099390613aa5565b50604380546001600160a01b0319166001600160a01b0392909216919091179055565b6033546001600160a01b0316331461119157600080fd5b6033546040516000916001600160a01b0316907fc7c0c772add429241571afb3805861fb3cfa2af374534088b76cdb4325a87e9a908390a3603380546001600160a01b0319169055565b3360008181526042602052604090205460ff1661120a5760405162461bcd60e51b815260040161099390613c87565b60005b8251811015610b0e5760016041600085848151811061122857fe5b6020908102919091018101516001600160a01b03168252810191909152604001600020805460ff191691151591909117905560010161120d565b3360008181526042602052604090205460ff166112915760405162461bcd60e51b815260040161099390613c87565b60005b8251811015610f475760016040600086815260200190815260200160002060008584815181106112c057fe5b6020908102919091018101516001600160a01b03168252810191909152604001600020805460ff1916911515919091179055600101611294565b611305838383610f5f565b5050603460205250735e26fa0fe067d28aae8aff2fb85ac2e693bd9efa60008051602061433d83398151915281905560008051602061435d833981519152556e212829279d1d2ab9b23a2a37b5b2b760891b60005273101194a3ff67f83a05b3e15afa52d45d588614ca60008051602061431d83398151915255565b60376020526000908152604090205481565b604060208181526000938452818420905290825290205460ff1681565b1860009081526034602052604090205490565b60355490565b3360008181526042602052604090205460ff166113f85760405162461bcd60e51b815260040161099390613c87565b603554606084015160408501516001600160a01b03908116911614156114305760405162461bcd60e51b815260040161099390613a37565b60808401516114515760405162461bcd60e51b815260040161099390613c38565b60a08401516114725760405162461bcd60e51b815260040161099390613c0a565b428460e0015110156114965760405162461bcd60e51b815260040161099390613cb0565b60c08401516114b75760405162461bcd60e51b815260040161099390613e0d565b610140840151156114d8576101408401516000828152603a60205260409020555b83610120015115611507576101208401516000828152603960205260409020805460ff19169115159190911790555b60408085015190516370a0823160e01b81526000906001600160a01b038316906370a082319061153b90309060040161390e565b60206040518083038186803b15801561155357600080fd5b505afa158015611567573d6000803e3d6000fd5b505050506040513d601f19601f8201168201806040525081019061158b9190613824565b90506115b58660200151308860800151856001600160a01b0316612bcd909392919063ffffffff16565b856080015161164082846001600160a01b03166370a08231306040518263ffffffff1660e01b81526004016115ea919061390e565b60206040518083038186803b15801561160257600080fd5b505afa158015611616573d6000803e3d6000fd5b505050506040513d601f19601f8201168201806040525081019061163a9190613824565b90612bee565b1461165d5760405162461bcd60e51b815260040161099390613f4a565b6116726001600160a01b038316306000612c37565b61167c8386611262565b611684613319565b865181526020808801516001600160a01b0390811691830191909152604080890151821690830152606080890151909116908201526080808801519082015260a0808801519082015260e08701805160c08084019190915288015190516116ea91612cfa565b60e08201908152610100888101518184019081526101608a0151151561012085019081526101808b0151151561014086019081526035805460018082018355600092835288517fcfa4bec1d3298408bb5afcfcd9c430549c5b31f8aa5c5848151c0a55f473c34d600a909302928301556020808a01517fcfa4bec1d3298408bb5afcfcd9c430549c5b31f8aa5c5848151c0a55f473c34e840180546001600160a01b03199081166001600160a01b03938416179091556040808d01517fcfa4bec1d3298408bb5afcfcd9c430549c5b31f8aa5c5848151c0a55f473c34f87018054841691851691909117905560608d01517fcfa4bec1d3298408bb5afcfcd9c430549c5b31f8aa5c5848151c0a55f473c350870180549093169084161790915560808c01517fcfa4bec1d3298408bb5afcfcd9c430549c5b31f8aa5c5848151c0a55f473c35186015560a08c01517fcfa4bec1d3298408bb5afcfcd9c430549c5b31f8aa5c5848151c0a55f473c35286015560c08c01517fcfa4bec1d3298408bb5afcfcd9c430549c5b31f8aa5c5848151c0a55f473c35386015599517fcfa4bec1d3298408bb5afcfcd9c430549c5b31f8aa5c5848151c0a55f473c35485015596517fcfa4bec1d3298408bb5afcfcd9c430549c5b31f8aa5c5848151c0a55f473c35584015594517fcfa4bec1d3298408bb5afcfcd9c430549c5b31f8aa5c5848151c0a55f473c3569092018054945160ff199586169315159390931761ff00191692151590970291909117909555828d01519093168352603b8252848320898452909152908390208054909116909117905551339085907ff4ee2f688bb22d4ff776a21ef09379402d5344fb14f8646f3b486b560ff67589906119709085906140e2565b60405180910390a350505050505050565b7204250524f3a3a456e61626c65556e695377617606c1b60005260346020527fae3ef6dc6be491fdc64c3524c01babc365e4dcaa1549159461db57f654f3f6c554151590565b603d60209081526000928352604080842090915290825290205481565b603581815481106119f157fe5b60009182526020909120600a909102018054600182015460028301546003840154600485015460058601546006870154600788015460088901546009909901549799506001600160a01b0396871698958716979490961695929491939092919060ff808216916101009004168b565b6033546001600160a01b03163314611a7757600080fd5b610b0e6001600160a01b0383168418826129a6565b6033546001600160a01b03163314611aa357600080fd5b611aac81612d1f565b50565b60335433906001600160a01b03168114611adb5760405162461bcd60e51b815260040161099390613aa5565b50603380546001600160a01b0319166001600160a01b0392909216919091179055565b60335433906001600160a01b03168114611b2a5760405162461bcd60e51b815260040161099390613aa5565b506001600160a01b03166000908152604260205260409020805460ff19169055565b600054610100900460ff1680611b655750611b65612d8e565b80611b73575060005460ff16155b611b8f5760405162461bcd60e51b815260040161099390613dbf565b600054610100900460ff16158015611bba576000805460ff1961ff0019909116610100171660011790555b603380546001600160a01b0319166001600160a01b0384811691909117918290556040519116906000907fc7c0c772add429241571afb3805861fb3cfa2af374534088b76cdb4325a87e9a908290a38015610a2e576000805461ff00191690555050565b60396020526000908152604090205460ff1681565b6d212829279d1d2137ba2a37b5b2b760911b600052603460205260008051602061433d8339815191525490565b603a6020526000908152604090205481565b603c60209081526000928352604080842090915290825290205460ff1681565b600033604051602001611ca5919061390e565b6040516020818303038152906040528051906020012090506000611cc882612d94565b9050611cd48184612dc4565b6043546001600160a01b03908116911614611d015760405162461bcd60e51b815260040161099390613a0c565b33600081815260416020526040808220805460ff19166001179055517f85396e6b136f05251a7bba22a3e7cdf6cbf3164ec85fa133d506a25c2008d4b59190a2505050565b60416020526000908152604090205460ff1681565b60355482908110611d7e5760405162461bcd60e51b815260040161099390613b06565b824260358281548110611d8d57fe5b90600052602060002090600a02016007015411611dbc5760405162461bcd60e51b815260040161099390613b9b565b600084815260396020526040902054849060ff1615611f1d57611ddd610e6a565b611de5611c33565b6001600160a01b03166370a08231336040518263ffffffff1660e01b8152600401611e10919061390e565b60206040518083038186803b158015611e2857600080fd5b505afa158015611e3c573d6000803e3d6000fd5b505050506040513d601f19601f82011682018060405250810190611e609190613824565b101580611f015750611e7b6064611e75610e6a565b90612ef2565b611e8361259d565b6001600160a01b03166370a08231336040518263ffffffff1660e01b8152600401611eae919061390e565b60206040518083038186803b158015611ec657600080fd5b505afa158015611eda573d6000803e3d6000fd5b505050506040513d601f19601f82011682018060405250810190611efe9190613824565b10155b611f1d5760405162461bcd60e51b815260040161099390613f13565b33611f26613319565b60358781548110611f3357fe5b60009182526020918290206040805161016081018252600a9093029091018054835260018101546001600160a01b039081169484019490945260028101548416918301919091526003810154909216606082015260048201546080820152600582015460a0820152600682015460c0820152600782015460e082015260088201546101008083019190915260099092015460ff808216158015610120850152939091041615156101408201529150612024576000878152604060208181528183206001600160a01b0386168452905290205460ff166120245760405162461bcd60e51b815260040161099390613d1a565b80610140015115612067576001600160a01b03821660009081526041602052604090205460ff166120675760405162461bcd60e51b815260040161099390613eb4565b428160c00151111561208b5760405162461bcd60e51b815260040161099390613e37565b60008781526038602052604090205460a0820151116120bc5760405162461bcd60e51b815260040161099390613d92565b60008781526038602052604081205460a083015182916120dc9190612bee565b9050878110156120f7576120f08882612bee565b91506120fa565b50865b60006121218460a0015161211b866080015185612ef290919063ffffffff16565b90612f2c565b60008b8152603760205260408120546080870151929350909161214391612bee565b9050818110156121745760648183031161216f5760405162461bcd60e51b815260040161099390613ff2565b612177565b50805b60008b8152603760205260409020546121909082612cfa565b60008c8152603760209081526040808320939093556038905220546121b59084612cfa565b60008c8152603860209081526040808320939093556001600160a01b0389168252603d81528282208e8352905220546121ee9082612cfa565b6001600160a01b0387166000908152603d602090815260408083208f8452825280832093909355603a90522054156122ca5760008b8152603a60209081526040808320546001600160a01b038a168452603e83528184208f8552909252909120546122599085612cfa565b11156122775760405162461bcd60e51b815260040161099390613e5e565b6001600160a01b0386166000908152603e602090815260408083208e84529091529020546122a59084612cfa565b6001600160a01b0387166000908152603e602090815260408083208f84529091529020555b60008b81526038602052604090205460a086015114156122f65760008b81526036602052604090204290555b60608501516001600160a01b031661232c578934146123275760405162461bcd60e51b815260040161099390613ee4565b612346565b6060850151612346906001600160a01b031687308d612bcd565b6101008501516123bd5780156123bd5760408501516001600160a01b03166123a4576040516001600160a01b0387169082156108fc029083906000818181858888f1935050505015801561239e573d6000803e3d6000fd5b506123bd565b60408501516123bd906001600160a01b03168783612b77565b831561242a5760608501516001600160a01b0316612411576040516001600160a01b0387169085156108fc029086906000818181858888f1935050505015801561240b573d6000803e3d6000fd5b5061242a565b606085015161242a906001600160a01b03168786612b77565b600061244a670de0b6b3a764000061211b612443610a32565b8790612ef2565b60008d8152604460205260409020549091506124669082612cfa565b60008d8152604460205260408120919091556124828583612bee565b905080156125055760608701516001600160a01b03166124df5786602001516001600160a01b03166108fc829081150290604051600060405180830381858888f193505050501580156124d9573d6000803e3d6000fd5b50612505565b61250587602001518289606001516001600160a01b0316612b779092919063ffffffff16565b876001600160a01b03168d7f4f3e4a24c8af698786b58691f56000795f97c98a676488342ba813d78872268985848660405161254393929190614270565b60405180910390a350505050505050505050505050565b6033546001600160a01b0316331461257157600080fd5b610b0e838318826129a6565b603f60209081526000928352604080842090915290825290205460ff1681565b71212829279d1d20bab1ba34b7b72a37b5b2b760711b600052603460205260008051602061435d8339815191525490565b6043546001600160a01b031681565b6125e8838383610f5f565b505060346020525060007fae3ef6dc6be491fdc64c3524c01babc365e4dcaa1549159461db57f654f3f6c5819055731188d953afc697c031851169eef640f23ac8529c60008051602061433d83398151915281905560008051602061435d833981519152556e212829279d1d2ab9b23a2a37b5b2b760891b90527355d398326f99059ff775485246999027b319795560008051602061431d83398151915255565b60426020526000908152604090205460ff1681565b603554819081106126c15760405162461bcd60e51b815260040161099390613b06565b6126c9613319565b603583815481106126d657fe5b600091825260208083206040805161016081018252600a9094029091018054845260018101546001600160a01b039081169385019390935260028101548316918401919091526003810154909116606083015260048101546080830152600581015460a0830152600681015460c0830152600781015460e083015260088101546101008084019190915260099091015460ff8082161515610120850152919004161515610140820152603580549193503392918690811061279357fe5b90600052602060002090600a020160080154116127c25760405162461bcd60e51b815260040161099390613fcb565b6001600160a01b0381166000908152603f6020908152604080832087845290915290205460ff16156128065760405162461bcd60e51b815260040161099390613c66565b600084815260366020526040902054158015906128425750610100820151600085815260366020526040902054429161283f9190612cfa565b11155b806128515750428260e0015111155b61286d5760405162461bcd60e51b815260040161099390613b3d565b6001600160a01b0381166000818152603f602090815260408083208884528252808320805460ff19166001179055928252603d815282822087835290522054156129505760408201516001600160a01b0316612918576001600160a01b0381166000908152603d60209081526040808320878452909152808220549051339282156108fc02929190818181858888f19350505050158015612912573d6000803e3d6000fd5b50612950565b6001600160a01b038082166000908152603d602090815260408083208884529091529081902054908401516129509216903390612b77565b6001600160a01b0381166000818152603d602090815260408083208884529091529081902054905186917fff29b281372993483c1ce6b621ae07832d519c2294e43340f051312701ad132a91610dc59190614189565b6000828152603460205260409020548114610a2e5760009182526034602052604090912055565b6129d5611981565b15611aac57600060606129e6612f6e565b905061dead60006129f9426104b0612cfa565b9050612a036108fe565b6001600160a01b0316637ff36ab586868686866040518663ffffffff1660e01b8152600401612a3594939291906141f1565b6000604051808303818588803b158015612a4e57600080fd5b505af1158015612a62573d6000803e3d6000fd5b50505050506040513d6000823e601f3d908101601f19168201604052612a8b9190810190613515565b505050505050565b612a9b611981565b15610a2e576000612aaa6108fe565b9050612ac06001600160a01b0384168284612c37565b60006060612acd85613069565b905061dead6000612ae0426104b0612cfa565b6040516338ed173960e01b81529091506001600160a01b038616906338ed173990612b179089908890889088908890600401614234565b600060405180830381600087803b158015612b3157600080fd5b505af1158015612b45573d6000803e3d6000fd5b505050506040513d6000823e601f3d908101601f19168201604052612b6d9190810190613515565b5050505050505050565b610b0e8363a9059cbb60e01b8484604051602401612b96929190613960565b60408051601f198184030181529190526020810180516001600160e01b03166001600160e01b031990931692909217909152613195565b610f47846323b872dd60e01b858585604051602401612b969392919061393c565b6000612c3083836040518060400160405280601e81526020017f536166654d6174683a207375627472616374696f6e206f766572666c6f77000081525061327a565b9392505050565b801580612cbf5750604051636eb1769f60e11b81526001600160a01b0384169063dd62ed3e90612c6d9030908690600401613922565b60206040518083038186803b158015612c8557600080fd5b505afa158015612c99573d6000803e3d6000fd5b505050506040513d601f19601f82011682018060405250810190612cbd9190613824565b155b612cdb5760405162461bcd60e51b81526004016109939061401e565b610b0e8363095ea7b360e01b8484604051602401612b96929190613960565b600082820183811015612c305760405162461bcd60e51b815260040161099390613acf565b6001600160a01b038116612d3257600080fd5b6033546040516001600160a01b038084169216907fc7c0c772add429241571afb3805861fb3cfa2af374534088b76cdb4325a87e9a90600090a3603380546001600160a01b0319166001600160a01b0392909216919091179055565b303b1590565b600081604051602001612da791906138dd565b604051602081830303815290604052805190602001209050919050565b60008151604114612de75760405162461bcd60e51b815260040161099390613a6e565b60208201516040830151606084015160001a7f7fffffffffffffffffffffffffffffff5d576e7357a4501ddfe92f46681b20a0821115612e395760405162461bcd60e51b815260040161099390613bc8565b8060ff16601b14158015612e5157508060ff16601c14155b15612e6e5760405162461bcd60e51b815260040161099390613cd8565b600060018783868660405160008152602001604052604051612e939493929190613984565b6020604051602081039080840390855afa158015612eb5573d6000803e3d6000fd5b5050604051601f1901519150506001600160a01b038116612ee85760405162461bcd60e51b8152600401610993906139d5565b9695505050505050565b600082612f0157506000610e40565b82820282848281612f0e57fe5b0414612c305760405162461bcd60e51b815260040161099390613d51565b6000612c3083836040518060400160405280601a81526020017f536166654d6174683a206469766973696f6e206279207a65726f0000000000008152506132a6565b604080516002808252606080830184529283929190602083019080368337019050509050612f9a6108fe565b6001600160a01b031663ad5c46486040518163ffffffff1660e01b815260040160206040518083038186803b158015612fd257600080fd5b505afa158015612fe6573d6000803e3d6000fd5b505050506040513d601f19601f8201168201806040525081019061300a919061343b565b8160008151811061301757fe5b60200260200101906001600160a01b031690816001600160a01b03168152505061303f611c33565b8160018151811061304c57fe5b6001600160a01b0390921660209283029190910190910152905090565b60408051600380825260808201909252606091829190602082018380368337019050509050828160008151811061309c57fe5b60200260200101906001600160a01b031690816001600160a01b0316815250506130c46108fe565b6001600160a01b031663ad5c46486040518163ffffffff1660e01b815260040160206040518083038186803b1580156130fc57600080fd5b505afa158015613110573d6000803e3d6000fd5b505050506040513d601f19601f82011682018060405250810190613134919061343b565b8160018151811061314157fe5b60200260200101906001600160a01b031690816001600160a01b031681525050613169611c33565b8160028151811061317657fe5b6001600160a01b03909216602092830291909101909101529050919050565b6131a7826001600160a01b03166132dd565b6131c35760405162461bcd60e51b815260040161099390614074565b60006060836001600160a01b0316836040516131df91906138c1565b6000604051808303816000865af19150503d806000811461321c576040519150601f19603f3d011682016040523d82523d6000602084013e613221565b606091505b5091509150816132435760405162461bcd60e51b815260040161099390613b66565b805115610f47578080602001905181019061325e91906135a5565b610f475760405162461bcd60e51b815260040161099390613f81565b6000818484111561329e5760405162461bcd60e51b815260040161099391906139a2565b505050900390565b600081836132c75760405162461bcd60e51b815260040161099391906139a2565b5060008385816132d357fe5b0495945050505050565b6000813f7fc5d2460186f7233c927e7db2dcc703c0e500b653ca82273b7bfad8045d85a47081811480159061331157508115155b949350505050565b6040518061016001604052806000815260200160006001600160a01b0316815260200160006001600160a01b0316815260200160006001600160a01b0316815260200160008152602001600081526020016000815260200160008152602001600081526020016000151581526020016000151581525090565b8035610e40816142f9565b600082601f8301126133ad578081fd5b81356133c06133bb826142ad565b614286565b8181529150602080830190848101818402860182018710156133e157600080fd5b60005b848110156134095781356133f7816142f9565b845292820192908201906001016133e4565b505050505092915050565b8035610e408161430e565b600060208284031215613430578081fd5b8135612c30816142f9565b60006020828403121561344c578081fd5b8151612c30816142f9565b60008060006060848603121561346b578182fd5b8335613476816142f9565b92506020840135613486816142f9565b9150604084013567ffffffffffffffff8111156134a1578182fd5b6134ad8682870161339d565b9150509250925092565b600080604083850312156134c9578182fd5b82356134d4816142f9565b946020939093013593505050565b6000602082840312156134f3578081fd5b813567ffffffffffffffff811115613509578182fd5b6133118482850161339d565b60006020808385031215613527578182fd5b825167ffffffffffffffff81111561353d578283fd5b8301601f8101851361354d578283fd5b805161355b6133bb826142ad565b8181528381019083850185840285018601891015613577578687fd5b8694505b8385101561359957805183526001949094019391850191850161357b565b50979650505050505050565b6000602082840312156135b6578081fd5b8151612c308161430e565b6000602082840312156135d2578081fd5b5035919050565b600080604083850312156135eb578182fd5b8235915060208301356135fd816142f9565b809150509250929050565b60008060006060848603121561361c578283fd5b83359250602084013561362e816142f9565b929592945050506040919091013590565b60008060408385031215613651578182fd5b50508035926020909101359150565b600080600060608486031215613674578081fd5b505081359360208301359350604090920135919050565b6000602080838503121561369d578182fd5b823567ffffffffffffffff808211156136b4578384fd5b818501915085601f8301126136c7578384fd5b8135818111156136d5578485fd5b6136e7601f8201601f19168501614286565b915080825286848285010111156136fc578485fd5b80848401858401378101909201929092529392505050565b6000808284036101c0811215613728578283fd5b6101a080821215613737578384fd5b61374081614286565b9150843582526137538660208701613392565b60208301526137658660408701613392565b60408301526137778660608701613392565b60608301526080850135608083015260a085013560a083015260c085013560c083015260e085013560e08301526101008086013581840152506101206137bf87828801613414565b9083015261014085810135908301526101606137dd87828801613414565b908301526101806137f087878301613414565b9083015290925083013567ffffffffffffffff81111561380e578182fd5b61381a8582860161339d565b9150509250929050565b600060208284031215613835578081fd5b5051919050565b6000806040838503121561384e578182fd5b82359150602083013567ffffffffffffffff81111561380e578182fd5b6001600160a01b03169052565b6000815180845260208085019450808401835b838110156138b05781516001600160a01b03168752958201959082019060010161388b565b509495945050505050565b15159052565b600082516138d38184602087016142cd565b9190910192915050565b7f19457468657265756d205369676e6564204d6573736167653a0a3332000000008152601c810191909152603c0190565b6001600160a01b0391909116815260200190565b6001600160a01b0392831681529116602082015260400190565b6001600160a01b039384168152919092166020820152604081019190915260600190565b6001600160a01b03929092168252602082015260400190565b901515815260200190565b93845260ff9290921660208401526040830152606082015260800190565b60006020825282518060208401526139c18160408501602087016142cd565b601f01601f19169190910160400192915050565b60208082526018908201527f45434453413a20696e76616c6964207369676e61747572650000000000000000604082015260600190565b602080825260119082015270696e76616c6964207369676e617475726560781b604082015260600190565b60208082526019908201527f746f6b656e3020616e6420746f6b656e312069732073616d6500000000000000604082015260600190565b6020808252601f908201527f45434453413a20696e76616c6964207369676e6174757265206c656e67746800604082015260600190565b60208082526010908201526f34b73b30b634b21033b7bb32b93737b960811b604082015260600190565b6020808252601b908201527f536166654d6174683a206164646974696f6e206f766572666c6f770000000000604082015260600190565b60208082526018908201527f7468697320706f6f6c20646f6573206e6f742065786973740000000000000000604082015260600190565b6020808252600f908201526e636c61696d206e6f7420726561647960881b604082015260600190565b6020808252818101527f5361666545524332303a206c6f772d6c6576656c2063616c6c206661696c6564604082015260600190565b6020808252601390820152721d1a1a5cc81c1bdbdb081a5cc818db1bdcd959606a1b604082015260600190565b60208082526022908201527f45434453413a20696e76616c6964207369676e6174757265202773272076616c604082015261756560f01b606082015260800190565b602080825260149082015273696e76616c696420616d6f756e74546f74616c3160601b604082015260600190565b6020808252601490820152730696e76616c696420616d6f756e74546f74616c360641b604082015260600190565b60208082526007908201526618db185a5b595960ca1b604082015260600190565b6020808252600f908201526e34b73b30b634b21031b932b0ba37b960891b604082015260600190565b6020808252600e908201526d1a5b9d985b1a59081bdc195b905d60921b604082015260600190565b60208082526022908201527f45434453413a20696e76616c6964207369676e6174757265202776272076616c604082015261756560f01b606082015260800190565b60208082526017908201527f73656e646572206e6f7420696e2077686974656c697374000000000000000000604082015260600190565b60208082526021908201527f536166654d6174683a206d756c7469706c69636174696f6e206f766572666c6f6040820152607760f81b606082015260800190565b6020808252601390820152727377617020616d6f756e74206973207a65726f60681b604082015260600190565b6020808252602e908201527f436f6e747261637420696e7374616e63652068617320616c726561647920626560408201526d195b881a5b9a5d1a585b1a5e995960921b606082015260800190565b60208082526010908201526f34b73b30b634b210323ab930ba34b7b760811b604082015260600190565b6020808252600d908201526c3837b7b6103737ba1037b832b760991b604082015260600190565b60208082526036908201527f7377617070656420616d6f756e74206f6620746f6b656e31206973206578636560408201527565646564206d6178696d756d20616c6c6f77616e636560501b606082015260800190565b6020808252601690820152751cd95b99195c881b9bdd081a5b8812d650c81b1a5cdd60521b604082015260600190565b6020808252601590820152740d2dcecc2d8d2c840c2dadeeadce840decc408aa89605b1b604082015260600190565b6020808252601c908201527f424f54206f722041756374696f6e206973206e6f7420656e6f75676800000000604082015260600190565b6020808252601e908201527f6e6f7420737570706f7274206465666c6174696f6e61727920746f6b656e0000604082015260600190565b6020808252602a908201527f5361666545524332303a204552433230206f7065726174696f6e20646964206e6040820152691bdd081cdd58d8d9595960b21b606082015260800190565b6020808252600d908201526c696e76616c696420636c61696d60981b604082015260600190565b602080825260129082015271616d6f756e743020697320746f6f2062696760701b604082015260600190565b60208082526036908201527f5361666545524332303a20617070726f76652066726f6d206e6f6e2d7a65726f60408201527520746f206e6f6e2d7a65726f20616c6c6f77616e636560501b606082015260800190565b6020808252601f908201527f5361666545524332303a2063616c6c20746f206e6f6e2d636f6e747261637400604082015260600190565b60208082526017908201527f7468697320706f6f6c206973206e6f7420636c6f736564000000000000000000604082015260600190565b815181526020808301516101608301916140fe9084018261386b565b506040830151614111604084018261386b565b506060830151614124606084018261386b565b506080830151608083015260a083015160a083015260c083015160c083015260e083015160e08301526101008084015181840152506101208084015161416c828501826138bb565b505061014080840151614181828501826138bb565b505092915050565b90815260200190565b9a8b526001600160a01b03998a1660208c015297891660408b0152959097166060890152608088019390935260a087019190915260c086015260e085015261010084019290925290151561012083015215156101408201526101600190565b60008582526080602083015261420a6080830186613878565b6001600160a01b03949094166040830152506060015292915050565b918252602082015260400190565b600086825285602083015260a0604083015261425360a0830186613878565b6001600160a01b0394909416606083015250608001529392505050565b9283526020830191909152604082015260600190565b60405181810167ffffffffffffffff811182821017156142a557600080fd5b604052919050565b600067ffffffffffffffff8211156142c3578081fd5b5060209081020190565b60005b838110156142e85781810151838201526020016142d0565b83811115610f475750506000910152565b6001600160a01b0381168114611aac57600080fd5b8015158114611aac57600080fdfe987768c886f6728f4ebd01f6af1eab0d8f3e5d66013852f90658dfd15e14d1ec327aca578c649dc79927fe59d303dc9cdadfadab7d9399d4580c7237822d13de4e09af084f2e46c759efb7671379ae75b3600967472cb81ee92d26dbd09cfb98a26469706673582212200347d45ada0ea817da8653ad23439d7483df0bb7ba2735a8d7cb721486e4b6bb64736f6c634300060c0033",
  "compiler": {
    "name": "solc",
    "version": "0.6.12+commit.27d51765.Emscripten.clang",
    "optimizer": {
      "enabled": true,
      "runs": 200
    },
    "evmVersion": "petersburg"
  }
}