{
  "fileName": "BouncePro.sol",
  "contractName": "BouncePro",
  "source": "// SPDX-License-Identifier: MIT\n\npragma solidity ^0.6.0;\npragma experimental ABIEncoderV2;\n\nimport \"@openzeppelin/contracts-ethereum-package/contracts/math/SafeMath.sol\";\nimport \"@openzeppelin/contracts-ethereum-package/contracts/token/ERC20/SafeERC20.sol\";\nimport \"@openzeppelin/contracts-ethereum-package/contracts/token/ERC20/IERC20.sol\";\nimport \"./Governable.sol\";\nimport \"./interfaces/IBounceStake.sol\";\n\ncontract BouncePro is Configurable {\n    using SafeMath for uint;\n    using SafeERC20 for IERC20;\n\n    bytes32 internal constant TxFeeRatio            = bytes32(\"BPRO::TxFeeRatio\");\n    bytes32 internal constant MinValueOfBotHolder   = bytes32(\"BPRO::MinValueOfBotHolder\");\n    bytes32 internal constant BotToken              = bytes32(\"BPRO::BotToken\");\n    bytes32 internal constant StakeContract         = bytes32(\"BPRO::StakeContract\");\n\n    struct CreateReq {\n        // beneficiary of the pool\n        address payable beneficiary;\n        // address of sell token\n        address token0;\n        // address of buy token\n        address token1;\n        // total amount of token0\n        uint amountTotal0;\n        // total amount of token1\n        uint amountTotal1;\n        // the duration in seconds the pool will be closed\n        uint duration;\n        // the timestamp in seconds the pool will open\n        uint openAt;\n        bool onlyBot;\n        uint maxEthPerWallet;\n    }\n\n    struct Pool {\n        address payable beneficiary;\n        // address of sell token\n        address token0;\n        // address of buy token\n        address token1;\n        // total amount of token0\n        uint amountTotal0;\n        // total amount of token1\n        uint amountTotal1;\n        // the timestamp in seconds the pool will open\n        uint openAt;\n        // the timestamp in seconds the pool will be closed\n        uint closeAt;\n    }\n\n    Pool[] public pools;\n    address public creator;\n\n    // pool index => swap amount of token0\n    mapping(uint => uint) public amountSwap0P;\n    // pool index => swap amount of token1\n    mapping(uint => uint) public amountSwap1P;\n    // account => fix pool index + 1. if the result is 0, the account don't create any pool.\n    mapping(address => uint) public myP;\n    // pool index => the swap pool only allow BOT holder to take part in\n    mapping(uint => bool) public onlyBotHolderP;\n    // pool index => maximum swap amount of ETH per wallet, if the value is not set, the default value is zero\n    mapping(uint => uint) public maxEthPerWalletP;\n    // address => pool index => swapped amount of token1\n    mapping(address => mapping(uint => uint)) public myAmountSwapped1;\n\n    bool public enableWhiteList;\n    // pool index => account => whether or not allow swap\n    mapping(uint => mapping(address => bool)) public whitelistP;\n\n    event Created(uint indexed index, address indexed sender, Pool pool);\n    event Swapped(uint indexed index, address indexed sender, uint amount0, uint amount1);\n    event Claimed(uint indexed index, address indexed sender, uint amount0);\n\n    function initialize(address _governor, address creator_) public {\n        require(msg.sender == governor || governor == address(0), \"invalid governor\");\n        governor = _governor;\n        creator = creator_;\n\n        config[TxFeeRatio] = 0.015 ether;\n        config[MinValueOfBotHolder] = 0.5 ether;\n\n        // mainnet\n        config[BotToken] = uint(0x5bEaBAEBB3146685Dd74176f68a0721F91297D37);\n        config[StakeContract] = uint(0x98945BC69A554F8b129b09aC8AfDc2cc2431c48E);\n    }\n\n    function initialize_rinkeby(address _governor, address creator_) public {\n        require(msg.sender == governor || governor == address(0), \"invalid governor\");\n        governor = _governor;\n        creator = creator_;\n\n        config[TxFeeRatio] = 0.015 ether;\n        config[MinValueOfBotHolder] = 0.5 ether;\n\n        // rinkeby\n        config[BotToken] = uint(0xAbF690E2EbC6690c4Fdc303fc3eE0FBFEb1818eD);\n        config[StakeContract] = uint(0xa77A9FcbA2Ae5599e0054369d1655D186020ECE1);\n    }\n\n    function create(CreateReq memory poolReq, address[] memory whitelist_) public payable\n        isPoolNotCreate(poolReq.beneficiary)\n    {\n        require(creator == msg.sender, \"invalid creator\");\n\n        uint index = pools.length;\n        require(poolReq.token0 != poolReq.token1, \"token0 and token1 is same\");\n        require(poolReq.amountTotal0 != 0, \"invalid amountTotal0\");\n        require(poolReq.amountTotal1 != 0, \"invalid amountTotal1\");\n        require(poolReq.openAt >= now, \"invalid openAt\");\n        require(poolReq.duration != 0, \"invalid duration\");\n\n        if (poolReq.maxEthPerWallet != 0) {\n            maxEthPerWalletP[index] = poolReq.maxEthPerWallet;\n        }\n        if (poolReq.onlyBot) {\n            onlyBotHolderP[index] = poolReq.onlyBot;\n        }\n\n        // transfer amount of token0 to this contract\n        IERC20  _token0 = IERC20(poolReq.token0);\n        uint token0BalanceBefore = _token0.balanceOf(address(this));\n        _token0.safeTransferFrom(poolReq.beneficiary, address(this), poolReq.amountTotal0);\n        require(\n            _token0.balanceOf(address(this)).sub(token0BalanceBefore) == poolReq.amountTotal0,\n            \"not support deflationary token\"\n        );\n        // reset allowance to 0\n        _token0.safeApprove(address(this), 0);\n\n        if (whitelist_.length > 0) {\n            enableWhiteList = true;\n            for (uint i = 0; i < whitelist_.length; i++) {\n                whitelistP[index][whitelist_[i]] = true;\n            }\n        }\n\n        Pool memory pool;\n        pool.beneficiary = poolReq.beneficiary;\n        pool.token0 = poolReq.token0;\n        pool.token1 = poolReq.token1;\n        pool.amountTotal0 = poolReq.amountTotal0;\n        pool.amountTotal1 = poolReq.amountTotal1;\n        pool.openAt = poolReq.openAt;\n        pool.closeAt = poolReq.openAt.add(poolReq.duration);\n        pools.push(pool);\n\n        myP[poolReq.beneficiary] = index + 1;\n\n        emit Created(index, msg.sender, pool);\n    }\n\n    function swap(uint index, uint amount1) external payable\n        isPoolExist(index)\n        isPoolNotClosed(index)\n        checkBotHolder(index)\n    {\n        address payable sender = msg.sender;\n        if (enableWhiteList) {\n            require(whitelistP[index][sender], \"sender not in whitelist\");\n        }\n        Pool memory pool = pools[index];\n        require(pool.openAt <= now, \"pool not open\");\n        require(amount1 != 0, \"the value of amount1 is zero\");\n        require(pool.amountTotal1 > amountSwap1P[index], \"swap amount is zero\");\n        // check if swapped amount of token1 is exceeded maximum allowance\n        if (maxEthPerWalletP[index] != 0) {\n            require(\n                myAmountSwapped1[sender][index].add(amount1) <= maxEthPerWalletP[index],\n                \"swapped amount of token1 is exceeded maximum allowance\"\n            );\n            myAmountSwapped1[sender][index] = myAmountSwapped1[sender][index].add(amount1);\n        }\n\n        // check if amount1 is exceeded\n        uint excessAmount1 = 0;\n        uint _amount1 = pool.amountTotal1.sub(amountSwap1P[index]);\n        if (_amount1 < amount1) {\n            excessAmount1 = amount1.sub(_amount1);\n        } else {\n            _amount1 = amount1;\n        }\n\n        // check if amount0 is exceeded\n        uint amount0 = _amount1.mul(pool.amountTotal0).div(pool.amountTotal1);\n        uint _amount0 = pool.amountTotal0.sub(amountSwap0P[index]);\n        if (_amount0 < amount0) {\n            require(amount0 - _amount0 > 100, \"amount0 is too big\");\n        } else {\n            _amount0 = amount0;\n        }\n\n        amountSwap0P[index] = amountSwap0P[index].add(_amount0);\n        amountSwap1P[index] = amountSwap1P[index].add(_amount1);\n\n        // transfer amount of token1 to this contract\n        if (pool.token1 == address(0)) {\n            require(msg.value == amount1, \"invalid amount of ETH\");\n        } else {\n            IERC20  _token1 = IERC20(pool.token1);\n            uint256 beforeBalance = _token1.balanceOf(address(this));\n            _token1.safeTransferFrom(sender, address(this), amount1);\n            _token1.safeApprove(address(this), 0);\n            uint256 afterBalance = _token1.balanceOf(address(this));\n            require(\n                afterBalance.sub(beforeBalance) == amount1,\n                \"the transferred amount of _token1 is not equal to amount1\"\n            );\n        }\n\n        if (_amount0 > 0) {\n            // send token0 to sender\n            if (pool.token0 == address(0)) {\n                sender.transfer(_amount0);\n            } else {\n                IERC20(pool.token0).safeTransfer(sender, _amount0);\n            }\n        }\n        if (excessAmount1 > 0) {\n            // send excess amount of token1 back to sender\n            if (pool.token1 == address(0)) {\n                sender.transfer(excessAmount1);\n            } else {\n                IERC20(pool.token1).safeTransfer(sender, excessAmount1);\n            }\n        }\n\n        // send token1 to beneficiary\n        if (pool.token1 == address(0)) {\n            uint256 txFee = _amount1.mul(getTxFeeRatio()).div(1 ether);\n            uint256 _actualAmount1 = _amount1.sub(txFee);\n            if (_actualAmount1 > 0) {\n                pool.beneficiary.transfer(_actualAmount1);\n            }\n            if (txFee > 0) {\n                // deposit transaction fee to staking contract\n                IBounceStake(getStakeContract()).depositReward{value: txFee}();\n            }\n        } else {\n            IERC20(pool.token1).safeTransfer(pool.beneficiary, _amount1);\n        }\n\n        emit Swapped(index, sender, _amount0, _amount1);\n    }\n\n    function claim() external payable {\n        address payable beneficiary = msg.sender;\n        require(myP[beneficiary] != 0, \"this pool is not owned by this address\");\n        uint index = myP[beneficiary] - 1;\n        Pool memory pool = pools[index];\n        require(index < pools.length, \"this pool does not exist\");\n        if (pool.amountTotal1 != amountSwap1P[index]) {\n            require(pool.closeAt <= now, \"this pool is not closed\");\n        }\n        // require(pool.amountTotal0 > amountSwap0P[index], \"the total amount of this pool is swapped\");\n\n        // remove ownership of this pool from Beneficiary\n        delete myP[beneficiary];\n\n        uint unSwapAmount0 = pool.amountTotal0 - amountSwap0P[index];\n        if (unSwapAmount0 > 0) {\n            IERC20(pool.token0).safeTransfer(beneficiary, unSwapAmount0);\n        }\n\n        emit Claimed(index, beneficiary, unSwapAmount0);\n    }\n\n    function transferGovernor(address _governor) external {\n        require(msg.sender == governor || governor == address(0), \"invalid governor\");\n        governor = _governor;\n    }\n\n    function setCreator(address creator_) external {\n        require(msg.sender == governor || governor == address(0), \"invalid governor\");\n        creator = creator_;\n    }\n\n    function getPoolCount() public view returns (uint) {\n        return pools.length;\n    }\n\n    function getTxFeeRatio() public view returns (uint) {\n        return config[TxFeeRatio];\n    }\n\n    function getMinValueOfBotHolder() public view returns (uint) {\n        return config[MinValueOfBotHolder];\n    }\n\n    function getBotToken() public view returns (address) {\n        return address(config[BotToken]);\n    }\n\n    function getStakeContract() public view returns (address) {\n        return address(config[StakeContract]);\n    }\n\n    modifier isPoolClosed(uint index) {\n        require(pools[index].closeAt <= now, \"this pool is not closed\");\n        _;\n    }\n\n    modifier isPoolNotClosed(uint index) {\n        require(pools[index].closeAt > now, \"this pool is closed\");\n        _;\n    }\n\n    modifier isPoolExist(uint index) {\n        require(index < pools.length, \"this pool does not exist\");\n        _;\n    }\n\n    modifier isPoolNotCreate(address target) {\n        // check if creator has a pool\n        if (myP[target] > 0) {\n            revert(\"a pool has created by this address\");\n        }\n        _;\n    }\n\n    modifier checkBotHolder(uint index) {\n        if (onlyBotHolderP[index]) {\n            require(IERC20(getBotToken()).balanceOf(msg.sender) >= getMinValueOfBotHolder(), \"BOT is not enough\");\n        }\n        _;\n    }\n}\n",
  "sourcePath": "contracts/BouncePro.sol",
  "abi": [
    {
      "anonymous": false,
      "inputs": [
        {
          "indexed": true,
          "internalType": "uint256",
          "name": "index",
          "type": "uint256"
        },
        {
          "indexed": true,
          "internalType": "address",
          "name": "sender",
          "type": "address"
        },
        {
          "indexed": false,
          "internalType": "uint256",
          "name": "amount0",
          "type": "uint256"
        }
      ],
      "name": "Claimed",
      "type": "event"
    },
    {
      "anonymous": false,
      "inputs": [
        {
          "indexed": true,
          "internalType": "uint256",
          "name": "index",
          "type": "uint256"
        },
        {
          "indexed": true,
          "internalType": "address",
          "name": "sender",
          "type": "address"
        },
        {
          "components": [
            {
              "internalType": "address payable",
              "name": "beneficiary",
              "type": "address"
            },
            {
              "internalType": "address",
              "name": "token0",
              "type": "address"
            },
            {
              "internalType": "address",
              "name": "token1",
              "type": "address"
            },
            {
              "internalType": "uint256",
              "name": "amountTotal0",
              "type": "uint256"
            },
            {
              "internalType": "uint256",
              "name": "amountTotal1",
              "type": "uint256"
            },
            {
              "internalType": "uint256",
              "name": "openAt",
              "type": "uint256"
            },
            {
              "internalType": "uint256",
              "name": "closeAt",
              "type": "uint256"
            }
          ],
          "indexed": false,
          "internalType": "struct BouncePro.Pool",
          "name": "pool",
          "type": "tuple"
        }
      ],
      "name": "Created",
      "type": "event"
    },
    {
      "anonymous": false,
      "inputs": [
        {
          "indexed": true,
          "internalType": "address",
          "name": "previousGovernor",
          "type": "address"
        },
        {
          "indexed": true,
          "internalType": "address",
          "name": "newGovernor",
          "type": "address"
        }
      ],
      "name": "GovernorshipTransferred",
      "type": "event"
    },
    {
      "anonymous": false,
      "inputs": [
        {
          "indexed": true,
          "internalType": "uint256",
          "name": "index",
          "type": "uint256"
        },
        {
          "indexed": true,
          "internalType": "address",
          "name": "sender",
          "type": "address"
        },
        {
          "indexed": false,
          "internalType": "uint256",
          "name": "amount0",
          "type": "uint256"
        },
        {
          "indexed": false,
          "internalType": "uint256",
          "name": "amount1",
          "type": "uint256"
        }
      ],
      "name": "Swapped",
      "type": "event"
    },
    {
      "inputs": [
        {
          "internalType": "uint256",
          "name": "",
          "type": "uint256"
        }
      ],
      "name": "amountSwap0P",
      "outputs": [
        {
          "internalType": "uint256",
          "name": "",
          "type": "uint256"
        }
      ],
      "stateMutability": "view",
      "type": "function"
    },
    {
      "inputs": [
        {
          "internalType": "uint256",
          "name": "",
          "type": "uint256"
        }
      ],
      "name": "amountSwap1P",
      "outputs": [
        {
          "internalType": "uint256",
          "name": "",
          "type": "uint256"
        }
      ],
      "stateMutability": "view",
      "type": "function"
    },
    {
      "inputs": [],
      "name": "claim",
      "outputs": [],
      "stateMutability": "payable",
      "type": "function"
    },
    {
      "inputs": [
        {
          "components": [
            {
              "internalType": "address payable",
              "name": "beneficiary",
              "type": "address"
            },
            {
              "internalType": "address",
              "name": "token0",
              "type": "address"
            },
            {
              "internalType": "address",
              "name": "token1",
              "type": "address"
            },
            {
              "internalType": "uint256",
              "name": "amountTotal0",
              "type": "uint256"
            },
            {
              "internalType": "uint256",
              "name": "amountTotal1",
              "type": "uint256"
            },
            {
              "internalType": "uint256",
              "name": "duration",
              "type": "uint256"
            },
            {
              "internalType": "uint256",
              "name": "openAt",
              "type": "uint256"
            },
            {
              "internalType": "bool",
              "name": "onlyBot",
              "type": "bool"
            },
            {
              "internalType": "uint256",
              "name": "maxEthPerWallet",
              "type": "uint256"
            }
          ],
          "internalType": "struct BouncePro.CreateReq",
          "name": "poolReq",
          "type": "tuple"
        },
        {
          "internalType": "address[]",
          "name": "whitelist_",
          "type": "address[]"
        }
      ],
      "name": "create",
      "outputs": [],
      "stateMutability": "payable",
      "type": "function"
    },
    {
      "inputs": [],
      "name": "creator",
      "outputs": [
        {
          "internalType": "address",
          "name": "",
          "type": "address"
        }
      ],
      "stateMutability": "view",
      "type": "function"
    },
    {
      "inputs": [],
      "name": "enableWhiteList",
      "outputs": [
        {
          "internalType": "bool",
          "name": "",
          "type": "bool"
        }
      ],
      "stateMutability": "view",
      "type": "function"
    },
    {
      "inputs": [],
      "name": "getBotToken",
      "outputs": [
        {
          "internalType": "address",
          "name": "",
          "type": "address"
        }
      ],
      "stateMutability": "view",
      "type": "function"
    },
    {
      "inputs": [
        {
          "internalType": "bytes32",
          "name": "key",
          "type": "bytes32"
        },
        {
          "internalType": "address",
          "name": "addr",
          "type": "address"
        }
      ],
      "name": "getConfig",
      "outputs": [
        {
          "internalType": "uint256",
          "name": "",
          "type": "uint256"
        }
      ],
      "stateMutability": "view",
      "type": "function"
    },
    {
      "inputs": [
        {
          "internalType": "bytes32",
          "name": "key",
          "type": "bytes32"
        }
      ],
      "name": "getConfig",
      "outputs": [
        {
          "internalType": "uint256",
          "name": "",
          "type": "uint256"
        }
      ],
      "stateMutability": "view",
      "type": "function"
    },
    {
      "inputs": [
        {
          "internalType": "bytes32",
          "name": "key",
          "type": "bytes32"
        },
        {
          "internalType": "uint256",
          "name": "index",
          "type": "uint256"
        }
      ],
      "name": "getConfig",
      "outputs": [
        {
          "internalType": "uint256",
          "name": "",
          "type": "uint256"
        }
      ],
      "stateMutability": "view",
      "type": "function"
    },
    {
      "inputs": [],
      "name": "getMinValueOfBotHolder",
      "outputs": [
        {
          "internalType": "uint256",
          "name": "",
          "type": "uint256"
        }
      ],
      "stateMutability": "view",
      "type": "function"
    },
    {
      "inputs": [],
      "name": "getPoolCount",
      "outputs": [
        {
          "internalType": "uint256",
          "name": "",
          "type": "uint256"
        }
      ],
      "stateMutability": "view",
      "type": "function"
    },
    {
      "inputs": [],
      "name": "getStakeContract",
      "outputs": [
        {
          "internalType": "address",
          "name": "",
          "type": "address"
        }
      ],
      "stateMutability": "view",
      "type": "function"
    },
    {
      "inputs": [],
      "name": "getTxFeeRatio",
      "outputs": [
        {
          "internalType": "uint256",
          "name": "",
          "type": "uint256"
        }
      ],
      "stateMutability": "view",
      "type": "function"
    },
    {
      "inputs": [],
      "name": "governor",
      "outputs": [
        {
          "internalType": "address",
          "name": "",
          "type": "address"
        }
      ],
      "stateMutability": "view",
      "type": "function"
    },
    {
      "inputs": [
        {
          "internalType": "address",
          "name": "_governor",
          "type": "address"
        },
        {
          "internalType": "address",
          "name": "creator_",
          "type": "address"
        }
      ],
      "name": "initialize",
      "outputs": [],
      "stateMutability": "nonpayable",
      "type": "function"
    },
    {
      "inputs": [
        {
          "internalType": "address",
          "name": "governor_",
          "type": "address"
        }
      ],
      "name": "initialize",
      "outputs": [],
      "stateMutability": "nonpayable",
      "type": "function"
    },
    {
      "inputs": [
        {
          "internalType": "address",
          "name": "_governor",
          "type": "address"
        },
        {
          "internalType": "address",
          "name": "creator_",
          "type": "address"
        }
      ],
      "name": "initialize_rinkeby",
      "outputs": [],
      "stateMutability": "nonpayable",
      "type": "function"
    },
    {
      "inputs": [
        {
          "internalType": "uint256",
          "name": "",
          "type": "uint256"
        }
      ],
      "name": "maxEthPerWalletP",
      "outputs": [
        {
          "internalType": "uint256",
          "name": "",
          "type": "uint256"
        }
      ],
      "stateMutability": "view",
      "type": "function"
    },
    {
      "inputs": [
        {
          "internalType": "address",
          "name": "",
          "type": "address"
        },
        {
          "internalType": "uint256",
          "name": "",
          "type": "uint256"
        }
      ],
      "name": "myAmountSwapped1",
      "outputs": [
        {
          "internalType": "uint256",
          "name": "",
          "type": "uint256"
        }
      ],
      "stateMutability": "view",
      "type": "function"
    },
    {
      "inputs": [
        {
          "internalType": "address",
          "name": "",
          "type": "address"
        }
      ],
      "name": "myP",
      "outputs": [
        {
          "internalType": "uint256",
          "name": "",
          "type": "uint256"
        }
      ],
      "stateMutability": "view",
      "type": "function"
    },
    {
      "inputs": [
        {
          "internalType": "uint256",
          "name": "",
          "type": "uint256"
        }
      ],
      "name": "onlyBotHolderP",
      "outputs": [
        {
          "internalType": "bool",
          "name": "",
          "type": "bool"
        }
      ],
      "stateMutability": "view",
      "type": "function"
    },
    {
      "inputs": [
        {
          "internalType": "uint256",
          "name": "",
          "type": "uint256"
        }
      ],
      "name": "pools",
      "outputs": [
        {
          "internalType": "address payable",
          "name": "beneficiary",
          "type": "address"
        },
        {
          "internalType": "address",
          "name": "token0",
          "type": "address"
        },
        {
          "internalType": "address",
          "name": "token1",
          "type": "address"
        },
        {
          "internalType": "uint256",
          "name": "amountTotal0",
          "type": "uint256"
        },
        {
          "internalType": "uint256",
          "name": "amountTotal1",
          "type": "uint256"
        },
        {
          "internalType": "uint256",
          "name": "openAt",
          "type": "uint256"
        },
        {
          "internalType": "uint256",
          "name": "closeAt",
          "type": "uint256"
        }
      ],
      "stateMutability": "view",
      "type": "function"
    },
    {
      "inputs": [],
      "name": "renounceGovernorship",
      "outputs": [],
      "stateMutability": "nonpayable",
      "type": "function"
    },
    {
      "inputs": [
        {
          "internalType": "bytes32",
          "name": "key",
          "type": "bytes32"
        },
        {
          "internalType": "uint256",
          "name": "value",
          "type": "uint256"
        }
      ],
      "name": "setConfig",
      "outputs": [],
      "stateMutability": "nonpayable",
      "type": "function"
    },
    {
      "inputs": [
        {
          "internalType": "bytes32",
          "name": "key",
          "type": "bytes32"
        },
        {
          "internalType": "address",
          "name": "addr",
          "type": "address"
        },
        {
          "internalType": "uint256",
          "name": "value",
          "type": "uint256"
        }
      ],
      "name": "setConfig",
      "outputs": [],
      "stateMutability": "nonpayable",
      "type": "function"
    },
    {
      "inputs": [
        {
          "internalType": "bytes32",
          "name": "key",
          "type": "bytes32"
        },
        {
          "internalType": "uint256",
          "name": "index",
          "type": "uint256"
        },
        {
          "internalType": "uint256",
          "name": "value",
          "type": "uint256"
        }
      ],
      "name": "setConfig",
      "outputs": [],
      "stateMutability": "nonpayable",
      "type": "function"
    },
    {
      "inputs": [
        {
          "internalType": "address",
          "name": "creator_",
          "type": "address"
        }
      ],
      "name": "setCreator",
      "outputs": [],
      "stateMutability": "nonpayable",
      "type": "function"
    },
    {
      "inputs": [
        {
          "internalType": "uint256",
          "name": "index",
          "type": "uint256"
        },
        {
          "internalType": "uint256",
          "name": "amount1",
          "type": "uint256"
        }
      ],
      "name": "swap",
      "outputs": [],
      "stateMutability": "payable",
      "type": "function"
    },
    {
      "inputs": [
        {
          "internalType": "address",
          "name": "_governor",
          "type": "address"
        }
      ],
      "name": "transferGovernor",
      "outputs": [],
      "stateMutability": "nonpayable",
      "type": "function"
    },
    {
      "inputs": [
        {
          "internalType": "address",
          "name": "newGovernor",
          "type": "address"
        }
      ],
      "name": "transferGovernorship",
      "outputs": [],
      "stateMutability": "nonpayable",
      "type": "function"
    },
    {
      "inputs": [
        {
          "internalType": "uint256",
          "name": "",
          "type": "uint256"
        },
        {
          "internalType": "address",
          "name": "",
          "type": "address"
        }
      ],
      "name": "whitelistP",
      "outputs": [
        {
          "internalType": "bool",
          "name": "",
          "type": "bool"
        }
      ],
      "stateMutability": "view",
      "type": "function"
    }
  ],
  "bytecode": "0x608060405234801561001057600080fd5b50612c7b806100206000396000f3fe6080604052600436106101e35760003560e01c80638d0929af11610102578063b8cc9ce611610095578063c92a46bb11610064578063c92a46bb14610530578063d96073cf14610550578063ddf2be3f14610563578063dfd29d9e14610583576101e3565b8063b8cc9ce6146104bb578063c4d66de8146104db578063c6472b12146104fb578063c7011b7b1461051b576101e3565b8063ac4afa38116100d1578063ac4afa3814610428578063b21544f31461045b578063b5ea58df1461047b578063b6aa515b1461049b576101e3565b80638d0929af146103b35780638ec872e3146103d35780638eec5d70146103f357806396290eec14610408576101e3565b80634e71d92d1161017a57806363cb6c421161014957806363cb6c42146103495780636dd5b69d1461035e57806381c0c2631461037e5780638cfbe9d514610393576101e3565b80634e71d92d146102df57806352665f47146102e7578063539b2ba414610307578063636b047514610329576101e3565b8063211f4191116101b6578063211f41911461026c5780633baac1541461028c5780633f5160181461029f578063485cc955146102bf576101e3565b806302d05d3f146101e85780630c340a241461021357806315fe96dc146102285780631bb2dd6c1461024a575b600080fd5b3480156101f457600080fd5b506101fd610598565b60405161020a9190612416565b60405180910390f35b34801561021f57600080fd5b506101fd6105a7565b34801561023457600080fd5b506102486102433660046122c3565b6105b6565b005b34801561025657600080fd5b5061025f6105db565b60405161020a9190612bb8565b34801561027857600080fd5b5061025f610287366004612209565b61061c565b61024861029a36600461230f565b610639565b3480156102ab57600080fd5b506102486102ba3660046121b5565b610bb6565b3480156102cb57600080fd5b506102486102da3660046121d1565b610c16565b610248610d64565b3480156102f357600080fd5b5061025f610302366004612268565b610f28565b34801561031357600080fd5b5061031c610f4a565b60405161020a91906124c2565b34801561033557600080fd5b5061025f610344366004612250565b610f53565b34801561035557600080fd5b5061025f610f65565b34801561036a57600080fd5b5061025f610379366004612250565b610fb3565b34801561038a57600080fd5b50610248610fc5565b34801561039f57600080fd5b5061025f6103ae366004612250565b611026565b3480156103bf57600080fd5b5061031c6103ce366004612268565b611038565b3480156103df57600080fd5b5061025f6103ee3660046122c3565b611058565b3480156103ff57600080fd5b5061025f61106b565b34801561041457600080fd5b506102486104233660046121d1565b611071565b34801561043457600080fd5b50610448610443366004612250565b6111bf565b60405161020a979695949392919061242a565b34801561046757600080fd5b5061024861047636600461228c565b611218565b34801561048757600080fd5b5061025f6104963660046121b5565b611249565b3480156104a757600080fd5b506102486104b63660046121b5565b61125b565b3480156104c757600080fd5b506102486104d63660046121b5565b61127e565b3480156104e757600080fd5b506102486104f63660046121b5565b6112de565b34801561050757600080fd5b5061031c610516366004612250565b6113b0565b34801561052757600080fd5b506101fd6113c5565b34801561053c57600080fd5b5061025f61054b366004612250565b611404565b61024861055e3660046122c3565b611416565b34801561056f57600080fd5b5061024861057e3660046122e4565b611c0d565b34801561058f57600080fd5b506101fd611c30565b6036546001600160a01b031681565b6033546001600160a01b031681565b6033546001600160a01b031633146105cd57600080fd5b6105d78282611c74565b5050565b6f4250524f3a3a5478466565526174696f60801b60005260346020527fffbf84605eb52262a41c847c7791b7b6dd535e0b4316697de9753a2beb5d90c25490565b603c60209081526000928352604080842090915290825290205481565b81516001600160a01b0381166000908152603960205260409020541561067a5760405162461bcd60e51b8152600401610671906125cf565b60405180910390fd5b6036546001600160a01b031633146106a45760405162461bcd60e51b815260040161067190612706565b603554604084015160208501516001600160a01b03908116911614156106dc5760405162461bcd60e51b815260040161067190612500565b60608401516106fd5760405162461bcd60e51b8152600401610671906126d8565b608084015161071e5760405162461bcd60e51b8152600401610671906126aa565b428460c0015110156107425760405162461bcd60e51b81526004016106719061275a565b60a08401516107635760405162461bcd60e51b8152600401610671906128bb565b61010084015115610784576101008401516000828152603b60205260409020555b8360e00151156107b15760e08401516000828152603a60205260409020805460ff19169115159190911790555b60208401516040516370a0823160e01b81526000906001600160a01b038316906370a08231906107e5903090600401612416565b60206040518083038186803b1580156107fd57600080fd5b505afa158015610811573d6000803e3d6000fd5b505050506040513d601f19601f8201168201806040525081019061083591906123e2565b86516060880151919250610856916001600160a01b03851691903090611c9b565b85606001516108e182846001600160a01b03166370a08231306040518263ffffffff1660e01b815260040161088b9190612416565b60206040518083038186803b1580156108a357600080fd5b505afa1580156108b7573d6000803e3d6000fd5b505050506040513d601f19601f820116820180604052508101906108db91906123e2565b90611cf9565b146108fe5760405162461bcd60e51b8152600401610671906129ee565b6109136001600160a01b038316306000611d42565b84511561098f57603d805460ff1916600117905560005b855181101561098d576000848152603e6020526040812087516001929089908590811061095357fe5b6020908102919091018101516001600160a01b03168252810191909152604001600020805460ff191691151591909117905560010161092a565b505b6109976120be565b86516001600160a01b03908116825260208089015182169083015260408089015190911690820152606080880151908201526080808801519082015260c08701805160a08084019190915288015190516109f091611e05565b60c082019081526035805460018082018355600092835284517fcfa4bec1d3298408bb5afcfcd9c430549c5b31f8aa5c5848151c0a55f473c34d600790930292830180546001600160a01b03199081166001600160a01b03938416179091556020808801517fcfa4bec1d3298408bb5afcfcd9c430549c5b31f8aa5c5848151c0a55f473c34e8601805484169185169190911790556040808901517fcfa4bec1d3298408bb5afcfcd9c430549c5b31f8aa5c5848151c0a55f473c34f870180549094169085161790925560608801517fcfa4bec1d3298408bb5afcfcd9c430549c5b31f8aa5c5848151c0a55f473c35086015560808801517fcfa4bec1d3298408bb5afcfcd9c430549c5b31f8aa5c5848151c0a55f473c35186015560a08801517fcfa4bec1d3298408bb5afcfcd9c430549c5b31f8aa5c5848151c0a55f473c35286015595517fcfa4bec1d3298408bb5afcfcd9c430549c5b31f8aa5c5848151c0a55f473c353909401939093558b5116835260399093529081902091860190915551339085907f7e160ee2217d089eb6c18e556cceb1df36859100c7901f8987056f90f6df169e90610ba5908590612b5f565b60405180910390a350505050505050565b6033546001600160a01b0316331480610bd857506033546001600160a01b0316155b610bf45760405162461bcd60e51b815260040161067190612537565b603680546001600160a01b0319166001600160a01b0392909216919091179055565b6033546001600160a01b0316331480610c3857506033546001600160a01b0316155b610c545760405162461bcd60e51b815260040161067190612537565b603380546001600160a01b039384166001600160a01b03199182161790915560368054929093169116179055603460205266354a6ba7a180007fffbf84605eb52262a41c847c7791b7b6dd535e0b4316697de9753a2beb5d90c2556706f05b59d3b200007f91e939d72bdb77b6a15376661a793418c7afd7afe8bca794c87800142364c71655735beabaebb3146685dd74176f68a0721f91297d377f327aca578c649dc79927fe59d303dc9cdadfadab7d9399d4580c7237822d13de557210941493ce8e94dd185ad950dbdb9d1c9858dd606a1b6000527398945bc69a554f8b129b09ac8afdc2cc2431c48e7faa56f7e443c3b6958893335d7a601ded3aa26adb5788a7d9faf2cc3447d8325d55565b33600081815260396020526040902054610d905760405162461bcd60e51b815260040161067190612782565b6001600160a01b03811660009081526039602052604090205460001901610db56120be565b60358281548110610dc257fe5b60009182526020918290206040805160e081018252600790930290910180546001600160a01b03908116845260018201548116948401949094526002810154909316908201526003820154606082015260048201546080820152600582015460a082015260069091015460c08201526035549091508210610e555760405162461bcd60e51b815260040161067190612611565b600082815260386020526040902054608082015114610e9257428160c001511115610e925760405162461bcd60e51b815260040161067190612b28565b6001600160a01b038316600090815260396020908152604080832083905584835260379091529020546060820151038015610ee0576020820151610ee0906001600160a01b03168583611e2a565b836001600160a01b0316837f4ec90e965519d92681267467f775ada5bd214aa92c0dc93d90a5e880ce9ed02683604051610f1a9190612bb8565b60405180910390a350505050565b6001600160a01b03811682186000908152603460205260409020545b92915050565b603d5460ff1681565b60386020526000908152604090205481565b7f4250524f3a3a4d696e56616c75654f66426f74486f6c6465720000000000000060005260346020527f91e939d72bdb77b6a15376661a793418c7afd7afe8bca794c87800142364c7165490565b60009081526034602052604090205490565b6033546001600160a01b03163314610fdc57600080fd5b6033546040516000916001600160a01b0316907fc7c0c772add429241571afb3805861fb3cfa2af374534088b76cdb4325a87e9a908390a3603380546001600160a01b0319169055565b60376020526000908152604090205481565b603e60209081526000928352604080842090915290825290205460ff1681565b1860009081526034602052604090205490565b60355490565b6033546001600160a01b031633148061109357506033546001600160a01b0316155b6110af5760405162461bcd60e51b815260040161067190612537565b603380546001600160a01b039384166001600160a01b03199182161790915560368054929093169116179055603460205266354a6ba7a180007fffbf84605eb52262a41c847c7791b7b6dd535e0b4316697de9753a2beb5d90c2556706f05b59d3b200007f91e939d72bdb77b6a15376661a793418c7afd7afe8bca794c87800142364c7165573abf690e2ebc6690c4fdc303fc3ee0fbfeb1818ed7f327aca578c649dc79927fe59d303dc9cdadfadab7d9399d4580c7237822d13de557210941493ce8e94dd185ad950dbdb9d1c9858dd606a1b60005273a77a9fcba2ae5599e0054369d1655d186020ece17faa56f7e443c3b6958893335d7a601ded3aa26adb5788a7d9faf2cc3447d8325d55565b603581815481106111cc57fe5b600091825260209091206007909102018054600182015460028301546003840154600485015460058601546006909601546001600160a01b039586169750938516959490921693909287565b6033546001600160a01b0316331461122f57600080fd5b6112446001600160a01b038316841882611c74565b505050565b60396020526000908152604090205481565b6033546001600160a01b0316331461127257600080fd5b61127b81611e49565b50565b6033546001600160a01b03163314806112a057506033546001600160a01b0316155b6112bc5760405162461bcd60e51b815260040161067190612537565b603380546001600160a01b0319166001600160a01b0392909216919091179055565b600054610100900460ff16806112f757506112f7611eb8565b80611305575060005460ff16155b6113215760405162461bcd60e51b81526004016106719061286d565b600054610100900460ff1615801561134c576000805460ff1961ff0019909116610100171660011790555b603380546001600160a01b0319166001600160a01b0384811691909117918290556040519116906000907fc7c0c772add429241571afb3805861fb3cfa2af374534088b76cdb4325a87e9a908290a380156105d7576000805461ff00191690555050565b603a6020526000908152604090205460ff1681565b6d212829279d1d2137ba2a37b5b2b760911b60005260346020527f327aca578c649dc79927fe59d303dc9cdadfadab7d9399d4580c7237822d13de5490565b603b6020526000908152604090205481565b603554829081106114395760405162461bcd60e51b815260040161067190612611565b82426035828154811061144857fe5b906000526020600020906007020160060154116114775760405162461bcd60e51b81526004016106719061267d565b6000848152603a6020526040902054849060ff161561153957611498610f65565b6114a06113c5565b6001600160a01b03166370a08231336040518263ffffffff1660e01b81526004016114cb9190612416565b60206040518083038186803b1580156114e357600080fd5b505afa1580156114f7573d6000803e3d6000fd5b505050506040513d601f19601f8201168201806040525081019061151b91906123e2565b10156115395760405162461bcd60e51b81526004016106719061272f565b603d54339060ff1615611588576000868152603e602090815260408083206001600160a01b038516845290915290205460ff166115885760405162461bcd60e51b8152600401610671906127c8565b6115906120be565b6035878154811061159d57fe5b60009182526020918290206040805160e081018252600790930290910180546001600160a01b03908116845260018201548116948401949094526002810154909316908201526003820154606082015260048201546080820152600582015460a0820181905260069092015460c0820152915042101561162f5760405162461bcd60e51b8152600401610671906128e5565b8561164c5760405162461bcd60e51b815260040161067190612561565b60008781526038602052604090205460808201511161167d5760405162461bcd60e51b815260040161067190612840565b6000878152603b60205260409020541561173b576000878152603b60209081526040808320546001600160a01b0386168452603c83528184208b8552909252909120546116ca9088611e05565b11156116e85760405162461bcd60e51b81526004016106719061290c565b6001600160a01b0382166000908152603c602090815260408083208a84529091529020546117169087611e05565b6001600160a01b0383166000908152603c602090815260408083208b84529091529020555b6000878152603860205260408120546080830151829161175b9190611cf9565b9050878110156117765761176f8882611cf9565b9150611779565b50865b60006117a0846080015161179a866060015185611ebe90919063ffffffff16565b90611ef8565b60008b815260376020526040812054606087015192935090916117c291611cf9565b9050818110156117f3576064818303116117ee5760405162461bcd60e51b815260040161067190612a6f565b6117f6565b50805b60008b81526037602052604090205461180f9082611e05565b60008c8152603760209081526040808320939093556038905220546118349084611e05565b60008c81526038602052604090819020919091558501516001600160a01b031661187c578934146118775760405162461bcd60e51b8152600401610671906129bf565b6119d9565b60408086015190516370a0823160e01b81526000906001600160a01b038316906370a08231906118b0903090600401612416565b60206040518083038186803b1580156118c857600080fd5b505afa1580156118dc573d6000803e3d6000fd5b505050506040513d601f19601f8201168201806040525081019061190091906123e2565b90506119176001600160a01b03831689308f611c9b565b61192c6001600160a01b038316306000611d42565b6040516370a0823160e01b81526000906001600160a01b038416906370a082319061195b903090600401612416565b60206040518083038186803b15801561197357600080fd5b505afa158015611987573d6000803e3d6000fd5b505050506040513d601f19601f820116820180604052508101906119ab91906123e2565b90508c6119b88284611cf9565b146119d55760405162461bcd60e51b815260040161067190612962565b5050505b8015611a465760208501516001600160a01b0316611a2d576040516001600160a01b0387169082156108fc029083906000818181858888f19350505050158015611a27573d6000803e3d6000fd5b50611a46565b6020850151611a46906001600160a01b03168783611e2a565b8315611ab35760408501516001600160a01b0316611a9a576040516001600160a01b0387169085156108fc029086906000818181858888f19350505050158015611a94573d6000803e3d6000fd5b50611ab3565b6040850151611ab3906001600160a01b03168786611e2a565b60408501516001600160a01b0316611b9f576000611ae5670de0b6b3a764000061179a611ade6105db565b8790611ebe565b90506000611af38583611cf9565b90508015611b365786516040516001600160a01b039091169082156108fc029083906000818181858888f19350505050158015611b34573d6000803e3d6000fd5b505b8115611b9857611b44611c30565b6001600160a01b0316635ec2dc8d836040518263ffffffff1660e01b81526004016000604051808303818588803b158015611b7e57600080fd5b505af1158015611b92573d6000803e3d6000fd5b50505050505b5050611bbc565b84516040860151611bbc916001600160a01b039091169085611e2a565b856001600160a01b03168b7fe5903af08592742a0f3632ef378be3612814d51c4169d376f3eff65dd798be6d8386604051611bf8929190612bc1565b60405180910390a35050505050505050505050565b6033546001600160a01b03163314611c2457600080fd5b61124483831882611c74565b7210941493ce8e94dd185ad950dbdb9d1c9858dd606a1b60005260346020527faa56f7e443c3b6958893335d7a601ded3aa26adb5788a7d9faf2cc3447d8325d5490565b60008281526034602052604090205481146105d75760009182526034602052604090912055565b611cf3846323b872dd60e01b858585604051602401611cbc93929190612485565b60408051601f198184030181529190526020810180516001600160e01b03166001600160e01b031990931692909217909152611f3a565b50505050565b6000611d3b83836040518060400160405280601e81526020017f536166654d6174683a207375627472616374696f6e206f766572666c6f77000081525061201f565b9392505050565b801580611dca5750604051636eb1769f60e11b81526001600160a01b0384169063dd62ed3e90611d78903090869060040161246b565b60206040518083038186803b158015611d9057600080fd5b505afa158015611da4573d6000803e3d6000fd5b505050506040513d601f19601f82011682018060405250810190611dc891906123e2565b155b611de65760405162461bcd60e51b815260040161067190612a9b565b6112448363095ea7b360e01b8484604051602401611cbc9291906124a9565b600082820183811015611d3b5760405162461bcd60e51b815260040161067190612598565b6112448363a9059cbb60e01b8484604051602401611cbc9291906124a9565b6001600160a01b038116611e5c57600080fd5b6033546040516001600160a01b038084169216907fc7c0c772add429241571afb3805861fb3cfa2af374534088b76cdb4325a87e9a90600090a3603380546001600160a01b0319166001600160a01b0392909216919091179055565b303b1590565b600082611ecd57506000610f44565b82820282848281611eda57fe5b0414611d3b5760405162461bcd60e51b8152600401610671906127ff565b6000611d3b83836040518060400160405280601a81526020017f536166654d6174683a206469766973696f6e206279207a65726f00000000000081525061204b565b611f4c826001600160a01b0316612082565b611f685760405162461bcd60e51b815260040161067190612af1565b60006060836001600160a01b031683604051611f8491906123fa565b6000604051808303816000865af19150503d8060008114611fc1576040519150601f19603f3d011682016040523d82523d6000602084013e611fc6565b606091505b509150915081611fe85760405162461bcd60e51b815260040161067190612648565b805115611cf357808060200190518101906120039190612234565b611cf35760405162461bcd60e51b815260040161067190612a25565b600081848411156120435760405162461bcd60e51b815260040161067191906124cd565b505050900390565b6000818361206c5760405162461bcd60e51b815260040161067191906124cd565b50600083858161207857fe5b0495945050505050565b6000813f7fc5d2460186f7233c927e7db2dcc703c0e500b653ca82273b7bfad8045d85a4708181148015906120b657508115155b949350505050565b6040518060e0016040528060006001600160a01b0316815260200160006001600160a01b0316815260200160006001600160a01b03168152602001600081526020016000815260200160008152602001600081525090565b8035610f4481612c22565b600082601f830112612131578081fd5b813567ffffffffffffffff811115612147578182fd5b6020808202612157828201612bcf565b8381529350818401858301828701840188101561217357600080fd5b600092505b8483101561219f57803561218b81612c22565b825260019290920191908301908301612178565b505050505092915050565b8035610f4481612c37565b6000602082840312156121c6578081fd5b8135611d3b81612c22565b600080604083850312156121e3578081fd5b82356121ee81612c22565b915060208301356121fe81612c22565b809150509250929050565b6000806040838503121561221b578182fd5b823561222681612c22565b946020939093013593505050565b600060208284031215612245578081fd5b8151611d3b81612c37565b600060208284031215612261578081fd5b5035919050565b6000806040838503121561227a578182fd5b8235915060208301356121fe81612c22565b6000806000606084860312156122a0578081fd5b8335925060208401356122b281612c22565b929592945050506040919091013590565b600080604083850312156122d5578182fd5b50508035926020909101359150565b6000806000606084860312156122f8578283fd5b505081359360208301359350604090920135919050565b600080828403610140811215612323578283fd5b61012080821215612332578384fd5b61233b81612bcf565b91506123478686612116565b82526123568660208701612116565b60208301526123688660408701612116565b6040830152606085013560608301526080850135608083015260a085013560a083015260c085013560c08301526123a28660e087016121aa565b60e0830152610100858101359083015290925083013567ffffffffffffffff8111156123cc578182fd5b6123d885828601612121565b9150509250929050565b6000602082840312156123f3578081fd5b5051919050565b6000825161240c818460208701612bf6565b9190910192915050565b6001600160a01b0391909116815260200190565b6001600160a01b03978816815295871660208701529390951660408501526060840191909152608083015260a082019290925260c081019190915260e00190565b6001600160a01b0392831681529116602082015260400190565b6001600160a01b039384168152919092166020820152604081019190915260600190565b6001600160a01b03929092168252602082015260400190565b901515815260200190565b60006020825282518060208401526124ec816040850160208701612bf6565b601f01601f19169190910160400192915050565b60208082526019908201527f746f6b656e3020616e6420746f6b656e312069732073616d6500000000000000604082015260600190565b60208082526010908201526f34b73b30b634b21033b7bb32b93737b960811b604082015260600190565b6020808252601c908201527f7468652076616c7565206f6620616d6f756e7431206973207a65726f00000000604082015260600190565b6020808252601b908201527f536166654d6174683a206164646974696f6e206f766572666c6f770000000000604082015260600190565b60208082526022908201527f6120706f6f6c2068617320637265617465642062792074686973206164647265604082015261737360f01b606082015260800190565b60208082526018908201527f7468697320706f6f6c20646f6573206e6f742065786973740000000000000000604082015260600190565b6020808252818101527f5361666545524332303a206c6f772d6c6576656c2063616c6c206661696c6564604082015260600190565b6020808252601390820152721d1a1a5cc81c1bdbdb081a5cc818db1bdcd959606a1b604082015260600190565b602080825260149082015273696e76616c696420616d6f756e74546f74616c3160601b604082015260600190565b6020808252601490820152730696e76616c696420616d6f756e74546f74616c360641b604082015260600190565b6020808252600f908201526e34b73b30b634b21031b932b0ba37b960891b604082015260600190565b6020808252601190820152700849ea840d2e640dcdee840cadcdeeaced607b1b604082015260600190565b6020808252600e908201526d1a5b9d985b1a59081bdc195b905d60921b604082015260600190565b60208082526026908201527f7468697320706f6f6c206973206e6f74206f776e65642062792074686973206160408201526564647265737360d01b606082015260800190565b60208082526017908201527f73656e646572206e6f7420696e2077686974656c697374000000000000000000604082015260600190565b60208082526021908201527f536166654d6174683a206d756c7469706c69636174696f6e206f766572666c6f6040820152607760f81b606082015260800190565b6020808252601390820152727377617020616d6f756e74206973207a65726f60681b604082015260600190565b6020808252602e908201527f436f6e747261637420696e7374616e63652068617320616c726561647920626560408201526d195b881a5b9a5d1a585b1a5e995960921b606082015260800190565b60208082526010908201526f34b73b30b634b210323ab930ba34b7b760811b604082015260600190565b6020808252600d908201526c3837b7b6103737ba1037b832b760991b604082015260600190565b60208082526036908201527f7377617070656420616d6f756e74206f6620746f6b656e31206973206578636560408201527565646564206d6178696d756d20616c6c6f77616e636560501b606082015260800190565b60208082526039908201527f746865207472616e7366657272656420616d6f756e74206f66205f746f6b656e60408201527f31206973206e6f7420657175616c20746f20616d6f756e743100000000000000606082015260800190565b6020808252601590820152740d2dcecc2d8d2c840c2dadeeadce840decc408aa89605b1b604082015260600190565b6020808252601e908201527f6e6f7420737570706f7274206465666c6174696f6e61727920746f6b656e0000604082015260600190565b6020808252602a908201527f5361666545524332303a204552433230206f7065726174696f6e20646964206e6040820152691bdd081cdd58d8d9595960b21b606082015260800190565b602080825260129082015271616d6f756e743020697320746f6f2062696760701b604082015260600190565b60208082526036908201527f5361666545524332303a20617070726f76652066726f6d206e6f6e2d7a65726f60408201527520746f206e6f6e2d7a65726f20616c6c6f77616e636560501b606082015260800190565b6020808252601f908201527f5361666545524332303a2063616c6c20746f206e6f6e2d636f6e747261637400604082015260600190565b60208082526017908201527f7468697320706f6f6c206973206e6f7420636c6f736564000000000000000000604082015260600190565b81516001600160a01b03908116825260208084015182169083015260408084015190911690820152606080830151908201526080808301519082015260a0828101519082015260c0918201519181019190915260e00190565b90815260200190565b918252602082015260400190565b60405181810167ffffffffffffffff81118282101715612bee57600080fd5b604052919050565b60005b83811015612c11578181015183820152602001612bf9565b83811115611cf35750506000910152565b6001600160a01b038116811461127b57600080fd5b801515811461127b57600080fdfea2646970667358221220ebb8d23017784b8a1bbc7b7763f9f7335061f4369402be09405235fe79695e9c64736f6c634300060c0033",
  "compiler": {
    "name": "solc",
    "version": "0.6.12+commit.27d51765.Emscripten.clang",
    "optimizer": {
      "enabled": true,
      "runs": 200
    },
    "evmVersion": "petersburg"
  }
}