{
  "fileName": "BounceProVoting.sol",
  "contractName": "BounceProVoting",
  "source": "// SPDX-License-Identifier: MIT\n\npragma solidity ^0.6.0;\npragma experimental ABIEncoderV2;\n\nimport \"@openzeppelin/contracts-ethereum-package/contracts/math/SafeMath.sol\";\nimport \"@openzeppelin/contracts-ethereum-package/contracts/token/ERC20/SafeERC20.sol\";\nimport \"@openzeppelin/contracts-ethereum-package/contracts/token/ERC20/IERC20.sol\";\nimport \"./Governable.sol\";\n\ncontract BounceProVoting is Configurable {\n    using SafeMath for uint;\n    using SafeERC20 for IERC20;\n\n    bytes32 internal constant BotToken              = bytes32(\"BPV::BotToken\");\n    bytes32 internal constant CreationFee           = bytes32(\"BPV::CreationFee\");\n    bytes32 internal constant VotePassThreshold     = bytes32(\"BPV::VotePassThreshold\");\n    bytes32 internal constant MaxVotePeriod         = bytes32(\"BPV::MaxVotePeriod\");\n    address internal constant DeadAddress           = 0x000000000000000000000000000000000000dEaD;\n\n    struct Pool {\n        uint projectId;\n        // address of pool creator\n        address payable creator;\n        // the timestamp in seconds the pool will be closed\n        uint closeAt;\n    }\n\n    Pool[] public pools;\n\n    // address => pool index => amount of votes\n    mapping(address => mapping(uint => uint)) public myVotes;\n    // address => pool index => true: claim, false: not claim\n    mapping(address => mapping(uint => bool)) public myVotesClaimed;\n    /// pool index => amount of total votes\n    mapping(uint => uint) public totalVotes;\n    // pool index => true: vote pass, false: vote not pass\n    mapping(uint => bool) public votePassed;\n\n    event Created(uint indexed index, address indexed sender, Pool pool);\n    event Voted(uint indexed index, address indexed sender, uint amount);\n    event Claimed(uint indexed index, address indexed sender, uint amount);\n    event VoteHasPassed(uint indexed index);\n\n    function initialize(address _governor) public override {\n        require(msg.sender == governor || governor == address(0), \"invalid governor\");\n        governor = _governor;\n\n        config[CreationFee] = 0.3 ether;\n        config[VotePassThreshold] = 300 ether;\n        config[MaxVotePeriod] = 7 days;\n\n        // mainnet\n        config[BotToken] = uint(0x5bEaBAEBB3146685Dd74176f68a0721F91297D37);\n    }\n\n    function initialize_rinkeby(address _governor) public {\n        require(msg.sender == governor || governor == address(0), \"invalid governor\");\n        governor = _governor;\n\n        config[CreationFee] = 0.3 ether;\n        config[VotePassThreshold] = 300 ether;\n        config[MaxVotePeriod] = 7 days;\n\n        // rinkeby\n        config[BotToken] = uint(0xAbF690E2EbC6690c4Fdc303fc3eE0FBFEb1818eD);\n    }\n\n    function create(uint projectId) public {\n        IERC20(getBotToken()).safeTransferFrom(msg.sender, DeadAddress, getCreationFee());\n\n        uint index = pools.length;\n        Pool memory pool;\n        pool.projectId = projectId;\n        pool.creator = msg.sender;\n        pool.closeAt = now.add(getMaxVotePeriod());\n        pools.push(pool);\n\n        emit Created(index, msg.sender, pool);\n    }\n\n    function vote(uint index, uint amount) external\n        isPoolExist(index)\n        isPoolNotClosed(index)\n    {\n        require(!votePassed[index], \"vote passed\");\n        IERC20(getBotToken()).safeTransferFrom(msg.sender, address(this), amount);\n        myVotes[msg.sender][index] = myVotes[msg.sender][index].add(amount);\n        totalVotes[index] = totalVotes[index].add(amount);\n\n        if (totalVotes[index] >= getVotePassThreshold()) {\n            votePassed[index] = true;\n            emit VoteHasPassed(index);\n        }\n\n        emit Voted(index, msg.sender, amount);\n    }\n\n    function claim(uint index) external\n        isPoolExist(index)\n        isPoolClosed(index)\n    {\n        require(!myVotesClaimed[msg.sender][index], \"claimed\");\n        myVotesClaimed[msg.sender][index] = true;\n        IERC20(getBotToken()).safeTransfer(msg.sender, myVotes[msg.sender][index]);\n        emit Claimed(index, msg.sender, myVotes[msg.sender][index]);\n    }\n\n    function transferGovernor(address _governor) external {\n        require(msg.sender == governor || governor == address(0), \"invalid governor\");\n        governor = _governor;\n    }\n\n    function getPoolCount() public view returns (uint) {\n        return pools.length;\n    }\n\n    function getBotToken() public view returns (address) {\n        return address(config[BotToken]);\n    }\n\n    function getCreationFee() public view returns (uint) {\n        return config[CreationFee];\n    }\n\n    function getVotePassThreshold() public view returns (uint) {\n        return config[VotePassThreshold];\n    }\n\n    function getMaxVotePeriod() public view returns (uint) {\n        return config[MaxVotePeriod];\n    }\n\n    modifier isPoolClosed(uint index) {\n        require(pools[index].closeAt <= now || votePassed[index], \"this pool is not closed\");\n        _;\n    }\n\n    modifier isPoolNotClosed(uint index) {\n        require(pools[index].closeAt > now, \"this pool is closed\");\n        _;\n    }\n\n    modifier isPoolExist(uint index) {\n        require(index < pools.length, \"this pool does not exist\");\n        _;\n    }\n}\n",
  "sourcePath": "contracts/BounceProVoting.sol",
  "abi": [
    {
      "anonymous": false,
      "inputs": [
        {
          "indexed": true,
          "internalType": "uint256",
          "name": "index",
          "type": "uint256"
        },
        {
          "indexed": true,
          "internalType": "address",
          "name": "sender",
          "type": "address"
        },
        {
          "indexed": false,
          "internalType": "uint256",
          "name": "amount",
          "type": "uint256"
        }
      ],
      "name": "Claimed",
      "type": "event"
    },
    {
      "anonymous": false,
      "inputs": [
        {
          "indexed": true,
          "internalType": "uint256",
          "name": "index",
          "type": "uint256"
        },
        {
          "indexed": true,
          "internalType": "address",
          "name": "sender",
          "type": "address"
        },
        {
          "components": [
            {
              "internalType": "uint256",
              "name": "projectId",
              "type": "uint256"
            },
            {
              "internalType": "address payable",
              "name": "creator",
              "type": "address"
            },
            {
              "internalType": "uint256",
              "name": "closeAt",
              "type": "uint256"
            }
          ],
          "indexed": false,
          "internalType": "struct BounceProVoting.Pool",
          "name": "pool",
          "type": "tuple"
        }
      ],
      "name": "Created",
      "type": "event"
    },
    {
      "anonymous": false,
      "inputs": [
        {
          "indexed": true,
          "internalType": "address",
          "name": "previousGovernor",
          "type": "address"
        },
        {
          "indexed": true,
          "internalType": "address",
          "name": "newGovernor",
          "type": "address"
        }
      ],
      "name": "GovernorshipTransferred",
      "type": "event"
    },
    {
      "anonymous": false,
      "inputs": [
        {
          "indexed": true,
          "internalType": "uint256",
          "name": "index",
          "type": "uint256"
        }
      ],
      "name": "VoteHasPassed",
      "type": "event"
    },
    {
      "anonymous": false,
      "inputs": [
        {
          "indexed": true,
          "internalType": "uint256",
          "name": "index",
          "type": "uint256"
        },
        {
          "indexed": true,
          "internalType": "address",
          "name": "sender",
          "type": "address"
        },
        {
          "indexed": false,
          "internalType": "uint256",
          "name": "amount",
          "type": "uint256"
        }
      ],
      "name": "Voted",
      "type": "event"
    },
    {
      "inputs": [
        {
          "internalType": "uint256",
          "name": "index",
          "type": "uint256"
        }
      ],
      "name": "claim",
      "outputs": [],
      "stateMutability": "nonpayable",
      "type": "function"
    },
    {
      "inputs": [
        {
          "internalType": "uint256",
          "name": "projectId",
          "type": "uint256"
        }
      ],
      "name": "create",
      "outputs": [],
      "stateMutability": "nonpayable",
      "type": "function"
    },
    {
      "inputs": [],
      "name": "getBotToken",
      "outputs": [
        {
          "internalType": "address",
          "name": "",
          "type": "address"
        }
      ],
      "stateMutability": "view",
      "type": "function"
    },
    {
      "inputs": [
        {
          "internalType": "bytes32",
          "name": "key",
          "type": "bytes32"
        },
        {
          "internalType": "address",
          "name": "addr",
          "type": "address"
        }
      ],
      "name": "getConfig",
      "outputs": [
        {
          "internalType": "uint256",
          "name": "",
          "type": "uint256"
        }
      ],
      "stateMutability": "view",
      "type": "function"
    },
    {
      "inputs": [
        {
          "internalType": "bytes32",
          "name": "key",
          "type": "bytes32"
        }
      ],
      "name": "getConfig",
      "outputs": [
        {
          "internalType": "uint256",
          "name": "",
          "type": "uint256"
        }
      ],
      "stateMutability": "view",
      "type": "function"
    },
    {
      "inputs": [
        {
          "internalType": "bytes32",
          "name": "key",
          "type": "bytes32"
        },
        {
          "internalType": "uint256",
          "name": "index",
          "type": "uint256"
        }
      ],
      "name": "getConfig",
      "outputs": [
        {
          "internalType": "uint256",
          "name": "",
          "type": "uint256"
        }
      ],
      "stateMutability": "view",
      "type": "function"
    },
    {
      "inputs": [],
      "name": "getCreationFee",
      "outputs": [
        {
          "internalType": "uint256",
          "name": "",
          "type": "uint256"
        }
      ],
      "stateMutability": "view",
      "type": "function"
    },
    {
      "inputs": [],
      "name": "getMaxVotePeriod",
      "outputs": [
        {
          "internalType": "uint256",
          "name": "",
          "type": "uint256"
        }
      ],
      "stateMutability": "view",
      "type": "function"
    },
    {
      "inputs": [],
      "name": "getPoolCount",
      "outputs": [
        {
          "internalType": "uint256",
          "name": "",
          "type": "uint256"
        }
      ],
      "stateMutability": "view",
      "type": "function"
    },
    {
      "inputs": [],
      "name": "getVotePassThreshold",
      "outputs": [
        {
          "internalType": "uint256",
          "name": "",
          "type": "uint256"
        }
      ],
      "stateMutability": "view",
      "type": "function"
    },
    {
      "inputs": [],
      "name": "governor",
      "outputs": [
        {
          "internalType": "address",
          "name": "",
          "type": "address"
        }
      ],
      "stateMutability": "view",
      "type": "function"
    },
    {
      "inputs": [
        {
          "internalType": "address",
          "name": "_governor",
          "type": "address"
        }
      ],
      "name": "initialize",
      "outputs": [],
      "stateMutability": "nonpayable",
      "type": "function"
    },
    {
      "inputs": [
        {
          "internalType": "address",
          "name": "_governor",
          "type": "address"
        }
      ],
      "name": "initialize_rinkeby",
      "outputs": [],
      "stateMutability": "nonpayable",
      "type": "function"
    },
    {
      "inputs": [
        {
          "internalType": "address",
          "name": "",
          "type": "address"
        },
        {
          "internalType": "uint256",
          "name": "",
          "type": "uint256"
        }
      ],
      "name": "myVotes",
      "outputs": [
        {
          "internalType": "uint256",
          "name": "",
          "type": "uint256"
        }
      ],
      "stateMutability": "view",
      "type": "function"
    },
    {
      "inputs": [
        {
          "internalType": "address",
          "name": "",
          "type": "address"
        },
        {
          "internalType": "uint256",
          "name": "",
          "type": "uint256"
        }
      ],
      "name": "myVotesClaimed",
      "outputs": [
        {
          "internalType": "bool",
          "name": "",
          "type": "bool"
        }
      ],
      "stateMutability": "view",
      "type": "function"
    },
    {
      "inputs": [
        {
          "internalType": "uint256",
          "name": "",
          "type": "uint256"
        }
      ],
      "name": "pools",
      "outputs": [
        {
          "internalType": "uint256",
          "name": "projectId",
          "type": "uint256"
        },
        {
          "internalType": "address payable",
          "name": "creator",
          "type": "address"
        },
        {
          "internalType": "uint256",
          "name": "closeAt",
          "type": "uint256"
        }
      ],
      "stateMutability": "view",
      "type": "function"
    },
    {
      "inputs": [],
      "name": "renounceGovernorship",
      "outputs": [],
      "stateMutability": "nonpayable",
      "type": "function"
    },
    {
      "inputs": [
        {
          "internalType": "bytes32",
          "name": "key",
          "type": "bytes32"
        },
        {
          "internalType": "uint256",
          "name": "value",
          "type": "uint256"
        }
      ],
      "name": "setConfig",
      "outputs": [],
      "stateMutability": "nonpayable",
      "type": "function"
    },
    {
      "inputs": [
        {
          "internalType": "bytes32",
          "name": "key",
          "type": "bytes32"
        },
        {
          "internalType": "address",
          "name": "addr",
          "type": "address"
        },
        {
          "internalType": "uint256",
          "name": "value",
          "type": "uint256"
        }
      ],
      "name": "setConfig",
      "outputs": [],
      "stateMutability": "nonpayable",
      "type": "function"
    },
    {
      "inputs": [
        {
          "internalType": "bytes32",
          "name": "key",
          "type": "bytes32"
        },
        {
          "internalType": "uint256",
          "name": "index",
          "type": "uint256"
        },
        {
          "internalType": "uint256",
          "name": "value",
          "type": "uint256"
        }
      ],
      "name": "setConfig",
      "outputs": [],
      "stateMutability": "nonpayable",
      "type": "function"
    },
    {
      "inputs": [
        {
          "internalType": "uint256",
          "name": "",
          "type": "uint256"
        }
      ],
      "name": "totalVotes",
      "outputs": [
        {
          "internalType": "uint256",
          "name": "",
          "type": "uint256"
        }
      ],
      "stateMutability": "view",
      "type": "function"
    },
    {
      "inputs": [
        {
          "internalType": "address",
          "name": "_governor",
          "type": "address"
        }
      ],
      "name": "transferGovernor",
      "outputs": [],
      "stateMutability": "nonpayable",
      "type": "function"
    },
    {
      "inputs": [
        {
          "internalType": "address",
          "name": "newGovernor",
          "type": "address"
        }
      ],
      "name": "transferGovernorship",
      "outputs": [],
      "stateMutability": "nonpayable",
      "type": "function"
    },
    {
      "inputs": [
        {
          "internalType": "uint256",
          "name": "index",
          "type": "uint256"
        },
        {
          "internalType": "uint256",
          "name": "amount",
          "type": "uint256"
        }
      ],
      "name": "vote",
      "outputs": [],
      "stateMutability": "nonpayable",
      "type": "function"
    },
    {
      "inputs": [
        {
          "internalType": "uint256",
          "name": "",
          "type": "uint256"
        }
      ],
      "name": "votePassed",
      "outputs": [
        {
          "internalType": "bool",
          "name": "",
          "type": "bool"
        }
      ],
      "stateMutability": "view",
      "type": "function"
    }
  ],
  "bytecode": "0x608060405234801561001057600080fd5b50611433806100206000396000f3fe608060405234801561001057600080fd5b50600436106101735760003560e01c806394ccae83116100de578063c4d66de811610097578063d00cde5411610071578063d00cde5414610306578063dac4cc0914610319578063db07b68e1461032c578063ddf2be3f1461033457610173565b8063c4d66de8146102cb578063c7011b7b146102de578063cb6b25f3146102e657610173565b806394ccae8314610255578063ac4afa381461025d578063b21544f31461027f578063b384abef14610292578063b6aa515b146102a5578063b8cc9ce6146102b857610173565b806373e519c51161013057806373e519c514610204578063780900dc1461020c57806381c0c2631461021f578063859537b3146102275780638ec872e31461023a5780638eec5d701461024d57610173565b80630c340a241461017857806315fe96dc1461019657806319e6e158146101ab578063379607f5146101cb57806352665f47146101de5780636dd5b69d146101f1575b600080fd5b610180610347565b60405161018d9190611157565b60405180910390f35b6101a96101a43660046110d2565b610356565b005b6101be6101b936600461104b565b61037b565b60405161018d91906113d5565b6101a96101d936600461104b565b61038d565b6101be6101ec366004611063565b6104fb565b6101be6101ff36600461104b565b61051d565b6101be61052f565b6101a961021a36600461104b565b610572565b6101a96106a5565b6101a9610235366004610fe6565b610706565b6101be6102483660046110d2565b610833565b6101be610846565b6101be61084c565b61027061026b36600461104b565b610893565b60405161018d939291906113de565b6101a961028d36600461109d565b6108cf565b6101a96102a03660046110d2565b610900565b6101a96102b3366004610fe6565b610aa5565b6101a96102c6366004610fe6565b610ac8565b6101a96102d9366004610fe6565b610b28565b610180610c55565b6102f96102f436600461104b565b610c93565b60405161018d91906111a8565b6102f9610314366004611001565b610ca8565b6101be610327366004611001565b610cc8565b6101be610ce5565b6101a96103423660046110f3565b610d26565b6033546001600160a01b031681565b6033546001600160a01b0316331461036d57600080fd5b6103778282610d45565b5050565b60386020526000908152604090205481565b603554819081106103b95760405162461bcd60e51b81526004016103b090611239565b60405180910390fd5b8142603582815481106103c857fe5b9060005260206000209060030201600201541115806103f5575060008181526039602052604090205460ff165b6104115760405162461bcd60e51b81526004016103b090611374565b33600090815260376020908152604080832086845290915290205460ff161561044c5760405162461bcd60e51b81526004016103b0906112d2565b3360008181526037602090815260408083208784528252808320805460ff19166001179055838352603682528083208784529091529020546104a19190610491610c55565b6001600160a01b03169190610d6c565b3360008181526036602090815260408083208784529091529081902054905185917f4ec90e965519d92681267467f775ada5bd214aa92c0dc93d90a5e880ce9ed026916104ee91906113d5565b60405180910390a3505050565b6001600160a01b03811682186000908152603460205260409020545b92915050565b60009081526034602052604090205490565b711094158e8e93585e159bdd1954195c9a5bd960721b60005260346020527f6883557f04ffe329222bf25616062cf0644d44e23337cd0bc033194ec25ecb9c5490565b61059a3361dead610581610ce5565b610589610c55565b6001600160a01b0316929190610dc2565b6035546105a5610fa5565b8281523360208201526105c06105b961052f565b4290610de9565b60408281019182526035805460018101825560009190915283517fcfa4bec1d3298408bb5afcfcd9c430549c5b31f8aa5c5848151c0a55f473c34d60039092029182015560208401517fcfa4bec1d3298408bb5afcfcd9c430549c5b31f8aa5c5848151c0a55f473c34e820180546001600160a01b0319166001600160a01b0390921691909117905591517fcfa4bec1d3298408bb5afcfcd9c430549c5b31f8aa5c5848151c0a55f473c34f9092019190915551339083907fca3d9d314f777c487503de5749c4ea51f2d65c122854e7b08f888fa7d4745d08906104ee9085906113ab565b6033546001600160a01b031633146106bc57600080fd5b6033546040516000916001600160a01b0316907fc7c0c772add429241571afb3805861fb3cfa2af374534088b76cdb4325a87e9a908390a3603380546001600160a01b0319169055565b6033546001600160a01b031633148061072857506033546001600160a01b0316155b6107445760405162461bcd60e51b81526004016103b0906111d8565b603380546001600160a01b0319166001600160a01b03929092169190911790556034602052670429d069189e00007f7ea78507c8584a3985c949b52beb2fb5fdc8ffa747bb02f58cbca7b3a94c7f1855681043561a88293000007fc0215aae15c7c0b4db46122fc0e466a677ba4d4c355a1acc66c0d3a067111fdb5562093a807f6883557f04ffe329222bf25616062cf0644d44e23337cd0bc033194ec25ecb9c556c21282b1d1d2137ba2a37b5b2b760991b60005273abf690e2ebc6690c4fdc303fc3ee0fbfeb1818ed7f3506f3112f0cc0cf5cb1fdd728c11b10707a488f7b85b9840b913256744e4eab55565b1860009081526034602052604090205490565b60355490565b751094158e8e959bdd1954185cdcd51a1c995cda1bdb1960521b60005260346020527fc0215aae15c7c0b4db46122fc0e466a677ba4d4c355a1acc66c0d3a067111fdb5490565b603581815481106108a057fe5b60009182526020909120600390910201805460018201546002909201549092506001600160a01b039091169083565b6033546001600160a01b031633146108e657600080fd5b6108fb6001600160a01b038316841882610d45565b505050565b603554829081106109235760405162461bcd60e51b81526004016103b090611239565b82426035828154811061093257fe5b906000526020600020906003020160020154116109615760405162461bcd60e51b81526004016103b0906112a5565b60008481526039602052604090205460ff16156109905760405162461bcd60e51b81526004016103b0906111b3565b61099e333085610589610c55565b3360009081526036602090815260408083208784529091529020546109c39084610de9565b3360009081526036602090815260408083208884528252808320939093556038905220546109f19084610de9565b600085815260386020526040902055610a0861084c565b60008581526038602052604090205410610a5d57600084815260396020526040808220805460ff191660011790555185917f997181413afb25ed8be79923873de7b472374b3626316954f4f5684e500d6ae991a25b336001600160a01b0316847f1abe610cf2bf87e57dcc1181fcf5ac0934e843d8344ab9eed6e86c799f62585e85604051610a9791906113d5565b60405180910390a350505050565b6033546001600160a01b03163314610abc57600080fd5b610ac581610e15565b50565b6033546001600160a01b0316331480610aea57506033546001600160a01b0316155b610b065760405162461bcd60e51b81526004016103b0906111d8565b603380546001600160a01b0319166001600160a01b0392909216919091179055565b6033546001600160a01b0316331480610b4a57506033546001600160a01b0316155b610b665760405162461bcd60e51b81526004016103b0906111d8565b603380546001600160a01b0319166001600160a01b03929092169190911790556034602052670429d069189e00007f7ea78507c8584a3985c949b52beb2fb5fdc8ffa747bb02f58cbca7b3a94c7f1855681043561a88293000007fc0215aae15c7c0b4db46122fc0e466a677ba4d4c355a1acc66c0d3a067111fdb5562093a807f6883557f04ffe329222bf25616062cf0644d44e23337cd0bc033194ec25ecb9c556c21282b1d1d2137ba2a37b5b2b760991b600052735beabaebb3146685dd74176f68a0721f91297d377f3506f3112f0cc0cf5cb1fdd728c11b10707a488f7b85b9840b913256744e4eab55565b6c21282b1d1d2137ba2a37b5b2b760991b60005260346020527f3506f3112f0cc0cf5cb1fdd728c11b10707a488f7b85b9840b913256744e4eab5490565b60396020526000908152604090205460ff1681565b603760209081526000928352604080842090915290825290205460ff1681565b603660209081526000928352604080842090915290825290205481565b6f4250563a3a4372656174696f6e46656560801b60005260346020527f7ea78507c8584a3985c949b52beb2fb5fdc8ffa747bb02f58cbca7b3a94c7f185490565b6033546001600160a01b03163314610d3d57600080fd5b6108fb838318825b60008281526034602052604090205481146103775760009182526034602052604090912055565b6108fb8363a9059cbb60e01b8484604051602401610d8b92919061118f565b60408051601f198184030181529190526020810180516001600160e01b03166001600160e01b031990931692909217909152610e84565b610de3846323b872dd60e01b858585604051602401610d8b9392919061116b565b50505050565b600082820183811015610e0e5760405162461bcd60e51b81526004016103b090611202565b9392505050565b6001600160a01b038116610e2857600080fd5b6033546040516001600160a01b038084169216907fc7c0c772add429241571afb3805861fb3cfa2af374534088b76cdb4325a87e9a90600090a3603380546001600160a01b0319166001600160a01b0392909216919091179055565b610e96826001600160a01b0316610f69565b610eb25760405162461bcd60e51b81526004016103b09061133d565b60006060836001600160a01b031683604051610ece919061111e565b6000604051808303816000865af19150503d8060008114610f0b576040519150601f19603f3d011682016040523d82523d6000602084013e610f10565b606091505b509150915081610f325760405162461bcd60e51b81526004016103b090611270565b805115610de35780806020019051810190610f4d919061102b565b610de35760405162461bcd60e51b81526004016103b0906112f3565b6000813f7fc5d2460186f7233c927e7db2dcc703c0e500b653ca82273b7bfad8045d85a470818114801590610f9d57508115155b949350505050565b60405180606001604052806000815260200160006001600160a01b03168152602001600081525090565b80356001600160a01b038116811461051757600080fd5b600060208284031215610ff7578081fd5b610e0e8383610fcf565b60008060408385031215611013578081fd5b61101d8484610fcf565b946020939093013593505050565b60006020828403121561103c578081fd5b81518015158114610e0e578182fd5b60006020828403121561105c578081fd5b5035919050565b60008060408385031215611075578182fd5b8235915060208301356001600160a01b0381168114611092578182fd5b809150509250929050565b6000806000606084860312156110b1578081fd5b833592506110c28560208601610fcf565b9150604084013590509250925092565b600080604083850312156110e4578182fd5b50508035926020909101359150565b600080600060608486031215611107578283fd5b505081359360208301359350604090920135919050565b60008251815b8181101561113e5760208186018101518583015201611124565b8181111561114c5782828501525b509190910192915050565b6001600160a01b0391909116815260200190565b6001600160a01b039384168152919092166020820152604081019190915260600190565b6001600160a01b03929092168252602082015260400190565b901515815260200190565b6020808252600b908201526a1d9bdd19481c185cdcd95960aa1b604082015260600190565b60208082526010908201526f34b73b30b634b21033b7bb32b93737b960811b604082015260600190565b6020808252601b908201527f536166654d6174683a206164646974696f6e206f766572666c6f770000000000604082015260600190565b60208082526018908201527f7468697320706f6f6c20646f6573206e6f742065786973740000000000000000604082015260600190565b6020808252818101527f5361666545524332303a206c6f772d6c6576656c2063616c6c206661696c6564604082015260600190565b6020808252601390820152721d1a1a5cc81c1bdbdb081a5cc818db1bdcd959606a1b604082015260600190565b60208082526007908201526618db185a5b595960ca1b604082015260600190565b6020808252602a908201527f5361666545524332303a204552433230206f7065726174696f6e20646964206e6040820152691bdd081cdd58d8d9595960b21b606082015260800190565b6020808252601f908201527f5361666545524332303a2063616c6c20746f206e6f6e2d636f6e747261637400604082015260600190565b60208082526017908201527f7468697320706f6f6c206973206e6f7420636c6f736564000000000000000000604082015260600190565b815181526020808301516001600160a01b0316908201526040918201519181019190915260600190565b90815260200190565b9283526001600160a01b0391909116602083015260408201526060019056fea26469706673582212207a282504a92988ab8929a2e51a3d8c4ca39db18341fd3abfb97f501dff89e44a64736f6c634300060c0033",
  "compiler": {
    "name": "solc",
    "version": "0.6.12+commit.27d51765.Emscripten.clang",
    "optimizer": {
      "enabled": true,
      "runs": 200
    },
    "evmVersion": "petersburg"
  }
}