{
  "fileName": "BounceProVoting.sol",
  "contractName": "BounceProVoting",
  "source": "// SPDX-License-Identifier: MIT\n\npragma solidity ^0.6.0;\npragma experimental ABIEncoderV2;\n\nimport \"@openzeppelin/contracts-ethereum-package/contracts/math/SafeMath.sol\";\nimport \"@openzeppelin/contracts-ethereum-package/contracts/token/ERC20/SafeERC20.sol\";\nimport \"@openzeppelin/contracts-ethereum-package/contracts/token/ERC20/IERC20.sol\";\nimport \"./Governable.sol\";\n\ncontract BounceProVoting is Configurable {\n    using SafeMath for uint;\n    using SafeERC20 for IERC20;\n\n    bytes32 internal constant BotToken              = bytes32(\"BPV::BotToken\");\n    bytes32 internal constant CreationFee           = bytes32(\"BPV::CreationFee\");\n    bytes32 internal constant VotePassThreshold     = bytes32(\"BPV::VotePassThreshold\");\n    bytes32 internal constant MaxVotePeriod         = bytes32(\"BPV::MaxVotePeriod\");\n    address internal constant DeadAddress           = 0x000000000000000000000000000000000000dEaD;\n\n    struct Pool {\n        // address of pool creator\n        address payable creator;\n        // the timestamp in seconds the pool will be closed\n        uint closeAt;\n    }\n\n    Pool[] public pools;\n\n    // address => pool index => amount of votes\n    mapping(address => mapping(uint => uint)) public myVotes;\n    // address => pool index => true: claim, false: not claim\n    mapping(address => mapping(uint => bool)) public myVotesClaimed;\n    /// pool index => amount of total votes\n    mapping(uint => uint) public totalVotes;\n    // pool index => true: vote pass, false: vote not pass\n    mapping(uint => bool) public votePassed;\n\n    event Created(uint indexed index, address indexed sender, Pool pool);\n    event Voted(uint indexed index, address indexed sender, uint amount);\n    event Claimed(uint indexed index, address indexed sender, uint amount);\n    event VoteHasPassed(uint indexed index);\n\n    function initialize(address _governor) public override {\n        require(msg.sender == governor || governor == address(0), \"invalid governor\");\n        governor = _governor;\n\n        config[CreationFee] = 0.3 ether;\n        config[VotePassThreshold] = 300 ether;\n        config[MaxVotePeriod] = 7 days;\n\n        // mainnet\n        config[BotToken] = uint(0x5bEaBAEBB3146685Dd74176f68a0721F91297D37);\n    }\n\n    function initialize_rinkeby(address _governor) public {\n        require(msg.sender == governor || governor == address(0), \"invalid governor\");\n        governor = _governor;\n\n        config[CreationFee] = 0.3 ether;\n        config[VotePassThreshold] = 300 ether;\n        config[MaxVotePeriod] = 7 days;\n\n        // rinkeby\n        config[BotToken] = uint(0xAbF690E2EbC6690c4Fdc303fc3eE0FBFEb1818eD);\n    }\n\n    function create() public {\n        IERC20(getBotToken()).safeTransferFrom(msg.sender, DeadAddress, getCreationFee());\n\n        uint index = pools.length;\n        Pool memory pool;\n        pool.creator = msg.sender;\n        pool.closeAt = now.add(getMaxVotePeriod());\n        pools.push(pool);\n\n        emit Created(index, msg.sender, pool);\n    }\n\n    function vote(uint index, uint amount) external\n        isPoolExist(index)\n        isPoolNotClosed(index)\n    {\n        require(!votePassed[index], \"vote passed\");\n        IERC20(getBotToken()).safeTransferFrom(msg.sender, address(this), amount);\n        myVotes[msg.sender][index] = myVotes[msg.sender][index].add(amount);\n        totalVotes[index] = totalVotes[index].add(amount);\n\n        if (totalVotes[index] >= getVotePassThreshold()) {\n            votePassed[index] = true;\n            emit VoteHasPassed(index);\n        }\n\n        emit Voted(index, msg.sender, amount);\n    }\n\n    function claim(uint index) external\n        isPoolExist(index)\n        isPoolClosed(index)\n    {\n        require(!myVotesClaimed[msg.sender][index], \"claimed\");\n        myVotesClaimed[msg.sender][index] = true;\n        IERC20(getBotToken()).safeTransfer(msg.sender, myVotes[msg.sender][index]);\n        emit Claimed(index, msg.sender, myVotes[msg.sender][index]);\n    }\n\n    function transferGovernor(address _governor) external {\n        require(msg.sender == governor || governor == address(0), \"invalid governor\");\n        governor = _governor;\n    }\n\n    function getPoolCount() public view returns (uint) {\n        return pools.length;\n    }\n\n    function getBotToken() public view returns (address) {\n        return address(config[BotToken]);\n    }\n\n    function getCreationFee() public view returns (uint) {\n        return config[CreationFee];\n    }\n\n    function getVotePassThreshold() public view returns (uint) {\n        return config[VotePassThreshold];\n    }\n\n    function getMaxVotePeriod() public view returns (uint) {\n        return config[MaxVotePeriod];\n    }\n\n    modifier isPoolClosed(uint index) {\n        require(pools[index].closeAt <= now || votePassed[index], \"this pool is not closed\");\n        _;\n    }\n\n    modifier isPoolNotClosed(uint index) {\n        require(pools[index].closeAt > now, \"this pool is closed\");\n        _;\n    }\n\n    modifier isPoolExist(uint index) {\n        require(index < pools.length, \"this pool does not exist\");\n        _;\n    }\n}\n",
  "sourcePath": "contracts/BounceProVoting.sol",
  "abi": [
    {
      "anonymous": false,
      "inputs": [
        {
          "indexed": true,
          "internalType": "uint256",
          "name": "index",
          "type": "uint256"
        },
        {
          "indexed": true,
          "internalType": "address",
          "name": "sender",
          "type": "address"
        },
        {
          "indexed": false,
          "internalType": "uint256",
          "name": "amount",
          "type": "uint256"
        }
      ],
      "name": "Claimed",
      "type": "event"
    },
    {
      "anonymous": false,
      "inputs": [
        {
          "indexed": true,
          "internalType": "uint256",
          "name": "index",
          "type": "uint256"
        },
        {
          "indexed": true,
          "internalType": "address",
          "name": "sender",
          "type": "address"
        },
        {
          "components": [
            {
              "internalType": "address payable",
              "name": "creator",
              "type": "address"
            },
            {
              "internalType": "uint256",
              "name": "closeAt",
              "type": "uint256"
            }
          ],
          "indexed": false,
          "internalType": "struct BounceProVoting.Pool",
          "name": "pool",
          "type": "tuple"
        }
      ],
      "name": "Created",
      "type": "event"
    },
    {
      "anonymous": false,
      "inputs": [
        {
          "indexed": true,
          "internalType": "address",
          "name": "previousGovernor",
          "type": "address"
        },
        {
          "indexed": true,
          "internalType": "address",
          "name": "newGovernor",
          "type": "address"
        }
      ],
      "name": "GovernorshipTransferred",
      "type": "event"
    },
    {
      "anonymous": false,
      "inputs": [
        {
          "indexed": true,
          "internalType": "uint256",
          "name": "index",
          "type": "uint256"
        }
      ],
      "name": "VoteHasPassed",
      "type": "event"
    },
    {
      "anonymous": false,
      "inputs": [
        {
          "indexed": true,
          "internalType": "uint256",
          "name": "index",
          "type": "uint256"
        },
        {
          "indexed": true,
          "internalType": "address",
          "name": "sender",
          "type": "address"
        },
        {
          "indexed": false,
          "internalType": "uint256",
          "name": "amount",
          "type": "uint256"
        }
      ],
      "name": "Voted",
      "type": "event"
    },
    {
      "inputs": [
        {
          "internalType": "uint256",
          "name": "index",
          "type": "uint256"
        }
      ],
      "name": "claim",
      "outputs": [],
      "stateMutability": "nonpayable",
      "type": "function"
    },
    {
      "inputs": [],
      "name": "create",
      "outputs": [],
      "stateMutability": "nonpayable",
      "type": "function"
    },
    {
      "inputs": [],
      "name": "getBotToken",
      "outputs": [
        {
          "internalType": "address",
          "name": "",
          "type": "address"
        }
      ],
      "stateMutability": "view",
      "type": "function"
    },
    {
      "inputs": [
        {
          "internalType": "bytes32",
          "name": "key",
          "type": "bytes32"
        },
        {
          "internalType": "address",
          "name": "addr",
          "type": "address"
        }
      ],
      "name": "getConfig",
      "outputs": [
        {
          "internalType": "uint256",
          "name": "",
          "type": "uint256"
        }
      ],
      "stateMutability": "view",
      "type": "function"
    },
    {
      "inputs": [
        {
          "internalType": "bytes32",
          "name": "key",
          "type": "bytes32"
        }
      ],
      "name": "getConfig",
      "outputs": [
        {
          "internalType": "uint256",
          "name": "",
          "type": "uint256"
        }
      ],
      "stateMutability": "view",
      "type": "function"
    },
    {
      "inputs": [
        {
          "internalType": "bytes32",
          "name": "key",
          "type": "bytes32"
        },
        {
          "internalType": "uint256",
          "name": "index",
          "type": "uint256"
        }
      ],
      "name": "getConfig",
      "outputs": [
        {
          "internalType": "uint256",
          "name": "",
          "type": "uint256"
        }
      ],
      "stateMutability": "view",
      "type": "function"
    },
    {
      "inputs": [],
      "name": "getCreationFee",
      "outputs": [
        {
          "internalType": "uint256",
          "name": "",
          "type": "uint256"
        }
      ],
      "stateMutability": "view",
      "type": "function"
    },
    {
      "inputs": [],
      "name": "getMaxVotePeriod",
      "outputs": [
        {
          "internalType": "uint256",
          "name": "",
          "type": "uint256"
        }
      ],
      "stateMutability": "view",
      "type": "function"
    },
    {
      "inputs": [],
      "name": "getPoolCount",
      "outputs": [
        {
          "internalType": "uint256",
          "name": "",
          "type": "uint256"
        }
      ],
      "stateMutability": "view",
      "type": "function"
    },
    {
      "inputs": [],
      "name": "getVotePassThreshold",
      "outputs": [
        {
          "internalType": "uint256",
          "name": "",
          "type": "uint256"
        }
      ],
      "stateMutability": "view",
      "type": "function"
    },
    {
      "inputs": [],
      "name": "governor",
      "outputs": [
        {
          "internalType": "address",
          "name": "",
          "type": "address"
        }
      ],
      "stateMutability": "view",
      "type": "function"
    },
    {
      "inputs": [
        {
          "internalType": "address",
          "name": "_governor",
          "type": "address"
        }
      ],
      "name": "initialize",
      "outputs": [],
      "stateMutability": "nonpayable",
      "type": "function"
    },
    {
      "inputs": [
        {
          "internalType": "address",
          "name": "_governor",
          "type": "address"
        }
      ],
      "name": "initialize_rinkeby",
      "outputs": [],
      "stateMutability": "nonpayable",
      "type": "function"
    },
    {
      "inputs": [
        {
          "internalType": "address",
          "name": "",
          "type": "address"
        },
        {
          "internalType": "uint256",
          "name": "",
          "type": "uint256"
        }
      ],
      "name": "myVotes",
      "outputs": [
        {
          "internalType": "uint256",
          "name": "",
          "type": "uint256"
        }
      ],
      "stateMutability": "view",
      "type": "function"
    },
    {
      "inputs": [
        {
          "internalType": "address",
          "name": "",
          "type": "address"
        },
        {
          "internalType": "uint256",
          "name": "",
          "type": "uint256"
        }
      ],
      "name": "myVotesClaimed",
      "outputs": [
        {
          "internalType": "bool",
          "name": "",
          "type": "bool"
        }
      ],
      "stateMutability": "view",
      "type": "function"
    },
    {
      "inputs": [
        {
          "internalType": "uint256",
          "name": "",
          "type": "uint256"
        }
      ],
      "name": "pools",
      "outputs": [
        {
          "internalType": "address payable",
          "name": "creator",
          "type": "address"
        },
        {
          "internalType": "uint256",
          "name": "closeAt",
          "type": "uint256"
        }
      ],
      "stateMutability": "view",
      "type": "function"
    },
    {
      "inputs": [],
      "name": "renounceGovernorship",
      "outputs": [],
      "stateMutability": "nonpayable",
      "type": "function"
    },
    {
      "inputs": [
        {
          "internalType": "bytes32",
          "name": "key",
          "type": "bytes32"
        },
        {
          "internalType": "uint256",
          "name": "value",
          "type": "uint256"
        }
      ],
      "name": "setConfig",
      "outputs": [],
      "stateMutability": "nonpayable",
      "type": "function"
    },
    {
      "inputs": [
        {
          "internalType": "bytes32",
          "name": "key",
          "type": "bytes32"
        },
        {
          "internalType": "address",
          "name": "addr",
          "type": "address"
        },
        {
          "internalType": "uint256",
          "name": "value",
          "type": "uint256"
        }
      ],
      "name": "setConfig",
      "outputs": [],
      "stateMutability": "nonpayable",
      "type": "function"
    },
    {
      "inputs": [
        {
          "internalType": "bytes32",
          "name": "key",
          "type": "bytes32"
        },
        {
          "internalType": "uint256",
          "name": "index",
          "type": "uint256"
        },
        {
          "internalType": "uint256",
          "name": "value",
          "type": "uint256"
        }
      ],
      "name": "setConfig",
      "outputs": [],
      "stateMutability": "nonpayable",
      "type": "function"
    },
    {
      "inputs": [
        {
          "internalType": "uint256",
          "name": "",
          "type": "uint256"
        }
      ],
      "name": "totalVotes",
      "outputs": [
        {
          "internalType": "uint256",
          "name": "",
          "type": "uint256"
        }
      ],
      "stateMutability": "view",
      "type": "function"
    },
    {
      "inputs": [
        {
          "internalType": "address",
          "name": "_governor",
          "type": "address"
        }
      ],
      "name": "transferGovernor",
      "outputs": [],
      "stateMutability": "nonpayable",
      "type": "function"
    },
    {
      "inputs": [
        {
          "internalType": "address",
          "name": "newGovernor",
          "type": "address"
        }
      ],
      "name": "transferGovernorship",
      "outputs": [],
      "stateMutability": "nonpayable",
      "type": "function"
    },
    {
      "inputs": [
        {
          "internalType": "uint256",
          "name": "index",
          "type": "uint256"
        },
        {
          "internalType": "uint256",
          "name": "amount",
          "type": "uint256"
        }
      ],
      "name": "vote",
      "outputs": [],
      "stateMutability": "nonpayable",
      "type": "function"
    },
    {
      "inputs": [
        {
          "internalType": "uint256",
          "name": "",
          "type": "uint256"
        }
      ],
      "name": "votePassed",
      "outputs": [
        {
          "internalType": "bool",
          "name": "",
          "type": "bool"
        }
      ],
      "stateMutability": "view",
      "type": "function"
    }
  ],
  "bytecode": "0x608060405234801561001057600080fd5b506113c3806100206000396000f3fe608060405234801561001057600080fd5b50600436106101735760003560e01c8063ac4afa38116100de578063c7011b7b11610097578063dac4cc0911610071578063dac4cc0914610305578063db07b68e14610318578063ddf2be3f14610320578063efc81a8c1461033357610173565b8063c7011b7b146102ca578063cb6b25f3146102d2578063d00cde54146102f257610173565b8063ac4afa381461024a578063b21544f31461026b578063b384abef1461027e578063b6aa515b14610291578063b8cc9ce6146102a4578063c4d66de8146102b757610173565b806373e519c51161013057806373e519c51461020457806381c0c2631461020c578063859537b3146102145780638ec872e3146102275780638eec5d701461023a57806394ccae831461024257610173565b80630c340a241461017857806315fe96dc1461019657806319e6e158146101ab578063379607f5146101cb57806352665f47146101de5780636dd5b69d146101f1575b600080fd5b61018061033b565b60405161018d9190611110565b60405180910390f35b6101a96101a436600461108b565b61034a565b005b6101be6101b9366004611004565b61036f565b60405161018d9190611384565b6101a96101d9366004611004565b610381565b6101be6101ec36600461101c565b6104ef565b6101be6101ff366004611004565b610511565b6101be610523565b6101a9610566565b6101a9610222366004610f9f565b6105c7565b6101be61023536600461108b565b6106f4565b6101be610707565b6101be61070d565b61025d610258366004611004565b610754565b60405161018d929190611124565b6101a9610279366004611056565b610789565b6101a961028c36600461108b565b6107ba565b6101a961029f366004610f9f565b610970565b6101a96102b2366004610f9f565b610993565b6101a96102c5366004610f9f565b6109f3565b610180610b20565b6102e56102e0366004611004565b610b5e565b60405161018d9190611161565b6102e5610300366004610fba565b610b73565b6101be610313366004610fba565b610b93565b6101be610bb0565b6101a961032e3660046110ac565b610bf1565b6101a9610c14565b6033546001600160a01b031681565b6033546001600160a01b0316331461036157600080fd5b61036b8282610d11565b5050565b60386020526000908152604090205481565b603554819081106103ad5760405162461bcd60e51b81526004016103a4906111f2565b60405180910390fd5b8142603582815481106103bc57fe5b9060005260206000209060020201600101541115806103e9575060008181526039602052604090205460ff165b6104055760405162461bcd60e51b81526004016103a49061132d565b33600090815260376020908152604080832086845290915290205460ff16156104405760405162461bcd60e51b81526004016103a49061128b565b3360008181526037602090815260408083208784528252808320805460ff19166001179055838352603682528083208784529091529020546104959190610485610b20565b6001600160a01b03169190610d38565b3360008181526036602090815260408083208784529091529081902054905185917f4ec90e965519d92681267467f775ada5bd214aa92c0dc93d90a5e880ce9ed026916104e29190611384565b60405180910390a3505050565b6001600160a01b03811682186000908152603460205260409020545b92915050565b60009081526034602052604090205490565b711094158e8e93585e159bdd1954195c9a5bd960721b60005260346020527f6883557f04ffe329222bf25616062cf0644d44e23337cd0bc033194ec25ecb9c5490565b6033546001600160a01b0316331461057d57600080fd5b6033546040516000916001600160a01b0316907fc7c0c772add429241571afb3805861fb3cfa2af374534088b76cdb4325a87e9a908390a3603380546001600160a01b0319169055565b6033546001600160a01b03163314806105e957506033546001600160a01b0316155b6106055760405162461bcd60e51b81526004016103a490611191565b603380546001600160a01b0319166001600160a01b03929092169190911790556034602052670429d069189e00007f7ea78507c8584a3985c949b52beb2fb5fdc8ffa747bb02f58cbca7b3a94c7f1855681043561a88293000007fc0215aae15c7c0b4db46122fc0e466a677ba4d4c355a1acc66c0d3a067111fdb5562093a807f6883557f04ffe329222bf25616062cf0644d44e23337cd0bc033194ec25ecb9c556c21282b1d1d2137ba2a37b5b2b760991b60005273abf690e2ebc6690c4fdc303fc3ee0fbfeb1818ed7f3506f3112f0cc0cf5cb1fdd728c11b10707a488f7b85b9840b913256744e4eab55565b1860009081526034602052604090205490565b60355490565b751094158e8e959bdd1954185cdcd51a1c995cda1bdb1960521b60005260346020527fc0215aae15c7c0b4db46122fc0e466a677ba4d4c355a1acc66c0d3a067111fdb5490565b6035818154811061076157fe5b6000918252602090912060029091020180546001909101546001600160a01b03909116915082565b6033546001600160a01b031633146107a057600080fd5b6107b56001600160a01b038316841882610d11565b505050565b603554829081106107dd5760405162461bcd60e51b81526004016103a4906111f2565b8242603582815481106107ec57fe5b9060005260206000209060020201600101541161081b5760405162461bcd60e51b81526004016103a49061125e565b60008481526039602052604090205460ff161561084a5760405162461bcd60e51b81526004016103a49061116c565b610869333085610858610b20565b6001600160a01b0316929190610d8e565b33600090815260366020908152604080832087845290915290205461088e9084610db5565b3360009081526036602090815260408083208884528252808320939093556038905220546108bc9084610db5565b6000858152603860205260409020556108d361070d565b6000858152603860205260409020541061092857600084815260396020526040808220805460ff191660011790555185917f997181413afb25ed8be79923873de7b472374b3626316954f4f5684e500d6ae991a25b336001600160a01b0316847f1abe610cf2bf87e57dcc1181fcf5ac0934e843d8344ab9eed6e86c799f62585e856040516109629190611384565b60405180910390a350505050565b6033546001600160a01b0316331461098757600080fd5b61099081610de1565b50565b6033546001600160a01b03163314806109b557506033546001600160a01b0316155b6109d15760405162461bcd60e51b81526004016103a490611191565b603380546001600160a01b0319166001600160a01b0392909216919091179055565b6033546001600160a01b0316331480610a1557506033546001600160a01b0316155b610a315760405162461bcd60e51b81526004016103a490611191565b603380546001600160a01b0319166001600160a01b03929092169190911790556034602052670429d069189e00007f7ea78507c8584a3985c949b52beb2fb5fdc8ffa747bb02f58cbca7b3a94c7f1855681043561a88293000007fc0215aae15c7c0b4db46122fc0e466a677ba4d4c355a1acc66c0d3a067111fdb5562093a807f6883557f04ffe329222bf25616062cf0644d44e23337cd0bc033194ec25ecb9c556c21282b1d1d2137ba2a37b5b2b760991b600052735beabaebb3146685dd74176f68a0721f91297d377f3506f3112f0cc0cf5cb1fdd728c11b10707a488f7b85b9840b913256744e4eab55565b6c21282b1d1d2137ba2a37b5b2b760991b60005260346020527f3506f3112f0cc0cf5cb1fdd728c11b10707a488f7b85b9840b913256744e4eab5490565b60396020526000908152604090205460ff1681565b603760209081526000928352604080842090915290825290205460ff1681565b603660209081526000928352604080842090915290825290205481565b6f4250563a3a4372656174696f6e46656560801b60005260346020527f7ea78507c8584a3985c949b52beb2fb5fdc8ffa747bb02f58cbca7b3a94c7f185490565b6033546001600160a01b03163314610c0857600080fd5b6107b583831882610d11565b610c2b3361dead610c23610bb0565b610858610b20565b603554610c36610f71565b338152610c4b610c44610523565b4290610db5565b602082019081526035805460018101825560009190915282517fcfa4bec1d3298408bb5afcfcd9c430549c5b31f8aa5c5848151c0a55f473c34d600290920291820180546001600160a01b0319166001600160a01b0390921691909117905590517fcfa4bec1d3298408bb5afcfcd9c430549c5b31f8aa5c5848151c0a55f473c34e90910155604051339083907ff655491384024a2a340a2dd5f016d9ae0ad60335cab759b161c745c341d0297390610d05908590611364565b60405180910390a35050565b600082815260346020526040902054811461036b5760009182526034602052604090912055565b6107b58363a9059cbb60e01b8484604051602401610d57929190611124565b60408051601f198184030181529190526020810180516001600160e01b03166001600160e01b031990931692909217909152610e50565b610daf846323b872dd60e01b858585604051602401610d579392919061113d565b50505050565b600082820183811015610dda5760405162461bcd60e51b81526004016103a4906111bb565b9392505050565b6001600160a01b038116610df457600080fd5b6033546040516001600160a01b038084169216907fc7c0c772add429241571afb3805861fb3cfa2af374534088b76cdb4325a87e9a90600090a3603380546001600160a01b0319166001600160a01b0392909216919091179055565b610e62826001600160a01b0316610f35565b610e7e5760405162461bcd60e51b81526004016103a4906112f6565b60006060836001600160a01b031683604051610e9a91906110d7565b6000604051808303816000865af19150503d8060008114610ed7576040519150601f19603f3d011682016040523d82523d6000602084013e610edc565b606091505b509150915081610efe5760405162461bcd60e51b81526004016103a490611229565b805115610daf5780806020019051810190610f199190610fe4565b610daf5760405162461bcd60e51b81526004016103a4906112ac565b6000813f7fc5d2460186f7233c927e7db2dcc703c0e500b653ca82273b7bfad8045d85a470818114801590610f6957508115155b949350505050565b604080518082019091526000808252602082015290565b80356001600160a01b038116811461050b57600080fd5b600060208284031215610fb0578081fd5b610dda8383610f88565b60008060408385031215610fcc578081fd5b610fd68484610f88565b946020939093013593505050565b600060208284031215610ff5578081fd5b81518015158114610dda578182fd5b600060208284031215611015578081fd5b5035919050565b6000806040838503121561102e578182fd5b8235915060208301356001600160a01b038116811461104b578182fd5b809150509250929050565b60008060006060848603121561106a578081fd5b8335925061107b8560208601610f88565b9150604084013590509250925092565b6000806040838503121561109d578182fd5b50508035926020909101359150565b6000806000606084860312156110c0578283fd5b505081359360208301359350604090920135919050565b60008251815b818110156110f757602081860181015185830152016110dd565b818111156111055782828501525b509190910192915050565b6001600160a01b0391909116815260200190565b6001600160a01b03929092168252602082015260400190565b6001600160a01b039384168152919092166020820152604081019190915260600190565b901515815260200190565b6020808252600b908201526a1d9bdd19481c185cdcd95960aa1b604082015260600190565b60208082526010908201526f34b73b30b634b21033b7bb32b93737b960811b604082015260600190565b6020808252601b908201527f536166654d6174683a206164646974696f6e206f766572666c6f770000000000604082015260600190565b60208082526018908201527f7468697320706f6f6c20646f6573206e6f742065786973740000000000000000604082015260600190565b6020808252818101527f5361666545524332303a206c6f772d6c6576656c2063616c6c206661696c6564604082015260600190565b6020808252601390820152721d1a1a5cc81c1bdbdb081a5cc818db1bdcd959606a1b604082015260600190565b60208082526007908201526618db185a5b595960ca1b604082015260600190565b6020808252602a908201527f5361666545524332303a204552433230206f7065726174696f6e20646964206e6040820152691bdd081cdd58d8d9595960b21b606082015260800190565b6020808252601f908201527f5361666545524332303a2063616c6c20746f206e6f6e2d636f6e747261637400604082015260600190565b60208082526017908201527f7468697320706f6f6c206973206e6f7420636c6f736564000000000000000000604082015260600190565b81516001600160a01b031681526020918201519181019190915260400190565b9081526020019056fea264697066735822122002b6617e7a3515b0470e542040dd58f057cf40b9007758c25c0b34d34b5594c664736f6c634300060c0033",
  "compiler": {
    "name": "solc",
    "version": "0.6.12+commit.27d51765.Emscripten.clang",
    "optimizer": {
      "enabled": true,
      "runs": 200
    },
    "evmVersion": "petersburg"
  }
}