{
  "fileName": "BouncePro.sol",
  "contractName": "BouncePro",
  "source": "// SPDX-License-Identifier: MIT\n\npragma solidity ^0.6.0;\npragma experimental ABIEncoderV2;\n\nimport \"@openzeppelin/contracts-ethereum-package/contracts/math/SafeMath.sol\";\nimport \"@openzeppelin/contracts-ethereum-package/contracts/token/ERC20/SafeERC20.sol\";\nimport \"@openzeppelin/contracts-ethereum-package/contracts/token/ERC20/IERC20.sol\";\nimport \"./Governable.sol\";\nimport \"./interfaces/IBounceStake.sol\";\n\ncontract BouncePro is Configurable {\n    using SafeMath for uint;\n    using SafeERC20 for IERC20;\n\n    bytes32 internal constant TxFeeRatio            = bytes32(\"BPRO::TxFeeRatio\");\n    bytes32 internal constant MinValueOfBotHolder   = bytes32(\"BPRO::MinValueOfBotHolder\");\n    bytes32 internal constant BotToken              = bytes32(\"BPRO::BotToken\");\n    bytes32 internal constant StakeContract         = bytes32(\"BPRO::StakeContract\");\n\n    struct CreateReq {\n        uint projectId;\n        // beneficiary of the pool\n        address payable beneficiary;\n        // address of sell token\n        address token0;\n        // address of buy token\n        address token1;\n        // total amount of token0\n        uint amountTotal0;\n        // total amount of token1\n        uint amountTotal1;\n        // the duration in seconds the pool will be closed\n        uint duration;\n        // the timestamp in seconds the pool will open\n        uint openAt;\n        // the delay timestamp in seconds when buyers can claim after pool filled\n        uint claimDelaySec;\n        bool onlyBot;\n        uint maxEthPerWallet;\n    }\n\n    struct Pool {\n        uint projectId;\n        // beneficiary of the pool\n        address payable beneficiary;\n        // address of sell token\n        address token0;\n        // address of buy token\n        address token1;\n        // total amount of token0\n        uint amountTotal0;\n        // total amount of token1\n        uint amountTotal1;\n        // the timestamp in seconds the pool will open\n        uint openAt;\n        // the timestamp in seconds the pool will be closed\n        uint closeAt;\n        // the delay timestamp in seconds when buyers can claim after pool filled\n        uint claimDelaySec;\n    }\n\n    Pool[] public pools;\n    address public creator;\n\n    // pool index => the timestamp which the pool filled at\n    mapping(uint => uint) public filledAtP;\n    // pool index => swap amount of token0\n    mapping(uint => uint) public amountSwap0P;\n    // pool index => swap amount of token1\n    mapping(uint => uint) public amountSwap1P;\n    // account => fix pool index + 1. if the result is 0, the account don't create any pool.\n    mapping(address => uint) public myP;\n    // pool index => the swap pool only allow BOT holder to take part in\n    mapping(uint => bool) public onlyBotHolderP;\n    // pool index => maximum swap amount of ETH per wallet, if the value is not set, the default value is zero\n    mapping(uint => uint) public maxEthPerWalletP;\n    // address => pool index => swapped amount of token0\n    mapping(address => mapping(uint => uint)) public myAmountSwapped0;\n    // address => pool index => swapped amount of token1\n    mapping(address => mapping(uint => uint)) public myAmountSwapped1;\n    // address => pool index => whether or not my pool is claimed\n    mapping(address => mapping(uint => bool)) public myClaimed;\n\n    bool public enableWhiteList;\n    // pool index => account => whether or not allow swap\n    mapping(uint => mapping(address => bool)) public whitelistP;\n\n    event Created(uint indexed index, address indexed sender, Pool pool);\n    event Swapped(uint indexed index, address indexed sender, uint amount0, uint amount1);\n    event Claimed(uint indexed index, address indexed sender, uint amount0);\n    event UserClaimed(uint indexed index, address indexed sender, uint amount0);\n\n    function initialize(address _governor, address creator_) public {\n        require(msg.sender == governor || governor == address(0), \"invalid governor\");\n        governor = _governor;\n        creator = creator_;\n\n        config[TxFeeRatio] = 0.015 ether;\n        config[MinValueOfBotHolder] = 0.5 ether;\n\n        // mainnet\n        config[BotToken] = uint(0x5bEaBAEBB3146685Dd74176f68a0721F91297D37);\n        config[StakeContract] = uint(0x98945BC69A554F8b129b09aC8AfDc2cc2431c48E);\n    }\n\n    function initialize_rinkeby(address _governor, address creator_) public {\n        require(msg.sender == governor || governor == address(0), \"invalid governor\");\n        governor = _governor;\n        creator = creator_;\n\n        config[TxFeeRatio] = 0.015 ether;\n        config[MinValueOfBotHolder] = 0.5 ether;\n\n        // rinkeby\n        config[BotToken] = uint(0xAbF690E2EbC6690c4Fdc303fc3eE0FBFEb1818eD);\n        config[StakeContract] = uint(0xa77A9FcbA2Ae5599e0054369d1655D186020ECE1);\n    }\n\n    function create(CreateReq memory poolReq, address[] memory whitelist_) public payable\n        isPoolNotCreate(poolReq.beneficiary)\n    {\n        require(creator == msg.sender, \"invalid creator\");\n\n        uint index = pools.length;\n        require(poolReq.token0 != poolReq.token1, \"token0 and token1 is same\");\n        require(poolReq.amountTotal0 != 0, \"invalid amountTotal0\");\n        require(poolReq.amountTotal1 != 0, \"invalid amountTotal1\");\n        require(poolReq.openAt >= now, \"invalid openAt\");\n        require(poolReq.duration != 0, \"invalid duration\");\n\n        if (poolReq.maxEthPerWallet != 0) {\n            maxEthPerWalletP[index] = poolReq.maxEthPerWallet;\n        }\n        if (poolReq.onlyBot) {\n            onlyBotHolderP[index] = poolReq.onlyBot;\n        }\n\n        // transfer amount of token0 to this contract\n        IERC20  _token0 = IERC20(poolReq.token0);\n        uint token0BalanceBefore = _token0.balanceOf(address(this));\n        _token0.safeTransferFrom(poolReq.beneficiary, address(this), poolReq.amountTotal0);\n        require(\n            _token0.balanceOf(address(this)).sub(token0BalanceBefore) == poolReq.amountTotal0,\n            \"not support deflationary token\"\n        );\n        // reset allowance to 0\n        _token0.safeApprove(address(this), 0);\n\n        if (whitelist_.length > 0) {\n            enableWhiteList = true;\n            for (uint i = 0; i < whitelist_.length; i++) {\n                whitelistP[index][whitelist_[i]] = true;\n            }\n        }\n\n        Pool memory pool;\n        pool.projectId = poolReq.projectId;\n        pool.beneficiary = poolReq.beneficiary;\n        pool.token0 = poolReq.token0;\n        pool.token1 = poolReq.token1;\n        pool.amountTotal0 = poolReq.amountTotal0;\n        pool.amountTotal1 = poolReq.amountTotal1;\n        pool.openAt = poolReq.openAt;\n        pool.closeAt = poolReq.openAt.add(poolReq.duration);\n        pool.claimDelaySec = poolReq.claimDelaySec;\n        pools.push(pool);\n\n        myP[poolReq.beneficiary] = index + 1;\n\n        emit Created(index, msg.sender, pool);\n    }\n\n    function swap(uint index, uint amount1) external payable\n        isPoolExist(index)\n        isPoolNotClosed(index)\n        checkBotHolder(index)\n    {\n        address payable sender = msg.sender;\n        if (enableWhiteList) {\n            require(whitelistP[index][sender], \"sender not in whitelist\");\n        }\n        Pool memory pool = pools[index];\n        require(pool.openAt <= now, \"pool not open\");\n        require(amount1 != 0, \"the value of amount1 is zero\");\n        require(pool.amountTotal1 > amountSwap1P[index], \"swap amount is zero\");\n\n        // check if amount1 is exceeded\n        uint excessAmount1 = 0;\n        uint _amount1 = pool.amountTotal1.sub(amountSwap1P[index]);\n        if (_amount1 < amount1) {\n            excessAmount1 = amount1.sub(_amount1);\n        } else {\n            _amount1 = amount1;\n        }\n\n        // check if amount0 is exceeded\n        uint amount0 = _amount1.mul(pool.amountTotal0).div(pool.amountTotal1);\n        uint _amount0 = pool.amountTotal0.sub(amountSwap0P[index]);\n        if (_amount0 < amount0) {\n            require(amount0 - _amount0 > 100, \"amount0 is too big\");\n        } else {\n            _amount0 = amount0;\n        }\n\n        amountSwap0P[index] = amountSwap0P[index].add(_amount0);\n        amountSwap1P[index] = amountSwap1P[index].add(_amount1);\n        myAmountSwapped0[sender][index] = myAmountSwapped0[sender][index].add(_amount0);\n        // check if swapped amount of token1 is exceeded maximum allowance\n        if (maxEthPerWalletP[index] != 0) {\n            require(\n                myAmountSwapped1[sender][index].add(_amount1) <= maxEthPerWalletP[index],\n                \"swapped amount of token1 is exceeded maximum allowance\"\n            );\n            myAmountSwapped1[sender][index] = myAmountSwapped1[sender][index].add(_amount1);\n        }\n\n        if (pool.amountTotal1 == amountSwap1P[index]) {\n            filledAtP[index] = now;\n        }\n\n        // transfer amount of token1 to this contract\n        if (pool.token1 == address(0)) {\n            require(msg.value == amount1, \"invalid amount of ETH\");\n        } else {\n            IERC20  _token1 = IERC20(pool.token1);\n            uint256 beforeBalance = _token1.balanceOf(address(this));\n            _token1.safeTransferFrom(sender, address(this), amount1);\n            _token1.safeApprove(address(this), 0);\n            uint256 afterBalance = _token1.balanceOf(address(this));\n            require(\n                afterBalance.sub(beforeBalance) == amount1,\n                \"the transferred amount of _token1 is not equal to amount1\"\n            );\n        }\n\n        if (pool.claimDelaySec == 0) {\n            if (_amount0 > 0) {\n                // send token0 to sender\n                if (pool.token0 == address(0)) {\n                    sender.transfer(_amount0);\n                } else {\n                    IERC20(pool.token0).safeTransfer(sender, _amount0);\n                }\n            }\n        }\n        if (excessAmount1 > 0) {\n            // send excess amount of token1 back to sender\n            if (pool.token1 == address(0)) {\n                sender.transfer(excessAmount1);\n            } else {\n                IERC20(pool.token1).safeTransfer(sender, excessAmount1);\n            }\n        }\n\n        // send token1 to beneficiary\n        if (pool.token1 == address(0)) {\n            uint256 txFee = _amount1.mul(getTxFeeRatio()).div(1 ether);\n            uint256 _actualAmount1 = _amount1.sub(txFee);\n            if (_actualAmount1 > 0) {\n                pool.beneficiary.transfer(_actualAmount1);\n            }\n            if (txFee > 0) {\n                // deposit transaction fee to staking contract\n                IBounceStake(getStakeContract()).depositReward{value: txFee}();\n            }\n        } else {\n            IERC20(pool.token1).safeTransfer(pool.beneficiary, _amount1);\n        }\n\n        emit Swapped(index, sender, _amount0, _amount1);\n    }\n\n    function claim() external payable {\n        address payable beneficiary = msg.sender;\n        require(myP[beneficiary] != 0, \"this pool is not owned by this address\");\n        uint index = myP[beneficiary] - 1;\n        Pool memory pool = pools[index];\n        require(index < pools.length, \"this pool does not exist\");\n        if (pool.amountTotal1 != amountSwap1P[index]) {\n            require(pool.closeAt <= now, \"this pool is not closed\");\n        }\n        // require(pool.amountTotal0 > amountSwap0P[index], \"the total amount of this pool is swapped\");\n\n        // remove ownership of this pool from Beneficiary\n        delete myP[beneficiary];\n\n        uint unSwapAmount0 = pool.amountTotal0 - amountSwap0P[index];\n        if (unSwapAmount0 > 0) {\n            IERC20(pool.token0).safeTransfer(beneficiary, unSwapAmount0);\n        }\n\n        emit Claimed(index, beneficiary, unSwapAmount0);\n    }\n\n    function userClaim(uint index) external\n        isPoolExist(index)\n    {\n        Pool memory pool = pools[index];\n        address sender = msg.sender;\n        require(pools[index].claimDelaySec > 0, \"invalid claim\");\n        require(!myClaimed[sender][index], \"claimed\");\n        require(now <= filledAtP[index].add(pool.claimDelaySec) || pool.closeAt <= now, \"claim not ready\");\n        myClaimed[sender][index] = true;\n        if (myAmountSwapped0[sender][index] > 0) {\n            // send token0 to sender\n            if (pool.token0 == address(0)) {\n                msg.sender.transfer(myAmountSwapped0[sender][index]);\n            } else {\n                IERC20(pool.token0).safeTransfer(msg.sender, myAmountSwapped0[sender][index]);\n            }\n        }\n        emit UserClaimed(index, sender, myAmountSwapped0[sender][index]);\n    }\n\n    function transferGovernor(address _governor) external {\n        require(msg.sender == governor || governor == address(0), \"invalid governor\");\n        governor = _governor;\n    }\n\n    function setCreator(address creator_) external {\n        require(msg.sender == governor || governor == address(0), \"invalid governor\");\n        creator = creator_;\n    }\n\n    function getPoolCount() public view returns (uint) {\n        return pools.length;\n    }\n\n    function getTxFeeRatio() public view returns (uint) {\n        return config[TxFeeRatio];\n    }\n\n    function getMinValueOfBotHolder() public view returns (uint) {\n        return config[MinValueOfBotHolder];\n    }\n\n    function getBotToken() public view returns (address) {\n        return address(config[BotToken]);\n    }\n\n    function getStakeContract() public view returns (address) {\n        return address(config[StakeContract]);\n    }\n\n    modifier isPoolClosed(uint index) {\n        require(pools[index].closeAt <= now, \"this pool is not closed\");\n        _;\n    }\n\n    modifier isPoolNotClosed(uint index) {\n        require(pools[index].closeAt > now, \"this pool is closed\");\n        _;\n    }\n\n    modifier isPoolExist(uint index) {\n        require(index < pools.length, \"this pool does not exist\");\n        _;\n    }\n\n    modifier isPoolNotCreate(address target) {\n        // check if target has a pool\n        if (myP[target] > 0) {\n            revert(\"a pool has created by this address\");\n        }\n        _;\n    }\n\n    modifier checkBotHolder(uint index) {\n        if (onlyBotHolderP[index]) {\n            require(IERC20(getBotToken()).balanceOf(msg.sender) >= getMinValueOfBotHolder(), \"BOT is not enough\");\n        }\n        _;\n    }\n}\n",
  "sourcePath": "contracts/BouncePro.sol",
  "abi": [
    {
      "anonymous": false,
      "inputs": [
        {
          "indexed": true,
          "internalType": "uint256",
          "name": "index",
          "type": "uint256"
        },
        {
          "indexed": true,
          "internalType": "address",
          "name": "sender",
          "type": "address"
        },
        {
          "indexed": false,
          "internalType": "uint256",
          "name": "amount0",
          "type": "uint256"
        }
      ],
      "name": "Claimed",
      "type": "event"
    },
    {
      "anonymous": false,
      "inputs": [
        {
          "indexed": true,
          "internalType": "uint256",
          "name": "index",
          "type": "uint256"
        },
        {
          "indexed": true,
          "internalType": "address",
          "name": "sender",
          "type": "address"
        },
        {
          "components": [
            {
              "internalType": "uint256",
              "name": "projectId",
              "type": "uint256"
            },
            {
              "internalType": "address payable",
              "name": "beneficiary",
              "type": "address"
            },
            {
              "internalType": "address",
              "name": "token0",
              "type": "address"
            },
            {
              "internalType": "address",
              "name": "token1",
              "type": "address"
            },
            {
              "internalType": "uint256",
              "name": "amountTotal0",
              "type": "uint256"
            },
            {
              "internalType": "uint256",
              "name": "amountTotal1",
              "type": "uint256"
            },
            {
              "internalType": "uint256",
              "name": "openAt",
              "type": "uint256"
            },
            {
              "internalType": "uint256",
              "name": "closeAt",
              "type": "uint256"
            },
            {
              "internalType": "uint256",
              "name": "claimDelaySec",
              "type": "uint256"
            }
          ],
          "indexed": false,
          "internalType": "struct BouncePro.Pool",
          "name": "pool",
          "type": "tuple"
        }
      ],
      "name": "Created",
      "type": "event"
    },
    {
      "anonymous": false,
      "inputs": [
        {
          "indexed": true,
          "internalType": "address",
          "name": "previousGovernor",
          "type": "address"
        },
        {
          "indexed": true,
          "internalType": "address",
          "name": "newGovernor",
          "type": "address"
        }
      ],
      "name": "GovernorshipTransferred",
      "type": "event"
    },
    {
      "anonymous": false,
      "inputs": [
        {
          "indexed": true,
          "internalType": "uint256",
          "name": "index",
          "type": "uint256"
        },
        {
          "indexed": true,
          "internalType": "address",
          "name": "sender",
          "type": "address"
        },
        {
          "indexed": false,
          "internalType": "uint256",
          "name": "amount0",
          "type": "uint256"
        },
        {
          "indexed": false,
          "internalType": "uint256",
          "name": "amount1",
          "type": "uint256"
        }
      ],
      "name": "Swapped",
      "type": "event"
    },
    {
      "anonymous": false,
      "inputs": [
        {
          "indexed": true,
          "internalType": "uint256",
          "name": "index",
          "type": "uint256"
        },
        {
          "indexed": true,
          "internalType": "address",
          "name": "sender",
          "type": "address"
        },
        {
          "indexed": false,
          "internalType": "uint256",
          "name": "amount0",
          "type": "uint256"
        }
      ],
      "name": "UserClaimed",
      "type": "event"
    },
    {
      "inputs": [
        {
          "internalType": "uint256",
          "name": "",
          "type": "uint256"
        }
      ],
      "name": "amountSwap0P",
      "outputs": [
        {
          "internalType": "uint256",
          "name": "",
          "type": "uint256"
        }
      ],
      "stateMutability": "view",
      "type": "function"
    },
    {
      "inputs": [
        {
          "internalType": "uint256",
          "name": "",
          "type": "uint256"
        }
      ],
      "name": "amountSwap1P",
      "outputs": [
        {
          "internalType": "uint256",
          "name": "",
          "type": "uint256"
        }
      ],
      "stateMutability": "view",
      "type": "function"
    },
    {
      "inputs": [],
      "name": "claim",
      "outputs": [],
      "stateMutability": "payable",
      "type": "function"
    },
    {
      "inputs": [
        {
          "components": [
            {
              "internalType": "uint256",
              "name": "projectId",
              "type": "uint256"
            },
            {
              "internalType": "address payable",
              "name": "beneficiary",
              "type": "address"
            },
            {
              "internalType": "address",
              "name": "token0",
              "type": "address"
            },
            {
              "internalType": "address",
              "name": "token1",
              "type": "address"
            },
            {
              "internalType": "uint256",
              "name": "amountTotal0",
              "type": "uint256"
            },
            {
              "internalType": "uint256",
              "name": "amountTotal1",
              "type": "uint256"
            },
            {
              "internalType": "uint256",
              "name": "duration",
              "type": "uint256"
            },
            {
              "internalType": "uint256",
              "name": "openAt",
              "type": "uint256"
            },
            {
              "internalType": "uint256",
              "name": "claimDelaySec",
              "type": "uint256"
            },
            {
              "internalType": "bool",
              "name": "onlyBot",
              "type": "bool"
            },
            {
              "internalType": "uint256",
              "name": "maxEthPerWallet",
              "type": "uint256"
            }
          ],
          "internalType": "struct BouncePro.CreateReq",
          "name": "poolReq",
          "type": "tuple"
        },
        {
          "internalType": "address[]",
          "name": "whitelist_",
          "type": "address[]"
        }
      ],
      "name": "create",
      "outputs": [],
      "stateMutability": "payable",
      "type": "function"
    },
    {
      "inputs": [],
      "name": "creator",
      "outputs": [
        {
          "internalType": "address",
          "name": "",
          "type": "address"
        }
      ],
      "stateMutability": "view",
      "type": "function"
    },
    {
      "inputs": [],
      "name": "enableWhiteList",
      "outputs": [
        {
          "internalType": "bool",
          "name": "",
          "type": "bool"
        }
      ],
      "stateMutability": "view",
      "type": "function"
    },
    {
      "inputs": [
        {
          "internalType": "uint256",
          "name": "",
          "type": "uint256"
        }
      ],
      "name": "filledAtP",
      "outputs": [
        {
          "internalType": "uint256",
          "name": "",
          "type": "uint256"
        }
      ],
      "stateMutability": "view",
      "type": "function"
    },
    {
      "inputs": [],
      "name": "getBotToken",
      "outputs": [
        {
          "internalType": "address",
          "name": "",
          "type": "address"
        }
      ],
      "stateMutability": "view",
      "type": "function"
    },
    {
      "inputs": [
        {
          "internalType": "bytes32",
          "name": "key",
          "type": "bytes32"
        },
        {
          "internalType": "address",
          "name": "addr",
          "type": "address"
        }
      ],
      "name": "getConfig",
      "outputs": [
        {
          "internalType": "uint256",
          "name": "",
          "type": "uint256"
        }
      ],
      "stateMutability": "view",
      "type": "function"
    },
    {
      "inputs": [
        {
          "internalType": "bytes32",
          "name": "key",
          "type": "bytes32"
        }
      ],
      "name": "getConfig",
      "outputs": [
        {
          "internalType": "uint256",
          "name": "",
          "type": "uint256"
        }
      ],
      "stateMutability": "view",
      "type": "function"
    },
    {
      "inputs": [
        {
          "internalType": "bytes32",
          "name": "key",
          "type": "bytes32"
        },
        {
          "internalType": "uint256",
          "name": "index",
          "type": "uint256"
        }
      ],
      "name": "getConfig",
      "outputs": [
        {
          "internalType": "uint256",
          "name": "",
          "type": "uint256"
        }
      ],
      "stateMutability": "view",
      "type": "function"
    },
    {
      "inputs": [],
      "name": "getMinValueOfBotHolder",
      "outputs": [
        {
          "internalType": "uint256",
          "name": "",
          "type": "uint256"
        }
      ],
      "stateMutability": "view",
      "type": "function"
    },
    {
      "inputs": [],
      "name": "getPoolCount",
      "outputs": [
        {
          "internalType": "uint256",
          "name": "",
          "type": "uint256"
        }
      ],
      "stateMutability": "view",
      "type": "function"
    },
    {
      "inputs": [],
      "name": "getStakeContract",
      "outputs": [
        {
          "internalType": "address",
          "name": "",
          "type": "address"
        }
      ],
      "stateMutability": "view",
      "type": "function"
    },
    {
      "inputs": [],
      "name": "getTxFeeRatio",
      "outputs": [
        {
          "internalType": "uint256",
          "name": "",
          "type": "uint256"
        }
      ],
      "stateMutability": "view",
      "type": "function"
    },
    {
      "inputs": [],
      "name": "governor",
      "outputs": [
        {
          "internalType": "address",
          "name": "",
          "type": "address"
        }
      ],
      "stateMutability": "view",
      "type": "function"
    },
    {
      "inputs": [
        {
          "internalType": "address",
          "name": "_governor",
          "type": "address"
        },
        {
          "internalType": "address",
          "name": "creator_",
          "type": "address"
        }
      ],
      "name": "initialize",
      "outputs": [],
      "stateMutability": "nonpayable",
      "type": "function"
    },
    {
      "inputs": [
        {
          "internalType": "address",
          "name": "governor_",
          "type": "address"
        }
      ],
      "name": "initialize",
      "outputs": [],
      "stateMutability": "nonpayable",
      "type": "function"
    },
    {
      "inputs": [
        {
          "internalType": "address",
          "name": "_governor",
          "type": "address"
        },
        {
          "internalType": "address",
          "name": "creator_",
          "type": "address"
        }
      ],
      "name": "initialize_rinkeby",
      "outputs": [],
      "stateMutability": "nonpayable",
      "type": "function"
    },
    {
      "inputs": [
        {
          "internalType": "uint256",
          "name": "",
          "type": "uint256"
        }
      ],
      "name": "maxEthPerWalletP",
      "outputs": [
        {
          "internalType": "uint256",
          "name": "",
          "type": "uint256"
        }
      ],
      "stateMutability": "view",
      "type": "function"
    },
    {
      "inputs": [
        {
          "internalType": "address",
          "name": "",
          "type": "address"
        },
        {
          "internalType": "uint256",
          "name": "",
          "type": "uint256"
        }
      ],
      "name": "myAmountSwapped0",
      "outputs": [
        {
          "internalType": "uint256",
          "name": "",
          "type": "uint256"
        }
      ],
      "stateMutability": "view",
      "type": "function"
    },
    {
      "inputs": [
        {
          "internalType": "address",
          "name": "",
          "type": "address"
        },
        {
          "internalType": "uint256",
          "name": "",
          "type": "uint256"
        }
      ],
      "name": "myAmountSwapped1",
      "outputs": [
        {
          "internalType": "uint256",
          "name": "",
          "type": "uint256"
        }
      ],
      "stateMutability": "view",
      "type": "function"
    },
    {
      "inputs": [
        {
          "internalType": "address",
          "name": "",
          "type": "address"
        },
        {
          "internalType": "uint256",
          "name": "",
          "type": "uint256"
        }
      ],
      "name": "myClaimed",
      "outputs": [
        {
          "internalType": "bool",
          "name": "",
          "type": "bool"
        }
      ],
      "stateMutability": "view",
      "type": "function"
    },
    {
      "inputs": [
        {
          "internalType": "address",
          "name": "",
          "type": "address"
        }
      ],
      "name": "myP",
      "outputs": [
        {
          "internalType": "uint256",
          "name": "",
          "type": "uint256"
        }
      ],
      "stateMutability": "view",
      "type": "function"
    },
    {
      "inputs": [
        {
          "internalType": "uint256",
          "name": "",
          "type": "uint256"
        }
      ],
      "name": "onlyBotHolderP",
      "outputs": [
        {
          "internalType": "bool",
          "name": "",
          "type": "bool"
        }
      ],
      "stateMutability": "view",
      "type": "function"
    },
    {
      "inputs": [
        {
          "internalType": "uint256",
          "name": "",
          "type": "uint256"
        }
      ],
      "name": "pools",
      "outputs": [
        {
          "internalType": "uint256",
          "name": "projectId",
          "type": "uint256"
        },
        {
          "internalType": "address payable",
          "name": "beneficiary",
          "type": "address"
        },
        {
          "internalType": "address",
          "name": "token0",
          "type": "address"
        },
        {
          "internalType": "address",
          "name": "token1",
          "type": "address"
        },
        {
          "internalType": "uint256",
          "name": "amountTotal0",
          "type": "uint256"
        },
        {
          "internalType": "uint256",
          "name": "amountTotal1",
          "type": "uint256"
        },
        {
          "internalType": "uint256",
          "name": "openAt",
          "type": "uint256"
        },
        {
          "internalType": "uint256",
          "name": "closeAt",
          "type": "uint256"
        },
        {
          "internalType": "uint256",
          "name": "claimDelaySec",
          "type": "uint256"
        }
      ],
      "stateMutability": "view",
      "type": "function"
    },
    {
      "inputs": [],
      "name": "renounceGovernorship",
      "outputs": [],
      "stateMutability": "nonpayable",
      "type": "function"
    },
    {
      "inputs": [
        {
          "internalType": "bytes32",
          "name": "key",
          "type": "bytes32"
        },
        {
          "internalType": "uint256",
          "name": "value",
          "type": "uint256"
        }
      ],
      "name": "setConfig",
      "outputs": [],
      "stateMutability": "nonpayable",
      "type": "function"
    },
    {
      "inputs": [
        {
          "internalType": "bytes32",
          "name": "key",
          "type": "bytes32"
        },
        {
          "internalType": "address",
          "name": "addr",
          "type": "address"
        },
        {
          "internalType": "uint256",
          "name": "value",
          "type": "uint256"
        }
      ],
      "name": "setConfig",
      "outputs": [],
      "stateMutability": "nonpayable",
      "type": "function"
    },
    {
      "inputs": [
        {
          "internalType": "bytes32",
          "name": "key",
          "type": "bytes32"
        },
        {
          "internalType": "uint256",
          "name": "index",
          "type": "uint256"
        },
        {
          "internalType": "uint256",
          "name": "value",
          "type": "uint256"
        }
      ],
      "name": "setConfig",
      "outputs": [],
      "stateMutability": "nonpayable",
      "type": "function"
    },
    {
      "inputs": [
        {
          "internalType": "address",
          "name": "creator_",
          "type": "address"
        }
      ],
      "name": "setCreator",
      "outputs": [],
      "stateMutability": "nonpayable",
      "type": "function"
    },
    {
      "inputs": [
        {
          "internalType": "uint256",
          "name": "index",
          "type": "uint256"
        },
        {
          "internalType": "uint256",
          "name": "amount1",
          "type": "uint256"
        }
      ],
      "name": "swap",
      "outputs": [],
      "stateMutability": "payable",
      "type": "function"
    },
    {
      "inputs": [
        {
          "internalType": "address",
          "name": "_governor",
          "type": "address"
        }
      ],
      "name": "transferGovernor",
      "outputs": [],
      "stateMutability": "nonpayable",
      "type": "function"
    },
    {
      "inputs": [
        {
          "internalType": "address",
          "name": "newGovernor",
          "type": "address"
        }
      ],
      "name": "transferGovernorship",
      "outputs": [],
      "stateMutability": "nonpayable",
      "type": "function"
    },
    {
      "inputs": [
        {
          "internalType": "uint256",
          "name": "index",
          "type": "uint256"
        }
      ],
      "name": "userClaim",
      "outputs": [],
      "stateMutability": "nonpayable",
      "type": "function"
    },
    {
      "inputs": [
        {
          "internalType": "uint256",
          "name": "",
          "type": "uint256"
        },
        {
          "internalType": "address",
          "name": "",
          "type": "address"
        }
      ],
      "name": "whitelistP",
      "outputs": [
        {
          "internalType": "bool",
          "name": "",
          "type": "bool"
        }
      ],
      "stateMutability": "view",
      "type": "function"
    }
  ],
  "bytecode": "0x608060405234801561001057600080fd5b50613258806100206000396000f3fe60806040526004361061020f5760003560e01c80638eec5d7011610118578063c6472b12116100a0578063ddf2be3f1161006f578063ddf2be3f146105be578063dfd29d9e146105de578063e4710390146105f3578063fb3423fd14610613578063fe43efda146106265761020f565b8063c6472b1214610556578063c7011b7b14610576578063c92a46bb1461058b578063d96073cf146105ab5761020f565b8063b21544f3116100e7578063b21544f3146104b6578063b5ea58df146104d6578063b6aa515b146104f6578063b8cc9ce614610516578063c4d66de8146105365761020f565b80638eec5d701461042c57806396290eec14610441578063a5ed536f14610461578063ac4afa38146104815761020f565b8063539b2ba41161019b5780636dd5b69d1161016a5780636dd5b69d1461039757806381c0c263146103b75780638cfbe9d5146103cc5780638d0929af146103ec5780638ec872e31461040c5761020f565b8063539b2ba4146103205780635486441514610342578063636b04751461036257806363cb6c42146103825761020f565b8063211f4191116101e2578063211f4191146102985780633f516018146102b8578063485cc955146102d85780634e71d92d146102f857806352665f47146103005761020f565b806302d05d3f146102145780630c340a241461023f57806315fe96dc146102545780631bb2dd6c14610276575b600080fd5b34801561022057600080fd5b50610229610646565b6040516102369190612951565b60405180910390f35b34801561024b57600080fd5b50610229610655565b34801561026057600080fd5b5061027461026f3660046127da565b610664565b005b34801561028257600080fd5b5061028b610689565b6040516102369190613147565b3480156102a457600080fd5b5061028b6102b3366004612720565b6106ca565b3480156102c457600080fd5b506102746102d33660046126cc565b6106e7565b3480156102e457600080fd5b506102746102f33660046126e8565b610750565b61027461089e565b34801561030c57600080fd5b5061028b61031b36600461277f565b610a7b565b34801561032c57600080fd5b50610335610a9d565b60405161023691906129bc565b34801561034e57600080fd5b5061028b61035d366004612767565b610aa6565b34801561036e57600080fd5b5061028b61037d366004612767565b610ab8565b34801561038e57600080fd5b5061028b610aca565b3480156103a357600080fd5b5061028b6103b2366004612767565b610b18565b3480156103c357600080fd5b50610274610b2a565b3480156103d857600080fd5b5061028b6103e7366004612767565b610b8b565b3480156103f857600080fd5b5061033561040736600461277f565b610b9d565b34801561041857600080fd5b5061028b6104273660046127da565b610bbd565b34801561043857600080fd5b5061028b610bd0565b34801561044d57600080fd5b5061027461045c3660046126e8565b610bd6565b34801561046d57600080fd5b5061028b61047c366004612720565b610d24565b34801561048d57600080fd5b506104a161049c366004612767565b610d41565b60405161023699989796959493929190613150565b3480156104c257600080fd5b506102746104d13660046127a3565b610da8565b3480156104e257600080fd5b5061028b6104f13660046126cc565b610dd9565b34801561050257600080fd5b506102746105113660046126cc565b610deb565b34801561052257600080fd5b506102746105313660046126cc565b610e0e565b34801561054257600080fd5b506102746105513660046126cc565b610e6e565b34801561056257600080fd5b50610335610571366004612767565b610f40565b34801561058257600080fd5b50610229610f55565b34801561059757600080fd5b5061028b6105a6366004612767565b610f94565b6102746105b93660046127da565b610fa6565b3480156105ca57600080fd5b506102746105d93660046127fb565b61183e565b3480156105ea57600080fd5b50610229611861565b3480156105ff57600080fd5b5061033561060e366004612720565b6118a5565b610274610621366004612826565b6118c5565b34801561063257600080fd5b50610274610641366004612767565b611eb3565b6036546001600160a01b031681565b6033546001600160a01b031681565b6033546001600160a01b0316331461067b57600080fd5b610685828261217c565b5050565b6f4250524f3a3a5478466565526174696f60801b60005260346020527fffbf84605eb52262a41c847c7791b7b6dd535e0b4316697de9753a2beb5d90c25490565b603e60209081526000928352604080842090915290825290205481565b6033546001600160a01b031633148061070957506033546001600160a01b0316155b61072e5760405162461bcd60e51b815260040161072590612a31565b60405180910390fd5b603680546001600160a01b0319166001600160a01b0392909216919091179055565b6033546001600160a01b031633148061077257506033546001600160a01b0316155b61078e5760405162461bcd60e51b815260040161072590612a31565b603380546001600160a01b039384166001600160a01b03199182161790915560368054929093169116179055603460205266354a6ba7a180007fffbf84605eb52262a41c847c7791b7b6dd535e0b4316697de9753a2beb5d90c2556706f05b59d3b200007f91e939d72bdb77b6a15376661a793418c7afd7afe8bca794c87800142364c71655735beabaebb3146685dd74176f68a0721f91297d377f327aca578c649dc79927fe59d303dc9cdadfadab7d9399d4580c7237822d13de557210941493ce8e94dd185ad950dbdb9d1c9858dd606a1b6000527398945bc69a554f8b129b09ac8afdc2cc2431c48e7faa56f7e443c3b6958893335d7a601ded3aa26adb5788a7d9faf2cc3447d8325d55565b336000818152603a60205260409020546108ca5760405162461bcd60e51b815260040161072590612cc6565b6001600160a01b0381166000908152603a6020526040902054600019016108ef6125c6565b603582815481106108fc57fe5b6000918252602091829020604080516101208101825260099093029091018054835260018101546001600160a01b039081169484019490945260028101548416918301919091526003810154909216606082015260048201546080820152600582015460a0820152600682015460c0820152600782015460e082015260089091015461010082015260355490915082106109a85760405162461bcd60e51b815260040161072590612b0b565b60008281526039602052604090205460a0820151146109e557428160e0015111156109e55760405162461bcd60e51b815260040161072590613093565b6001600160a01b0383166000908152603a6020908152604080832083905584835260389091529020546080820151038015610a33576040820151610a33906001600160a01b031685836121a3565b836001600160a01b0316837f4ec90e965519d92681267467f775ada5bd214aa92c0dc93d90a5e880ce9ed02683604051610a6d9190613147565b60405180910390a350505050565b6001600160a01b03811682186000908152603460205260409020545b92915050565b60405460ff1681565b60376020526000908152604090205481565b60396020526000908152604090205481565b7f4250524f3a3a4d696e56616c75654f66426f74486f6c6465720000000000000060005260346020527f91e939d72bdb77b6a15376661a793418c7afd7afe8bca794c87800142364c7165490565b60009081526034602052604090205490565b6033546001600160a01b03163314610b4157600080fd5b6033546040516000916001600160a01b0316907fc7c0c772add429241571afb3805861fb3cfa2af374534088b76cdb4325a87e9a908390a3603380546001600160a01b0319169055565b60386020526000908152604090205481565b604160209081526000928352604080842090915290825290205460ff1681565b1860009081526034602052604090205490565b60355490565b6033546001600160a01b0316331480610bf857506033546001600160a01b0316155b610c145760405162461bcd60e51b815260040161072590612a31565b603380546001600160a01b039384166001600160a01b03199182161790915560368054929093169116179055603460205266354a6ba7a180007fffbf84605eb52262a41c847c7791b7b6dd535e0b4316697de9753a2beb5d90c2556706f05b59d3b200007f91e939d72bdb77b6a15376661a793418c7afd7afe8bca794c87800142364c7165573abf690e2ebc6690c4fdc303fc3ee0fbfeb1818ed7f327aca578c649dc79927fe59d303dc9cdadfadab7d9399d4580c7237822d13de557210941493ce8e94dd185ad950dbdb9d1c9858dd606a1b60005273a77a9fcba2ae5599e0054369d1655d186020ece17faa56f7e443c3b6958893335d7a601ded3aa26adb5788a7d9faf2cc3447d8325d55565b603d60209081526000928352604080842090915290825290205481565b60358181548110610d4e57fe5b60009182526020909120600990910201805460018201546002830154600384015460048501546005860154600687015460078801546008909801549698506001600160a01b03958616979486169693909516949193909289565b6033546001600160a01b03163314610dbf57600080fd5b610dd46001600160a01b03831684188261217c565b505050565b603a6020526000908152604090205481565b6033546001600160a01b03163314610e0257600080fd5b610e0b816121f9565b50565b6033546001600160a01b0316331480610e3057506033546001600160a01b0316155b610e4c5760405162461bcd60e51b815260040161072590612a31565b603380546001600160a01b0319166001600160a01b0392909216919091179055565b600054610100900460ff1680610e875750610e87612268565b80610e95575060005460ff16155b610eb15760405162461bcd60e51b815260040161072590612db1565b600054610100900460ff16158015610edc576000805460ff1961ff0019909116610100171660011790555b603380546001600160a01b0319166001600160a01b0384811691909117918290556040519116906000907fc7c0c772add429241571afb3805861fb3cfa2af374534088b76cdb4325a87e9a908290a38015610685576000805461ff00191690555050565b603b6020526000908152604090205460ff1681565b6d212829279d1d2137ba2a37b5b2b760911b60005260346020527f327aca578c649dc79927fe59d303dc9cdadfadab7d9399d4580c7237822d13de5490565b603c6020526000908152604090205481565b60355482908110610fc95760405162461bcd60e51b815260040161072590612b0b565b824260358281548110610fd857fe5b906000526020600020906009020160070154116110075760405162461bcd60e51b815260040161072590612ba0565b6000848152603b6020526040902054849060ff16156110c957611028610aca565b611030610f55565b6001600160a01b03166370a08231336040518263ffffffff1660e01b815260040161105b9190612951565b60206040518083038186803b15801561107357600080fd5b505afa158015611087573d6000803e3d6000fd5b505050506040513d601f19601f820116820180604052508101906110ab9190612910565b10156110c95760405162461bcd60e51b815260040161072590612c73565b604054339060ff16156111185760008681526041602090815260408083206001600160a01b038516845290915290205460ff166111185760405162461bcd60e51b815260040161072590612d0c565b6111206125c6565b6035878154811061112d57fe5b6000918252602091829020604080516101208101825260099093029091018054835260018101546001600160a01b039081169484019490945260028101548416918301919091526003810154909216606082015260048201546080820152600582015460a0820152600682015460c08201819052600783015460e083015260089092015461010082015291504210156111d85760405162461bcd60e51b815260040161072590612e29565b856111f55760405162461bcd60e51b815260040161072590612a5b565b60008781526039602052604090205460a0820151116112265760405162461bcd60e51b815260040161072590612d84565b60008781526039602052604081205460a08301518291611246919061226e565b9050878110156112615761125a888261226e565b9150611264565b50865b600061128b8460a001516112858660800151856122b790919063ffffffff16565b906122f1565b60008b815260386020526040812054608087015192935090916112ad9161226e565b9050818110156112de576064818303116112d95760405162461bcd60e51b815260040161072590612fda565b6112e1565b50805b60008b8152603860205260409020546112fa9082612333565b60008c81526038602090815260408083209390935560399052205461131f9084612333565b60008c8152603960209081526040808320939093556001600160a01b0389168252603d81528282208e8352905220546113589082612333565b6001600160a01b0387166000908152603d602090815260408083208f8452825280832093909355603c90522054156114345760008b8152603c60209081526040808320546001600160a01b038a168452603e83528184208f8552909252909120546113c39085612333565b11156113e15760405162461bcd60e51b815260040161072590612e50565b6001600160a01b0386166000908152603e602090815260408083208e845290915290205461140f9084612333565b6001600160a01b0387166000908152603e602090815260408083208f84529091529020555b60008b81526039602052604090205460a086015114156114605760008b81526037602052604090204290555b60608501516001600160a01b0316611496578934146114915760405162461bcd60e51b815260040161072590612f03565b6115f3565b60608501516040516370a0823160e01b81526000906001600160a01b038316906370a08231906114ca903090600401612951565b60206040518083038186803b1580156114e257600080fd5b505afa1580156114f6573d6000803e3d6000fd5b505050506040513d601f19601f8201168201806040525081019061151a9190612910565b90506115316001600160a01b03831689308f612358565b6115466001600160a01b03831630600061237f565b6040516370a0823160e01b81526000906001600160a01b038416906370a0823190611575903090600401612951565b60206040518083038186803b15801561158d57600080fd5b505afa1580156115a1573d6000803e3d6000fd5b505050506040513d601f19601f820116820180604052508101906115c59190612910565b90508c6115d2828461226e565b146115ef5760405162461bcd60e51b815260040161072590612ea6565b5050505b61010085015161166a57801561166a5760408501516001600160a01b0316611651576040516001600160a01b0387169082156108fc029083906000818181858888f1935050505015801561164b573d6000803e3d6000fd5b5061166a565b604085015161166a906001600160a01b031687836121a3565b83156116d75760608501516001600160a01b03166116be576040516001600160a01b0387169085156108fc029086906000818181858888f193505050501580156116b8573d6000803e3d6000fd5b506116d7565b60608501516116d7906001600160a01b031687866121a3565b60608501516001600160a01b03166117c7576000611709670de0b6b3a7640000611285611702610689565b87906122b7565b90506000611717858361226e565b9050801561175e5786602001516001600160a01b03166108fc829081150290604051600060405180830381858888f1935050505015801561175c573d6000803e3d6000fd5b505b81156117c05761176c611861565b6001600160a01b0316635ec2dc8d836040518263ffffffff1660e01b81526004016000604051808303818588803b1580156117a657600080fd5b505af11580156117ba573d6000803e3d6000fd5b50505050505b50506117ed565b6117ed85602001518487606001516001600160a01b03166121a39092919063ffffffff16565b856001600160a01b03168b7fe5903af08592742a0f3632ef378be3612814d51c4169d376f3eff65dd798be6d838660405161182992919061319e565b60405180910390a35050505050505050505050565b6033546001600160a01b0316331461185557600080fd5b610dd48383188261217c565b7210941493ce8e94dd185ad950dbdb9d1c9858dd606a1b60005260346020527faa56f7e443c3b6958893335d7a601ded3aa26adb5788a7d9faf2cc3447d8325d5490565b603f60209081526000928352604080842090915290825290205460ff1681565b6020808301516001600160a01b0381166000908152603a909252604090912054156119025760405162461bcd60e51b815260040161072590612ac9565b6036546001600160a01b0316331461192c5760405162461bcd60e51b815260040161072590612c4a565b603554606084015160408501516001600160a01b03908116911614156119645760405162461bcd60e51b8152600401610725906129fa565b60808401516119855760405162461bcd60e51b815260040161072590612bfb565b60a08401516119a65760405162461bcd60e51b815260040161072590612bcd565b428460e0015110156119ca5760405162461bcd60e51b815260040161072590612c9e565b60c08401516119eb5760405162461bcd60e51b815260040161072590612dff565b61014084015115611a0c576101408401516000828152603c60205260409020555b83610120015115611a3b576101208401516000828152603b60205260409020805460ff19169115159190911790555b60408085015190516370a0823160e01b81526000906001600160a01b038316906370a0823190611a6f903090600401612951565b60206040518083038186803b158015611a8757600080fd5b505afa158015611a9b573d6000803e3d6000fd5b505050506040513d601f19601f82011682018060405250810190611abf9190612910565b9050611ae98660200151308860800151856001600160a01b0316612358909392919063ffffffff16565b8560800151611b7482846001600160a01b03166370a08231306040518263ffffffff1660e01b8152600401611b1e9190612951565b60206040518083038186803b158015611b3657600080fd5b505afa158015611b4a573d6000803e3d6000fd5b505050506040513d601f19601f82011682018060405250810190611b6e9190612910565b9061226e565b14611b915760405162461bcd60e51b815260040161072590612f32565b611ba66001600160a01b03831630600061237f565b845115611c22576040805460ff1916600117905560005b8551811015611c20576000848152604160205260408120875160019290899085908110611be657fe5b6020908102919091018101516001600160a01b03168252810191909152604001600020805460ff1916911515919091179055600101611bbd565b505b611c2a6125c6565b865181526020808801516001600160a01b0390811691830191909152604080890151821690830152606080890151909116908201526080808801519082015260a0808801519082015260e08701805160c0808401919091528801519051611c9091612333565b60e08201908152610100888101519083019081526035805460018082018355600092835285517fcfa4bec1d3298408bb5afcfcd9c430549c5b31f8aa5c5848151c0a55f473c34d6009909302928301556020808701517fcfa4bec1d3298408bb5afcfcd9c430549c5b31f8aa5c5848151c0a55f473c34e840180546001600160a01b03199081166001600160a01b03938416179091556040808a01517fcfa4bec1d3298408bb5afcfcd9c430549c5b31f8aa5c5848151c0a55f473c34f87018054841691851691909117905560608a01517fcfa4bec1d3298408bb5afcfcd9c430549c5b31f8aa5c5848151c0a55f473c350870180549093169084161790915560808901517fcfa4bec1d3298408bb5afcfcd9c430549c5b31f8aa5c5848151c0a55f473c35186015560a08901517fcfa4bec1d3298408bb5afcfcd9c430549c5b31f8aa5c5848151c0a55f473c35286015560c08901517fcfa4bec1d3298408bb5afcfcd9c430549c5b31f8aa5c5848151c0a55f473c35386015596517fcfa4bec1d3298408bb5afcfcd9c430549c5b31f8aa5c5848151c0a55f473c35485015594517fcfa4bec1d3298408bb5afcfcd9c430549c5b31f8aa5c5848151c0a55f473c35590930192909255818c01519093168252603a9052829020908601905551339085907fdc039ee1ad638bbb60440b0ac8a86217b770c53bad67f156e91aca05f377613590611ea29085906130ca565b60405180910390a350505050505050565b60355481908110611ed65760405162461bcd60e51b815260040161072590612b0b565b611ede6125c6565b60358381548110611eeb57fe5b60009182526020808320604080516101208101825260099094029091018054845260018101546001600160a01b039081169385019390935260028101548316918401919091526003810154909116606083015260048101546080830152600581015460a0830152600681015460c0830152600781015460e0830152600801546101008201526035805491935033929186908110611f8457fe5b90600052602060002090600902016008015411611fb35760405162461bcd60e51b815260040161072590612fb3565b6001600160a01b0381166000908152603f6020908152604080832087845290915290205460ff1615611ff75760405162461bcd60e51b815260040161072590612c29565b61010082015160008581526037602052604090205461201591612333565b421115806120275750428260e0015111155b6120435760405162461bcd60e51b815260040161072590612b42565b6001600160a01b0381166000818152603f602090815260408083208884528252808320805460ff19166001179055928252603d815282822087835290522054156121265760408201516001600160a01b03166120ee576001600160a01b0381166000908152603d60209081526040808320878452909152808220549051339282156108fc02929190818181858888f193505050501580156120e8573d6000803e3d6000fd5b50612126565b6001600160a01b038082166000908152603d6020908152604080832088845290915290819020549084015161212692169033906121a3565b6001600160a01b0381166000818152603d602090815260408083208884529091529081902054905186917fff29b281372993483c1ce6b621ae07832d519c2294e43340f051312701ad132a91610a6d9190613147565b60008281526034602052604090205481146106855760009182526034602052604090912055565b610dd48363a9059cbb60e01b84846040516024016121c29291906129a3565b60408051601f198184030181529190526020810180516001600160e01b03166001600160e01b031990931692909217909152612442565b6001600160a01b03811661220c57600080fd5b6033546040516001600160a01b038084169216907fc7c0c772add429241571afb3805861fb3cfa2af374534088b76cdb4325a87e9a90600090a3603380546001600160a01b0319166001600160a01b0392909216919091179055565b303b1590565b60006122b083836040518060400160405280601e81526020017f536166654d6174683a207375627472616374696f6e206f766572666c6f770000815250612527565b9392505050565b6000826122c657506000610a97565b828202828482816122d357fe5b04146122b05760405162461bcd60e51b815260040161072590612d43565b60006122b083836040518060400160405280601a81526020017f536166654d6174683a206469766973696f6e206279207a65726f000000000000815250612553565b6000828201838110156122b05760405162461bcd60e51b815260040161072590612a92565b612379846323b872dd60e01b8585856040516024016121c29392919061297f565b50505050565b8015806124075750604051636eb1769f60e11b81526001600160a01b0384169063dd62ed3e906123b59030908690600401612965565b60206040518083038186803b1580156123cd57600080fd5b505afa1580156123e1573d6000803e3d6000fd5b505050506040513d601f19601f820116820180604052508101906124059190612910565b155b6124235760405162461bcd60e51b815260040161072590613006565b610dd48363095ea7b360e01b84846040516024016121c29291906129a3565b612454826001600160a01b031661258a565b6124705760405162461bcd60e51b81526004016107259061305c565b60006060836001600160a01b03168360405161248c9190612935565b6000604051808303816000865af19150503d80600081146124c9576040519150601f19603f3d011682016040523d82523d6000602084013e6124ce565b606091505b5091509150816124f05760405162461bcd60e51b815260040161072590612b6b565b805115612379578080602001905181019061250b919061274b565b6123795760405162461bcd60e51b815260040161072590612f69565b6000818484111561254b5760405162461bcd60e51b815260040161072591906129c7565b505050900390565b600081836125745760405162461bcd60e51b815260040161072591906129c7565b50600083858161258057fe5b0495945050505050565b6000813f7fc5d2460186f7233c927e7db2dcc703c0e500b653ca82273b7bfad8045d85a4708181148015906125be57508115155b949350505050565b6040518061012001604052806000815260200160006001600160a01b0316815260200160006001600160a01b0316815260200160006001600160a01b0316815260200160008152602001600081526020016000815260200160008152602001600081525090565b8035610a97816131ff565b600082601f830112612648578081fd5b813567ffffffffffffffff81111561265e578182fd5b602080820261266e8282016131ac565b8381529350818401858301828701840188101561268a57600080fd5b600092505b848310156126b65780356126a2816131ff565b82526001929092019190830190830161268f565b505050505092915050565b8035610a9781613214565b6000602082840312156126dd578081fd5b81356122b0816131ff565b600080604083850312156126fa578081fd5b8235612705816131ff565b91506020830135612715816131ff565b809150509250929050565b60008060408385031215612732578182fd5b823561273d816131ff565b946020939093013593505050565b60006020828403121561275c578081fd5b81516122b081613214565b600060208284031215612778578081fd5b5035919050565b60008060408385031215612791578182fd5b823591506020830135612715816131ff565b6000806000606084860312156127b7578081fd5b8335925060208401356127c9816131ff565b929592945050506040919091013590565b600080604083850312156127ec578182fd5b50508035926020909101359150565b60008060006060848603121561280f578283fd5b505081359360208301359350604090920135919050565b60008082840361018081121561283a578283fd5b61016080821215612849578384fd5b612852816131ac565b915084358252612865866020870161262d565b6020830152612877866040870161262d565b6040830152612889866060870161262d565b60608301526080850135608083015260a085013560a083015260c085013560c083015260e085013560e08301526101008086013581840152506101206128d1878288016126c1565b90830152610140858101359083015290925083013567ffffffffffffffff8111156128fa578182fd5b61290685828601612638565b9150509250929050565b600060208284031215612921578081fd5b5051919050565b6001600160a01b03169052565b600082516129478184602087016131d3565b9190910192915050565b6001600160a01b0391909116815260200190565b6001600160a01b0392831681529116602082015260400190565b6001600160a01b039384168152919092166020820152604081019190915260600190565b6001600160a01b03929092168252602082015260400190565b901515815260200190565b60006020825282518060208401526129e68160408501602087016131d3565b601f01601f19169190910160400192915050565b60208082526019908201527f746f6b656e3020616e6420746f6b656e312069732073616d6500000000000000604082015260600190565b60208082526010908201526f34b73b30b634b21033b7bb32b93737b960811b604082015260600190565b6020808252601c908201527f7468652076616c7565206f6620616d6f756e7431206973207a65726f00000000604082015260600190565b6020808252601b908201527f536166654d6174683a206164646974696f6e206f766572666c6f770000000000604082015260600190565b60208082526022908201527f6120706f6f6c2068617320637265617465642062792074686973206164647265604082015261737360f01b606082015260800190565b60208082526018908201527f7468697320706f6f6c20646f6573206e6f742065786973740000000000000000604082015260600190565b6020808252600f908201526e636c61696d206e6f7420726561647960881b604082015260600190565b6020808252818101527f5361666545524332303a206c6f772d6c6576656c2063616c6c206661696c6564604082015260600190565b6020808252601390820152721d1a1a5cc81c1bdbdb081a5cc818db1bdcd959606a1b604082015260600190565b602080825260149082015273696e76616c696420616d6f756e74546f74616c3160601b604082015260600190565b6020808252601490820152730696e76616c696420616d6f756e74546f74616c360641b604082015260600190565b60208082526007908201526618db185a5b595960ca1b604082015260600190565b6020808252600f908201526e34b73b30b634b21031b932b0ba37b960891b604082015260600190565b6020808252601190820152700849ea840d2e640dcdee840cadcdeeaced607b1b604082015260600190565b6020808252600e908201526d1a5b9d985b1a59081bdc195b905d60921b604082015260600190565b60208082526026908201527f7468697320706f6f6c206973206e6f74206f776e65642062792074686973206160408201526564647265737360d01b606082015260800190565b60208082526017908201527f73656e646572206e6f7420696e2077686974656c697374000000000000000000604082015260600190565b60208082526021908201527f536166654d6174683a206d756c7469706c69636174696f6e206f766572666c6f6040820152607760f81b606082015260800190565b6020808252601390820152727377617020616d6f756e74206973207a65726f60681b604082015260600190565b6020808252602e908201527f436f6e747261637420696e7374616e63652068617320616c726561647920626560408201526d195b881a5b9a5d1a585b1a5e995960921b606082015260800190565b60208082526010908201526f34b73b30b634b210323ab930ba34b7b760811b604082015260600190565b6020808252600d908201526c3837b7b6103737ba1037b832b760991b604082015260600190565b60208082526036908201527f7377617070656420616d6f756e74206f6620746f6b656e31206973206578636560408201527565646564206d6178696d756d20616c6c6f77616e636560501b606082015260800190565b60208082526039908201527f746865207472616e7366657272656420616d6f756e74206f66205f746f6b656e60408201527f31206973206e6f7420657175616c20746f20616d6f756e743100000000000000606082015260800190565b6020808252601590820152740d2dcecc2d8d2c840c2dadeeadce840decc408aa89605b1b604082015260600190565b6020808252601e908201527f6e6f7420737570706f7274206465666c6174696f6e61727920746f6b656e0000604082015260600190565b6020808252602a908201527f5361666545524332303a204552433230206f7065726174696f6e20646964206e6040820152691bdd081cdd58d8d9595960b21b606082015260800190565b6020808252600d908201526c696e76616c696420636c61696d60981b604082015260600190565b602080825260129082015271616d6f756e743020697320746f6f2062696760701b604082015260600190565b60208082526036908201527f5361666545524332303a20617070726f76652066726f6d206e6f6e2d7a65726f60408201527520746f206e6f6e2d7a65726f20616c6c6f77616e636560501b606082015260800190565b6020808252601f908201527f5361666545524332303a2063616c6c20746f206e6f6e2d636f6e747261637400604082015260600190565b60208082526017908201527f7468697320706f6f6c206973206e6f7420636c6f736564000000000000000000604082015260600190565b815181526020808301516001600160a01b0316908201526040808301516101208301916130f990840182612928565b50606083015161310c6060840182612928565b506080830151608083015260a083015160a083015260c083015160c083015260e083015160e083015261010080840151818401525092915050565b90815260200190565b9889526001600160a01b0397881660208a01529587166040890152939095166060870152608086019190915260a085015260c084019290925260e08301919091526101008201526101200190565b918252602082015260400190565b60405181810167ffffffffffffffff811182821017156131cb57600080fd5b604052919050565b60005b838110156131ee5781810151838201526020016131d6565b838111156123795750506000910152565b6001600160a01b0381168114610e0b57600080fd5b8015158114610e0b57600080fdfea2646970667358221220d4957be3053d78ef7aa43b013915f3fda2527f205e5b8a1e39447a00396baf0064736f6c634300060c0033",
  "compiler": {
    "name": "solc",
    "version": "0.6.12+commit.27d51765.Emscripten.clang",
    "optimizer": {
      "enabled": true,
      "runs": 200
    },
    "evmVersion": "petersburg"
  }
}