{
  "fileName": "BouncePro.sol",
  "contractName": "BouncePro",
  "source": "// SPDX-License-Identifier: MIT\n\npragma solidity ^0.6.0;\npragma experimental ABIEncoderV2;\n\nimport \"@openzeppelin/contracts-ethereum-package/contracts/math/SafeMath.sol\";\nimport \"@openzeppelin/contracts-ethereum-package/contracts/token/ERC20/SafeERC20.sol\";\nimport \"@openzeppelin/contracts-ethereum-package/contracts/token/ERC20/IERC20.sol\";\nimport \"./Governable.sol\";\nimport \"./interfaces/IBounceStake.sol\";\n\ncontract BouncePro is Configurable {\n    using SafeMath for uint;\n    using SafeERC20 for IERC20;\n\n    bytes32 internal constant TxFeeRatio            = bytes32(\"BPRO::TxFeeRatio\");\n    bytes32 internal constant MinValueOfBotHolder   = bytes32(\"BPRO::MinValueOfBotHolder\");\n    bytes32 internal constant BotToken              = bytes32(\"BPRO::BotToken\");\n    bytes32 internal constant StakeContract         = bytes32(\"BPRO::StakeContract\");\n\n    struct CreateReq {\n        uint projectId;\n        // beneficiary of the pool\n        address payable beneficiary;\n        // address of sell token\n        address token0;\n        // address of buy token\n        address token1;\n        // total amount of token0\n        uint amountTotal0;\n        // total amount of token1\n        uint amountTotal1;\n        // the duration in seconds the pool will be closed\n        uint duration;\n        // the timestamp in seconds the pool will open\n        uint openAt;\n        // the delay timestamp in seconds when buyers can claim after pool filled\n        uint claimDelaySec;\n        bool onlyBot;\n        uint maxEthPerWallet;\n    }\n\n    struct Pool {\n        uint projectId;\n        // beneficiary of the pool\n        address payable beneficiary;\n        // address of sell token\n        address token0;\n        // address of buy token\n        address token1;\n        // total amount of token0\n        uint amountTotal0;\n        // total amount of token1\n        uint amountTotal1;\n        // the timestamp in seconds the pool will open\n        uint openAt;\n        // the timestamp in seconds the pool will be closed\n        uint closeAt;\n        // the delay timestamp in seconds when buyers can claim after pool filled\n        uint claimDelaySec;\n    }\n\n    Pool[] public pools;\n    address public creator;\n\n    // pool index => the timestamp which the pool filled at\n    mapping(uint => uint) public filledAtP;\n    // pool index => swap amount of token0\n    mapping(uint => uint) public amountSwap0P;\n    // pool index => swap amount of token1\n    mapping(uint => uint) public amountSwap1P;\n    // account => fix pool index + 1. if the result is 0, the account don't create any pool.\n    mapping(address => uint) public myP;\n    // pool index => the swap pool only allow BOT holder to take part in\n    mapping(uint => bool) public onlyBotHolderP;\n    // pool index => maximum swap amount of ETH per wallet, if the value is not set, the default value is zero\n    mapping(uint => uint) public maxEthPerWalletP;\n    // address => pool index => swapped amount of token0\n    mapping(address => mapping(uint => uint)) public myAmountSwapped0;\n    // address => pool index => swapped amount of token1\n    mapping(address => mapping(uint => uint)) public myAmountSwapped1;\n    // address => pool index => whether or not my pool is claimed\n    mapping(address => mapping(uint => bool)) public myClaimed;\n\n    // pool index => whether or not whitelist is enable\n    mapping(uint => bool) public enableWhiteList;\n    // pool index => account => whether or not allow swap\n    mapping(uint => mapping(address => bool)) public whitelistP;\n\n    event Created(uint indexed index, address indexed sender, Pool pool);\n    event Swapped(uint indexed index, address indexed sender, uint amount0, uint amount1);\n    event Claimed(uint indexed index, address indexed sender, uint amount0);\n    event UserClaimed(uint indexed index, address indexed sender, uint amount0);\n\n    function initialize(address _governor, address creator_) public {\n        require(msg.sender == governor || governor == address(0), \"invalid governor\");\n        governor = _governor;\n        creator = creator_;\n\n        config[TxFeeRatio] = 0.015 ether;\n        config[MinValueOfBotHolder] = 0.5 ether;\n\n        // mainnet\n        config[BotToken] = uint(0x5bEaBAEBB3146685Dd74176f68a0721F91297D37);\n        config[StakeContract] = uint(0x98945BC69A554F8b129b09aC8AfDc2cc2431c48E);\n    }\n\n    function initialize_rinkeby(address _governor, address creator_) public {\n        require(msg.sender == governor || governor == address(0), \"invalid governor\");\n        governor = _governor;\n        creator = creator_;\n\n        config[TxFeeRatio] = 0.015 ether;\n        config[MinValueOfBotHolder] = 0.5 ether;\n\n        // rinkeby\n        config[BotToken] = uint(0xAbF690E2EbC6690c4Fdc303fc3eE0FBFEb1818eD);\n        config[StakeContract] = uint(0xa77A9FcbA2Ae5599e0054369d1655D186020ECE1);\n    }\n\n    function create(CreateReq memory poolReq, address[] memory whitelist_) public payable\n        isPoolNotCreate(poolReq.beneficiary)\n    {\n        require(creator == msg.sender, \"invalid creator\");\n\n        uint index = pools.length;\n        require(poolReq.token0 != poolReq.token1, \"token0 and token1 is same\");\n        require(poolReq.amountTotal0 != 0, \"invalid amountTotal0\");\n        require(poolReq.amountTotal1 != 0, \"invalid amountTotal1\");\n        require(poolReq.openAt >= now, \"invalid openAt\");\n        require(poolReq.duration != 0, \"invalid duration\");\n\n        if (poolReq.maxEthPerWallet != 0) {\n            maxEthPerWalletP[index] = poolReq.maxEthPerWallet;\n        }\n        if (poolReq.onlyBot) {\n            onlyBotHolderP[index] = poolReq.onlyBot;\n        }\n\n        // transfer amount of token0 to this contract\n        IERC20  _token0 = IERC20(poolReq.token0);\n        uint token0BalanceBefore = _token0.balanceOf(address(this));\n        _token0.safeTransferFrom(poolReq.beneficiary, address(this), poolReq.amountTotal0);\n        require(\n            _token0.balanceOf(address(this)).sub(token0BalanceBefore) == poolReq.amountTotal0,\n            \"not support deflationary token\"\n        );\n        // reset allowance to 0\n        _token0.safeApprove(address(this), 0);\n\n        addWhitelist(index, whitelist_);\n\n        Pool memory pool;\n        pool.projectId = poolReq.projectId;\n        pool.beneficiary = poolReq.beneficiary;\n        pool.token0 = poolReq.token0;\n        pool.token1 = poolReq.token1;\n        pool.amountTotal0 = poolReq.amountTotal0;\n        pool.amountTotal1 = poolReq.amountTotal1;\n        pool.openAt = poolReq.openAt;\n        pool.closeAt = poolReq.openAt.add(poolReq.duration);\n        pool.claimDelaySec = poolReq.claimDelaySec;\n        pools.push(pool);\n\n        myP[poolReq.beneficiary] = index + 1;\n\n        emit Created(index, msg.sender, pool);\n    }\n\n    function swap(uint index, uint amount1) external payable\n        isPoolExist(index)\n        isPoolNotClosed(index)\n        checkBotHolder(index)\n    {\n        address payable sender = msg.sender;\n        if (enableWhiteList[index]) {\n            require(whitelistP[index][sender], \"sender not in whitelist\");\n        }\n        Pool memory pool = pools[index];\n        require(pool.openAt <= now, \"pool not open\");\n        require(amount1 != 0, \"the value of amount1 is zero\");\n        require(pool.amountTotal1 > amountSwap1P[index], \"swap amount is zero\");\n\n        // check if amount1 is exceeded\n        uint excessAmount1 = 0;\n        uint _amount1 = pool.amountTotal1.sub(amountSwap1P[index]);\n        if (_amount1 < amount1) {\n            excessAmount1 = amount1.sub(_amount1);\n        } else {\n            _amount1 = amount1;\n        }\n\n        // check if amount0 is exceeded\n        uint amount0 = _amount1.mul(pool.amountTotal0).div(pool.amountTotal1);\n        uint _amount0 = pool.amountTotal0.sub(amountSwap0P[index]);\n        if (_amount0 < amount0) {\n            require(amount0 - _amount0 > 100, \"amount0 is too big\");\n        } else {\n            _amount0 = amount0;\n        }\n\n        amountSwap0P[index] = amountSwap0P[index].add(_amount0);\n        amountSwap1P[index] = amountSwap1P[index].add(_amount1);\n        myAmountSwapped0[sender][index] = myAmountSwapped0[sender][index].add(_amount0);\n        // check if swapped amount of token1 is exceeded maximum allowance\n        if (maxEthPerWalletP[index] != 0) {\n            require(\n                myAmountSwapped1[sender][index].add(_amount1) <= maxEthPerWalletP[index],\n                \"swapped amount of token1 is exceeded maximum allowance\"\n            );\n            myAmountSwapped1[sender][index] = myAmountSwapped1[sender][index].add(_amount1);\n        }\n\n        if (pool.amountTotal1 == amountSwap1P[index]) {\n            filledAtP[index] = now;\n        }\n\n        // transfer amount of token1 to this contract\n        if (pool.token1 == address(0)) {\n            require(msg.value == amount1, \"invalid amount of ETH\");\n        } else {\n            IERC20(pool.token1).safeTransferFrom(sender, address(this), amount1);\n        }\n\n        if (pool.claimDelaySec == 0) {\n            if (_amount0 > 0) {\n                // send token0 to sender\n                if (pool.token0 == address(0)) {\n                    sender.transfer(_amount0);\n                } else {\n                    IERC20(pool.token0).safeTransfer(sender, _amount0);\n                }\n            }\n        }\n        if (excessAmount1 > 0) {\n            // send excess amount of token1 back to sender\n            if (pool.token1 == address(0)) {\n                sender.transfer(excessAmount1);\n            } else {\n                IERC20(pool.token1).safeTransfer(sender, excessAmount1);\n            }\n        }\n\n        // send token1 to beneficiary\n        if (pool.token1 == address(0)) {\n            uint256 txFee = _amount1.mul(getTxFeeRatio()).div(1 ether);\n            uint256 _actualAmount1 = _amount1.sub(txFee);\n            if (_actualAmount1 > 0) {\n                pool.beneficiary.transfer(_actualAmount1);\n            }\n            if (txFee > 0) {\n                // deposit transaction fee to staking contract\n                IBounceStake(getStakeContract()).depositReward{value: txFee}();\n            }\n        } else {\n            IERC20(pool.token1).safeTransfer(pool.beneficiary, _amount1);\n        }\n\n        emit Swapped(index, sender, _amount0, _amount1);\n    }\n\n    function claim() external payable {\n        address payable beneficiary = msg.sender;\n        require(myP[beneficiary] != 0, \"this pool is not owned by this address\");\n        uint index = myP[beneficiary] - 1;\n        Pool memory pool = pools[index];\n        require(index < pools.length, \"this pool does not exist\");\n        if (pool.amountTotal1 != amountSwap1P[index]) {\n            require(pool.closeAt <= now, \"this pool is not closed\");\n        }\n        // require(pool.amountTotal0 > amountSwap0P[index], \"the total amount of this pool is swapped\");\n\n        // remove ownership of this pool from Beneficiary\n        delete myP[beneficiary];\n\n        uint unSwapAmount0 = pool.amountTotal0 - amountSwap0P[index];\n        if (unSwapAmount0 > 0) {\n            IERC20(pool.token0).safeTransfer(beneficiary, unSwapAmount0);\n        }\n\n        emit Claimed(index, beneficiary, unSwapAmount0);\n    }\n\n    function userClaim(uint index) external\n        isPoolExist(index)\n    {\n        Pool memory pool = pools[index];\n        address sender = msg.sender;\n        require(pools[index].claimDelaySec > 0, \"invalid claim\");\n        require(!myClaimed[sender][index], \"claimed\");\n        require(filledAtP[index] > 0 && filledAtP[index].add(pool.claimDelaySec) <= now || pool.closeAt <= now, \"claim not ready\");\n        myClaimed[sender][index] = true;\n        if (myAmountSwapped0[sender][index] > 0) {\n            // send token0 to sender\n            if (pool.token0 == address(0)) {\n                msg.sender.transfer(myAmountSwapped0[sender][index]);\n            } else {\n                IERC20(pool.token0).safeTransfer(msg.sender, myAmountSwapped0[sender][index]);\n            }\n        }\n        emit UserClaimed(index, sender, myAmountSwapped0[sender][index]);\n    }\n\n    function transferGovernor(address _governor) external {\n        require(msg.sender == governor || governor == address(0), \"invalid governor\");\n        governor = _governor;\n    }\n\n    function addWhitelist(uint index, address[] memory whitelist_) public {\n        require(creator == msg.sender, \"invalid creator\");\n\n        if (whitelist_.length > 0) {\n            enableWhiteList[index] = true;\n            for (uint i = 0; i < whitelist_.length; i++) {\n                whitelistP[index][whitelist_[i]] = true;\n            }\n        }\n    }\n\n    function removeWhitelist(uint index, address[] memory whitelist_) external {\n        require(creator == msg.sender, \"invalid creator\");\n\n        if (whitelist_.length > 0) {\n            for (uint i = 0; i < whitelist_.length; i++) {\n                delete whitelistP[index][whitelist_[i]];\n            }\n        }\n    }\n\n    function setCreator(address creator_) external {\n        require(msg.sender == governor || governor == address(0), \"invalid governor\");\n        creator = creator_;\n    }\n\n    function getPoolCount() public view returns (uint) {\n        return pools.length;\n    }\n\n    function getTxFeeRatio() public view returns (uint) {\n        return config[TxFeeRatio];\n    }\n\n    function getMinValueOfBotHolder() public view returns (uint) {\n        return config[MinValueOfBotHolder];\n    }\n\n    function getBotToken() public view returns (address) {\n        return address(config[BotToken]);\n    }\n\n    function getStakeContract() public view returns (address) {\n        return address(config[StakeContract]);\n    }\n\n    modifier isPoolClosed(uint index) {\n        require(pools[index].closeAt <= now, \"this pool is not closed\");\n        _;\n    }\n\n    modifier isPoolNotClosed(uint index) {\n        require(pools[index].closeAt > now, \"this pool is closed\");\n        _;\n    }\n\n    modifier isPoolExist(uint index) {\n        require(index < pools.length, \"this pool does not exist\");\n        _;\n    }\n\n    modifier isPoolNotCreate(address target) {\n        // check if target has a pool\n        if (myP[target] > 0) {\n            revert(\"a pool has created by this address\");\n        }\n        _;\n    }\n\n    modifier checkBotHolder(uint index) {\n        if (onlyBotHolderP[index]) {\n            require(IERC20(getBotToken()).balanceOf(msg.sender) >= getMinValueOfBotHolder(), \"BOT is not enough\");\n        }\n        _;\n    }\n}\n",
  "sourcePath": "contracts/BouncePro.sol",
  "abi": [
    {
      "anonymous": false,
      "inputs": [
        {
          "indexed": true,
          "internalType": "uint256",
          "name": "index",
          "type": "uint256"
        },
        {
          "indexed": true,
          "internalType": "address",
          "name": "sender",
          "type": "address"
        },
        {
          "indexed": false,
          "internalType": "uint256",
          "name": "amount0",
          "type": "uint256"
        }
      ],
      "name": "Claimed",
      "type": "event"
    },
    {
      "anonymous": false,
      "inputs": [
        {
          "indexed": true,
          "internalType": "uint256",
          "name": "index",
          "type": "uint256"
        },
        {
          "indexed": true,
          "internalType": "address",
          "name": "sender",
          "type": "address"
        },
        {
          "components": [
            {
              "internalType": "uint256",
              "name": "projectId",
              "type": "uint256"
            },
            {
              "internalType": "address payable",
              "name": "beneficiary",
              "type": "address"
            },
            {
              "internalType": "address",
              "name": "token0",
              "type": "address"
            },
            {
              "internalType": "address",
              "name": "token1",
              "type": "address"
            },
            {
              "internalType": "uint256",
              "name": "amountTotal0",
              "type": "uint256"
            },
            {
              "internalType": "uint256",
              "name": "amountTotal1",
              "type": "uint256"
            },
            {
              "internalType": "uint256",
              "name": "openAt",
              "type": "uint256"
            },
            {
              "internalType": "uint256",
              "name": "closeAt",
              "type": "uint256"
            },
            {
              "internalType": "uint256",
              "name": "claimDelaySec",
              "type": "uint256"
            }
          ],
          "indexed": false,
          "internalType": "struct BouncePro.Pool",
          "name": "pool",
          "type": "tuple"
        }
      ],
      "name": "Created",
      "type": "event"
    },
    {
      "anonymous": false,
      "inputs": [
        {
          "indexed": true,
          "internalType": "address",
          "name": "previousGovernor",
          "type": "address"
        },
        {
          "indexed": true,
          "internalType": "address",
          "name": "newGovernor",
          "type": "address"
        }
      ],
      "name": "GovernorshipTransferred",
      "type": "event"
    },
    {
      "anonymous": false,
      "inputs": [
        {
          "indexed": true,
          "internalType": "uint256",
          "name": "index",
          "type": "uint256"
        },
        {
          "indexed": true,
          "internalType": "address",
          "name": "sender",
          "type": "address"
        },
        {
          "indexed": false,
          "internalType": "uint256",
          "name": "amount0",
          "type": "uint256"
        },
        {
          "indexed": false,
          "internalType": "uint256",
          "name": "amount1",
          "type": "uint256"
        }
      ],
      "name": "Swapped",
      "type": "event"
    },
    {
      "anonymous": false,
      "inputs": [
        {
          "indexed": true,
          "internalType": "uint256",
          "name": "index",
          "type": "uint256"
        },
        {
          "indexed": true,
          "internalType": "address",
          "name": "sender",
          "type": "address"
        },
        {
          "indexed": false,
          "internalType": "uint256",
          "name": "amount0",
          "type": "uint256"
        }
      ],
      "name": "UserClaimed",
      "type": "event"
    },
    {
      "inputs": [
        {
          "internalType": "uint256",
          "name": "index",
          "type": "uint256"
        },
        {
          "internalType": "address[]",
          "name": "whitelist_",
          "type": "address[]"
        }
      ],
      "name": "addWhitelist",
      "outputs": [],
      "stateMutability": "nonpayable",
      "type": "function"
    },
    {
      "inputs": [
        {
          "internalType": "uint256",
          "name": "",
          "type": "uint256"
        }
      ],
      "name": "amountSwap0P",
      "outputs": [
        {
          "internalType": "uint256",
          "name": "",
          "type": "uint256"
        }
      ],
      "stateMutability": "view",
      "type": "function"
    },
    {
      "inputs": [
        {
          "internalType": "uint256",
          "name": "",
          "type": "uint256"
        }
      ],
      "name": "amountSwap1P",
      "outputs": [
        {
          "internalType": "uint256",
          "name": "",
          "type": "uint256"
        }
      ],
      "stateMutability": "view",
      "type": "function"
    },
    {
      "inputs": [],
      "name": "claim",
      "outputs": [],
      "stateMutability": "payable",
      "type": "function"
    },
    {
      "inputs": [
        {
          "components": [
            {
              "internalType": "uint256",
              "name": "projectId",
              "type": "uint256"
            },
            {
              "internalType": "address payable",
              "name": "beneficiary",
              "type": "address"
            },
            {
              "internalType": "address",
              "name": "token0",
              "type": "address"
            },
            {
              "internalType": "address",
              "name": "token1",
              "type": "address"
            },
            {
              "internalType": "uint256",
              "name": "amountTotal0",
              "type": "uint256"
            },
            {
              "internalType": "uint256",
              "name": "amountTotal1",
              "type": "uint256"
            },
            {
              "internalType": "uint256",
              "name": "duration",
              "type": "uint256"
            },
            {
              "internalType": "uint256",
              "name": "openAt",
              "type": "uint256"
            },
            {
              "internalType": "uint256",
              "name": "claimDelaySec",
              "type": "uint256"
            },
            {
              "internalType": "bool",
              "name": "onlyBot",
              "type": "bool"
            },
            {
              "internalType": "uint256",
              "name": "maxEthPerWallet",
              "type": "uint256"
            }
          ],
          "internalType": "struct BouncePro.CreateReq",
          "name": "poolReq",
          "type": "tuple"
        },
        {
          "internalType": "address[]",
          "name": "whitelist_",
          "type": "address[]"
        }
      ],
      "name": "create",
      "outputs": [],
      "stateMutability": "payable",
      "type": "function"
    },
    {
      "inputs": [],
      "name": "creator",
      "outputs": [
        {
          "internalType": "address",
          "name": "",
          "type": "address"
        }
      ],
      "stateMutability": "view",
      "type": "function"
    },
    {
      "inputs": [
        {
          "internalType": "uint256",
          "name": "",
          "type": "uint256"
        }
      ],
      "name": "enableWhiteList",
      "outputs": [
        {
          "internalType": "bool",
          "name": "",
          "type": "bool"
        }
      ],
      "stateMutability": "view",
      "type": "function"
    },
    {
      "inputs": [
        {
          "internalType": "uint256",
          "name": "",
          "type": "uint256"
        }
      ],
      "name": "filledAtP",
      "outputs": [
        {
          "internalType": "uint256",
          "name": "",
          "type": "uint256"
        }
      ],
      "stateMutability": "view",
      "type": "function"
    },
    {
      "inputs": [],
      "name": "getBotToken",
      "outputs": [
        {
          "internalType": "address",
          "name": "",
          "type": "address"
        }
      ],
      "stateMutability": "view",
      "type": "function"
    },
    {
      "inputs": [
        {
          "internalType": "bytes32",
          "name": "key",
          "type": "bytes32"
        },
        {
          "internalType": "address",
          "name": "addr",
          "type": "address"
        }
      ],
      "name": "getConfig",
      "outputs": [
        {
          "internalType": "uint256",
          "name": "",
          "type": "uint256"
        }
      ],
      "stateMutability": "view",
      "type": "function"
    },
    {
      "inputs": [
        {
          "internalType": "bytes32",
          "name": "key",
          "type": "bytes32"
        }
      ],
      "name": "getConfig",
      "outputs": [
        {
          "internalType": "uint256",
          "name": "",
          "type": "uint256"
        }
      ],
      "stateMutability": "view",
      "type": "function"
    },
    {
      "inputs": [
        {
          "internalType": "bytes32",
          "name": "key",
          "type": "bytes32"
        },
        {
          "internalType": "uint256",
          "name": "index",
          "type": "uint256"
        }
      ],
      "name": "getConfig",
      "outputs": [
        {
          "internalType": "uint256",
          "name": "",
          "type": "uint256"
        }
      ],
      "stateMutability": "view",
      "type": "function"
    },
    {
      "inputs": [],
      "name": "getMinValueOfBotHolder",
      "outputs": [
        {
          "internalType": "uint256",
          "name": "",
          "type": "uint256"
        }
      ],
      "stateMutability": "view",
      "type": "function"
    },
    {
      "inputs": [],
      "name": "getPoolCount",
      "outputs": [
        {
          "internalType": "uint256",
          "name": "",
          "type": "uint256"
        }
      ],
      "stateMutability": "view",
      "type": "function"
    },
    {
      "inputs": [],
      "name": "getStakeContract",
      "outputs": [
        {
          "internalType": "address",
          "name": "",
          "type": "address"
        }
      ],
      "stateMutability": "view",
      "type": "function"
    },
    {
      "inputs": [],
      "name": "getTxFeeRatio",
      "outputs": [
        {
          "internalType": "uint256",
          "name": "",
          "type": "uint256"
        }
      ],
      "stateMutability": "view",
      "type": "function"
    },
    {
      "inputs": [],
      "name": "governor",
      "outputs": [
        {
          "internalType": "address",
          "name": "",
          "type": "address"
        }
      ],
      "stateMutability": "view",
      "type": "function"
    },
    {
      "inputs": [
        {
          "internalType": "address",
          "name": "_governor",
          "type": "address"
        },
        {
          "internalType": "address",
          "name": "creator_",
          "type": "address"
        }
      ],
      "name": "initialize",
      "outputs": [],
      "stateMutability": "nonpayable",
      "type": "function"
    },
    {
      "inputs": [
        {
          "internalType": "address",
          "name": "governor_",
          "type": "address"
        }
      ],
      "name": "initialize",
      "outputs": [],
      "stateMutability": "nonpayable",
      "type": "function"
    },
    {
      "inputs": [
        {
          "internalType": "address",
          "name": "_governor",
          "type": "address"
        },
        {
          "internalType": "address",
          "name": "creator_",
          "type": "address"
        }
      ],
      "name": "initialize_rinkeby",
      "outputs": [],
      "stateMutability": "nonpayable",
      "type": "function"
    },
    {
      "inputs": [
        {
          "internalType": "uint256",
          "name": "",
          "type": "uint256"
        }
      ],
      "name": "maxEthPerWalletP",
      "outputs": [
        {
          "internalType": "uint256",
          "name": "",
          "type": "uint256"
        }
      ],
      "stateMutability": "view",
      "type": "function"
    },
    {
      "inputs": [
        {
          "internalType": "address",
          "name": "",
          "type": "address"
        },
        {
          "internalType": "uint256",
          "name": "",
          "type": "uint256"
        }
      ],
      "name": "myAmountSwapped0",
      "outputs": [
        {
          "internalType": "uint256",
          "name": "",
          "type": "uint256"
        }
      ],
      "stateMutability": "view",
      "type": "function"
    },
    {
      "inputs": [
        {
          "internalType": "address",
          "name": "",
          "type": "address"
        },
        {
          "internalType": "uint256",
          "name": "",
          "type": "uint256"
        }
      ],
      "name": "myAmountSwapped1",
      "outputs": [
        {
          "internalType": "uint256",
          "name": "",
          "type": "uint256"
        }
      ],
      "stateMutability": "view",
      "type": "function"
    },
    {
      "inputs": [
        {
          "internalType": "address",
          "name": "",
          "type": "address"
        },
        {
          "internalType": "uint256",
          "name": "",
          "type": "uint256"
        }
      ],
      "name": "myClaimed",
      "outputs": [
        {
          "internalType": "bool",
          "name": "",
          "type": "bool"
        }
      ],
      "stateMutability": "view",
      "type": "function"
    },
    {
      "inputs": [
        {
          "internalType": "address",
          "name": "",
          "type": "address"
        }
      ],
      "name": "myP",
      "outputs": [
        {
          "internalType": "uint256",
          "name": "",
          "type": "uint256"
        }
      ],
      "stateMutability": "view",
      "type": "function"
    },
    {
      "inputs": [
        {
          "internalType": "uint256",
          "name": "",
          "type": "uint256"
        }
      ],
      "name": "onlyBotHolderP",
      "outputs": [
        {
          "internalType": "bool",
          "name": "",
          "type": "bool"
        }
      ],
      "stateMutability": "view",
      "type": "function"
    },
    {
      "inputs": [
        {
          "internalType": "uint256",
          "name": "",
          "type": "uint256"
        }
      ],
      "name": "pools",
      "outputs": [
        {
          "internalType": "uint256",
          "name": "projectId",
          "type": "uint256"
        },
        {
          "internalType": "address payable",
          "name": "beneficiary",
          "type": "address"
        },
        {
          "internalType": "address",
          "name": "token0",
          "type": "address"
        },
        {
          "internalType": "address",
          "name": "token1",
          "type": "address"
        },
        {
          "internalType": "uint256",
          "name": "amountTotal0",
          "type": "uint256"
        },
        {
          "internalType": "uint256",
          "name": "amountTotal1",
          "type": "uint256"
        },
        {
          "internalType": "uint256",
          "name": "openAt",
          "type": "uint256"
        },
        {
          "internalType": "uint256",
          "name": "closeAt",
          "type": "uint256"
        },
        {
          "internalType": "uint256",
          "name": "claimDelaySec",
          "type": "uint256"
        }
      ],
      "stateMutability": "view",
      "type": "function"
    },
    {
      "inputs": [
        {
          "internalType": "uint256",
          "name": "index",
          "type": "uint256"
        },
        {
          "internalType": "address[]",
          "name": "whitelist_",
          "type": "address[]"
        }
      ],
      "name": "removeWhitelist",
      "outputs": [],
      "stateMutability": "nonpayable",
      "type": "function"
    },
    {
      "inputs": [],
      "name": "renounceGovernorship",
      "outputs": [],
      "stateMutability": "nonpayable",
      "type": "function"
    },
    {
      "inputs": [
        {
          "internalType": "bytes32",
          "name": "key",
          "type": "bytes32"
        },
        {
          "internalType": "uint256",
          "name": "value",
          "type": "uint256"
        }
      ],
      "name": "setConfig",
      "outputs": [],
      "stateMutability": "nonpayable",
      "type": "function"
    },
    {
      "inputs": [
        {
          "internalType": "bytes32",
          "name": "key",
          "type": "bytes32"
        },
        {
          "internalType": "address",
          "name": "addr",
          "type": "address"
        },
        {
          "internalType": "uint256",
          "name": "value",
          "type": "uint256"
        }
      ],
      "name": "setConfig",
      "outputs": [],
      "stateMutability": "nonpayable",
      "type": "function"
    },
    {
      "inputs": [
        {
          "internalType": "bytes32",
          "name": "key",
          "type": "bytes32"
        },
        {
          "internalType": "uint256",
          "name": "index",
          "type": "uint256"
        },
        {
          "internalType": "uint256",
          "name": "value",
          "type": "uint256"
        }
      ],
      "name": "setConfig",
      "outputs": [],
      "stateMutability": "nonpayable",
      "type": "function"
    },
    {
      "inputs": [
        {
          "internalType": "address",
          "name": "creator_",
          "type": "address"
        }
      ],
      "name": "setCreator",
      "outputs": [],
      "stateMutability": "nonpayable",
      "type": "function"
    },
    {
      "inputs": [
        {
          "internalType": "uint256",
          "name": "index",
          "type": "uint256"
        },
        {
          "internalType": "uint256",
          "name": "amount1",
          "type": "uint256"
        }
      ],
      "name": "swap",
      "outputs": [],
      "stateMutability": "payable",
      "type": "function"
    },
    {
      "inputs": [
        {
          "internalType": "address",
          "name": "_governor",
          "type": "address"
        }
      ],
      "name": "transferGovernor",
      "outputs": [],
      "stateMutability": "nonpayable",
      "type": "function"
    },
    {
      "inputs": [
        {
          "internalType": "address",
          "name": "newGovernor",
          "type": "address"
        }
      ],
      "name": "transferGovernorship",
      "outputs": [],
      "stateMutability": "nonpayable",
      "type": "function"
    },
    {
      "inputs": [
        {
          "internalType": "uint256",
          "name": "index",
          "type": "uint256"
        }
      ],
      "name": "userClaim",
      "outputs": [],
      "stateMutability": "nonpayable",
      "type": "function"
    },
    {
      "inputs": [
        {
          "internalType": "uint256",
          "name": "",
          "type": "uint256"
        },
        {
          "internalType": "address",
          "name": "",
          "type": "address"
        }
      ],
      "name": "whitelistP",
      "outputs": [
        {
          "internalType": "bool",
          "name": "",
          "type": "bool"
        }
      ],
      "stateMutability": "view",
      "type": "function"
    }
  ],
  "bytecode": "0x608060405234801561001057600080fd5b50613248806100206000396000f3fe6080604052600436106102255760003560e01c80638ec872e311610123578063c4d66de8116100ab578063ddf2be3f1161006f578063ddf2be3f1461061f578063dfd29d9e1461063f578063e471039014610654578063fb3423fd14610674578063fe43efda1461068757610225565b8063c4d66de814610597578063c6472b12146105b7578063c7011b7b146105d7578063c92a46bb146105ec578063d96073cf1461060c57610225565b8063ac4afa38116100f2578063ac4afa38146104e2578063b21544f314610517578063b5ea58df14610537578063b6aa515b14610557578063b8cc9ce61461057757610225565b80638ec872e31461046d5780638eec5d701461048d57806396290eec146104a2578063a5ed536f146104c257610225565b806352665f47116101b15780636dd5b69d116101755780636dd5b69d146103d857806381c0c263146103f85780638aa1e44e1461040d5780638cfbe9d51461042d5780638d0929af1461044d57610225565b806352665f47146103435780635486441514610363578063636b04751461038357806363cb6c42146103a35780636c221098146103b857610225565b8063211f4191116101f8578063211f4191146102ae5780633a06d35f146102ce5780633f516018146102fb578063485cc9551461031b5780634e71d92d1461033b57610225565b806302d05d3f1461022a5780630c340a241461025557806315fe96dc1461026a5780631bb2dd6c1461028c575b600080fd5b34801561023657600080fd5b5061023f6106a7565b60405161024c919061299e565b60405180910390f35b34801561026157600080fd5b5061023f6106b6565b34801561027657600080fd5b5061028a6102853660046127f8565b6106c5565b005b34801561029857600080fd5b506102a16106ea565b60405161024c9190613137565b3480156102ba57600080fd5b506102a16102c936600461273e565b61072b565b3480156102da57600080fd5b506102ee6102e9366004612785565b610748565b60405161024c9190612a09565b34801561030757600080fd5b5061028a6103163660046126ea565b61075d565b34801561032757600080fd5b5061028a610336366004612706565b6107c6565b61028a610914565b34801561034f57600080fd5b506102a161035e36600461279d565b610af1565b34801561036f57600080fd5b506102a161037e366004612785565b610b13565b34801561038f57600080fd5b506102a161039e366004612785565b610b25565b3480156103af57600080fd5b506102a1610b37565b3480156103c457600080fd5b5061028a6103d3366004612946565b610b85565b3480156103e457600080fd5b506102a16103f3366004612785565b610c1b565b34801561040457600080fd5b5061028a610c2d565b34801561041957600080fd5b5061028a610428366004612946565b610c8e565b34801561043957600080fd5b506102a1610448366004612785565b610d3c565b34801561045957600080fd5b506102ee61046836600461279d565b610d4e565b34801561047957600080fd5b506102a16104883660046127f8565b610d6e565b34801561049957600080fd5b506102a1610d81565b3480156104ae57600080fd5b5061028a6104bd366004612706565b610d87565b3480156104ce57600080fd5b506102a16104dd36600461273e565b610ed5565b3480156104ee57600080fd5b506105026104fd366004612785565b610ef2565b60405161024c99989796959493929190613140565b34801561052357600080fd5b5061028a6105323660046127c1565b610f59565b34801561054357600080fd5b506102a16105523660046126ea565b610f85565b34801561056357600080fd5b5061028a6105723660046126ea565b610f97565b34801561058357600080fd5b5061028a6105923660046126ea565b610fba565b3480156105a357600080fd5b5061028a6105b23660046126ea565b61101a565b3480156105c357600080fd5b506102ee6105d2366004612785565b6110ec565b3480156105e357600080fd5b5061023f611101565b3480156105f857600080fd5b506102a1610607366004612785565b611140565b61028a61061a3660046127f8565b611152565b34801561062b57600080fd5b5061028a61063a366004612819565b6118b3565b34801561064b57600080fd5b5061023f6118d6565b34801561066057600080fd5b506102ee61066f36600461273e565b61191a565b61028a610682366004612844565b61193a565b34801561069357600080fd5b5061028a6106a2366004612785565b611eb6565b6036546001600160a01b031681565b6033546001600160a01b031681565b6033546001600160a01b031633146106dc57600080fd5b6106e6828261219a565b5050565b6f4250524f3a3a5478466565526174696f60801b60005260346020527fffbf84605eb52262a41c847c7791b7b6dd535e0b4316697de9753a2beb5d90c25490565b603e60209081526000928352604080842090915290825290205481565b60406020819052600091825290205460ff1681565b6033546001600160a01b031633148061077f57506033546001600160a01b0316155b6107a45760405162461bcd60e51b815260040161079b90612a7e565b60405180910390fd5b603680546001600160a01b0319166001600160a01b0392909216919091179055565b6033546001600160a01b03163314806107e857506033546001600160a01b0316155b6108045760405162461bcd60e51b815260040161079b90612a7e565b603380546001600160a01b039384166001600160a01b03199182161790915560368054929093169116179055603460205266354a6ba7a180007fffbf84605eb52262a41c847c7791b7b6dd535e0b4316697de9753a2beb5d90c2556706f05b59d3b200007f91e939d72bdb77b6a15376661a793418c7afd7afe8bca794c87800142364c71655735beabaebb3146685dd74176f68a0721f91297d377f327aca578c649dc79927fe59d303dc9cdadfadab7d9399d4580c7237822d13de557210941493ce8e94dd185ad950dbdb9d1c9858dd606a1b6000527398945bc69a554f8b129b09ac8afdc2cc2431c48e7faa56f7e443c3b6958893335d7a601ded3aa26adb5788a7d9faf2cc3447d8325d55565b336000818152603a60205260409020546109405760405162461bcd60e51b815260040161079b90612d13565b6001600160a01b0381166000908152603a6020526040902054600019016109656125e4565b6035828154811061097257fe5b6000918252602091829020604080516101208101825260099093029091018054835260018101546001600160a01b039081169484019490945260028101548416918301919091526003810154909216606082015260048201546080820152600582015460a0820152600682015460c0820152600782015460e08201526008909101546101008201526035549091508210610a1e5760405162461bcd60e51b815260040161079b90612b58565b60008281526039602052604090205460a082015114610a5b57428160e001511115610a5b5760405162461bcd60e51b815260040161079b90613083565b6001600160a01b0383166000908152603a6020908152604080832083905584835260389091529020546080820151038015610aa9576040820151610aa9906001600160a01b031685836121c1565b836001600160a01b0316837f4ec90e965519d92681267467f775ada5bd214aa92c0dc93d90a5e880ce9ed02683604051610ae39190613137565b60405180910390a350505050565b6001600160a01b03811682186000908152603460205260409020545b92915050565b60376020526000908152604090205481565b60396020526000908152604090205481565b7f4250524f3a3a4d696e56616c75654f66426f74486f6c6465720000000000000060005260346020527f91e939d72bdb77b6a15376661a793418c7afd7afe8bca794c87800142364c7165490565b6036546001600160a01b03163314610baf5760405162461bcd60e51b815260040161079b90612c97565b8051156106e65760005b8151811015610c1657604160008481526020019081526020016000206000838381518110610be357fe5b6020908102919091018101516001600160a01b03168252810191909152604001600020805460ff19169055600101610bb9565b505050565b60009081526034602052604090205490565b6033546001600160a01b03163314610c4457600080fd5b6033546040516000916001600160a01b0316907fc7c0c772add429241571afb3805861fb3cfa2af374534088b76cdb4325a87e9a908390a3603380546001600160a01b0319169055565b6036546001600160a01b03163314610cb85760405162461bcd60e51b815260040161079b90612c97565b8051156106e6576000828152604060208190528120805460ff191660011790555b8151811015610c16576000838152604160205260408120835160019290859085908110610d0257fe5b6020908102919091018101516001600160a01b03168252810191909152604001600020805460ff1916911515919091179055600101610cd9565b60386020526000908152604090205481565b604160209081526000928352604080842090915290825290205460ff1681565b1860009081526034602052604090205490565b60355490565b6033546001600160a01b0316331480610da957506033546001600160a01b0316155b610dc55760405162461bcd60e51b815260040161079b90612a7e565b603380546001600160a01b039384166001600160a01b03199182161790915560368054929093169116179055603460205266354a6ba7a180007fffbf84605eb52262a41c847c7791b7b6dd535e0b4316697de9753a2beb5d90c2556706f05b59d3b200007f91e939d72bdb77b6a15376661a793418c7afd7afe8bca794c87800142364c7165573abf690e2ebc6690c4fdc303fc3ee0fbfeb1818ed7f327aca578c649dc79927fe59d303dc9cdadfadab7d9399d4580c7237822d13de557210941493ce8e94dd185ad950dbdb9d1c9858dd606a1b60005273a77a9fcba2ae5599e0054369d1655d186020ece17faa56f7e443c3b6958893335d7a601ded3aa26adb5788a7d9faf2cc3447d8325d55565b603d60209081526000928352604080842090915290825290205481565b60358181548110610eff57fe5b60009182526020909120600990910201805460018201546002830154600384015460048501546005860154600687015460078801546008909801549698506001600160a01b03958616979486169693909516949193909289565b6033546001600160a01b03163314610f7057600080fd5b610c166001600160a01b03831684188261219a565b603a6020526000908152604090205481565b6033546001600160a01b03163314610fae57600080fd5b610fb781612217565b50565b6033546001600160a01b0316331480610fdc57506033546001600160a01b0316155b610ff85760405162461bcd60e51b815260040161079b90612a7e565b603380546001600160a01b0319166001600160a01b0392909216919091179055565b600054610100900460ff16806110335750611033612286565b80611041575060005460ff16155b61105d5760405162461bcd60e51b815260040161079b90612dfe565b600054610100900460ff16158015611088576000805460ff1961ff0019909116610100171660011790555b603380546001600160a01b0319166001600160a01b0384811691909117918290556040519116906000907fc7c0c772add429241571afb3805861fb3cfa2af374534088b76cdb4325a87e9a908290a380156106e6576000805461ff00191690555050565b603b6020526000908152604090205460ff1681565b6d212829279d1d2137ba2a37b5b2b760911b60005260346020527f327aca578c649dc79927fe59d303dc9cdadfadab7d9399d4580c7237822d13de5490565b603c6020526000908152604090205481565b603554829081106111755760405162461bcd60e51b815260040161079b90612b58565b82426035828154811061118457fe5b906000526020600020906009020160070154116111b35760405162461bcd60e51b815260040161079b90612bed565b6000848152603b6020526040902054849060ff1615611275576111d4610b37565b6111dc611101565b6001600160a01b03166370a08231336040518263ffffffff1660e01b8152600401611207919061299e565b60206040518083038186803b15801561121f57600080fd5b505afa158015611233573d6000803e3d6000fd5b505050506040513d601f19601f82011682018060405250810190611257919061292e565b10156112755760405162461bcd60e51b815260040161079b90612cc0565b600085815260406020819052902054339060ff16156112d05760008681526041602090815260408083206001600160a01b038516845290915290205460ff166112d05760405162461bcd60e51b815260040161079b90612d59565b6112d86125e4565b603587815481106112e557fe5b6000918252602091829020604080516101208101825260099093029091018054835260018101546001600160a01b039081169484019490945260028101548416918301919091526003810154909216606082015260048201546080820152600582015460a0820152600682015460c08201819052600783015460e083015260089092015461010082015291504210156113905760405162461bcd60e51b815260040161079b90612e76565b856113ad5760405162461bcd60e51b815260040161079b90612aa8565b60008781526039602052604090205460a0820151116113de5760405162461bcd60e51b815260040161079b90612dd1565b60008781526039602052604081205460a083015182916113fe919061228c565b90508781101561141957611412888261228c565b915061141c565b50865b60006114438460a0015161143d8660800151856122d590919063ffffffff16565b9061230f565b60008b815260386020526040812054608087015192935090916114659161228c565b905081811015611496576064818303116114915760405162461bcd60e51b815260040161079b90612fca565b611499565b50805b60008b8152603860205260409020546114b29082612351565b60008c8152603860209081526040808320939093556039905220546114d79084612351565b60008c8152603960209081526040808320939093556001600160a01b0389168252603d81528282208e8352905220546115109082612351565b6001600160a01b0387166000908152603d602090815260408083208f8452825280832093909355603c90522054156115ec5760008b8152603c60209081526040808320546001600160a01b038a168452603e83528184208f85529092529091205461157b9085612351565b11156115995760405162461bcd60e51b815260040161079b90612e9d565b6001600160a01b0386166000908152603e602090815260408083208e84529091529020546115c79084612351565b6001600160a01b0387166000908152603e602090815260408083208f84529091529020555b60008b81526039602052604090205460a086015114156116185760008b81526037602052604090204290555b60608501516001600160a01b031661164e578934146116495760405162461bcd60e51b815260040161079b90612ef3565b611668565b6060850151611668906001600160a01b031687308d612376565b6101008501516116df5780156116df5760408501516001600160a01b03166116c6576040516001600160a01b0387169082156108fc029083906000818181858888f193505050501580156116c0573d6000803e3d6000fd5b506116df565b60408501516116df906001600160a01b031687836121c1565b831561174c5760608501516001600160a01b0316611733576040516001600160a01b0387169085156108fc029086906000818181858888f1935050505015801561172d573d6000803e3d6000fd5b5061174c565b606085015161174c906001600160a01b031687866121c1565b60608501516001600160a01b031661183c57600061177e670de0b6b3a764000061143d6117776106ea565b87906122d5565b9050600061178c858361228c565b905080156117d35786602001516001600160a01b03166108fc829081150290604051600060405180830381858888f193505050501580156117d1573d6000803e3d6000fd5b505b8115611835576117e16118d6565b6001600160a01b0316635ec2dc8d836040518263ffffffff1660e01b81526004016000604051808303818588803b15801561181b57600080fd5b505af115801561182f573d6000803e3d6000fd5b50505050505b5050611862565b61186285602001518487606001516001600160a01b03166121c19092919063ffffffff16565b856001600160a01b03168b7fe5903af08592742a0f3632ef378be3612814d51c4169d376f3eff65dd798be6d838660405161189e92919061318e565b60405180910390a35050505050505050505050565b6033546001600160a01b031633146118ca57600080fd5b610c168383188261219a565b7210941493ce8e94dd185ad950dbdb9d1c9858dd606a1b60005260346020527faa56f7e443c3b6958893335d7a601ded3aa26adb5788a7d9faf2cc3447d8325d5490565b603f60209081526000928352604080842090915290825290205460ff1681565b6020808301516001600160a01b0381166000908152603a909252604090912054156119775760405162461bcd60e51b815260040161079b90612b16565b6036546001600160a01b031633146119a15760405162461bcd60e51b815260040161079b90612c97565b603554606084015160408501516001600160a01b03908116911614156119d95760405162461bcd60e51b815260040161079b90612a47565b60808401516119fa5760405162461bcd60e51b815260040161079b90612c48565b60a0840151611a1b5760405162461bcd60e51b815260040161079b90612c1a565b428460e001511015611a3f5760405162461bcd60e51b815260040161079b90612ceb565b60c0840151611a605760405162461bcd60e51b815260040161079b90612e4c565b61014084015115611a81576101408401516000828152603c60205260409020555b83610120015115611ab0576101208401516000828152603b60205260409020805460ff19169115159190911790555b60408085015190516370a0823160e01b81526000906001600160a01b038316906370a0823190611ae490309060040161299e565b60206040518083038186803b158015611afc57600080fd5b505afa158015611b10573d6000803e3d6000fd5b505050506040513d601f19601f82011682018060405250810190611b34919061292e565b9050611b5e8660200151308860800151856001600160a01b0316612376909392919063ffffffff16565b8560800151611be982846001600160a01b03166370a08231306040518263ffffffff1660e01b8152600401611b93919061299e565b60206040518083038186803b158015611bab57600080fd5b505afa158015611bbf573d6000803e3d6000fd5b505050506040513d601f19601f82011682018060405250810190611be3919061292e565b9061228c565b14611c065760405162461bcd60e51b815260040161079b90612f22565b611c1b6001600160a01b03831630600061239d565b611c258386610c8e565b611c2d6125e4565b865181526020808801516001600160a01b0390811691830191909152604080890151821690830152606080890151909116908201526080808801519082015260a0808801519082015260e08701805160c0808401919091528801519051611c9391612351565b60e08201908152610100888101519083019081526035805460018082018355600092835285517fcfa4bec1d3298408bb5afcfcd9c430549c5b31f8aa5c5848151c0a55f473c34d6009909302928301556020808701517fcfa4bec1d3298408bb5afcfcd9c430549c5b31f8aa5c5848151c0a55f473c34e840180546001600160a01b03199081166001600160a01b03938416179091556040808a01517fcfa4bec1d3298408bb5afcfcd9c430549c5b31f8aa5c5848151c0a55f473c34f87018054841691851691909117905560608a01517fcfa4bec1d3298408bb5afcfcd9c430549c5b31f8aa5c5848151c0a55f473c350870180549093169084161790915560808901517fcfa4bec1d3298408bb5afcfcd9c430549c5b31f8aa5c5848151c0a55f473c35186015560a08901517fcfa4bec1d3298408bb5afcfcd9c430549c5b31f8aa5c5848151c0a55f473c35286015560c08901517fcfa4bec1d3298408bb5afcfcd9c430549c5b31f8aa5c5848151c0a55f473c35386015596517fcfa4bec1d3298408bb5afcfcd9c430549c5b31f8aa5c5848151c0a55f473c35485015594517fcfa4bec1d3298408bb5afcfcd9c430549c5b31f8aa5c5848151c0a55f473c35590930192909255818c01519093168252603a9052829020908601905551339085907fdc039ee1ad638bbb60440b0ac8a86217b770c53bad67f156e91aca05f377613590611ea59085906130ba565b60405180910390a350505050505050565b60355481908110611ed95760405162461bcd60e51b815260040161079b90612b58565b611ee16125e4565b60358381548110611eee57fe5b60009182526020808320604080516101208101825260099094029091018054845260018101546001600160a01b039081169385019390935260028101548316918401919091526003810154909116606083015260048101546080830152600581015460a0830152600681015460c0830152600781015460e0830152600801546101008201526035805491935033929186908110611f8757fe5b90600052602060002090600902016008015411611fb65760405162461bcd60e51b815260040161079b90612fa3565b6001600160a01b0381166000908152603f6020908152604080832087845290915290205460ff1615611ffa5760405162461bcd60e51b815260040161079b90612c76565b60008481526037602052604090205415801590612036575061010082015160008581526037602052604090205442916120339190612351565b11155b806120455750428260e0015111155b6120615760405162461bcd60e51b815260040161079b90612b8f565b6001600160a01b0381166000818152603f602090815260408083208884528252808320805460ff19166001179055928252603d815282822087835290522054156121445760408201516001600160a01b031661210c576001600160a01b0381166000908152603d60209081526040808320878452909152808220549051339282156108fc02929190818181858888f19350505050158015612106573d6000803e3d6000fd5b50612144565b6001600160a01b038082166000908152603d6020908152604080832088845290915290819020549084015161214492169033906121c1565b6001600160a01b0381166000818152603d602090815260408083208884529091529081902054905186917fff29b281372993483c1ce6b621ae07832d519c2294e43340f051312701ad132a91610ae39190613137565b60008281526034602052604090205481146106e65760009182526034602052604090912055565b610c168363a9059cbb60e01b84846040516024016121e09291906129f0565b60408051601f198184030181529190526020810180516001600160e01b03166001600160e01b031990931692909217909152612460565b6001600160a01b03811661222a57600080fd5b6033546040516001600160a01b038084169216907fc7c0c772add429241571afb3805861fb3cfa2af374534088b76cdb4325a87e9a90600090a3603380546001600160a01b0319166001600160a01b0392909216919091179055565b303b1590565b60006122ce83836040518060400160405280601e81526020017f536166654d6174683a207375627472616374696f6e206f766572666c6f770000815250612545565b9392505050565b6000826122e457506000610b0d565b828202828482816122f157fe5b04146122ce5760405162461bcd60e51b815260040161079b90612d90565b60006122ce83836040518060400160405280601a81526020017f536166654d6174683a206469766973696f6e206279207a65726f000000000000815250612571565b6000828201838110156122ce5760405162461bcd60e51b815260040161079b90612adf565b612397846323b872dd60e01b8585856040516024016121e0939291906129cc565b50505050565b8015806124255750604051636eb1769f60e11b81526001600160a01b0384169063dd62ed3e906123d390309086906004016129b2565b60206040518083038186803b1580156123eb57600080fd5b505afa1580156123ff573d6000803e3d6000fd5b505050506040513d601f19601f82011682018060405250810190612423919061292e565b155b6124415760405162461bcd60e51b815260040161079b90612ff6565b610c168363095ea7b360e01b84846040516024016121e09291906129f0565b612472826001600160a01b03166125a8565b61248e5760405162461bcd60e51b815260040161079b9061304c565b60006060836001600160a01b0316836040516124aa9190612982565b6000604051808303816000865af19150503d80600081146124e7576040519150601f19603f3d011682016040523d82523d6000602084013e6124ec565b606091505b50915091508161250e5760405162461bcd60e51b815260040161079b90612bb8565b80511561239757808060200190518101906125299190612769565b6123975760405162461bcd60e51b815260040161079b90612f59565b600081848411156125695760405162461bcd60e51b815260040161079b9190612a14565b505050900390565b600081836125925760405162461bcd60e51b815260040161079b9190612a14565b50600083858161259e57fe5b0495945050505050565b6000813f7fc5d2460186f7233c927e7db2dcc703c0e500b653ca82273b7bfad8045d85a4708181148015906125dc57508115155b949350505050565b6040518061012001604052806000815260200160006001600160a01b0316815260200160006001600160a01b0316815260200160006001600160a01b0316815260200160008152602001600081526020016000815260200160008152602001600081525090565b8035610b0d816131ef565b600082601f830112612666578081fd5b813567ffffffffffffffff81111561267c578182fd5b602080820261268c82820161319c565b838152935081840185830182870184018810156126a857600080fd5b600092505b848310156126d45780356126c0816131ef565b8252600192909201919083019083016126ad565b505050505092915050565b8035610b0d81613204565b6000602082840312156126fb578081fd5b81356122ce816131ef565b60008060408385031215612718578081fd5b8235612723816131ef565b91506020830135612733816131ef565b809150509250929050565b60008060408385031215612750578182fd5b823561275b816131ef565b946020939093013593505050565b60006020828403121561277a578081fd5b81516122ce81613204565b600060208284031215612796578081fd5b5035919050565b600080604083850312156127af578182fd5b823591506020830135612733816131ef565b6000806000606084860312156127d5578081fd5b8335925060208401356127e7816131ef565b929592945050506040919091013590565b6000806040838503121561280a578182fd5b50508035926020909101359150565b60008060006060848603121561282d578283fd5b505081359360208301359350604090920135919050565b600080828403610180811215612858578283fd5b61016080821215612867578384fd5b6128708161319c565b915084358252612883866020870161264b565b6020830152612895866040870161264b565b60408301526128a7866060870161264b565b60608301526080850135608083015260a085013560a083015260c085013560c083015260e085013560e08301526101008086013581840152506101206128ef878288016126df565b90830152610140858101359083015290925083013567ffffffffffffffff811115612918578182fd5b61292485828601612656565b9150509250929050565b60006020828403121561293f578081fd5b5051919050565b60008060408385031215612958578182fd5b82359150602083013567ffffffffffffffff811115612918578182fd5b6001600160a01b03169052565b600082516129948184602087016131c3565b9190910192915050565b6001600160a01b0391909116815260200190565b6001600160a01b0392831681529116602082015260400190565b6001600160a01b039384168152919092166020820152604081019190915260600190565b6001600160a01b03929092168252602082015260400190565b901515815260200190565b6000602082528251806020840152612a338160408501602087016131c3565b601f01601f19169190910160400192915050565b60208082526019908201527f746f6b656e3020616e6420746f6b656e312069732073616d6500000000000000604082015260600190565b60208082526010908201526f34b73b30b634b21033b7bb32b93737b960811b604082015260600190565b6020808252601c908201527f7468652076616c7565206f6620616d6f756e7431206973207a65726f00000000604082015260600190565b6020808252601b908201527f536166654d6174683a206164646974696f6e206f766572666c6f770000000000604082015260600190565b60208082526022908201527f6120706f6f6c2068617320637265617465642062792074686973206164647265604082015261737360f01b606082015260800190565b60208082526018908201527f7468697320706f6f6c20646f6573206e6f742065786973740000000000000000604082015260600190565b6020808252600f908201526e636c61696d206e6f7420726561647960881b604082015260600190565b6020808252818101527f5361666545524332303a206c6f772d6c6576656c2063616c6c206661696c6564604082015260600190565b6020808252601390820152721d1a1a5cc81c1bdbdb081a5cc818db1bdcd959606a1b604082015260600190565b602080825260149082015273696e76616c696420616d6f756e74546f74616c3160601b604082015260600190565b6020808252601490820152730696e76616c696420616d6f756e74546f74616c360641b604082015260600190565b60208082526007908201526618db185a5b595960ca1b604082015260600190565b6020808252600f908201526e34b73b30b634b21031b932b0ba37b960891b604082015260600190565b6020808252601190820152700849ea840d2e640dcdee840cadcdeeaced607b1b604082015260600190565b6020808252600e908201526d1a5b9d985b1a59081bdc195b905d60921b604082015260600190565b60208082526026908201527f7468697320706f6f6c206973206e6f74206f776e65642062792074686973206160408201526564647265737360d01b606082015260800190565b60208082526017908201527f73656e646572206e6f7420696e2077686974656c697374000000000000000000604082015260600190565b60208082526021908201527f536166654d6174683a206d756c7469706c69636174696f6e206f766572666c6f6040820152607760f81b606082015260800190565b6020808252601390820152727377617020616d6f756e74206973207a65726f60681b604082015260600190565b6020808252602e908201527f436f6e747261637420696e7374616e63652068617320616c726561647920626560408201526d195b881a5b9a5d1a585b1a5e995960921b606082015260800190565b60208082526010908201526f34b73b30b634b210323ab930ba34b7b760811b604082015260600190565b6020808252600d908201526c3837b7b6103737ba1037b832b760991b604082015260600190565b60208082526036908201527f7377617070656420616d6f756e74206f6620746f6b656e31206973206578636560408201527565646564206d6178696d756d20616c6c6f77616e636560501b606082015260800190565b6020808252601590820152740d2dcecc2d8d2c840c2dadeeadce840decc408aa89605b1b604082015260600190565b6020808252601e908201527f6e6f7420737570706f7274206465666c6174696f6e61727920746f6b656e0000604082015260600190565b6020808252602a908201527f5361666545524332303a204552433230206f7065726174696f6e20646964206e6040820152691bdd081cdd58d8d9595960b21b606082015260800190565b6020808252600d908201526c696e76616c696420636c61696d60981b604082015260600190565b602080825260129082015271616d6f756e743020697320746f6f2062696760701b604082015260600190565b60208082526036908201527f5361666545524332303a20617070726f76652066726f6d206e6f6e2d7a65726f60408201527520746f206e6f6e2d7a65726f20616c6c6f77616e636560501b606082015260800190565b6020808252601f908201527f5361666545524332303a2063616c6c20746f206e6f6e2d636f6e747261637400604082015260600190565b60208082526017908201527f7468697320706f6f6c206973206e6f7420636c6f736564000000000000000000604082015260600190565b815181526020808301516001600160a01b0316908201526040808301516101208301916130e990840182612975565b5060608301516130fc6060840182612975565b506080830151608083015260a083015160a083015260c083015160c083015260e083015160e083015261010080840151818401525092915050565b90815260200190565b9889526001600160a01b0397881660208a01529587166040890152939095166060870152608086019190915260a085015260c084019290925260e08301919091526101008201526101200190565b918252602082015260400190565b60405181810167ffffffffffffffff811182821017156131bb57600080fd5b604052919050565b60005b838110156131de5781810151838201526020016131c6565b838111156123975750506000910152565b6001600160a01b0381168114610fb757600080fd5b8015158114610fb757600080fdfea2646970667358221220fd12bfd3e9b1611d98260c82b230e1225979c7f47a270735ab602f50d63ca9cf64736f6c634300060c0033",
  "compiler": {
    "name": "solc",
    "version": "0.6.12+commit.27d51765.Emscripten.clang",
    "optimizer": {
      "enabled": true,
      "runs": 200
    },
    "evmVersion": "petersburg"
  }
}