{
  "fileName": "BounceLotteryNFTPro.sol",
  "contractName": "BounceLotteryNFTPro",
  "source": "// SPDX-License-Identifier: MIT\n\npragma solidity ^0.6.0;\npragma experimental ABIEncoderV2;\n\nimport \"@openzeppelin/contracts-ethereum-package/contracts/math/SafeMath.sol\";\nimport \"@openzeppelin/contracts-ethereum-package/contracts/token/ERC20/SafeERC20.sol\";\nimport \"@openzeppelin/contracts-ethereum-package/contracts/token/ERC20/IERC20.sol\";\nimport \"@openzeppelin/contracts-ethereum-package/contracts/token/ERC721/IERC721.sol\";\nimport \"@openzeppelin/contracts-ethereum-package/contracts/token/ERC721/IERC721Receiver.sol\";\nimport \"@uniswap/v2-periphery/contracts/interfaces/IUniswapV2Router02.sol\";\nimport \"./interfaces/IERC1155.sol\";\nimport \"./interfaces/IBouncePro.sol\";\nimport \"./Governable.sol\";\n\ncontract BounceLotteryNFTPro is Configurable, IERC721Receiver {\n    using SafeMath for uint;\n    using SafeERC20 for IERC20;\n\n    bytes32 internal constant TxFeeRatio            = bytes32(\"BLNP::TxFeeRatio\");\n    bytes32 internal constant MinValueOfBotHolder   = bytes32(\"BLNP::MinValueOfBotHolder\");\n    bytes32 internal constant BotToken              = bytes32(\"BLNP::BotToken\");\n    bytes32 internal constant AuctionToken          = bytes32(\"BLNP::AuctionToken\");\n    bytes32 internal constant UsdtToken             = bytes32(\"BLNP::UsdtToken\");\n    bytes32 internal constant BouncePro             = bytes32(\"BLNP::BouncePro\");\n    bytes32 internal constant UniswapV2Router02     = bytes32(\"BLNP::UniswapV2Router02\");\n    bytes32 internal constant EnableUniSwap         = bytes32(\"BLNP::EnableUniSwap\");\n    uint    internal constant TypeErc721            = 0;\n    uint    internal constant TypeErc1155           = 1;\n    address internal constant DeadAddress           = 0x000000000000000000000000000000000000dEaD;\n\n    struct CreateReq {\n        uint projectId;\n        // beneficiary of the pool\n        address payable beneficiary;\n        //NFT token\n        address token0;\n        //NFT id\n        uint tokenId0;\n        // total amount of token id of token0\n        uint amountTotal0;\n        //erc20 or eth\n        address token1;\n        //erc20 or eth amount\n        uint amount1;\n        // NFT token type\n        uint nftType;\n        // max player num\n        uint maxPlayer;\n        // share num\n        uint nShare;\n        // the duration in seconds the pool will be closed\n        uint duration;\n        // the timestamp in seconds the pool will open\n        uint openAt;\n        // whether or not whitelist is enable\n        bool enableWhiteList;\n        // whether or not kyc list is enable\n        bool enableKycList;\n        bool onlyBot;\n        uint maxEthPerWallet;\n    }\n\n    struct Pool {\n        uint projectId;\n        // beneficiary of the pool\n        address payable beneficiary;\n        //NFT token\n        address token0;\n        //NFT id\n        uint tokenId0;\n        // total amount of token id of token0\n        uint amountTotal0;\n        //erc20 or eth\n        address token1;\n        //erc20 or eth amount\n        uint amount1;\n        // NFT token type\n        uint nftType;\n        // max player num\n        uint maxPlayer;\n        // the timestamp in seconds the pool will open\n        uint openAt;\n        // the timestamp in seconds the pool will be closed\n        uint closeAt;\n        // whether or not whitelist is enable\n        bool enableWhiteList;\n        // whether or not kyc list is enable\n        bool enableKycList;\n    }\n\n    struct PoolExt {\n        // last bet hash\n        uint lastHash;\n        // share num\n        uint nShare;\n    }\n\n    Pool[] public pools;\n\n    // pool index => all player => Serial number\n    mapping(uint => mapping(address => uint)) public allPlayer;\n    // pool index => all player => if claim\n    mapping(uint => mapping(address => bool)) public allPlayerClaim;\n    //pool index => PoolExt\n    mapping(uint => PoolExt) public poolsExt;\n\n    //address => pool index => whether or not played the pool\n    mapping(address => mapping(uint => bool)) public myPlay;\n\n    // pool index => current player number\n    mapping(uint => uint) public curPlayerP;\n    // pool index => the swap pool only allow BOT holder to take part in\n    mapping(uint => bool) public onlyBotHolderP;\n    // pool index => maximum swap amount of ETH per wallet, if the value is not set, the default value is zero\n    mapping(uint => uint) public maxEthPerWalletP;\n\n    // team address => pool index => whether or not team's pool has been claimed\n    mapping(address => mapping(uint => bool)) public teamClaimed;\n    // user address => pool index => whether or not my pool has been claimed\n    mapping(address => mapping(uint => bool)) public myClaimed;\n\n    // pool index => account => whether or not in white list\n    mapping(uint => mapping(address => bool)) public whitelistP;\n    // creator address => whether or not it's a creator address\n    mapping(address => bool) public creator;\n\n    event Created(uint indexed index, address indexed sender, Pool pool);\n    event Bet(uint indexed index, address indexed sender);\n    event Claimed(uint indexed index, address indexed sender);\n    event UserClaimed(uint indexed index, address indexed sender);\n\n    function initialize(address _governor, address[] memory creators_) public {\n        require(msg.sender == governor || governor == address(0), \"invalid governor\");\n        governor = _governor;\n\n        for (uint i = 0; i < creators_.length; i++) {\n            addCreator(creators_[i]);\n        }\n\n        config[TxFeeRatio] = 0.015 ether;\n        config[MinValueOfBotHolder] = 0.5 ether;\n        config[EnableUniSwap] = 1;\n\n        // creator = [0x14Fe1c6ADb626A8235b079d4ff66C6b0a3a2E68a, 0xDFfF7b40E289C8da3F0C5b163aCDac1b6d8B24Ee, 0xc6a34b2bf59baF984884A0cf4C84eD1541E710d7]\n\n        // mainnet\n        config[UniswapV2Router02] = uint(0x7a250d5630B4cF539739dF2C5dAcb4c659F2488D);\n        config[BotToken] = uint(0x5bEaBAEBB3146685Dd74176f68a0721F91297D37);\n        config[AuctionToken] = uint(0xA9B1Eb5908CfC3cdf91F9B8B3a74108598009096);\n        config[UsdtToken] = uint(0xdAC17F958D2ee523a2206206994597C13D831ec7);\n        config[BouncePro] = uint(0x6fe40f415448d930166f9110D3bBe2146383bC66);\n    }\n\n    function initialize_rinkeby(address _governor, address[] memory creators_) public {\n        initialize(_governor, creators_);\n\n        // rinkeby\n        config[BotToken] = uint(0xAbF690E2EbC6690c4Fdc303fc3eE0FBFEb1818eD);\n        config[AuctionToken] = uint(0x5E26FA0FE067d28aae8aFf2fB85Ac2E693BD9EfA);\n        config[UsdtToken] = uint(0x101194a3FF67f83A05B3E15AfA52D45D588614ca);\n        config[BouncePro] = uint(0xdC879146c635a9c613DEc849FaE7b383cbDB437D);\n    }\n\n    function create(CreateReq memory poolReq, address[] memory whitelist_) public payable\n        isCreator(msg.sender)\n    {\n        uint index = pools.length;\n        if (poolReq.maxEthPerWallet != 0) {\n            maxEthPerWalletP[index] = poolReq.maxEthPerWallet;\n        }\n        if (poolReq.onlyBot) {\n            onlyBotHolderP[index] = poolReq.onlyBot;\n        }\n\n        // transfer tokenId of token0 to this contract\n        if (poolReq.nftType == TypeErc721) {\n            require(poolReq.nShare == 1, \"invalid nShare\");\n            IERC721(poolReq.token0).safeTransferFrom(poolReq.beneficiary, address(this), poolReq.tokenId0);\n        } else {\n            IERC1155(poolReq.token0).safeTransferFrom(poolReq.beneficiary, address(this), poolReq.tokenId0, poolReq.amountTotal0, \"\");\n        }\n\n        addWhitelist(index, whitelist_);\n\n        // create pool\n        Pool memory pool;\n        pool.projectId = poolReq.projectId;\n        pool.beneficiary = poolReq.beneficiary;\n        pool.token0 = poolReq.token0;\n        pool.tokenId0 = poolReq.tokenId0;\n        pool.amountTotal0 = poolReq.amountTotal0;\n        pool.token1 = poolReq.token1;\n        pool.amount1 = poolReq.amount1;\n        pool.nftType = poolReq.nftType;\n        pool.maxPlayer = poolReq.maxPlayer;\n        pool.openAt = poolReq.openAt;\n        pool.closeAt = poolReq.openAt.add(poolReq.duration);\n        pool.enableWhiteList = poolReq.enableWhiteList;\n        pool.enableKycList = poolReq.enableKycList;\n        pools.push(pool);\n\n        poolsExt[index].nShare = poolReq.nShare;\n\n        emit Created(index, msg.sender, pool);\n    }\n\n    function bet(uint index) external payable\n        isPoolExist(index)\n        isPoolNotClosed(index)\n        checkBotHolder(index)\n    {\n        Pool memory pool = pools[index];\n        require(pool.openAt <= now, \"pool not open\");\n        require(allPlayer[index][msg.sender] == 0, \"You have already bet\");\n        require(curPlayerP[index] < pool.maxPlayer, \"Player has reached the upper limit\");\n\n        if (pool.enableWhiteList) {\n            require(whitelistP[index][msg.sender], \"sender not in whitelist\");\n        }\n        if (pool.enableKycList) {\n            require(IBouncePro(getBouncePro()).kyclist(msg.sender), \"sender not in KYC list\");\n        }\n\n        if (pool.token1 == address(0)) {\n            require(msg.value >= pool.amount1, \"The bet amount is too low\");\n        } else {\n            IERC20(pool.token1).safeTransferFrom(msg.sender, address(this), pool.amount1);\n        }\n\n        allPlayer[index][msg.sender] = curPlayerP[index] + 1;\n        curPlayerP[index] += 1;\n        myPlay[msg.sender][index] = true;\n\n        poolsExt[index].lastHash = uint(keccak256(abi.encodePacked(block.timestamp, block.difficulty, blockhash(block.number - 1))));\n\n        emit Bet(index, msg.sender);\n    }\n\n    function claim(uint index) external\n        isPoolExist(index)\n        isPoolClosed(index)\n    {\n        Pool memory pool = pools[index];\n        require(!teamClaimed[pool.beneficiary][index], \"claimed\");\n        teamClaimed[pool.beneficiary][index] = true;\n\n        uint nShare = poolsExt[index].nShare;\n        uint hitShare = (curPlayerP[index] > nShare ? nShare : curPlayerP[index]);\n        if (pool.token1 == address(0)) {\n            pool.beneficiary.transfer(pool.amount1.mul(hitShare));\n        } else {\n            IERC20(pool.token1).safeTransfer(pool.beneficiary, pool.amount1.mul(hitShare));\n        }\n        if (nShare > curPlayerP[index]) {\n            if (pool.nftType == TypeErc721) {\n                IERC721(pool.token0).safeTransferFrom(address(this), pool.beneficiary, pool.tokenId0);\n            } else {\n                IERC1155(pool.token0).safeTransferFrom(address(this), pool.beneficiary, pool.tokenId0, pool.amountTotal0.div(nShare).mul(nShare.sub(curPlayerP[index])), \"\");\n            }\n        }\n\n        emit Claimed(index, msg.sender);\n    }\n\n    function playerClaim(uint index) external\n        isPoolExist(index)\n        isPoolClosed(index)\n    {\n        Pool memory pool = pools[index];\n        require(myPlay[msg.sender][index], \"not played\");\n        require(allPlayer[index][msg.sender] > 0, \"You haven't bet yet\");\n        require(!allPlayerClaim[index][msg.sender], \"You have claimed this pool\");\n        allPlayerClaim[index][msg.sender] = true;\n\n        if (isWinner(index, msg.sender)) {\n            if (pool.nftType == TypeErc721) {\n                IERC721(pool.token0).safeTransferFrom(address(this), msg.sender, pool.tokenId0);\n            } else {\n                IERC1155(pool.token0).safeTransferFrom(address(this), msg.sender, pool.tokenId0, pool.amountTotal0.div(poolsExt[index].nShare), \"\");\n            }\n        } else {\n            if (pool.token1 == address(0)) {\n                msg.sender.transfer(pool.amount1);\n            }\n            else {\n                IERC20(pool.token1).safeTransfer(msg.sender, pool.amount1);\n            }\n        }\n\n        emit UserClaimed(index, msg.sender);\n    }\n\n    function getPlayerStatus(uint index, address target) public view returns (uint) {\n        require(index <= pools.length, \"this pool does not exist\");\n        Pool memory pool = pools[index];\n        if (pool.beneficiary == target) {\n            if (teamClaimed[target][index])\n                return uint(5);\n            return uint(1);\n        }\n        if (allPlayer[index][target] != 0) {\n            if (allPlayerClaim[index][target])\n                return uint(6);\n            return uint(2);\n        }\n        return uint(0);\n    }\n\n    function onERC721Received(address, address, uint, bytes calldata) external override returns (bytes4) {\n        return this.onERC721Received.selector;\n    }\n\n    function onERC1155Received(address, address, uint, uint, bytes calldata) external returns(bytes4) {\n        return this.onERC1155Received.selector;\n    }\n\n    function getPoolCount() external view returns (uint) {\n        return pools.length;\n    }\n\n    function lo2(uint value) view public returns(uint) {\n        require(value < 65536, \"too large\");\n        if (value <= 2)\n            return uint(0);\n        else if (value==3)\n            return uint(2);\n        uint x = 0;\n        uint s = value;\n        while(value > 1) {\n            value >>= 1;\n            x++;\n        }\n        if (s>((2<<(x.sub(1)))+(2<<(x.sub(2))))) {\n            return (x.mul(2).add(1));\n        }\n        return (x.mul(2));\n    }\n\n    function calcRet(uint index, uint m) public view returns (uint) {\n        uint[32] memory p=[uint(3),3,5, 7, 17, 11,7,11,13,23,31,47,61,89,127,191,251,383,509,761,1021,1531,2039,3067,4093,6143,8191,12281,16381,24571,32749,49139];\n        uint nSel=lo2(m);\n        return (index.mul(p[nSel])) % m;\n    }\n\n    function isWinner(uint index, address sender) public view returns (bool) {\n        require(pools[index].closeAt <= now, \"this pool is not closed\");\n\n        if (allPlayer[index][sender] == 0) {\n            return false;\n        }\n\n        uint nShare = poolsExt[index].nShare;\n        uint curPlayer = curPlayerP[index];\n        if (curPlayer <= nShare) {\n            return true;\n        }\n\n        uint index = poolsExt[index].lastHash % curPlayer;\n        uint pos = calcRet(allPlayer[index][sender] - 1, curPlayer);\n\n        if (index.add(nShare) % curPlayer > index) {\n            if (pos >= index && pos < (index+nShare)) {\n                return true;\n            }\n        } else {\n            if (pos >= index && pos < curPlayer) {\n                return true;\n            }\n            if(pos < index.add(nShare) % curPlayer) {\n                return true;\n            }\n        }\n\n        return false;\n    }\n\n    function addWhitelist(uint index, address[] memory whitelist_) public\n        isCreator(msg.sender)\n    {\n        for (uint i = 0; i < whitelist_.length; i++) {\n            whitelistP[index][whitelist_[i]] = true;\n        }\n    }\n\n    function removeWhitelist(uint index, address[] memory whitelist_) external\n        isCreator(msg.sender)\n    {\n        for (uint i = 0; i < whitelist_.length; i++) {\n            delete whitelistP[index][whitelist_[i]];\n        }\n    }\n\n    function addCreator(address creator_) public\n        isGovernor(msg.sender)\n    {\n        creator[creator_] = true;\n    }\n\n    function getTxFeeRatio() public view returns (uint) {\n        return config[TxFeeRatio];\n    }\n\n    function getMinValueOfBotHolder() public view returns (uint) {\n        return config[MinValueOfBotHolder];\n    }\n\n    function getBotToken() public view returns (address) {\n        return address(config[BotToken]);\n    }\n\n    function getAuctionToken() public view returns (address) {\n        return address(config[AuctionToken]);\n    }\n\n    function getUsdtToken() public view returns (address) {\n        return address(config[UsdtToken]);\n    }\n\n    function getBouncePro() public view returns (address) {\n        return address(config[BouncePro]);\n    }\n\n    function setUniswapV2Router(address router_) external\n        isGovernor(msg.sender)\n    {\n        config[UniswapV2Router02] = uint(router_);\n    }\n\n    function swapETH2BotAndBurn(uint txFee) private {\n        if (getEnableUniSwap()) {\n            uint amountOutMin = 0;\n            address[] memory path = getPath();\n            address to = DeadAddress;\n            uint deadline = now.add(20 minutes);\n            IUniswapV2Router02(getUniswapV2Router()).swapExactETHForTokens{value: txFee}(amountOutMin, path, to, deadline);\n        }\n    }\n\n    function swapToken2BotAndBurn(address token, uint txFee) private {\n        if (getEnableUniSwap()) {\n            address router = getUniswapV2Router();\n            IERC20(token).safeApprove(router, txFee);\n            uint amountOutMin = 0;\n            address[] memory path = getPath2(token);\n            address to = DeadAddress;\n            uint deadline = now.add(20 minutes);\n            IUniswapV2Router02(router).swapExactTokensForTokens(txFee, amountOutMin, path, to, deadline);\n        }\n    }\n\n    function getPath() internal view returns (address[] memory) {\n        address[] memory path = new address[](2);\n        path[0] = IUniswapV2Router02(getUniswapV2Router()).WETH();\n        path[1] = getBotToken();\n\n        return path;\n    }\n\n    function getPath2(address token) internal view returns (address[] memory) {\n        address[] memory path = new address[](3);\n        path[0] = token;\n        path[1] = IUniswapV2Router02(getUniswapV2Router()).WETH();\n        path[2] = getBotToken();\n\n        return path;\n    }\n\n    function getEnableUniSwap() public view returns (bool) {\n        return config[EnableUniSwap] != 0;\n    }\n\n    function getUniswapV2Router() public view returns (address) {\n        return address(config[UniswapV2Router02]);\n    }\n\n    modifier checkBotHolder(uint index) {\n        if (onlyBotHolderP[index]) {\n            require(\n                IERC20(getBotToken()).balanceOf(msg.sender) >= getMinValueOfBotHolder()\n                || IERC20(getAuctionToken()).balanceOf(msg.sender) >= getMinValueOfBotHolder().mul(100),\n                \"BOT or Auction is not enough\"\n            );\n        }\n        _;\n    }\n\n    modifier isPoolClosed(uint index) {\n        require(pools[index].closeAt <= now, \"this pool is not closed\");\n        _;\n    }\n\n    modifier isPoolNotClosed(uint index) {\n        require(pools[index].closeAt > now, \"this pool is closed\");\n        _;\n    }\n\n    modifier isPoolExist(uint index) {\n        require(index < pools.length, \"this pool does not exist\");\n        _;\n    }\n\n    modifier isCreator(address target) {\n        require(creator[target], \"invalid creator\");\n        _;\n    }\n\n    modifier isGovernor(address governor_) {\n        require(governor_ == governor, \"invalid governor\");\n        _;\n    }\n}\n",
  "sourcePath": "contracts/BounceLotteryNFTPro.sol",
  "abi": [
    {
      "anonymous": false,
      "inputs": [
        {
          "indexed": true,
          "internalType": "uint256",
          "name": "index",
          "type": "uint256"
        },
        {
          "indexed": true,
          "internalType": "address",
          "name": "sender",
          "type": "address"
        }
      ],
      "name": "Bet",
      "type": "event"
    },
    {
      "anonymous": false,
      "inputs": [
        {
          "indexed": true,
          "internalType": "uint256",
          "name": "index",
          "type": "uint256"
        },
        {
          "indexed": true,
          "internalType": "address",
          "name": "sender",
          "type": "address"
        }
      ],
      "name": "Claimed",
      "type": "event"
    },
    {
      "anonymous": false,
      "inputs": [
        {
          "indexed": true,
          "internalType": "uint256",
          "name": "index",
          "type": "uint256"
        },
        {
          "indexed": true,
          "internalType": "address",
          "name": "sender",
          "type": "address"
        },
        {
          "components": [
            {
              "internalType": "uint256",
              "name": "projectId",
              "type": "uint256"
            },
            {
              "internalType": "address payable",
              "name": "beneficiary",
              "type": "address"
            },
            {
              "internalType": "address",
              "name": "token0",
              "type": "address"
            },
            {
              "internalType": "uint256",
              "name": "tokenId0",
              "type": "uint256"
            },
            {
              "internalType": "uint256",
              "name": "amountTotal0",
              "type": "uint256"
            },
            {
              "internalType": "address",
              "name": "token1",
              "type": "address"
            },
            {
              "internalType": "uint256",
              "name": "amount1",
              "type": "uint256"
            },
            {
              "internalType": "uint256",
              "name": "nftType",
              "type": "uint256"
            },
            {
              "internalType": "uint256",
              "name": "maxPlayer",
              "type": "uint256"
            },
            {
              "internalType": "uint256",
              "name": "openAt",
              "type": "uint256"
            },
            {
              "internalType": "uint256",
              "name": "closeAt",
              "type": "uint256"
            },
            {
              "internalType": "bool",
              "name": "enableWhiteList",
              "type": "bool"
            },
            {
              "internalType": "bool",
              "name": "enableKycList",
              "type": "bool"
            }
          ],
          "indexed": false,
          "internalType": "struct BounceLotteryNFTPro.Pool",
          "name": "pool",
          "type": "tuple"
        }
      ],
      "name": "Created",
      "type": "event"
    },
    {
      "anonymous": false,
      "inputs": [
        {
          "indexed": true,
          "internalType": "address",
          "name": "previousGovernor",
          "type": "address"
        },
        {
          "indexed": true,
          "internalType": "address",
          "name": "newGovernor",
          "type": "address"
        }
      ],
      "name": "GovernorshipTransferred",
      "type": "event"
    },
    {
      "anonymous": false,
      "inputs": [
        {
          "indexed": true,
          "internalType": "uint256",
          "name": "index",
          "type": "uint256"
        },
        {
          "indexed": true,
          "internalType": "address",
          "name": "sender",
          "type": "address"
        }
      ],
      "name": "UserClaimed",
      "type": "event"
    },
    {
      "inputs": [
        {
          "internalType": "address",
          "name": "creator_",
          "type": "address"
        }
      ],
      "name": "addCreator",
      "outputs": [],
      "stateMutability": "nonpayable",
      "type": "function"
    },
    {
      "inputs": [
        {
          "internalType": "uint256",
          "name": "index",
          "type": "uint256"
        },
        {
          "internalType": "address[]",
          "name": "whitelist_",
          "type": "address[]"
        }
      ],
      "name": "addWhitelist",
      "outputs": [],
      "stateMutability": "nonpayable",
      "type": "function"
    },
    {
      "inputs": [
        {
          "internalType": "uint256",
          "name": "",
          "type": "uint256"
        },
        {
          "internalType": "address",
          "name": "",
          "type": "address"
        }
      ],
      "name": "allPlayer",
      "outputs": [
        {
          "internalType": "uint256",
          "name": "",
          "type": "uint256"
        }
      ],
      "stateMutability": "view",
      "type": "function"
    },
    {
      "inputs": [
        {
          "internalType": "uint256",
          "name": "",
          "type": "uint256"
        },
        {
          "internalType": "address",
          "name": "",
          "type": "address"
        }
      ],
      "name": "allPlayerClaim",
      "outputs": [
        {
          "internalType": "bool",
          "name": "",
          "type": "bool"
        }
      ],
      "stateMutability": "view",
      "type": "function"
    },
    {
      "inputs": [
        {
          "internalType": "uint256",
          "name": "index",
          "type": "uint256"
        }
      ],
      "name": "bet",
      "outputs": [],
      "stateMutability": "payable",
      "type": "function"
    },
    {
      "inputs": [
        {
          "internalType": "uint256",
          "name": "index",
          "type": "uint256"
        },
        {
          "internalType": "uint256",
          "name": "m",
          "type": "uint256"
        }
      ],
      "name": "calcRet",
      "outputs": [
        {
          "internalType": "uint256",
          "name": "",
          "type": "uint256"
        }
      ],
      "stateMutability": "view",
      "type": "function"
    },
    {
      "inputs": [
        {
          "internalType": "uint256",
          "name": "index",
          "type": "uint256"
        }
      ],
      "name": "claim",
      "outputs": [],
      "stateMutability": "nonpayable",
      "type": "function"
    },
    {
      "inputs": [
        {
          "components": [
            {
              "internalType": "uint256",
              "name": "projectId",
              "type": "uint256"
            },
            {
              "internalType": "address payable",
              "name": "beneficiary",
              "type": "address"
            },
            {
              "internalType": "address",
              "name": "token0",
              "type": "address"
            },
            {
              "internalType": "uint256",
              "name": "tokenId0",
              "type": "uint256"
            },
            {
              "internalType": "uint256",
              "name": "amountTotal0",
              "type": "uint256"
            },
            {
              "internalType": "address",
              "name": "token1",
              "type": "address"
            },
            {
              "internalType": "uint256",
              "name": "amount1",
              "type": "uint256"
            },
            {
              "internalType": "uint256",
              "name": "nftType",
              "type": "uint256"
            },
            {
              "internalType": "uint256",
              "name": "maxPlayer",
              "type": "uint256"
            },
            {
              "internalType": "uint256",
              "name": "nShare",
              "type": "uint256"
            },
            {
              "internalType": "uint256",
              "name": "duration",
              "type": "uint256"
            },
            {
              "internalType": "uint256",
              "name": "openAt",
              "type": "uint256"
            },
            {
              "internalType": "bool",
              "name": "enableWhiteList",
              "type": "bool"
            },
            {
              "internalType": "bool",
              "name": "enableKycList",
              "type": "bool"
            },
            {
              "internalType": "bool",
              "name": "onlyBot",
              "type": "bool"
            },
            {
              "internalType": "uint256",
              "name": "maxEthPerWallet",
              "type": "uint256"
            }
          ],
          "internalType": "struct BounceLotteryNFTPro.CreateReq",
          "name": "poolReq",
          "type": "tuple"
        },
        {
          "internalType": "address[]",
          "name": "whitelist_",
          "type": "address[]"
        }
      ],
      "name": "create",
      "outputs": [],
      "stateMutability": "payable",
      "type": "function"
    },
    {
      "inputs": [
        {
          "internalType": "address",
          "name": "",
          "type": "address"
        }
      ],
      "name": "creator",
      "outputs": [
        {
          "internalType": "bool",
          "name": "",
          "type": "bool"
        }
      ],
      "stateMutability": "view",
      "type": "function"
    },
    {
      "inputs": [
        {
          "internalType": "uint256",
          "name": "",
          "type": "uint256"
        }
      ],
      "name": "curPlayerP",
      "outputs": [
        {
          "internalType": "uint256",
          "name": "",
          "type": "uint256"
        }
      ],
      "stateMutability": "view",
      "type": "function"
    },
    {
      "inputs": [],
      "name": "getAuctionToken",
      "outputs": [
        {
          "internalType": "address",
          "name": "",
          "type": "address"
        }
      ],
      "stateMutability": "view",
      "type": "function"
    },
    {
      "inputs": [],
      "name": "getBotToken",
      "outputs": [
        {
          "internalType": "address",
          "name": "",
          "type": "address"
        }
      ],
      "stateMutability": "view",
      "type": "function"
    },
    {
      "inputs": [],
      "name": "getBouncePro",
      "outputs": [
        {
          "internalType": "address",
          "name": "",
          "type": "address"
        }
      ],
      "stateMutability": "view",
      "type": "function"
    },
    {
      "inputs": [
        {
          "internalType": "bytes32",
          "name": "key",
          "type": "bytes32"
        },
        {
          "internalType": "address",
          "name": "addr",
          "type": "address"
        }
      ],
      "name": "getConfig",
      "outputs": [
        {
          "internalType": "uint256",
          "name": "",
          "type": "uint256"
        }
      ],
      "stateMutability": "view",
      "type": "function"
    },
    {
      "inputs": [
        {
          "internalType": "bytes32",
          "name": "key",
          "type": "bytes32"
        }
      ],
      "name": "getConfig",
      "outputs": [
        {
          "internalType": "uint256",
          "name": "",
          "type": "uint256"
        }
      ],
      "stateMutability": "view",
      "type": "function"
    },
    {
      "inputs": [
        {
          "internalType": "bytes32",
          "name": "key",
          "type": "bytes32"
        },
        {
          "internalType": "uint256",
          "name": "index",
          "type": "uint256"
        }
      ],
      "name": "getConfig",
      "outputs": [
        {
          "internalType": "uint256",
          "name": "",
          "type": "uint256"
        }
      ],
      "stateMutability": "view",
      "type": "function"
    },
    {
      "inputs": [],
      "name": "getEnableUniSwap",
      "outputs": [
        {
          "internalType": "bool",
          "name": "",
          "type": "bool"
        }
      ],
      "stateMutability": "view",
      "type": "function"
    },
    {
      "inputs": [],
      "name": "getMinValueOfBotHolder",
      "outputs": [
        {
          "internalType": "uint256",
          "name": "",
          "type": "uint256"
        }
      ],
      "stateMutability": "view",
      "type": "function"
    },
    {
      "inputs": [
        {
          "internalType": "uint256",
          "name": "index",
          "type": "uint256"
        },
        {
          "internalType": "address",
          "name": "target",
          "type": "address"
        }
      ],
      "name": "getPlayerStatus",
      "outputs": [
        {
          "internalType": "uint256",
          "name": "",
          "type": "uint256"
        }
      ],
      "stateMutability": "view",
      "type": "function"
    },
    {
      "inputs": [],
      "name": "getPoolCount",
      "outputs": [
        {
          "internalType": "uint256",
          "name": "",
          "type": "uint256"
        }
      ],
      "stateMutability": "view",
      "type": "function"
    },
    {
      "inputs": [],
      "name": "getTxFeeRatio",
      "outputs": [
        {
          "internalType": "uint256",
          "name": "",
          "type": "uint256"
        }
      ],
      "stateMutability": "view",
      "type": "function"
    },
    {
      "inputs": [],
      "name": "getUniswapV2Router",
      "outputs": [
        {
          "internalType": "address",
          "name": "",
          "type": "address"
        }
      ],
      "stateMutability": "view",
      "type": "function"
    },
    {
      "inputs": [],
      "name": "getUsdtToken",
      "outputs": [
        {
          "internalType": "address",
          "name": "",
          "type": "address"
        }
      ],
      "stateMutability": "view",
      "type": "function"
    },
    {
      "inputs": [],
      "name": "governor",
      "outputs": [
        {
          "internalType": "address",
          "name": "",
          "type": "address"
        }
      ],
      "stateMutability": "view",
      "type": "function"
    },
    {
      "inputs": [
        {
          "internalType": "address",
          "name": "_governor",
          "type": "address"
        },
        {
          "internalType": "address[]",
          "name": "creators_",
          "type": "address[]"
        }
      ],
      "name": "initialize",
      "outputs": [],
      "stateMutability": "nonpayable",
      "type": "function"
    },
    {
      "inputs": [
        {
          "internalType": "address",
          "name": "governor_",
          "type": "address"
        }
      ],
      "name": "initialize",
      "outputs": [],
      "stateMutability": "nonpayable",
      "type": "function"
    },
    {
      "inputs": [
        {
          "internalType": "address",
          "name": "_governor",
          "type": "address"
        },
        {
          "internalType": "address[]",
          "name": "creators_",
          "type": "address[]"
        }
      ],
      "name": "initialize_rinkeby",
      "outputs": [],
      "stateMutability": "nonpayable",
      "type": "function"
    },
    {
      "inputs": [
        {
          "internalType": "uint256",
          "name": "index",
          "type": "uint256"
        },
        {
          "internalType": "address",
          "name": "sender",
          "type": "address"
        }
      ],
      "name": "isWinner",
      "outputs": [
        {
          "internalType": "bool",
          "name": "",
          "type": "bool"
        }
      ],
      "stateMutability": "view",
      "type": "function"
    },
    {
      "inputs": [
        {
          "internalType": "uint256",
          "name": "value",
          "type": "uint256"
        }
      ],
      "name": "lo2",
      "outputs": [
        {
          "internalType": "uint256",
          "name": "",
          "type": "uint256"
        }
      ],
      "stateMutability": "view",
      "type": "function"
    },
    {
      "inputs": [
        {
          "internalType": "uint256",
          "name": "",
          "type": "uint256"
        }
      ],
      "name": "maxEthPerWalletP",
      "outputs": [
        {
          "internalType": "uint256",
          "name": "",
          "type": "uint256"
        }
      ],
      "stateMutability": "view",
      "type": "function"
    },
    {
      "inputs": [
        {
          "internalType": "address",
          "name": "",
          "type": "address"
        },
        {
          "internalType": "uint256",
          "name": "",
          "type": "uint256"
        }
      ],
      "name": "myClaimed",
      "outputs": [
        {
          "internalType": "bool",
          "name": "",
          "type": "bool"
        }
      ],
      "stateMutability": "view",
      "type": "function"
    },
    {
      "inputs": [
        {
          "internalType": "address",
          "name": "",
          "type": "address"
        },
        {
          "internalType": "uint256",
          "name": "",
          "type": "uint256"
        }
      ],
      "name": "myPlay",
      "outputs": [
        {
          "internalType": "bool",
          "name": "",
          "type": "bool"
        }
      ],
      "stateMutability": "view",
      "type": "function"
    },
    {
      "inputs": [
        {
          "internalType": "address",
          "name": "",
          "type": "address"
        },
        {
          "internalType": "address",
          "name": "",
          "type": "address"
        },
        {
          "internalType": "uint256",
          "name": "",
          "type": "uint256"
        },
        {
          "internalType": "uint256",
          "name": "",
          "type": "uint256"
        },
        {
          "internalType": "bytes",
          "name": "",
          "type": "bytes"
        }
      ],
      "name": "onERC1155Received",
      "outputs": [
        {
          "internalType": "bytes4",
          "name": "",
          "type": "bytes4"
        }
      ],
      "stateMutability": "nonpayable",
      "type": "function"
    },
    {
      "inputs": [
        {
          "internalType": "address",
          "name": "",
          "type": "address"
        },
        {
          "internalType": "address",
          "name": "",
          "type": "address"
        },
        {
          "internalType": "uint256",
          "name": "",
          "type": "uint256"
        },
        {
          "internalType": "bytes",
          "name": "",
          "type": "bytes"
        }
      ],
      "name": "onERC721Received",
      "outputs": [
        {
          "internalType": "bytes4",
          "name": "",
          "type": "bytes4"
        }
      ],
      "stateMutability": "nonpayable",
      "type": "function"
    },
    {
      "inputs": [
        {
          "internalType": "uint256",
          "name": "",
          "type": "uint256"
        }
      ],
      "name": "onlyBotHolderP",
      "outputs": [
        {
          "internalType": "bool",
          "name": "",
          "type": "bool"
        }
      ],
      "stateMutability": "view",
      "type": "function"
    },
    {
      "inputs": [
        {
          "internalType": "uint256",
          "name": "index",
          "type": "uint256"
        }
      ],
      "name": "playerClaim",
      "outputs": [],
      "stateMutability": "nonpayable",
      "type": "function"
    },
    {
      "inputs": [
        {
          "internalType": "uint256",
          "name": "",
          "type": "uint256"
        }
      ],
      "name": "pools",
      "outputs": [
        {
          "internalType": "uint256",
          "name": "projectId",
          "type": "uint256"
        },
        {
          "internalType": "address payable",
          "name": "beneficiary",
          "type": "address"
        },
        {
          "internalType": "address",
          "name": "token0",
          "type": "address"
        },
        {
          "internalType": "uint256",
          "name": "tokenId0",
          "type": "uint256"
        },
        {
          "internalType": "uint256",
          "name": "amountTotal0",
          "type": "uint256"
        },
        {
          "internalType": "address",
          "name": "token1",
          "type": "address"
        },
        {
          "internalType": "uint256",
          "name": "amount1",
          "type": "uint256"
        },
        {
          "internalType": "uint256",
          "name": "nftType",
          "type": "uint256"
        },
        {
          "internalType": "uint256",
          "name": "maxPlayer",
          "type": "uint256"
        },
        {
          "internalType": "uint256",
          "name": "openAt",
          "type": "uint256"
        },
        {
          "internalType": "uint256",
          "name": "closeAt",
          "type": "uint256"
        },
        {
          "internalType": "bool",
          "name": "enableWhiteList",
          "type": "bool"
        },
        {
          "internalType": "bool",
          "name": "enableKycList",
          "type": "bool"
        }
      ],
      "stateMutability": "view",
      "type": "function"
    },
    {
      "inputs": [
        {
          "internalType": "uint256",
          "name": "",
          "type": "uint256"
        }
      ],
      "name": "poolsExt",
      "outputs": [
        {
          "internalType": "uint256",
          "name": "lastHash",
          "type": "uint256"
        },
        {
          "internalType": "uint256",
          "name": "nShare",
          "type": "uint256"
        }
      ],
      "stateMutability": "view",
      "type": "function"
    },
    {
      "inputs": [
        {
          "internalType": "uint256",
          "name": "index",
          "type": "uint256"
        },
        {
          "internalType": "address[]",
          "name": "whitelist_",
          "type": "address[]"
        }
      ],
      "name": "removeWhitelist",
      "outputs": [],
      "stateMutability": "nonpayable",
      "type": "function"
    },
    {
      "inputs": [],
      "name": "renounceGovernorship",
      "outputs": [],
      "stateMutability": "nonpayable",
      "type": "function"
    },
    {
      "inputs": [
        {
          "internalType": "bytes32",
          "name": "key",
          "type": "bytes32"
        },
        {
          "internalType": "uint256",
          "name": "value",
          "type": "uint256"
        }
      ],
      "name": "setConfig",
      "outputs": [],
      "stateMutability": "nonpayable",
      "type": "function"
    },
    {
      "inputs": [
        {
          "internalType": "bytes32",
          "name": "key",
          "type": "bytes32"
        },
        {
          "internalType": "address",
          "name": "addr",
          "type": "address"
        },
        {
          "internalType": "uint256",
          "name": "value",
          "type": "uint256"
        }
      ],
      "name": "setConfig",
      "outputs": [],
      "stateMutability": "nonpayable",
      "type": "function"
    },
    {
      "inputs": [
        {
          "internalType": "bytes32",
          "name": "key",
          "type": "bytes32"
        },
        {
          "internalType": "uint256",
          "name": "index",
          "type": "uint256"
        },
        {
          "internalType": "uint256",
          "name": "value",
          "type": "uint256"
        }
      ],
      "name": "setConfig",
      "outputs": [],
      "stateMutability": "nonpayable",
      "type": "function"
    },
    {
      "inputs": [
        {
          "internalType": "address",
          "name": "router_",
          "type": "address"
        }
      ],
      "name": "setUniswapV2Router",
      "outputs": [],
      "stateMutability": "nonpayable",
      "type": "function"
    },
    {
      "inputs": [
        {
          "internalType": "address",
          "name": "",
          "type": "address"
        },
        {
          "internalType": "uint256",
          "name": "",
          "type": "uint256"
        }
      ],
      "name": "teamClaimed",
      "outputs": [
        {
          "internalType": "bool",
          "name": "",
          "type": "bool"
        }
      ],
      "stateMutability": "view",
      "type": "function"
    },
    {
      "inputs": [
        {
          "internalType": "address",
          "name": "newGovernor",
          "type": "address"
        }
      ],
      "name": "transferGovernorship",
      "outputs": [],
      "stateMutability": "nonpayable",
      "type": "function"
    },
    {
      "inputs": [
        {
          "internalType": "uint256",
          "name": "",
          "type": "uint256"
        },
        {
          "internalType": "address",
          "name": "",
          "type": "address"
        }
      ],
      "name": "whitelistP",
      "outputs": [
        {
          "internalType": "bool",
          "name": "",
          "type": "bool"
        }
      ],
      "stateMutability": "view",
      "type": "function"
    }
  ],
  "bytecode": "0x608060405234801561001057600080fd5b50613b4d806100206000396000f3fe6080604052600436106102875760003560e01c80638ec872e31161015a578063c7011b7b116100c1578063e47103901161007a578063e47103901461078a578063ea29ae58146107aa578063ebfa3417146107ca578063f05286a3146107df578063f23a6e61146107ff578063fc0cdf761461081f57610287565b8063c7011b7b146106d5578063c92a46bb146106ea578063ca0262bd1461070a578063d71af7261461072a578063d86ccc551461074a578063ddf2be3f1461076a57610287565b8063b21544f311610113578063b21544f314610615578063b5c6221114610635578063b6aa515b14610655578063bdd415af14610675578063c4d66de814610695578063c6472b12146106b557610287565b80638ec872e3146105525780638eec5d7014610572578063946d920414610587578063958b3bd3146105a7578063a5b6260e146105c7578063ac4afa38146105dc57610287565b80633c2d1271116101fe57806371b7e64f116101b757806371b7e64f146104b55780637365870b146104ca57806381c0c263146104dd5780638202fe57146104f25780638aa1e44e146105055780638d0929af1461052557610287565b80633c2d1271146104005780634cdf9c2e1461042057806352665f471461044057806363cb6c42146104605780636c221098146104755780636dd5b69d1461049557610287565b806315fe96dc1161025057806315fe96dc1461033b5780631bb2dd6c1461035b5780631e113dd61461037d57806331ca7eef146103ab578063379607f5146103c05780633b9dce05146103e057610287565b806271c1751461028c578063085c117b146102b75780630c340a24146102d95780631419841d146102ee578063150b7a021461030e575b600080fd5b34801561029857600080fd5b506102a161083f565b6040516102ae91906133b4565b60405180910390f35b3480156102c357600080fd5b506102d76102d2366004613132565b610887565b005b3480156102e557600080fd5b506102a1610c4f565b3480156102fa57600080fd5b506102d7610309366004612f96565b610c5e565b34801561031a57600080fd5b5061032e610329366004612fb2565b610cdb565b6040516102ae9190613448565b34801561034757600080fd5b506102d76103563660046131b0565b610cec565b34801561036757600080fd5b50610370610d11565b6040516102ae9190613a16565b34801561038957600080fd5b5061039d610398366004613132565b610d52565b6040516102ae929190613a93565b3480156103b757600080fd5b506102a1610d6b565b3480156103cc57600080fd5b506102d76103db366004613132565b610dab565b3480156103ec57600080fd5b506102d76103fb366004612f96565b611186565b34801561040c57600080fd5b5061037061041b366004613132565b6111d7565b34801561042c57600080fd5b5061037061043b36600461314a565b6111e9565b34801561044c57600080fd5b5061037061045b36600461314a565b611206565b34801561046c57600080fd5b50610370611228565b34801561048157600080fd5b506102d761049036600461332e565b611276565b3480156104a157600080fd5b506103706104b0366004613132565b61130b565b3480156104c157600080fd5b506102a1611320565b6102d76104d8366004613132565b611360565b3480156104e957600080fd5b506102d7611888565b6102d76105003660046131fc565b6118e9565b34801561051157600080fd5b506102d761052036600461332e565b611dea565b34801561053157600080fd5b5061054561054036600461314a565b611e7f565b6040516102ae919061343d565b34801561055e57600080fd5b5061037061056d3660046131b0565b611e9f565b34801561057e57600080fd5b50610370611eb2565b34801561059357600080fd5b506102d76105a236600461309d565b611eb8565b3480156105b357600080fd5b506103706105c236600461314a565b6120ed565b3480156105d357600080fd5b506105456122a1565b3480156105e857600080fd5b506105fc6105f7366004613132565b6122e7565b6040516102ae9d9c9b9a99989796959493929190613a1f565b34801561062157600080fd5b506102d7610630366004613179565b61236f565b34801561064157600080fd5b5061054561065036600461314a565b6123a0565b34801561066157600080fd5b506102d7610670366004612f96565b6123c0565b34801561068157600080fd5b5061054561069036600461314a565b6123e3565b3480156106a157600080fd5b506102d76106b0366004612f96565b612569565b3480156106c157600080fd5b506105456106d0366004613132565b61263b565b3480156106e157600080fd5b506102a1612650565b3480156106f657600080fd5b50610370610705366004613132565b61268f565b34801561071657600080fd5b506105456107253660046130eb565b6126a1565b34801561073657600080fd5b506105456107453660046130eb565b6126c1565b34801561075657600080fd5b50610370610765366004613132565b6126e1565b34801561077657600080fd5b506102d76107853660046131d1565b61279b565b34801561079657600080fd5b506105456107a53660046130eb565b6127be565b3480156107b657600080fd5b506103706107c536600461335d565b6127de565b3480156107d657600080fd5b506102a161291d565b3480156107eb57600080fd5b506102d76107fa36600461309d565b612960565b34801561080b57600080fd5b5061032e61081a366004613023565b612a65565b34801561082b57600080fd5b5061054561083a366004612f96565b612a77565b76212627281d1d2ab734b9bbb0b82b192937baba32b9181960491b60005260346020527f80fbfc14fc28adab8a1f59d3e9291f30f34c06f0dc1039772d3c145b5f3cd2ab5490565b603554819081106108b35760405162461bcd60e51b81526004016108aa9061354b565b60405180910390fd5b8142603582815481106108c257fe5b90600052602060002090600c0201600a015411156108f25760405162461bcd60e51b81526004016108aa90613923565b6108fa612e0a565b6035848154811061090757fe5b60009182526020808320604080516101a081018252600c9094029091018054845260018101546001600160a01b03908116858501526002820154811685840152600382015460608601526004820154608086015260058201541660a0850152600681015460c0850152600781015460e08501526008810154610100808601919091526009820154610120860152600a820154610140860152600b9091015460ff8082161515610160870152919004811615156101808501523385526039835281852089865290925290922054909250166109f35760405162461bcd60e51b81526004016108aa9061387e565b6000848152603660209081526040808320338452909152902054610a295760405162461bcd60e51b81526004016108aa90613656565b600084815260376020908152604080832033845290915290205460ff1615610a635760405162461bcd60e51b81526004016108aa906134dd565b6000848152603760209081526040808320338085529252909120805460ff19166001179055610a939085906123e3565b15610bae5760e0810151610b105780604001516001600160a01b03166342842e0e303384606001516040518463ffffffff1660e01b8152600401610ad9939291906133c8565b600060405180830381600087803b158015610af357600080fd5b505af1158015610b07573d6000803e3d6000fd5b50505050610ba9565b80604001516001600160a01b031663f242432a30338460600151610b57603860008b8152602001908152602001600020600101548760800151612a8c90919063ffffffff16565b6040518563ffffffff1660e01b8152600401610b7694939291906133ec565b600060405180830381600087803b158015610b9057600080fd5b505af1158015610ba4573d6000803e3d6000fd5b505050505b610c1c565b60a08101516001600160a01b0316610bf65760c0810151604051339180156108fc02916000818181858888f19350505050158015610bf0573d6000803e3d6000fd5b50610c1c565b610c1c338260c001518360a001516001600160a01b0316612ad59092919063ffffffff16565b604051339085907f4228543366bd898710e3604e936eb5961d7c1b3dc25b1a712a4d678c11b490aa90600090a350505050565b6033546001600160a01b031681565b60335433906001600160a01b03168114610c8a5760405162461bcd60e51b81526004016108aa90613490565b5076212627281d1d2ab734b9bbb0b82b192937baba32b9181960491b60005260346020526001600160a01b03167f80fbfc14fc28adab8a1f59d3e9291f30f34c06f0dc1039772d3c145b5f3cd2ab55565b630a85bd0160e11b95945050505050565b6033546001600160a01b03163314610d0357600080fd5b610d0d8282612b2b565b5050565b6f424c4e503a3a5478466565526174696f60801b60005260346020527f6d172712192e46c4906a5d0b3891fb2c5abe9e09649818d52aee6d1fb0822fe85490565b6038602052600090815260409020805460019091015482565b6e212627281d1d2ab9b23a2a37b5b2b760891b60005260346020527f594860222cda13952bad3fd5cf812ce1f273f5772d925c13a697e5d6f823707c5490565b60355481908110610dce5760405162461bcd60e51b81526004016108aa9061354b565b814260358281548110610ddd57fe5b90600052602060002090600c0201600a01541115610e0d5760405162461bcd60e51b81526004016108aa90613923565b610e15612e0a565b60358481548110610e2257fe5b60009182526020808320604080516101a081018252600c9094029091018054845260018101546001600160a01b0390811685850181905260028301548216868501526003830154606087015260048301546080870152600583015490911660a0860152600682015460c0860152600782015460e08601526008820154610100808701919091526009830154610120870152600a830154610140870152600b9092015460ff8082161515610160880152929004821615156101808601528552603d8352818520898652909252909220549092501615610f125760405162461bcd60e51b81526004016108aa9061360c565b6020808201516001600160a01b03166000908152603d825260408082208783528352808220805460ff19166001908117909155603884528183200154603a9093528120548210610f70576000868152603a6020526040902054610f72565b815b60a08401519091506001600160a01b0316610fdd5782602001516001600160a01b03166108fc610faf838660c00151612b5290919063ffffffff16565b6040518115909202916000818181858888f19350505050158015610fd7573d6000803e3d6000fd5b50611011565b6110118360200151610ffc838660c00151612b5290919063ffffffff16565b60a08601516001600160a01b03169190612ad5565b6000868152603a60205260409020548211156111515760e08301516110a35782604001516001600160a01b03166342842e0e30856020015186606001516040518463ffffffff1660e01b815260040161106c939291906133c8565b600060405180830381600087803b15801561108657600080fd5b505af115801561109a573d6000803e3d6000fd5b50505050611151565b82604001516001600160a01b031663f242432a30856020015186606001516110ff6110ea603a60008e81526020019081526020016000205489612b8c90919063ffffffff16565b60808a01516110f9908a612a8c565b90612b52565b6040518563ffffffff1660e01b815260040161111e94939291906133ec565b600060405180830381600087803b15801561113857600080fd5b505af115801561114c573d6000803e3d6000fd5b505050505b604051339087907f6aa3eac93d079e5e100b1029be716caa33586c96aa4baac390669fb5c2a2121290600090a3505050505050565b60335433906001600160a01b031681146111b25760405162461bcd60e51b81526004016108aa90613490565b506001600160a01b03166000908152604060208190529020805460ff19166001179055565b603a6020526000908152604090205481565b603660209081526000928352604080842090915290825290205481565b6001600160a01b03811682186000908152603460205260409020545b92915050565b7f424c4e503a3a4d696e56616c75654f66426f74486f6c6465720000000000000060005260346020527fdd1964d80e0ffa9d78eee4603b9a9e25dd49d7d2c322d69570b9c19f1b22ebd45490565b3360008181526040602081905290205460ff166112a55760405162461bcd60e51b81526004016108aa9061362d565b60005b825181101561130557603f600085815260200190815260200160002060008483815181106112d257fe5b6020908102919091018101516001600160a01b03168252810191909152604001600020805460ff191690556001016112a8565b50505050565b6000818152603460205260409020545b919050565b6e424c4e503a3a426f756e636550726f60881b60005260346020527fe2f105e158e9f2d843fca5aacbb0d674eb339f0835fab8b1a5789d274bd54ded5490565b603554819081106113835760405162461bcd60e51b81526004016108aa9061354b565b81426035828154811061139257fe5b90600052602060002090600c0201600a0154116113c15760405162461bcd60e51b81526004016108aa906135b7565b6000838152603b6020526040902054839060ff161561151c576113e2611228565b6113ea612650565b6001600160a01b03166370a08231336040518263ffffffff1660e01b815260040161141591906133b4565b60206040518083038186803b15801561142d57600080fd5b505afa158015611441573d6000803e3d6000fd5b505050506040513d601f19601f820116820180604052508101906114659190613316565b101580611500575061147a60646110f9611228565b61148261291d565b6001600160a01b03166370a08231336040518263ffffffff1660e01b81526004016114ad91906133b4565b60206040518083038186803b1580156114c557600080fd5b505afa1580156114d9573d6000803e3d6000fd5b505050506040513d601f19601f820116820180604052508101906114fd9190613316565b10155b61151c5760405162461bcd60e51b81526004016108aa90613847565b611524612e0a565b6035858154811061153157fe5b6000918252602091829020604080516101a081018252600c9093029091018054835260018101546001600160a01b039081169484019490945260028101548416918301919091526003810154606083015260048101546080830152600581015490921660a0820152600682015460c0820152600782015460e082015260088201546101008083019190915260098301546101208301819052600a840154610140840152600b9093015460ff808216151561016085015291900416151561018082015291504210156116145760405162461bcd60e51b81526004016108aa90613780565b60008581526036602090815260408083203384529091529020541561164b5760405162461bcd60e51b81526004016108aa906137d7565b6101008101516000868152603a60205260409020541061167d5760405162461bcd60e51b81526004016108aa90613805565b806101600151156116c1576000858152603f6020908152604080832033845290915290205460ff166116c15760405162461bcd60e51b81526004016108aa90613683565b8061018001511561176b576116d4611320565b6001600160a01b031663d8b99cb2336040518263ffffffff1660e01b81526004016116ff91906133b4565b60206040518083038186803b15801561171757600080fd5b505afa15801561172b573d6000803e3d6000fd5b505050506040513d601f19601f8201168201806040525081019061174f9190613116565b61176b5760405162461bcd60e51b81526004016108aa906137a7565b60a08101516001600160a01b03166117a6578060c001513410156117a15760405162461bcd60e51b81526004016108aa90613749565b6117ce565b6117ce33308360c001518460a001516001600160a01b0316612bce909392919063ffffffff16565b6000858152603a602090815260408083208054603684528285203386528452828520600191820190558154810190915560398352818420898552835292819020805460ff191690931790925590516118319142914491436000190140910161339e565b60408051601f1981840301815282825280516020918201206000898152603890925291812091909155339187917fc0cf6f6539dd26a13b724325f9d675aeb7686003595f761a617b892522d0c98c91a35050505050565b6033546001600160a01b0316331461189f57600080fd5b6033546040516000916001600160a01b0316907fc7c0c772add429241571afb3805861fb3cfa2af374534088b76cdb4325a87e9a908390a3603380546001600160a01b0319169055565b3360008181526040602081905290205460ff166119185760405162461bcd60e51b81526004016108aa9061362d565b6035546101e08401511561193c576101e08401516000828152603c60205260409020555b836101c001511561196b576101c08401516000828152603b60205260409020805460ff19169115159190911790555b60e0840151611a0c578361012001516001146119995760405162461bcd60e51b81526004016108aa906135e4565b83604001516001600160a01b03166342842e0e85602001513087606001516040518463ffffffff1660e01b81526004016119d5939291906133c8565b600060405180830381600087803b1580156119ef57600080fd5b505af1158015611a03573d6000803e3d6000fd5b50505050611a81565b83604001516001600160a01b031663f242432a856020015130876060015188608001516040518563ffffffff1660e01b8152600401611a4e94939291906133ec565b600060405180830381600087803b158015611a6857600080fd5b505af1158015611a7c573d6000803e3d6000fd5b505050505b611a8b8184611dea565b611a93612e0a565b845181526020808601516001600160a01b0390811691830191909152604080870151821690830152606080870151908301526080808701519083015260a0808701519091169082015260c0808601519082015260e080860151908201526101008086015190820152610160850180516101208301526101408601519051611b1991612bef565b610140820190815261018086810151151561016084019081526101a088015115159184019182526035805460018082018355600092835286517fcfa4bec1d3298408bb5afcfcd9c430549c5b31f8aa5c5848151c0a55f473c34d600c909302928301556020808801517fcfa4bec1d3298408bb5afcfcd9c430549c5b31f8aa5c5848151c0a55f473c34e840180546001600160a01b03199081166001600160a01b03938416179091556040808b01517fcfa4bec1d3298408bb5afcfcd9c430549c5b31f8aa5c5848151c0a55f473c34f87018054841691851691909117905560608b01517fcfa4bec1d3298408bb5afcfcd9c430549c5b31f8aa5c5848151c0a55f473c35087015560808b01517fcfa4bec1d3298408bb5afcfcd9c430549c5b31f8aa5c5848151c0a55f473c35187015560a08b01517fcfa4bec1d3298408bb5afcfcd9c430549c5b31f8aa5c5848151c0a55f473c35287018054909316931692909217905560c08901517fcfa4bec1d3298408bb5afcfcd9c430549c5b31f8aa5c5848151c0a55f473c35385015560e08901517fcfa4bec1d3298408bb5afcfcd9c430549c5b31f8aa5c5848151c0a55f473c354850155610100808a01517fcfa4bec1d3298408bb5afcfcd9c430549c5b31f8aa5c5848151c0a55f473c355860155610120808b01517fcfa4bec1d3298408bb5afcfcd9c430549c5b31f8aa5c5848151c0a55f473c35687015598517fcfa4bec1d3298408bb5afcfcd9c430549c5b31f8aa5c5848151c0a55f473c35786015595517fcfa4bec1d3298408bb5afcfcd9c430549c5b31f8aa5c5848151c0a55f473c3589094018054975160ff199098169415159490941761ff001916961515909502959095179091559389015186825260389093528190209092015551339083907f6ad0d5d36f6e854457df9a9d5915e904ba34b3e428888cd9d1700399188b755090611ddb90859061395a565b60405180910390a35050505050565b3360008181526040602081905290205460ff16611e195760405162461bcd60e51b81526004016108aa9061362d565b60005b8251811015611305576000848152603f60205260408120845160019290869085908110611e4557fe5b6020908102919091018101516001600160a01b03168252810191909152604001600020805460ff1916911515919091179055600101611e1c565b603f60209081526000928352604080842090915290825290205460ff1681565b1860009081526034602052604090205490565b60355490565b6033546001600160a01b0316331480611eda57506033546001600160a01b0316155b611ef65760405162461bcd60e51b81526004016108aa90613490565b603380546001600160a01b0319166001600160a01b03841617905560005b8151811015611f4157611f39828281518110611f2c57fe5b6020026020010151611186565b600101611f14565b505060346020525066354a6ba7a180007f6d172712192e46c4906a5d0b3891fb2c5abe9e09649818d52aee6d1fb0822fe8556706f05b59d3b200007fdd1964d80e0ffa9d78eee4603b9a9e25dd49d7d2c322d69570b9c19f1b22ebd45560017f0f2de3542ac165287272ccbe39869f0970d73e0cf152df8ba1488e847e5fbf1655737a250d5630b4cf539739df2c5dacb4c659f2488d7f80fbfc14fc28adab8a1f59d3e9291f30f34c06f0dc1039772d3c145b5f3cd2ab55735beabaebb3146685dd74176f68a0721f91297d377fabfb47f82be5f16110ad850ba176d10328a595f8c4313f9c94320e73417163d45573a9b1eb5908cfc3cdf91f9b8b3a741085980090967ff990302aa50c23da9ae739bf6e61d7e500e9ac1cc52f2e68e8788b2eaecf8a335573dac17f958d2ee523a2206206994597c13d831ec77f594860222cda13952bad3fd5cf812ce1f273f5772d925c13a697e5d6f823707c556e424c4e503a3a426f756e636550726f60881b600052736fe40f415448d930166f9110d3bbe2146383bc667fe2f105e158e9f2d843fca5aacbb0d674eb339f0835fab8b1a5789d274bd54ded55565b6035546000908311156121125760405162461bcd60e51b81526004016108aa9061354b565b61211a612e0a565b6035848154811061212757fe5b6000918252602091829020604080516101a081018252600c9093029091018054835260018101546001600160a01b03908116948401859052600282015481169284019290925260038101546060840152600481015460808401526005810154821660a0840152600681015460c0840152600781015460e08401526008810154610100808501919091526009820154610120850152600a820154610140850152600b9091015460ff808216151561016086015291900416151561018083015290925084161415612230576001600160a01b0383166000908152603d6020908152604080832087845290915290205460ff1615612226576005915050611222565b6001915050611222565b60008481526036602090815260408083206001600160a01b0387168452909152902054156122975760008481526037602090815260408083206001600160a01b038716845290915290205460ff161561228d576006915050611222565b6002915050611222565b5060009392505050565b720424c4e503a3a456e61626c65556e695377617606c1b60005260346020527f0f2de3542ac165287272ccbe39869f0970d73e0cf152df8ba1488e847e5fbf1654151590565b603581815481106122f457fe5b60009182526020909120600c9091020180546001820154600283015460038401546004850154600586015460068701546007880154600889015460098a0154600a8b0154600b909b0154999b506001600160a01b039889169a9789169996989597949095169592949193909260ff808216916101009004168d565b6033546001600160a01b0316331461238657600080fd5b61239b6001600160a01b038316841882612b2b565b505050565b603760209081526000928352604080842090915290825290205460ff1681565b6033546001600160a01b031633146123d757600080fd5b6123e081612c14565b50565b600042603584815481106123f357fe5b90600052602060002090600c0201600a015411156124235760405162461bcd60e51b81526004016108aa90613923565b60008381526036602090815260408083206001600160a01b038616845290915290205461245257506000611222565b600083815260386020908152604080832060010154603a9092529091205481811161248257600192505050611222565b60008581526038602052604081205482908161249a57fe5b0660008181526036602090815260408083206001600160a01b038a168452909152812054919250906124d09060001901846127de565b905081836124de8287612bef565b816124e557fe5b061115612514578181101580156124fd575083820181105b1561250f576001945050505050611222565b61255c565b81811015801561252357508281105b15612535576001945050505050611222565b826125408386612bef565b8161254757fe5b0681101561255c576001945050505050611222565b5060009695505050505050565b600054610100900460ff16806125825750612582612c83565b80612590575060005460ff16155b6125ac5760405162461bcd60e51b81526004016108aa906136fb565b600054610100900460ff161580156125d7576000805460ff1961ff0019909116610100171660011790555b603380546001600160a01b0319166001600160a01b0384811691909117918290556040519116906000907fc7c0c772add429241571afb3805861fb3cfa2af374534088b76cdb4325a87e9a908290a38015610d0d576000805461ff00191690555050565b603b6020526000908152604090205460ff1681565b6d212627281d1d2137ba2a37b5b2b760911b60005260346020527fabfb47f82be5f16110ad850ba176d10328a595f8c4313f9c94320e73417163d45490565b603c6020526000908152604090205481565b603d60209081526000928352604080842090915290825290205460ff1681565b603960209081526000928352604080842090915290825290205460ff1681565b60006201000082106127055760405162461bcd60e51b81526004016108aa906134ba565b600282116127155750600061131b565b81600314156127265750600261131b565b6000825b600184111561274357600193841c93919091019061272a565b61274e826002612b8c565b6002901b61275d836001612b8c565b6002901b018111156127885761277f6001612779846002612b52565b90612bef565b9250505061131b565b612793826002612b52565b949350505050565b6033546001600160a01b031633146127b257600080fd5b61239b83831882612b2b565b603e60209081526000928352604080842090915290825290205460ff1681565b60006127e8612e91565b6040518061040001604052806003815260200160038152602001600581526020016007815260200160118152602001600b815260200160078152602001600b8152602001600d815260200160178152602001601f8152602001602f8152602001603d815260200160598152602001607f815260200160bf815260200160fb815260200161017f81526020016101fd81526020016102f981526020016103fd81526020016105fb81526020016107f78152602001610bfb8152602001610ffd81526020016117ff8152602001611fff8152602001612ff98152602001613ffd8152602001615ffb8152602001617fed815260200161bff3815250905060006128ee846126e1565b90508361290c83836020811061290057fe5b60200201518790612b52565b8161291357fe5b0695945050505050565b71212627281d1d20bab1ba34b7b72a37b5b2b760711b60005260346020527ff990302aa50c23da9ae739bf6e61d7e500e9ac1cc52f2e68e8788b2eaecf8a335490565b61296a8282611eb8565b5050603460205273abf690e2ebc6690c4fdc303fc3ee0fbfeb1818ed7fabfb47f82be5f16110ad850ba176d10328a595f8c4313f9c94320e73417163d455735e26fa0fe067d28aae8aff2fb85ac2e693bd9efa7ff990302aa50c23da9ae739bf6e61d7e500e9ac1cc52f2e68e8788b2eaecf8a335573101194a3ff67f83a05b3e15afa52d45d588614ca7f594860222cda13952bad3fd5cf812ce1f273f5772d925c13a697e5d6f823707c556e424c4e503a3a426f756e636550726f60881b60005273dc879146c635a9c613dec849fae7b383cbdb437d7fe2f105e158e9f2d843fca5aacbb0d674eb339f0835fab8b1a5789d274bd54ded55565b63f23a6e6160e01b9695505050505050565b60406020819052600091825290205460ff1681565b6000612ace83836040518060400160405280601a81526020017f536166654d6174683a206469766973696f6e206279207a65726f000000000000815250612c89565b9392505050565b61239b8363a9059cbb60e01b8484604051602401612af4929190613424565b60408051601f198184030181529190526020810180516001600160e01b03166001600160e01b031990931692909217909152612cc0565b6000828152603460205260409020548114610d0d5760009182526034602052604090912055565b600082612b6157506000611222565b82820282848281612b6e57fe5b0414612ace5760405162461bcd60e51b81526004016108aa906136ba565b6000612ace83836040518060400160405280601e81526020017f536166654d6174683a207375627472616374696f6e206f766572666c6f770000815250612da5565b611305846323b872dd60e01b858585604051602401612af4939291906133c8565b600082820183811015612ace5760405162461bcd60e51b81526004016108aa90613514565b6001600160a01b038116612c2757600080fd5b6033546040516001600160a01b038084169216907fc7c0c772add429241571afb3805861fb3cfa2af374534088b76cdb4325a87e9a90600090a3603380546001600160a01b0319166001600160a01b0392909216919091179055565b303b1590565b60008183612caa5760405162461bcd60e51b81526004016108aa919061345d565b506000838581612cb657fe5b0495945050505050565b612cd2826001600160a01b0316612dd1565b612cee5760405162461bcd60e51b81526004016108aa906138ec565b60006060836001600160a01b031683604051612d0a9190613382565b6000604051808303816000865af19150503d8060008114612d47576040519150601f19603f3d011682016040523d82523d6000602084013e612d4c565b606091505b509150915081612d6e5760405162461bcd60e51b81526004016108aa90613582565b8051156113055780806020019051810190612d899190613116565b6113055760405162461bcd60e51b81526004016108aa906138a2565b60008184841115612dc95760405162461bcd60e51b81526004016108aa919061345d565b505050900390565b6000813f7fc5d2460186f7233c927e7db2dcc703c0e500b653ca82273b7bfad8045d85a470818114801590612793575050151592915050565b604051806101a001604052806000815260200160006001600160a01b0316815260200160006001600160a01b03168152602001600081526020016000815260200160006001600160a01b0316815260200160008152602001600081526020016000815260200160008152602001600081526020016000151581526020016000151581525090565b6040518061040001604052806020906020820280368337509192915050565b803561122281613af4565b600082601f830112612ecb578081fd5b813567ffffffffffffffff811115612ee1578182fd5b6020808202612ef1828201613aa1565b83815293508184018583018287018401881015612f0d57600080fd5b600092505b84831015612f39578035612f2581613af4565b825260019290920191908301908301612f12565b505050505092915050565b803561122281613b09565b60008083601f840112612f60578182fd5b50813567ffffffffffffffff811115612f77578182fd5b602083019150836020828501011115612f8f57600080fd5b9250929050565b600060208284031215612fa7578081fd5b8135612ace81613af4565b600080600080600060808688031215612fc9578081fd5b8535612fd481613af4565b94506020860135612fe481613af4565b935060408601359250606086013567ffffffffffffffff811115613006578182fd5b61301288828901612f4f565b969995985093965092949392505050565b60008060008060008060a0878903121561303b578081fd5b863561304681613af4565b9550602087013561305681613af4565b94506040870135935060608701359250608087013567ffffffffffffffff81111561307f578182fd5b61308b89828a01612f4f565b979a9699509497509295939492505050565b600080604083850312156130af578182fd5b82356130ba81613af4565b9150602083013567ffffffffffffffff8111156130d5578182fd5b6130e185828601612ebb565b9150509250929050565b600080604083850312156130fd578182fd5b823561310881613af4565b946020939093013593505050565b600060208284031215613127578081fd5b8151612ace81613b09565b600060208284031215613143578081fd5b5035919050565b6000806040838503121561315c578182fd5b82359150602083013561316e81613af4565b809150509250929050565b60008060006060848603121561318d578283fd5b83359250602084013561319f81613af4565b929592945050506040919091013590565b600080604083850312156131c2578081fd5b50508035926020909101359150565b6000806000606084860312156131e5578081fd5b505081359360208301359350604090920135919050565b600080828403610220811215613210578283fd5b6102008082121561321f578384fd5b61322881613aa1565b91508435825261323b8660208701612eb0565b602083015261324d8660408701612eb0565b604083015260608501356060830152608085013560808301526132738660a08701612eb0565b60a083015260c0858101359083015260e0808601359083015261010080860135908301526101208086013590830152610140808601359083015261016080860135908301526101806132c787828801612f44565b908301526101a06132da87878301612f44565b908301526101c06132ed87878301612f44565b908301526101e0858101359083015290925083013567ffffffffffffffff8111156130d5578182fd5b600060208284031215613327578081fd5b5051919050565b60008060408385031215613340578182fd5b82359150602083013567ffffffffffffffff8111156130d5578182fd5b600080604083850312156131c2578182fd5b6001600160a01b03169052565b15159052565b60008251613394818460208701613ac8565b9190910192915050565b9283526020830191909152604082015260600190565b6001600160a01b0391909116815260200190565b6001600160a01b039384168152919092166020820152604081019190915260600190565b6001600160a01b0394851681529290931660208301526040820152606081019190915260a06080820181905260009082015260c00190565b6001600160a01b03929092168252602082015260400190565b901515815260200190565b6001600160e01b031991909116815260200190565b600060208252825180602084015261347c816040850160208701613ac8565b601f01601f19169190910160400192915050565b60208082526010908201526f34b73b30b634b21033b7bb32b93737b960811b604082015260600190565b602080825260099082015268746f6f206c6172676560b81b604082015260600190565b6020808252601a908201527f596f75206861766520636c61696d6564207468697320706f6f6c000000000000604082015260600190565b6020808252601b908201527f536166654d6174683a206164646974696f6e206f766572666c6f770000000000604082015260600190565b60208082526018908201527f7468697320706f6f6c20646f6573206e6f742065786973740000000000000000604082015260600190565b6020808252818101527f5361666545524332303a206c6f772d6c6576656c2063616c6c206661696c6564604082015260600190565b6020808252601390820152721d1a1a5cc81c1bdbdb081a5cc818db1bdcd959606a1b604082015260600190565b6020808252600e908201526d696e76616c6964206e536861726560901b604082015260600190565b60208082526007908201526618db185a5b595960ca1b604082015260600190565b6020808252600f908201526e34b73b30b634b21031b932b0ba37b960891b604082015260600190565b602080825260139082015272165bdd481a185d995b89dd0818995d081e595d606a1b604082015260600190565b60208082526017908201527f73656e646572206e6f7420696e2077686974656c697374000000000000000000604082015260600190565b60208082526021908201527f536166654d6174683a206d756c7469706c69636174696f6e206f766572666c6f6040820152607760f81b606082015260800190565b6020808252602e908201527f436f6e747261637420696e7374616e63652068617320616c726561647920626560408201526d195b881a5b9a5d1a585b1a5e995960921b606082015260800190565b60208082526019908201527f5468652062657420616d6f756e7420697320746f6f206c6f7700000000000000604082015260600190565b6020808252600d908201526c3837b7b6103737ba1037b832b760991b604082015260600190565b6020808252601690820152751cd95b99195c881b9bdd081a5b8812d650c81b1a5cdd60521b604082015260600190565b602080825260149082015273165bdd481a185d9948185b1c9958591e4818995d60621b604082015260600190565b60208082526022908201527f506c6179657220686173207265616368656420746865207570706572206c696d6040820152611a5d60f21b606082015260800190565b6020808252601c908201527f424f54206f722041756374696f6e206973206e6f7420656e6f75676800000000604082015260600190565b6020808252600a90820152691b9bdd081c1b185e595960b21b604082015260600190565b6020808252602a908201527f5361666545524332303a204552433230206f7065726174696f6e20646964206e6040820152691bdd081cdd58d8d9595960b21b606082015260800190565b6020808252601f908201527f5361666545524332303a2063616c6c20746f206e6f6e2d636f6e747261637400604082015260600190565b60208082526017908201527f7468697320706f6f6c206973206e6f7420636c6f736564000000000000000000604082015260600190565b815181526020808301516101a08301916139769084018261336f565b506040830151613989604084018261336f565b50606083015160608301526080830151608083015260a08301516139b060a084018261336f565b5060c0838101519083015260e08084015190830152610100808401519083015261012080840151908301526101408084015190830152610160808401516139f98285018261337c565b505061018080840151613a0e8285018261337c565b505092915050565b90815260200190565b9c8d526001600160a01b039b8c1660208e0152998b1660408d015260608c019890985260808b01969096529390971660a089015260c088019190915260e087015261010086019490945261012085019390935261014084019290925290151561016083015215156101808201526101a00190565b918252602082015260400190565b60405181810167ffffffffffffffff81118282101715613ac057600080fd5b604052919050565b60005b83811015613ae3578181015183820152602001613acb565b838111156113055750506000910152565b6001600160a01b03811681146123e057600080fd5b80151581146123e057600080fdfea26469706673582212202e7c611fba4d42461a7222cde4710f80f4e636f403326b28b349dca5a67a8f9464736f6c634300060c0033",
  "compiler": {
    "name": "solc",
    "version": "0.6.12+commit.27d51765.Emscripten.clang",
    "optimizer": {
      "enabled": true,
      "runs": 200
    },
    "evmVersion": "petersburg"
  }
}