{
  "fileName": "BouncePro.sol",
  "contractName": "BouncePro",
  "source": "// SPDX-License-Identifier: MIT\n\npragma solidity ^0.6.0;\npragma experimental ABIEncoderV2;\n\nimport \"@openzeppelin/contracts-ethereum-package/contracts/math/SafeMath.sol\";\nimport \"@openzeppelin/contracts-ethereum-package/contracts/token/ERC20/SafeERC20.sol\";\nimport \"@openzeppelin/contracts-ethereum-package/contracts/token/ERC20/IERC20.sol\";\nimport \"./Governable.sol\";\nimport \"./interfaces/IBounceStake.sol\";\n\ncontract BouncePro is Configurable {\n    using SafeMath for uint;\n    using SafeERC20 for IERC20;\n\n    bytes32 internal constant TxFeeRatio            = bytes32(\"BPRO::TxFeeRatio\");\n    bytes32 internal constant MinValueOfBotHolder   = bytes32(\"BPRO::MinValueOfBotHolder\");\n    bytes32 internal constant BotToken              = bytes32(\"BPRO::BotToken\");\n    bytes32 internal constant StakeContract         = bytes32(\"BPRO::StakeContract\");\n\n    struct CreateReq {\n        uint projectId;\n        // beneficiary of the pool\n        address payable beneficiary;\n        // address of sell token\n        address token0;\n        // address of buy token\n        address token1;\n        // total amount of token0\n        uint amountTotal0;\n        // total amount of token1\n        uint amountTotal1;\n        // the duration in seconds the pool will be closed\n        uint duration;\n        // the timestamp in seconds the pool will open\n        uint openAt;\n        // the delay timestamp in seconds when buyers can claim after pool filled\n        uint claimDelaySec;\n        bool onlyBot;\n        uint maxEthPerWallet;\n        bool enableWhiteList;\n        bool enableKycList;\n    }\n\n    struct Pool {\n        uint projectId;\n        // beneficiary of the pool\n        address payable beneficiary;\n        // address of sell token\n        address token0;\n        // address of buy token\n        address token1;\n        // total amount of token0\n        uint amountTotal0;\n        // total amount of token1\n        uint amountTotal1;\n        // the timestamp in seconds the pool will open\n        uint openAt;\n        // the timestamp in seconds the pool will be closed\n        uint closeAt;\n        // the delay timestamp in seconds when buyers can claim after pool filled\n        uint claimDelaySec;\n        // whether or not whitelist is enable\n        bool enableWhiteList;\n        // whether or not kyc list is enable\n        bool enableKycList;\n    }\n\n    Pool[] public pools;\n\n    // pool index => the timestamp which the pool filled at\n    mapping(uint => uint) public filledAtP;\n    // pool index => swap amount of token0\n    mapping(uint => uint) public amountSwap0P;\n    // pool index => swap amount of token1\n    mapping(uint => uint) public amountSwap1P;\n    // pool index => the swap pool only allow BOT holder to take part in\n    mapping(uint => bool) public onlyBotHolderP;\n    // pool index => maximum swap amount of ETH per wallet, if the value is not set, the default value is zero\n    mapping(uint => uint) public maxEthPerWalletP;\n    // team address => pool index => whether or not the pool is belong to the address\n    mapping(address => mapping(uint => bool)) public teamPool;\n    // team address => pool index => whether or not team's pool has been claimed\n    mapping(address => mapping(uint => bool)) public teamClaimed;\n    // user address => pool index => swapped amount of token0\n    mapping(address => mapping(uint => uint)) public myAmountSwapped0;\n    // user address => pool index => swapped amount of token1\n    mapping(address => mapping(uint => uint)) public myAmountSwapped1;\n    // user address => pool index => whether or not my pool has been claimed\n    mapping(address => mapping(uint => bool)) public myClaimed;\n\n    // pool index => account => whether or not allow swap\n    mapping(uint => mapping(address => bool)) public whitelistP;\n    mapping(address => bool) public kyclist;\n    // creator address => whether or not it's a creator address\n    mapping(address => bool) public creator;\n\n    event Created(uint indexed index, address indexed sender, Pool pool);\n    event Swapped(uint indexed index, address indexed sender, uint amount0, uint amount1);\n    event Claimed(uint indexed index, address indexed sender, uint amount0);\n    event UserClaimed(uint indexed index, address indexed sender, uint amount0);\n\n    function initialize(address _governor, address[] memory creators_) public {\n        require(msg.sender == governor || governor == address(0), \"invalid governor\");\n        governor = _governor;\n\n        for (uint i = 0; i < creators_.length; i++) {\n            addCreator(creators_[i]);\n        }\n\n        config[TxFeeRatio] = 0.015 ether;\n        config[MinValueOfBotHolder] = 0.5 ether;\n\n        // mainnet\n        config[BotToken] = uint(0x5bEaBAEBB3146685Dd74176f68a0721F91297D37);\n        config[StakeContract] = uint(0x98945BC69A554F8b129b09aC8AfDc2cc2431c48E);\n    }\n\n    function initialize_rinkeby(address _governor, address[] memory creators_) public {\n        require(msg.sender == governor || governor == address(0), \"invalid governor\");\n        governor = _governor;\n\n        for (uint i = 0; i < creators_.length; i++) {\n            addCreator(creators_[i]);\n        }\n\n        config[TxFeeRatio] = 0.015 ether;\n        config[MinValueOfBotHolder] = 0.5 ether;\n\n        // rinkeby\n        config[BotToken] = uint(0xAbF690E2EbC6690c4Fdc303fc3eE0FBFEb1818eD);\n        config[StakeContract] = uint(0xa77A9FcbA2Ae5599e0054369d1655D186020ECE1);\n    }\n\n    function create(CreateReq memory poolReq, address[] memory whitelist_) public payable\n        isCreator(msg.sender)\n    {\n        uint index = pools.length;\n        require(poolReq.token0 != poolReq.token1, \"token0 and token1 is same\");\n        require(poolReq.amountTotal0 != 0, \"invalid amountTotal0\");\n        require(poolReq.amountTotal1 != 0, \"invalid amountTotal1\");\n        require(poolReq.openAt >= now, \"invalid openAt\");\n        require(poolReq.duration != 0, \"invalid duration\");\n\n        if (poolReq.maxEthPerWallet != 0) {\n            maxEthPerWalletP[index] = poolReq.maxEthPerWallet;\n        }\n        if (poolReq.onlyBot) {\n            onlyBotHolderP[index] = poolReq.onlyBot;\n        }\n\n        // transfer amount of token0 to this contract\n        IERC20  _token0 = IERC20(poolReq.token0);\n        uint token0BalanceBefore = _token0.balanceOf(address(this));\n        _token0.safeTransferFrom(poolReq.beneficiary, address(this), poolReq.amountTotal0);\n        require(\n            _token0.balanceOf(address(this)).sub(token0BalanceBefore) == poolReq.amountTotal0,\n            \"not support deflationary token\"\n        );\n        // reset allowance to 0\n        _token0.safeApprove(address(this), 0);\n\n        addWhitelist(index, whitelist_);\n\n        Pool memory pool;\n        pool.projectId = poolReq.projectId;\n        pool.beneficiary = poolReq.beneficiary;\n        pool.token0 = poolReq.token0;\n        pool.token1 = poolReq.token1;\n        pool.amountTotal0 = poolReq.amountTotal0;\n        pool.amountTotal1 = poolReq.amountTotal1;\n        pool.openAt = poolReq.openAt;\n        pool.closeAt = poolReq.openAt.add(poolReq.duration);\n        pool.claimDelaySec = poolReq.claimDelaySec;\n        pool.enableWhiteList = poolReq.enableWhiteList;\n        pool.enableKycList = poolReq.enableKycList;\n        pools.push(pool);\n\n        teamPool[poolReq.beneficiary][index] = true;\n\n        emit Created(index, msg.sender, pool);\n    }\n\n    function swap(uint index, uint amount1) external payable\n        isPoolExist(index)\n        isPoolNotClosed(index)\n        checkBotHolder(index)\n    {\n        address payable sender = msg.sender;\n        Pool memory pool = pools[index];\n        if (pool.enableWhiteList) {\n            require(whitelistP[index][sender], \"sender not in whitelist\");\n        }\n        if (pool.enableKycList) {\n            require(kyclist[sender], \"sender not in KYC list\");\n        }\n        require(pool.openAt <= now, \"pool not open\");\n        require(amount1 != 0, \"the value of amount1 is zero\");\n        require(pool.amountTotal1 > amountSwap1P[index], \"swap amount is zero\");\n\n        // check if amount1 is exceeded\n        uint excessAmount1 = 0;\n        uint _amount1 = pool.amountTotal1.sub(amountSwap1P[index]);\n        if (_amount1 < amount1) {\n            excessAmount1 = amount1.sub(_amount1);\n        } else {\n            _amount1 = amount1;\n        }\n\n        // check if amount0 is exceeded\n        uint amount0 = _amount1.mul(pool.amountTotal0).div(pool.amountTotal1);\n        uint _amount0 = pool.amountTotal0.sub(amountSwap0P[index]);\n        if (_amount0 < amount0) {\n            require(amount0 - _amount0 > 100, \"amount0 is too big\");\n        } else {\n            _amount0 = amount0;\n        }\n\n        amountSwap0P[index] = amountSwap0P[index].add(_amount0);\n        amountSwap1P[index] = amountSwap1P[index].add(_amount1);\n        myAmountSwapped0[sender][index] = myAmountSwapped0[sender][index].add(_amount0);\n        // check if swapped amount of token1 is exceeded maximum allowance\n        if (maxEthPerWalletP[index] != 0) {\n            require(\n                myAmountSwapped1[sender][index].add(_amount1) <= maxEthPerWalletP[index],\n                \"swapped amount of token1 is exceeded maximum allowance\"\n            );\n            myAmountSwapped1[sender][index] = myAmountSwapped1[sender][index].add(_amount1);\n        }\n\n        if (pool.amountTotal1 == amountSwap1P[index]) {\n            filledAtP[index] = now;\n        }\n\n        // transfer amount of token1 to this contract\n        if (pool.token1 == address(0)) {\n            require(msg.value == amount1, \"invalid amount of ETH\");\n        } else {\n            IERC20(pool.token1).safeTransferFrom(sender, address(this), amount1);\n        }\n\n        if (pool.claimDelaySec == 0) {\n            if (_amount0 > 0) {\n                // send token0 to sender\n                if (pool.token0 == address(0)) {\n                    sender.transfer(_amount0);\n                } else {\n                    IERC20(pool.token0).safeTransfer(sender, _amount0);\n                }\n            }\n        }\n        if (excessAmount1 > 0) {\n            // send excess amount of token1 back to sender\n            if (pool.token1 == address(0)) {\n                sender.transfer(excessAmount1);\n            } else {\n                IERC20(pool.token1).safeTransfer(sender, excessAmount1);\n            }\n        }\n\n        // send token1 to beneficiary\n        if (pool.token1 == address(0)) {\n            uint256 txFee = _amount1.mul(getTxFeeRatio()).div(1 ether);\n            uint256 _actualAmount1 = _amount1.sub(txFee);\n            if (_actualAmount1 > 0) {\n                pool.beneficiary.transfer(_actualAmount1);\n            }\n            if (txFee > 0) {\n                // deposit transaction fee to staking contract\n                IBounceStake(getStakeContract()).depositReward{value: txFee}();\n            }\n        } else {\n            IERC20(pool.token1).safeTransfer(pool.beneficiary, _amount1);\n        }\n\n        emit Swapped(index, sender, _amount0, _amount1);\n    }\n\n    function claim(uint index) external payable {\n        address payable beneficiary = msg.sender;\n        require(teamPool[beneficiary][index], \"invalid owner\");\n        require(!teamClaimed[beneficiary][index], \"claimed\");\n\n        teamClaimed[beneficiary][index] = true;\n\n        Pool memory pool = pools[index];\n        require(index < pools.length, \"this pool does not exist\");\n        if (pool.amountTotal1 != amountSwap1P[index]) {\n            require(pool.closeAt <= now, \"this pool is not closed\");\n        }\n        // require(pool.amountTotal0 > amountSwap0P[index], \"the total amount of this pool is swapped\");\n\n        uint unSwapAmount0 = pool.amountTotal0 - amountSwap0P[index];\n        if (unSwapAmount0 > 0) {\n            IERC20(pool.token0).safeTransfer(beneficiary, unSwapAmount0);\n        }\n\n        emit Claimed(index, beneficiary, unSwapAmount0);\n    }\n\n    function userClaim(uint index) external\n        isPoolExist(index)\n    {\n        Pool memory pool = pools[index];\n        address sender = msg.sender;\n        require(pools[index].claimDelaySec > 0, \"invalid claim\");\n        require(!myClaimed[sender][index], \"claimed\");\n        require(filledAtP[index] > 0 && filledAtP[index].add(pool.claimDelaySec) <= now || pool.closeAt <= now, \"claim not ready\");\n        myClaimed[sender][index] = true;\n        if (myAmountSwapped0[sender][index] > 0) {\n            // send token0 to sender\n            if (pool.token0 == address(0)) {\n                msg.sender.transfer(myAmountSwapped0[sender][index]);\n            } else {\n                IERC20(pool.token0).safeTransfer(msg.sender, myAmountSwapped0[sender][index]);\n            }\n        }\n        emit UserClaimed(index, sender, myAmountSwapped0[sender][index]);\n    }\n\n    function transferGovernor(address _governor) external {\n        require(msg.sender == governor || governor == address(0), \"invalid governor\");\n        governor = _governor;\n    }\n\n    function addWhitelist(uint index, address[] memory whitelist_) public\n        isCreator(msg.sender)\n    {\n        for (uint i = 0; i < whitelist_.length; i++) {\n            whitelistP[index][whitelist_[i]] = true;\n        }\n    }\n\n    function removeWhitelist(uint index, address[] memory whitelist_) external\n        isCreator(msg.sender)\n    {\n        for (uint i = 0; i < whitelist_.length; i++) {\n            delete whitelistP[index][whitelist_[i]];\n        }\n    }\n\n    function addKycList(address[] memory kyclist_) external\n        isCreator(msg.sender)\n    {\n        for (uint i = 0; i < kyclist_.length; i++) {\n            kyclist[kyclist_[i]] = true;\n        }\n    }\n\n    function removeKycList(address[] memory kyclist_) external\n        isCreator(msg.sender)\n    {\n        for (uint i = 0; i < kyclist_.length; i++) {\n            delete kyclist[kyclist_[i]];\n        }\n    }\n\n    function addCreator(address creator_) public {\n        require(msg.sender == governor, \"invalid governor\");\n        creator[creator_] = true;\n    }\n\n    function removeCreator(address removeCreator_) external {\n        require(msg.sender == governor, \"invalid governor\");\n        delete creator[removeCreator_];\n    }\n\n    function getPoolCount() public view returns (uint) {\n        return pools.length;\n    }\n\n    function getTxFeeRatio() public view returns (uint) {\n        return config[TxFeeRatio];\n    }\n\n    function getMinValueOfBotHolder() public view returns (uint) {\n        return config[MinValueOfBotHolder];\n    }\n\n    function getBotToken() public view returns (address) {\n        return address(config[BotToken]);\n    }\n\n    function getStakeContract() public view returns (address) {\n        return address(config[StakeContract]);\n    }\n\n    modifier isPoolClosed(uint index) {\n        require(pools[index].closeAt <= now, \"this pool is not closed\");\n        _;\n    }\n\n    modifier isPoolNotClosed(uint index) {\n        require(pools[index].closeAt > now, \"this pool is closed\");\n        _;\n    }\n\n    modifier isPoolExist(uint index) {\n        require(index < pools.length, \"this pool does not exist\");\n        _;\n    }\n\n    modifier checkBotHolder(uint index) {\n        if (onlyBotHolderP[index]) {\n            require(IERC20(getBotToken()).balanceOf(msg.sender) >= getMinValueOfBotHolder(), \"BOT is not enough\");\n        }\n        _;\n    }\n\n    modifier isCreator(address target) {\n        require(creator[target], \"invalid creator\");\n        _;\n    }\n}\n",
  "sourcePath": "contracts/BouncePro.sol",
  "abi": [
    {
      "anonymous": false,
      "inputs": [
        {
          "indexed": true,
          "internalType": "uint256",
          "name": "index",
          "type": "uint256"
        },
        {
          "indexed": true,
          "internalType": "address",
          "name": "sender",
          "type": "address"
        },
        {
          "indexed": false,
          "internalType": "uint256",
          "name": "amount0",
          "type": "uint256"
        }
      ],
      "name": "Claimed",
      "type": "event"
    },
    {
      "anonymous": false,
      "inputs": [
        {
          "indexed": true,
          "internalType": "uint256",
          "name": "index",
          "type": "uint256"
        },
        {
          "indexed": true,
          "internalType": "address",
          "name": "sender",
          "type": "address"
        },
        {
          "components": [
            {
              "internalType": "uint256",
              "name": "projectId",
              "type": "uint256"
            },
            {
              "internalType": "address payable",
              "name": "beneficiary",
              "type": "address"
            },
            {
              "internalType": "address",
              "name": "token0",
              "type": "address"
            },
            {
              "internalType": "address",
              "name": "token1",
              "type": "address"
            },
            {
              "internalType": "uint256",
              "name": "amountTotal0",
              "type": "uint256"
            },
            {
              "internalType": "uint256",
              "name": "amountTotal1",
              "type": "uint256"
            },
            {
              "internalType": "uint256",
              "name": "openAt",
              "type": "uint256"
            },
            {
              "internalType": "uint256",
              "name": "closeAt",
              "type": "uint256"
            },
            {
              "internalType": "uint256",
              "name": "claimDelaySec",
              "type": "uint256"
            },
            {
              "internalType": "bool",
              "name": "enableWhiteList",
              "type": "bool"
            },
            {
              "internalType": "bool",
              "name": "enableKycList",
              "type": "bool"
            }
          ],
          "indexed": false,
          "internalType": "struct BouncePro.Pool",
          "name": "pool",
          "type": "tuple"
        }
      ],
      "name": "Created",
      "type": "event"
    },
    {
      "anonymous": false,
      "inputs": [
        {
          "indexed": true,
          "internalType": "address",
          "name": "previousGovernor",
          "type": "address"
        },
        {
          "indexed": true,
          "internalType": "address",
          "name": "newGovernor",
          "type": "address"
        }
      ],
      "name": "GovernorshipTransferred",
      "type": "event"
    },
    {
      "anonymous": false,
      "inputs": [
        {
          "indexed": true,
          "internalType": "uint256",
          "name": "index",
          "type": "uint256"
        },
        {
          "indexed": true,
          "internalType": "address",
          "name": "sender",
          "type": "address"
        },
        {
          "indexed": false,
          "internalType": "uint256",
          "name": "amount0",
          "type": "uint256"
        },
        {
          "indexed": false,
          "internalType": "uint256",
          "name": "amount1",
          "type": "uint256"
        }
      ],
      "name": "Swapped",
      "type": "event"
    },
    {
      "anonymous": false,
      "inputs": [
        {
          "indexed": true,
          "internalType": "uint256",
          "name": "index",
          "type": "uint256"
        },
        {
          "indexed": true,
          "internalType": "address",
          "name": "sender",
          "type": "address"
        },
        {
          "indexed": false,
          "internalType": "uint256",
          "name": "amount0",
          "type": "uint256"
        }
      ],
      "name": "UserClaimed",
      "type": "event"
    },
    {
      "inputs": [
        {
          "internalType": "address",
          "name": "creator_",
          "type": "address"
        }
      ],
      "name": "addCreator",
      "outputs": [],
      "stateMutability": "nonpayable",
      "type": "function"
    },
    {
      "inputs": [
        {
          "internalType": "address[]",
          "name": "kyclist_",
          "type": "address[]"
        }
      ],
      "name": "addKycList",
      "outputs": [],
      "stateMutability": "nonpayable",
      "type": "function"
    },
    {
      "inputs": [
        {
          "internalType": "uint256",
          "name": "index",
          "type": "uint256"
        },
        {
          "internalType": "address[]",
          "name": "whitelist_",
          "type": "address[]"
        }
      ],
      "name": "addWhitelist",
      "outputs": [],
      "stateMutability": "nonpayable",
      "type": "function"
    },
    {
      "inputs": [
        {
          "internalType": "uint256",
          "name": "",
          "type": "uint256"
        }
      ],
      "name": "amountSwap0P",
      "outputs": [
        {
          "internalType": "uint256",
          "name": "",
          "type": "uint256"
        }
      ],
      "stateMutability": "view",
      "type": "function"
    },
    {
      "inputs": [
        {
          "internalType": "uint256",
          "name": "",
          "type": "uint256"
        }
      ],
      "name": "amountSwap1P",
      "outputs": [
        {
          "internalType": "uint256",
          "name": "",
          "type": "uint256"
        }
      ],
      "stateMutability": "view",
      "type": "function"
    },
    {
      "inputs": [
        {
          "internalType": "uint256",
          "name": "index",
          "type": "uint256"
        }
      ],
      "name": "claim",
      "outputs": [],
      "stateMutability": "payable",
      "type": "function"
    },
    {
      "inputs": [
        {
          "components": [
            {
              "internalType": "uint256",
              "name": "projectId",
              "type": "uint256"
            },
            {
              "internalType": "address payable",
              "name": "beneficiary",
              "type": "address"
            },
            {
              "internalType": "address",
              "name": "token0",
              "type": "address"
            },
            {
              "internalType": "address",
              "name": "token1",
              "type": "address"
            },
            {
              "internalType": "uint256",
              "name": "amountTotal0",
              "type": "uint256"
            },
            {
              "internalType": "uint256",
              "name": "amountTotal1",
              "type": "uint256"
            },
            {
              "internalType": "uint256",
              "name": "duration",
              "type": "uint256"
            },
            {
              "internalType": "uint256",
              "name": "openAt",
              "type": "uint256"
            },
            {
              "internalType": "uint256",
              "name": "claimDelaySec",
              "type": "uint256"
            },
            {
              "internalType": "bool",
              "name": "onlyBot",
              "type": "bool"
            },
            {
              "internalType": "uint256",
              "name": "maxEthPerWallet",
              "type": "uint256"
            },
            {
              "internalType": "bool",
              "name": "enableWhiteList",
              "type": "bool"
            },
            {
              "internalType": "bool",
              "name": "enableKycList",
              "type": "bool"
            }
          ],
          "internalType": "struct BouncePro.CreateReq",
          "name": "poolReq",
          "type": "tuple"
        },
        {
          "internalType": "address[]",
          "name": "whitelist_",
          "type": "address[]"
        }
      ],
      "name": "create",
      "outputs": [],
      "stateMutability": "payable",
      "type": "function"
    },
    {
      "inputs": [
        {
          "internalType": "address",
          "name": "",
          "type": "address"
        }
      ],
      "name": "creator",
      "outputs": [
        {
          "internalType": "bool",
          "name": "",
          "type": "bool"
        }
      ],
      "stateMutability": "view",
      "type": "function"
    },
    {
      "inputs": [
        {
          "internalType": "uint256",
          "name": "",
          "type": "uint256"
        }
      ],
      "name": "filledAtP",
      "outputs": [
        {
          "internalType": "uint256",
          "name": "",
          "type": "uint256"
        }
      ],
      "stateMutability": "view",
      "type": "function"
    },
    {
      "inputs": [],
      "name": "getBotToken",
      "outputs": [
        {
          "internalType": "address",
          "name": "",
          "type": "address"
        }
      ],
      "stateMutability": "view",
      "type": "function"
    },
    {
      "inputs": [
        {
          "internalType": "bytes32",
          "name": "key",
          "type": "bytes32"
        },
        {
          "internalType": "address",
          "name": "addr",
          "type": "address"
        }
      ],
      "name": "getConfig",
      "outputs": [
        {
          "internalType": "uint256",
          "name": "",
          "type": "uint256"
        }
      ],
      "stateMutability": "view",
      "type": "function"
    },
    {
      "inputs": [
        {
          "internalType": "bytes32",
          "name": "key",
          "type": "bytes32"
        }
      ],
      "name": "getConfig",
      "outputs": [
        {
          "internalType": "uint256",
          "name": "",
          "type": "uint256"
        }
      ],
      "stateMutability": "view",
      "type": "function"
    },
    {
      "inputs": [
        {
          "internalType": "bytes32",
          "name": "key",
          "type": "bytes32"
        },
        {
          "internalType": "uint256",
          "name": "index",
          "type": "uint256"
        }
      ],
      "name": "getConfig",
      "outputs": [
        {
          "internalType": "uint256",
          "name": "",
          "type": "uint256"
        }
      ],
      "stateMutability": "view",
      "type": "function"
    },
    {
      "inputs": [],
      "name": "getMinValueOfBotHolder",
      "outputs": [
        {
          "internalType": "uint256",
          "name": "",
          "type": "uint256"
        }
      ],
      "stateMutability": "view",
      "type": "function"
    },
    {
      "inputs": [],
      "name": "getPoolCount",
      "outputs": [
        {
          "internalType": "uint256",
          "name": "",
          "type": "uint256"
        }
      ],
      "stateMutability": "view",
      "type": "function"
    },
    {
      "inputs": [],
      "name": "getStakeContract",
      "outputs": [
        {
          "internalType": "address",
          "name": "",
          "type": "address"
        }
      ],
      "stateMutability": "view",
      "type": "function"
    },
    {
      "inputs": [],
      "name": "getTxFeeRatio",
      "outputs": [
        {
          "internalType": "uint256",
          "name": "",
          "type": "uint256"
        }
      ],
      "stateMutability": "view",
      "type": "function"
    },
    {
      "inputs": [],
      "name": "governor",
      "outputs": [
        {
          "internalType": "address",
          "name": "",
          "type": "address"
        }
      ],
      "stateMutability": "view",
      "type": "function"
    },
    {
      "inputs": [
        {
          "internalType": "address",
          "name": "_governor",
          "type": "address"
        },
        {
          "internalType": "address[]",
          "name": "creators_",
          "type": "address[]"
        }
      ],
      "name": "initialize",
      "outputs": [],
      "stateMutability": "nonpayable",
      "type": "function"
    },
    {
      "inputs": [
        {
          "internalType": "address",
          "name": "governor_",
          "type": "address"
        }
      ],
      "name": "initialize",
      "outputs": [],
      "stateMutability": "nonpayable",
      "type": "function"
    },
    {
      "inputs": [
        {
          "internalType": "address",
          "name": "_governor",
          "type": "address"
        },
        {
          "internalType": "address[]",
          "name": "creators_",
          "type": "address[]"
        }
      ],
      "name": "initialize_rinkeby",
      "outputs": [],
      "stateMutability": "nonpayable",
      "type": "function"
    },
    {
      "inputs": [
        {
          "internalType": "address",
          "name": "",
          "type": "address"
        }
      ],
      "name": "kyclist",
      "outputs": [
        {
          "internalType": "bool",
          "name": "",
          "type": "bool"
        }
      ],
      "stateMutability": "view",
      "type": "function"
    },
    {
      "inputs": [
        {
          "internalType": "uint256",
          "name": "",
          "type": "uint256"
        }
      ],
      "name": "maxEthPerWalletP",
      "outputs": [
        {
          "internalType": "uint256",
          "name": "",
          "type": "uint256"
        }
      ],
      "stateMutability": "view",
      "type": "function"
    },
    {
      "inputs": [
        {
          "internalType": "address",
          "name": "",
          "type": "address"
        },
        {
          "internalType": "uint256",
          "name": "",
          "type": "uint256"
        }
      ],
      "name": "myAmountSwapped0",
      "outputs": [
        {
          "internalType": "uint256",
          "name": "",
          "type": "uint256"
        }
      ],
      "stateMutability": "view",
      "type": "function"
    },
    {
      "inputs": [
        {
          "internalType": "address",
          "name": "",
          "type": "address"
        },
        {
          "internalType": "uint256",
          "name": "",
          "type": "uint256"
        }
      ],
      "name": "myAmountSwapped1",
      "outputs": [
        {
          "internalType": "uint256",
          "name": "",
          "type": "uint256"
        }
      ],
      "stateMutability": "view",
      "type": "function"
    },
    {
      "inputs": [
        {
          "internalType": "address",
          "name": "",
          "type": "address"
        },
        {
          "internalType": "uint256",
          "name": "",
          "type": "uint256"
        }
      ],
      "name": "myClaimed",
      "outputs": [
        {
          "internalType": "bool",
          "name": "",
          "type": "bool"
        }
      ],
      "stateMutability": "view",
      "type": "function"
    },
    {
      "inputs": [
        {
          "internalType": "uint256",
          "name": "",
          "type": "uint256"
        }
      ],
      "name": "onlyBotHolderP",
      "outputs": [
        {
          "internalType": "bool",
          "name": "",
          "type": "bool"
        }
      ],
      "stateMutability": "view",
      "type": "function"
    },
    {
      "inputs": [
        {
          "internalType": "uint256",
          "name": "",
          "type": "uint256"
        }
      ],
      "name": "pools",
      "outputs": [
        {
          "internalType": "uint256",
          "name": "projectId",
          "type": "uint256"
        },
        {
          "internalType": "address payable",
          "name": "beneficiary",
          "type": "address"
        },
        {
          "internalType": "address",
          "name": "token0",
          "type": "address"
        },
        {
          "internalType": "address",
          "name": "token1",
          "type": "address"
        },
        {
          "internalType": "uint256",
          "name": "amountTotal0",
          "type": "uint256"
        },
        {
          "internalType": "uint256",
          "name": "amountTotal1",
          "type": "uint256"
        },
        {
          "internalType": "uint256",
          "name": "openAt",
          "type": "uint256"
        },
        {
          "internalType": "uint256",
          "name": "closeAt",
          "type": "uint256"
        },
        {
          "internalType": "uint256",
          "name": "claimDelaySec",
          "type": "uint256"
        },
        {
          "internalType": "bool",
          "name": "enableWhiteList",
          "type": "bool"
        },
        {
          "internalType": "bool",
          "name": "enableKycList",
          "type": "bool"
        }
      ],
      "stateMutability": "view",
      "type": "function"
    },
    {
      "inputs": [
        {
          "internalType": "address",
          "name": "removeCreator_",
          "type": "address"
        }
      ],
      "name": "removeCreator",
      "outputs": [],
      "stateMutability": "nonpayable",
      "type": "function"
    },
    {
      "inputs": [
        {
          "internalType": "address[]",
          "name": "kyclist_",
          "type": "address[]"
        }
      ],
      "name": "removeKycList",
      "outputs": [],
      "stateMutability": "nonpayable",
      "type": "function"
    },
    {
      "inputs": [
        {
          "internalType": "uint256",
          "name": "index",
          "type": "uint256"
        },
        {
          "internalType": "address[]",
          "name": "whitelist_",
          "type": "address[]"
        }
      ],
      "name": "removeWhitelist",
      "outputs": [],
      "stateMutability": "nonpayable",
      "type": "function"
    },
    {
      "inputs": [],
      "name": "renounceGovernorship",
      "outputs": [],
      "stateMutability": "nonpayable",
      "type": "function"
    },
    {
      "inputs": [
        {
          "internalType": "bytes32",
          "name": "key",
          "type": "bytes32"
        },
        {
          "internalType": "uint256",
          "name": "value",
          "type": "uint256"
        }
      ],
      "name": "setConfig",
      "outputs": [],
      "stateMutability": "nonpayable",
      "type": "function"
    },
    {
      "inputs": [
        {
          "internalType": "bytes32",
          "name": "key",
          "type": "bytes32"
        },
        {
          "internalType": "address",
          "name": "addr",
          "type": "address"
        },
        {
          "internalType": "uint256",
          "name": "value",
          "type": "uint256"
        }
      ],
      "name": "setConfig",
      "outputs": [],
      "stateMutability": "nonpayable",
      "type": "function"
    },
    {
      "inputs": [
        {
          "internalType": "bytes32",
          "name": "key",
          "type": "bytes32"
        },
        {
          "internalType": "uint256",
          "name": "index",
          "type": "uint256"
        },
        {
          "internalType": "uint256",
          "name": "value",
          "type": "uint256"
        }
      ],
      "name": "setConfig",
      "outputs": [],
      "stateMutability": "nonpayable",
      "type": "function"
    },
    {
      "inputs": [
        {
          "internalType": "uint256",
          "name": "index",
          "type": "uint256"
        },
        {
          "internalType": "uint256",
          "name": "amount1",
          "type": "uint256"
        }
      ],
      "name": "swap",
      "outputs": [],
      "stateMutability": "payable",
      "type": "function"
    },
    {
      "inputs": [
        {
          "internalType": "address",
          "name": "",
          "type": "address"
        },
        {
          "internalType": "uint256",
          "name": "",
          "type": "uint256"
        }
      ],
      "name": "teamClaimed",
      "outputs": [
        {
          "internalType": "bool",
          "name": "",
          "type": "bool"
        }
      ],
      "stateMutability": "view",
      "type": "function"
    },
    {
      "inputs": [
        {
          "internalType": "address",
          "name": "",
          "type": "address"
        },
        {
          "internalType": "uint256",
          "name": "",
          "type": "uint256"
        }
      ],
      "name": "teamPool",
      "outputs": [
        {
          "internalType": "bool",
          "name": "",
          "type": "bool"
        }
      ],
      "stateMutability": "view",
      "type": "function"
    },
    {
      "inputs": [
        {
          "internalType": "address",
          "name": "_governor",
          "type": "address"
        }
      ],
      "name": "transferGovernor",
      "outputs": [],
      "stateMutability": "nonpayable",
      "type": "function"
    },
    {
      "inputs": [
        {
          "internalType": "address",
          "name": "newGovernor",
          "type": "address"
        }
      ],
      "name": "transferGovernorship",
      "outputs": [],
      "stateMutability": "nonpayable",
      "type": "function"
    },
    {
      "inputs": [
        {
          "internalType": "uint256",
          "name": "index",
          "type": "uint256"
        }
      ],
      "name": "userClaim",
      "outputs": [],
      "stateMutability": "nonpayable",
      "type": "function"
    },
    {
      "inputs": [
        {
          "internalType": "uint256",
          "name": "",
          "type": "uint256"
        },
        {
          "internalType": "address",
          "name": "",
          "type": "address"
        }
      ],
      "name": "whitelistP",
      "outputs": [
        {
          "internalType": "bool",
          "name": "",
          "type": "bool"
        }
      ],
      "stateMutability": "view",
      "type": "function"
    }
  ],
  "bytecode": "0x608060405234801561001057600080fd5b50613655806100206000396000f3fe6080604052600436106102515760003560e01c806391e9e92911610139578063c7011b7b116100b6578063ddf2be3f1161007a578063ddf2be3f146106b6578063dfd29d9e146106d6578063e4710390146106eb578063f05286a31461070b578063fc0cdf761461072b578063fe43efda1461074b57610251565b8063c7011b7b1461062e578063c92a46bb14610643578063ca0262bd14610663578063d8b99cb214610683578063d96073cf146106a357610251565b8063b6aa515b116100fd578063b6aa515b1461058e578063b8cc9ce6146105ae578063bd6018bb146105ce578063c4d66de8146105ee578063c6472b121461060e57610251565b806391e9e929146104e4578063946d9204146104f7578063a5ed536f14610517578063ac4afa3814610537578063b21544f31461056e57610251565b8063636b0475116101d257806388fd825b1161019657806388fd825b1461042f5780638aa1e44e1461044f5780638cfbe9d51461046f5780638d0929af1461048f5780638ec872e3146104af5780638eec5d70146104cf57610251565b8063636b0475146103a557806363cb6c42146103c55780636c221098146103da5780636dd5b69d146103fa57806381c0c2631461041a57610251565b806326d3e5de1161021957806326d3e5de14610312578063379607f5146103325780633b9dce051461034557806352665f4714610365578063548644151461038557610251565b80630c340a2414610256578063150482411461028157806315fe96dc146102ae5780631bb2dd6c146102d0578063211f4191146102f2575b600080fd5b34801561026257600080fd5b5061026b61076b565b6040516102789190612da1565b60405180910390f35b34801561028d57600080fd5b506102a161029c366004612aed565b61077a565b6040516102789190612e0c565b3480156102ba57600080fd5b506102ce6102c9366004612be5565b61079a565b005b3480156102dc57600080fd5b506102e56107bf565b6040516102789190613533565b3480156102fe57600080fd5b506102e561030d366004612aed565b610800565b34801561031e57600080fd5b506102ce61032d366004612b18565b61081d565b6102ce610340366004612b67565b6108a9565b34801561035157600080fd5b506102ce610360366004612a83565b610af3565b34801561037157600080fd5b506102e5610380366004612b7f565b610b41565b34801561039157600080fd5b506102e56103a0366004612b67565b610b63565b3480156103b157600080fd5b506102e56103c0366004612b67565b610b75565b3480156103d157600080fd5b506102e5610b87565b3480156103e657600080fd5b506102ce6103f5366004612d43565b610bd5565b34801561040657600080fd5b506102e5610415366004612b67565b610c6a565b34801561042657600080fd5b506102ce610c7c565b34801561043b57600080fd5b506102ce61044a366004612b18565b610cdd565b34801561045b57600080fd5b506102ce61046a366004612d43565b610d64565b34801561047b57600080fd5b506102e561048a366004612b67565b610dfc565b34801561049b57600080fd5b506102a16104aa366004612b7f565b610e0e565b3480156104bb57600080fd5b506102e56104ca366004612be5565b610e2b565b3480156104db57600080fd5b506102e5610e3e565b6102ce6104f2366004612c31565b610e44565b34801561050357600080fd5b506102ce610512366004612a9f565b6113fc565b34801561052357600080fd5b506102e5610532366004612aed565b61156c565b34801561054357600080fd5b50610557610552366004612b67565b611589565b6040516102789b9a9998979695949392919061353c565b34801561057a57600080fd5b506102ce610589366004612bae565b611605565b34801561059a57600080fd5b506102ce6105a9366004612a83565b611631565b3480156105ba57600080fd5b506102ce6105c9366004612a83565b611654565b3480156105da57600080fd5b506102ce6105e9366004612a83565b6116b4565b3480156105fa57600080fd5b506102ce610609366004612a83565b6116ff565b34801561061a57600080fd5b506102a1610629366004612b67565b6117d1565b34801561063a57600080fd5b5061026b6117e6565b34801561064f57600080fd5b506102e561065e366004612b67565b611825565b34801561066f57600080fd5b506102a161067e366004612aed565b611837565b34801561068f57600080fd5b506102a161069e366004612a83565b611857565b6102ce6106b1366004612be5565b61186c565b3480156106c257600080fd5b506102ce6106d1366004612c06565b612020565b3480156106e257600080fd5b5061026b612043565b3480156106f757600080fd5b506102a1610706366004612aed565b612087565b34801561071757600080fd5b506102ce610726366004612a9f565b6120a7565b34801561073757600080fd5b506102a1610746366004612a83565b61220a565b34801561075757600080fd5b506102ce610766366004612b67565b61221f565b6033546001600160a01b031681565b603b60209081526000928352604080842090915290825290205460ff1681565b6033546001600160a01b031633146107b157600080fd5b6107bb8282612527565b5050565b6f4250524f3a3a5478466565526174696f60801b60005260346020527fffbf84605eb52262a41c847c7791b7b6dd535e0b4316697de9753a2beb5d90c25490565b603e60209081526000928352604080842090915290825290205481565b3360008181526042602052604090205460ff166108555760405162461bcd60e51b815260040161084c90613058565b60405180910390fd5b60005b82518110156108a4576041600084838151811061087157fe5b6020908102919091018101516001600160a01b03168252810191909152604001600020805460ff19169055600101610858565b505050565b336000818152603b6020908152604080832085845290915290205460ff166108e35760405162461bcd60e51b815260040161084c90613081565b6001600160a01b0381166000908152603c6020908152604080832085845290915290205460ff16156109275760405162461bcd60e51b815260040161084c90613037565b6001600160a01b0381166000908152603c602090815260408083208584529091529020805460ff1916600117905561095d61296b565b6035838154811061096a57fe5b60009182526020918290206040805161016081018252600a9093029091018054835260018101546001600160a01b039081169484019490945260028101548416918301919091526003810154909216606082015260048201546080820152600582015460a0820152600682015460c0820152600782015460e082015260088201546101008083019190915260099092015460ff808216151561012084015292900490911615156101408201526035549091508310610a3a5760405162461bcd60e51b815260040161084c90612f19565b60008381526038602052604090205460a082015114610a7757428160e001511115610a775760405162461bcd60e51b815260040161084c90613455565b6000838152603760205260409020546080820151038015610aab576040820151610aab906001600160a01b0316848361254e565b826001600160a01b0316847f4ec90e965519d92681267467f775ada5bd214aa92c0dc93d90a5e880ce9ed02683604051610ae59190613533565b60405180910390a350505050565b6033546001600160a01b03163314610b1d5760405162461bcd60e51b815260040161084c90612e81565b6001600160a01b03166000908152604260205260409020805460ff19166001179055565b6001600160a01b03811682186000908152603460205260409020545b92915050565b60366020526000908152604090205481565b60386020526000908152604090205481565b7f4250524f3a3a4d696e56616c75654f66426f74486f6c6465720000000000000060005260346020527f91e939d72bdb77b6a15376661a793418c7afd7afe8bca794c87800142364c7165490565b3360008181526042602052604090205460ff16610c045760405162461bcd60e51b815260040161084c90613058565b60005b8251811015610c6457604060008581526020019081526020016000206000848381518110610c3157fe5b6020908102919091018101516001600160a01b03168252810191909152604001600020805460ff19169055600101610c07565b50505050565b60009081526034602052604090205490565b6033546001600160a01b03163314610c9357600080fd5b6033546040516000916001600160a01b0316907fc7c0c772add429241571afb3805861fb3cfa2af374534088b76cdb4325a87e9a908390a3603380546001600160a01b0319169055565b3360008181526042602052604090205460ff16610d0c5760405162461bcd60e51b815260040161084c90613058565b60005b82518110156108a457600160416000858481518110610d2a57fe5b6020908102919091018101516001600160a01b03168252810191909152604001600020805460ff1916911515919091179055600101610d0f565b3360008181526042602052604090205460ff16610d935760405162461bcd60e51b815260040161084c90613058565b60005b8251811015610c64576001604060008681526020019081526020016000206000858481518110610dc257fe5b6020908102919091018101516001600160a01b03168252810191909152604001600020805460ff1916911515919091179055600101610d96565b60376020526000908152604090205481565b604060208181526000938452818420905290825290205460ff1681565b1860009081526034602052604090205490565b60355490565b3360008181526042602052604090205460ff16610e735760405162461bcd60e51b815260040161084c90613058565b603554606084015160408501516001600160a01b0390811691161415610eab5760405162461bcd60e51b815260040161084c90612e4a565b6080840151610ecc5760405162461bcd60e51b815260040161084c90613009565b60a0840151610eed5760405162461bcd60e51b815260040161084c90612fdb565b428460e001511015610f115760405162461bcd60e51b815260040161084c906130d3565b60c0840151610f325760405162461bcd60e51b815260040161084c906131ee565b61014084015115610f53576101408401516000828152603a60205260409020555b83610120015115610f82576101208401516000828152603960205260409020805460ff19169115159190911790555b60408085015190516370a0823160e01b81526000906001600160a01b038316906370a0823190610fb6903090600401612da1565b60206040518083038186803b158015610fce57600080fd5b505afa158015610fe2573d6000803e3d6000fd5b505050506040513d601f19601f820116820180604052508101906110069190612d2b565b90506110308660200151308860800151856001600160a01b03166125a4909392919063ffffffff16565b85608001516110bb82846001600160a01b03166370a08231306040518263ffffffff1660e01b81526004016110659190612da1565b60206040518083038186803b15801561107d57600080fd5b505afa158015611091573d6000803e3d6000fd5b505050506040513d601f19601f820116820180604052508101906110b59190612d2b565b906125c5565b146110d85760405162461bcd60e51b815260040161084c906132f4565b6110ed6001600160a01b03831630600061260e565b6110f78386610d64565b6110ff61296b565b865181526020808801516001600160a01b0390811691830191909152604080890151821690830152606080890151909116908201526080808801519082015260a0808801519082015260e08701805160c0808401919091528801519051611165916126d1565b60e08201908152610100888101518184019081526101608a0151151561012085019081526101808b0151151561014086019081526035805460018082018355600092835288517fcfa4bec1d3298408bb5afcfcd9c430549c5b31f8aa5c5848151c0a55f473c34d600a909302928301556020808a01517fcfa4bec1d3298408bb5afcfcd9c430549c5b31f8aa5c5848151c0a55f473c34e840180546001600160a01b03199081166001600160a01b03938416179091556040808d01517fcfa4bec1d3298408bb5afcfcd9c430549c5b31f8aa5c5848151c0a55f473c34f87018054841691851691909117905560608d01517fcfa4bec1d3298408bb5afcfcd9c430549c5b31f8aa5c5848151c0a55f473c350870180549093169084161790915560808c01517fcfa4bec1d3298408bb5afcfcd9c430549c5b31f8aa5c5848151c0a55f473c35186015560a08c01517fcfa4bec1d3298408bb5afcfcd9c430549c5b31f8aa5c5848151c0a55f473c35286015560c08c01517fcfa4bec1d3298408bb5afcfcd9c430549c5b31f8aa5c5848151c0a55f473c35386015599517fcfa4bec1d3298408bb5afcfcd9c430549c5b31f8aa5c5848151c0a55f473c35485015596517fcfa4bec1d3298408bb5afcfcd9c430549c5b31f8aa5c5848151c0a55f473c35584015594517fcfa4bec1d3298408bb5afcfcd9c430549c5b31f8aa5c5848151c0a55f473c3569092018054945160ff199586169315159390931761ff00191692151590970291909117909555828d01519093168352603b8252848320898452909152908390208054909116909117905551339085907ff4ee2f688bb22d4ff776a21ef09379402d5344fb14f8646f3b486b560ff67589906113eb90859061348c565b60405180910390a350505050505050565b6033546001600160a01b031633148061141e57506033546001600160a01b0316155b61143a5760405162461bcd60e51b815260040161084c90612e81565b603380546001600160a01b0319166001600160a01b03841617905560005b81518110156114855761147d82828151811061147057fe5b6020026020010151610af3565b600101611458565b505060346020525066354a6ba7a180007fffbf84605eb52262a41c847c7791b7b6dd535e0b4316697de9753a2beb5d90c2556706f05b59d3b200007f91e939d72bdb77b6a15376661a793418c7afd7afe8bca794c87800142364c71655735beabaebb3146685dd74176f68a0721f91297d377f327aca578c649dc79927fe59d303dc9cdadfadab7d9399d4580c7237822d13de557210941493ce8e94dd185ad950dbdb9d1c9858dd606a1b6000527398945bc69a554f8b129b09ac8afdc2cc2431c48e7faa56f7e443c3b6958893335d7a601ded3aa26adb5788a7d9faf2cc3447d8325d55565b603d60209081526000928352604080842090915290825290205481565b6035818154811061159657fe5b60009182526020909120600a909102018054600182015460028301546003840154600485015460058601546006870154600788015460088901546009909901549799506001600160a01b0396871698958716979490961695929491939092919060ff808216916101009004168b565b6033546001600160a01b0316331461161c57600080fd5b6108a46001600160a01b038316841882612527565b6033546001600160a01b0316331461164857600080fd5b611651816126f6565b50565b6033546001600160a01b031633148061167657506033546001600160a01b0316155b6116925760405162461bcd60e51b815260040161084c90612e81565b603380546001600160a01b0319166001600160a01b0392909216919091179055565b6033546001600160a01b031633146116de5760405162461bcd60e51b815260040161084c90612e81565b6001600160a01b03166000908152604260205260409020805460ff19169055565b600054610100900460ff16806117185750611718612765565b80611726575060005460ff16155b6117425760405162461bcd60e51b815260040161084c906131a0565b600054610100900460ff1615801561176d576000805460ff1961ff0019909116610100171660011790555b603380546001600160a01b0319166001600160a01b0384811691909117918290556040519116906000907fc7c0c772add429241571afb3805861fb3cfa2af374534088b76cdb4325a87e9a908290a380156107bb576000805461ff00191690555050565b60396020526000908152604090205460ff1681565b6d212829279d1d2137ba2a37b5b2b760911b60005260346020527f327aca578c649dc79927fe59d303dc9cdadfadab7d9399d4580c7237822d13de5490565b603a6020526000908152604090205481565b603c60209081526000928352604080842090915290825290205460ff1681565b60416020526000908152604090205460ff1681565b6035548290811061188f5760405162461bcd60e51b815260040161084c90612f19565b82426035828154811061189e57fe5b90600052602060002090600a020160070154116118cd5760405162461bcd60e51b815260040161084c90612fae565b600084815260396020526040902054849060ff161561198f576118ee610b87565b6118f66117e6565b6001600160a01b03166370a08231336040518263ffffffff1660e01b81526004016119219190612da1565b60206040518083038186803b15801561193957600080fd5b505afa15801561194d573d6000803e3d6000fd5b505050506040513d601f19601f820116820180604052508101906119719190612d2b565b101561198f5760405162461bcd60e51b815260040161084c906130a8565b3361199861296b565b603587815481106119a557fe5b60009182526020918290206040805161016081018252600a9093029091018054835260018101546001600160a01b039081169484019490945260028101548416918301919091526003810154909216606082015260048201546080820152600582015460a0820152600682015460c0820152600782015460e082015260088201546101008083019190915260099092015460ff808216158015610120850152939091041615156101408201529150611a96576000878152604060208181528183206001600160a01b0386168452905290205460ff16611a965760405162461bcd60e51b815260040161084c906130fb565b80610140015115611ad9576001600160a01b03821660009081526041602052604090205460ff16611ad95760405162461bcd60e51b815260040161084c90613295565b428160c001511115611afd5760405162461bcd60e51b815260040161084c90613218565b85611b1a5760405162461bcd60e51b815260040161084c90612eab565b60008781526038602052604090205460a082015111611b4b5760405162461bcd60e51b815260040161084c90613173565b60008781526038602052604081205460a08301518291611b6b91906125c5565b905087811015611b8657611b7f88826125c5565b9150611b89565b50865b6000611bb08460a00151611baa86608001518561276b90919063ffffffff16565b906127a5565b60008b81526037602052604081205460808701519293509091611bd2916125c5565b905081811015611c0357606481830311611bfe5760405162461bcd60e51b815260040161084c9061339c565b611c06565b50805b60008b815260376020526040902054611c1f90826126d1565b60008c815260376020908152604080832093909355603890522054611c4490846126d1565b60008c8152603860209081526040808320939093556001600160a01b0389168252603d81528282208e835290522054611c7d90826126d1565b6001600160a01b0387166000908152603d602090815260408083208f8452825280832093909355603a9052205415611d595760008b8152603a60209081526040808320546001600160a01b038a168452603e83528184208f855290925290912054611ce890856126d1565b1115611d065760405162461bcd60e51b815260040161084c9061323f565b6001600160a01b0386166000908152603e602090815260408083208e8452909152902054611d3490846126d1565b6001600160a01b0387166000908152603e602090815260408083208f84529091529020555b60008b81526038602052604090205460a08601511415611d855760008b81526036602052604090204290555b60608501516001600160a01b0316611dbb57893414611db65760405162461bcd60e51b815260040161084c906132c5565b611dd5565b6060850151611dd5906001600160a01b031687308d6125a4565b610100850151611e4c578015611e4c5760408501516001600160a01b0316611e33576040516001600160a01b0387169082156108fc029083906000818181858888f19350505050158015611e2d573d6000803e3d6000fd5b50611e4c565b6040850151611e4c906001600160a01b0316878361254e565b8315611eb95760608501516001600160a01b0316611ea0576040516001600160a01b0387169085156108fc029086906000818181858888f19350505050158015611e9a573d6000803e3d6000fd5b50611eb9565b6060850151611eb9906001600160a01b0316878661254e565b60608501516001600160a01b0316611fa9576000611eeb670de0b6b3a7640000611baa611ee46107bf565b879061276b565b90506000611ef985836125c5565b90508015611f405786602001516001600160a01b03166108fc829081150290604051600060405180830381858888f19350505050158015611f3e573d6000803e3d6000fd5b505b8115611fa257611f4e612043565b6001600160a01b0316635ec2dc8d836040518263ffffffff1660e01b81526004016000604051808303818588803b158015611f8857600080fd5b505af1158015611f9c573d6000803e3d6000fd5b50505050505b5050611fcf565b611fcf85602001518487606001516001600160a01b031661254e9092919063ffffffff16565b856001600160a01b03168b7fe5903af08592742a0f3632ef378be3612814d51c4169d376f3eff65dd798be6d838660405161200b92919061359b565b60405180910390a35050505050505050505050565b6033546001600160a01b0316331461203757600080fd5b6108a483831882612527565b7210941493ce8e94dd185ad950dbdb9d1c9858dd606a1b60005260346020527faa56f7e443c3b6958893335d7a601ded3aa26adb5788a7d9faf2cc3447d8325d5490565b603f60209081526000928352604080842090915290825290205460ff1681565b6033546001600160a01b03163314806120c957506033546001600160a01b0316155b6120e55760405162461bcd60e51b815260040161084c90612e81565b603380546001600160a01b0319166001600160a01b03841617905560005b81518110156121235761211b82828151811061147057fe5b600101612103565b505060346020525066354a6ba7a180007fffbf84605eb52262a41c847c7791b7b6dd535e0b4316697de9753a2beb5d90c2556706f05b59d3b200007f91e939d72bdb77b6a15376661a793418c7afd7afe8bca794c87800142364c7165573abf690e2ebc6690c4fdc303fc3ee0fbfeb1818ed7f327aca578c649dc79927fe59d303dc9cdadfadab7d9399d4580c7237822d13de557210941493ce8e94dd185ad950dbdb9d1c9858dd606a1b60005273a77a9fcba2ae5599e0054369d1655d186020ece17faa56f7e443c3b6958893335d7a601ded3aa26adb5788a7d9faf2cc3447d8325d55565b60426020526000908152604090205460ff1681565b603554819081106122425760405162461bcd60e51b815260040161084c90612f19565b61224a61296b565b6035838154811061225757fe5b600091825260208083206040805161016081018252600a9094029091018054845260018101546001600160a01b039081169385019390935260028101548316918401919091526003810154909116606083015260048101546080830152600581015460a0830152600681015460c0830152600781015460e083015260088101546101008084019190915260099091015460ff8082161515610120850152919004161515610140820152603580549193503392918690811061231457fe5b90600052602060002090600a020160080154116123435760405162461bcd60e51b815260040161084c90613375565b6001600160a01b0381166000908152603f6020908152604080832087845290915290205460ff16156123875760405162461bcd60e51b815260040161084c90613037565b600084815260366020526040902054158015906123c3575061010082015160008581526036602052604090205442916123c091906126d1565b11155b806123d25750428260e0015111155b6123ee5760405162461bcd60e51b815260040161084c90612f50565b6001600160a01b0381166000818152603f602090815260408083208884528252808320805460ff19166001179055928252603d815282822087835290522054156124d15760408201516001600160a01b0316612499576001600160a01b0381166000908152603d60209081526040808320878452909152808220549051339282156108fc02929190818181858888f19350505050158015612493573d6000803e3d6000fd5b506124d1565b6001600160a01b038082166000908152603d602090815260408083208884529091529081902054908401516124d1921690339061254e565b6001600160a01b0381166000818152603d602090815260408083208884529091529081902054905186917fff29b281372993483c1ce6b621ae07832d519c2294e43340f051312701ad132a91610ae59190613533565b60008281526034602052604090205481146107bb5760009182526034602052604090912055565b6108a48363a9059cbb60e01b848460405160240161256d929190612df3565b60408051601f198184030181529190526020810180516001600160e01b03166001600160e01b0319909316929092179091526127e7565b610c64846323b872dd60e01b85858560405160240161256d93929190612dcf565b600061260783836040518060400160405280601e81526020017f536166654d6174683a207375627472616374696f6e206f766572666c6f7700008152506128cc565b9392505050565b8015806126965750604051636eb1769f60e11b81526001600160a01b0384169063dd62ed3e906126449030908690600401612db5565b60206040518083038186803b15801561265c57600080fd5b505afa158015612670573d6000803e3d6000fd5b505050506040513d601f19601f820116820180604052508101906126949190612d2b565b155b6126b25760405162461bcd60e51b815260040161084c906133c8565b6108a48363095ea7b360e01b848460405160240161256d929190612df3565b6000828201838110156126075760405162461bcd60e51b815260040161084c90612ee2565b6001600160a01b03811661270957600080fd5b6033546040516001600160a01b038084169216907fc7c0c772add429241571afb3805861fb3cfa2af374534088b76cdb4325a87e9a90600090a3603380546001600160a01b0319166001600160a01b0392909216919091179055565b303b1590565b60008261277a57506000610b5d565b8282028284828161278757fe5b04146126075760405162461bcd60e51b815260040161084c90613132565b600061260783836040518060400160405280601a81526020017f536166654d6174683a206469766973696f6e206279207a65726f0000000000008152506128f8565b6127f9826001600160a01b031661292f565b6128155760405162461bcd60e51b815260040161084c9061341e565b60006060836001600160a01b0316836040516128319190612d85565b6000604051808303816000865af19150503d806000811461286e576040519150601f19603f3d011682016040523d82523d6000602084013e612873565b606091505b5091509150816128955760405162461bcd60e51b815260040161084c90612f79565b805115610c6457808060200190518101906128b09190612b4b565b610c645760405162461bcd60e51b815260040161084c9061332b565b600081848411156128f05760405162461bcd60e51b815260040161084c9190612e17565b505050900390565b600081836129195760405162461bcd60e51b815260040161084c9190612e17565b50600083858161292557fe5b0495945050505050565b6000813f7fc5d2460186f7233c927e7db2dcc703c0e500b653ca82273b7bfad8045d85a47081811480159061296357508115155b949350505050565b6040518061016001604052806000815260200160006001600160a01b0316815260200160006001600160a01b0316815260200160006001600160a01b0316815260200160008152602001600081526020016000815260200160008152602001600081526020016000151581526020016000151581525090565b8035610b5d816135fc565b600082601f8301126129ff578081fd5b813567ffffffffffffffff811115612a15578182fd5b6020808202612a258282016135a9565b83815293508184018583018287018401881015612a4157600080fd5b600092505b84831015612a6d578035612a59816135fc565b825260019290920191908301908301612a46565b505050505092915050565b8035610b5d81613611565b600060208284031215612a94578081fd5b8135612607816135fc565b60008060408385031215612ab1578081fd5b8235612abc816135fc565b9150602083013567ffffffffffffffff811115612ad7578182fd5b612ae3858286016129ef565b9150509250929050565b60008060408385031215612aff578182fd5b8235612b0a816135fc565b946020939093013593505050565b600060208284031215612b29578081fd5b813567ffffffffffffffff811115612b3f578182fd5b612963848285016129ef565b600060208284031215612b5c578081fd5b815161260781613611565b600060208284031215612b78578081fd5b5035919050565b60008060408385031215612b91578182fd5b823591506020830135612ba3816135fc565b809150509250929050565b600080600060608486031215612bc2578081fd5b833592506020840135612bd4816135fc565b929592945050506040919091013590565b60008060408385031215612bf7578182fd5b50508035926020909101359150565b600080600060608486031215612c1a578283fd5b505081359360208301359350604090920135919050565b6000808284036101c0811215612c45578283fd5b6101a080821215612c54578384fd5b612c5d816135a9565b915084358252612c7086602087016129e4565b6020830152612c8286604087016129e4565b6040830152612c9486606087016129e4565b60608301526080850135608083015260a085013560a083015260c085013560c083015260e085013560e0830152610100808601358184015250610120612cdc87828801612a78565b908301526101408581013590830152610160612cfa87828801612a78565b90830152610180612d0d87878301612a78565b9083015290925083013567ffffffffffffffff811115612ad7578182fd5b600060208284031215612d3c578081fd5b5051919050565b60008060408385031215612d55578182fd5b82359150602083013567ffffffffffffffff811115612ad7578182fd5b6001600160a01b03169052565b15159052565b60008251612d978184602087016135d0565b9190910192915050565b6001600160a01b0391909116815260200190565b6001600160a01b0392831681529116602082015260400190565b6001600160a01b039384168152919092166020820152604081019190915260600190565b6001600160a01b03929092168252602082015260400190565b901515815260200190565b6000602082528251806020840152612e368160408501602087016135d0565b601f01601f19169190910160400192915050565b60208082526019908201527f746f6b656e3020616e6420746f6b656e312069732073616d6500000000000000604082015260600190565b60208082526010908201526f34b73b30b634b21033b7bb32b93737b960811b604082015260600190565b6020808252601c908201527f7468652076616c7565206f6620616d6f756e7431206973207a65726f00000000604082015260600190565b6020808252601b908201527f536166654d6174683a206164646974696f6e206f766572666c6f770000000000604082015260600190565b60208082526018908201527f7468697320706f6f6c20646f6573206e6f742065786973740000000000000000604082015260600190565b6020808252600f908201526e636c61696d206e6f7420726561647960881b604082015260600190565b6020808252818101527f5361666545524332303a206c6f772d6c6576656c2063616c6c206661696c6564604082015260600190565b6020808252601390820152721d1a1a5cc81c1bdbdb081a5cc818db1bdcd959606a1b604082015260600190565b602080825260149082015273696e76616c696420616d6f756e74546f74616c3160601b604082015260600190565b6020808252601490820152730696e76616c696420616d6f756e74546f74616c360641b604082015260600190565b60208082526007908201526618db185a5b595960ca1b604082015260600190565b6020808252600f908201526e34b73b30b634b21031b932b0ba37b960891b604082015260600190565b6020808252600d908201526c34b73b30b634b21037bbb732b960991b604082015260600190565b6020808252601190820152700849ea840d2e640dcdee840cadcdeeaced607b1b604082015260600190565b6020808252600e908201526d1a5b9d985b1a59081bdc195b905d60921b604082015260600190565b60208082526017908201527f73656e646572206e6f7420696e2077686974656c697374000000000000000000604082015260600190565b60208082526021908201527f536166654d6174683a206d756c7469706c69636174696f6e206f766572666c6f6040820152607760f81b606082015260800190565b6020808252601390820152727377617020616d6f756e74206973207a65726f60681b604082015260600190565b6020808252602e908201527f436f6e747261637420696e7374616e63652068617320616c726561647920626560408201526d195b881a5b9a5d1a585b1a5e995960921b606082015260800190565b60208082526010908201526f34b73b30b634b210323ab930ba34b7b760811b604082015260600190565b6020808252600d908201526c3837b7b6103737ba1037b832b760991b604082015260600190565b60208082526036908201527f7377617070656420616d6f756e74206f6620746f6b656e31206973206578636560408201527565646564206d6178696d756d20616c6c6f77616e636560501b606082015260800190565b6020808252601690820152751cd95b99195c881b9bdd081a5b8812d650c81b1a5cdd60521b604082015260600190565b6020808252601590820152740d2dcecc2d8d2c840c2dadeeadce840decc408aa89605b1b604082015260600190565b6020808252601e908201527f6e6f7420737570706f7274206465666c6174696f6e61727920746f6b656e0000604082015260600190565b6020808252602a908201527f5361666545524332303a204552433230206f7065726174696f6e20646964206e6040820152691bdd081cdd58d8d9595960b21b606082015260800190565b6020808252600d908201526c696e76616c696420636c61696d60981b604082015260600190565b602080825260129082015271616d6f756e743020697320746f6f2062696760701b604082015260600190565b60208082526036908201527f5361666545524332303a20617070726f76652066726f6d206e6f6e2d7a65726f60408201527520746f206e6f6e2d7a65726f20616c6c6f77616e636560501b606082015260800190565b6020808252601f908201527f5361666545524332303a2063616c6c20746f206e6f6e2d636f6e747261637400604082015260600190565b60208082526017908201527f7468697320706f6f6c206973206e6f7420636c6f736564000000000000000000604082015260600190565b815181526020808301516101608301916134a890840182612d72565b5060408301516134bb6040840182612d72565b5060608301516134ce6060840182612d72565b506080830151608083015260a083015160a083015260c083015160c083015260e083015160e08301526101008084015181840152506101208084015161351682850182612d7f565b50506101408084015161352b82850182612d7f565b505092915050565b90815260200190565b9a8b526001600160a01b03998a1660208c015297891660408b0152959097166060890152608088019390935260a087019190915260c086015260e085015261010084019290925290151561012083015215156101408201526101600190565b918252602082015260400190565b60405181810167ffffffffffffffff811182821017156135c857600080fd5b604052919050565b60005b838110156135eb5781810151838201526020016135d3565b83811115610c645750506000910152565b6001600160a01b038116811461165157600080fd5b801515811461165157600080fdfea2646970667358221220f84dd2a992d48b008dbb7d85576723d21aee2fcc667dc1c34b15116de7d9759464736f6c634300060c0033",
  "compiler": {
    "name": "solc",
    "version": "0.6.12+commit.27d51765.Emscripten.clang",
    "optimizer": {
      "enabled": true,
      "runs": 200
    },
    "evmVersion": "petersburg"
  }
}