{
  "fileName": "BouncePro.sol",
  "contractName": "BouncePro",
  "source": "// SPDX-License-Identifier: MIT\n\npragma solidity ^0.6.0;\npragma experimental ABIEncoderV2;\n\nimport \"@openzeppelin/contracts-ethereum-package/contracts/math/SafeMath.sol\";\nimport \"@openzeppelin/contracts-ethereum-package/contracts/token/ERC20/SafeERC20.sol\";\nimport \"@openzeppelin/contracts-ethereum-package/contracts/token/ERC20/IERC20.sol\";\nimport \"@openzeppelin/contracts-ethereum-package/contracts/cryptography/ECDSA.sol\";\nimport \"./Governable.sol\";\nimport \"./interfaces/IBounceStake.sol\";\n\ncontract BouncePro is Configurable {\n    using SafeMath for uint;\n    using SafeERC20 for IERC20;\n    using ECDSA for bytes32;\n\n    bytes32 internal constant TxFeeRatio            = bytes32(\"BPRO::TxFeeRatio\");\n    bytes32 internal constant MinValueOfBotHolder   = bytes32(\"BPRO::MinValueOfBotHolder\");\n    bytes32 internal constant BotToken              = bytes32(\"BPRO::BotToken\");\n    bytes32 internal constant StakeContract         = bytes32(\"BPRO::StakeContract\");\n\n    struct CreateReq {\n        uint projectId;\n        // beneficiary of the pool\n        address payable beneficiary;\n        // address of sell token\n        address token0;\n        // address of buy token\n        address token1;\n        // total amount of token0\n        uint amountTotal0;\n        // total amount of token1\n        uint amountTotal1;\n        // the duration in seconds the pool will be closed\n        uint duration;\n        // the timestamp in seconds the pool will open\n        uint openAt;\n        // the delay timestamp in seconds when buyers can claim after pool filled\n        uint claimDelaySec;\n        bool onlyBot;\n        uint maxEthPerWallet;\n        bool enableWhiteList;\n        bool enableKycList;\n    }\n\n    struct Pool {\n        uint projectId;\n        // beneficiary of the pool\n        address payable beneficiary;\n        // address of sell token\n        address token0;\n        // address of buy token\n        address token1;\n        // total amount of token0\n        uint amountTotal0;\n        // total amount of token1\n        uint amountTotal1;\n        // the timestamp in seconds the pool will open\n        uint openAt;\n        // the timestamp in seconds the pool will be closed\n        uint closeAt;\n        // the delay timestamp in seconds when buyers can claim after pool filled\n        uint claimDelaySec;\n        // whether or not whitelist is enable\n        bool enableWhiteList;\n        // whether or not kyc list is enable\n        bool enableKycList;\n    }\n\n    Pool[] public pools;\n\n    // pool index => the timestamp which the pool filled at\n    mapping(uint => uint) public filledAtP;\n    // pool index => swap amount of token0\n    mapping(uint => uint) public amountSwap0P;\n    // pool index => swap amount of token1\n    mapping(uint => uint) public amountSwap1P;\n    // pool index => the swap pool only allow BOT holder to take part in\n    mapping(uint => bool) public onlyBotHolderP;\n    // pool index => maximum swap amount of ETH per wallet, if the value is not set, the default value is zero\n    mapping(uint => uint) public maxEthPerWalletP;\n    // team address => pool index => whether or not the pool is belong to the address\n    mapping(address => mapping(uint => bool)) public teamPool;\n    // team address => pool index => whether or not team's pool has been claimed\n    mapping(address => mapping(uint => bool)) public teamClaimed;\n    // user address => pool index => swapped amount of token0\n    mapping(address => mapping(uint => uint)) public myAmountSwapped0;\n    // user address => pool index => swapped amount of token1\n    mapping(address => mapping(uint => uint)) public myAmountSwapped1;\n    // user address => pool index => whether or not my pool has been claimed\n    mapping(address => mapping(uint => bool)) public myClaimed;\n\n    // pool index => account => whether or not allow swap\n    mapping(uint => mapping(address => bool)) public whitelistP;\n    mapping(address => bool) public kyclist;\n    // creator address => whether or not it's a creator address\n    mapping(address => bool) public creator;\n    // signer address of kyc\n    address public kycSigner;\n\n    event Created(uint indexed index, address indexed sender, Pool pool);\n    event Swapped(uint indexed index, address indexed sender, uint amount0, uint amount1);\n    event Claimed(uint indexed index, address indexed sender, uint amount0);\n    event UserClaimed(uint indexed index, address indexed sender, uint amount0);\n    event KycAdded(address indexed kycAddr);\n\n    function initialize(address _governor, address kycSigner_, address[] memory creators_) public {\n        require(msg.sender == governor || governor == address(0), \"invalid governor\");\n        governor = _governor;\n        kycSigner = kycSigner_;\n\n        for (uint i = 0; i < creators_.length; i++) {\n            addCreator(creators_[i]);\n        }\n\n        config[TxFeeRatio] = 0.015 ether;\n        config[MinValueOfBotHolder] = 0.5 ether;\n\n        // mainnet\n        config[BotToken] = uint(0x5bEaBAEBB3146685Dd74176f68a0721F91297D37);\n        config[StakeContract] = uint(0x98945BC69A554F8b129b09aC8AfDc2cc2431c48E);\n    }\n\n    function initialize_rinkeby(address _governor, address kycSigner_, address[] memory creators_) public {\n        require(msg.sender == governor || governor == address(0), \"invalid governor\");\n        governor = _governor;\n        kycSigner = kycSigner_;\n\n        for (uint i = 0; i < creators_.length; i++) {\n            addCreator(creators_[i]);\n        }\n\n        config[TxFeeRatio] = 0.015 ether;\n        config[MinValueOfBotHolder] = 0.5 ether;\n\n        // rinkeby\n        config[BotToken] = uint(0xAbF690E2EbC6690c4Fdc303fc3eE0FBFEb1818eD);\n        config[StakeContract] = uint(0xa77A9FcbA2Ae5599e0054369d1655D186020ECE1);\n    }\n\n    function create(CreateReq memory poolReq, address[] memory whitelist_) public payable\n        isCreator(msg.sender)\n    {\n        uint index = pools.length;\n        require(poolReq.token0 != poolReq.token1, \"token0 and token1 is same\");\n        require(poolReq.amountTotal0 != 0, \"invalid amountTotal0\");\n        require(poolReq.amountTotal1 != 0, \"invalid amountTotal1\");\n        require(poolReq.openAt >= now, \"invalid openAt\");\n        require(poolReq.duration != 0, \"invalid duration\");\n\n        if (poolReq.maxEthPerWallet != 0) {\n            maxEthPerWalletP[index] = poolReq.maxEthPerWallet;\n        }\n        if (poolReq.onlyBot) {\n            onlyBotHolderP[index] = poolReq.onlyBot;\n        }\n\n        // transfer amount of token0 to this contract\n        IERC20  _token0 = IERC20(poolReq.token0);\n        uint token0BalanceBefore = _token0.balanceOf(address(this));\n        _token0.safeTransferFrom(poolReq.beneficiary, address(this), poolReq.amountTotal0);\n        require(\n            _token0.balanceOf(address(this)).sub(token0BalanceBefore) == poolReq.amountTotal0,\n            \"not support deflationary token\"\n        );\n        // reset allowance to 0\n        _token0.safeApprove(address(this), 0);\n\n        addWhitelist(index, whitelist_);\n\n        Pool memory pool;\n        pool.projectId = poolReq.projectId;\n        pool.beneficiary = poolReq.beneficiary;\n        pool.token0 = poolReq.token0;\n        pool.token1 = poolReq.token1;\n        pool.amountTotal0 = poolReq.amountTotal0;\n        pool.amountTotal1 = poolReq.amountTotal1;\n        pool.openAt = poolReq.openAt;\n        pool.closeAt = poolReq.openAt.add(poolReq.duration);\n        pool.claimDelaySec = poolReq.claimDelaySec;\n        pool.enableWhiteList = poolReq.enableWhiteList;\n        pool.enableKycList = poolReq.enableKycList;\n        pools.push(pool);\n\n        teamPool[poolReq.beneficiary][index] = true;\n\n        emit Created(index, msg.sender, pool);\n    }\n\n    function swap(uint index, uint amount1) external payable\n        isPoolExist(index)\n        isPoolNotClosed(index)\n        checkBotHolder(index)\n    {\n        address payable sender = msg.sender;\n        Pool memory pool = pools[index];\n        if (pool.enableWhiteList) {\n            require(whitelistP[index][sender], \"sender not in whitelist\");\n        }\n        if (pool.enableKycList) {\n            require(kyclist[sender], \"sender not in KYC list\");\n        }\n        require(pool.openAt <= now, \"pool not open\");\n        require(amount1 != 0, \"the value of amount1 is zero\");\n        require(pool.amountTotal1 > amountSwap1P[index], \"swap amount is zero\");\n\n        // check if amount1 is exceeded\n        uint excessAmount1 = 0;\n        uint _amount1 = pool.amountTotal1.sub(amountSwap1P[index]);\n        if (_amount1 < amount1) {\n            excessAmount1 = amount1.sub(_amount1);\n        } else {\n            _amount1 = amount1;\n        }\n\n        // check if amount0 is exceeded\n        uint amount0 = _amount1.mul(pool.amountTotal0).div(pool.amountTotal1);\n        uint _amount0 = pool.amountTotal0.sub(amountSwap0P[index]);\n        if (_amount0 < amount0) {\n            require(amount0 - _amount0 > 100, \"amount0 is too big\");\n        } else {\n            _amount0 = amount0;\n        }\n\n        amountSwap0P[index] = amountSwap0P[index].add(_amount0);\n        amountSwap1P[index] = amountSwap1P[index].add(_amount1);\n        myAmountSwapped0[sender][index] = myAmountSwapped0[sender][index].add(_amount0);\n        // check if swapped amount of token1 is exceeded maximum allowance\n        if (maxEthPerWalletP[index] != 0) {\n            require(\n                myAmountSwapped1[sender][index].add(_amount1) <= maxEthPerWalletP[index],\n                \"swapped amount of token1 is exceeded maximum allowance\"\n            );\n            myAmountSwapped1[sender][index] = myAmountSwapped1[sender][index].add(_amount1);\n        }\n\n        if (pool.amountTotal1 == amountSwap1P[index]) {\n            filledAtP[index] = now;\n        }\n\n        // transfer amount of token1 to this contract\n        if (pool.token1 == address(0)) {\n            require(msg.value == amount1, \"invalid amount of ETH\");\n        } else {\n            IERC20(pool.token1).safeTransferFrom(sender, address(this), amount1);\n        }\n\n        if (pool.claimDelaySec == 0) {\n            if (_amount0 > 0) {\n                // send token0 to sender\n                if (pool.token0 == address(0)) {\n                    sender.transfer(_amount0);\n                } else {\n                    IERC20(pool.token0).safeTransfer(sender, _amount0);\n                }\n            }\n        }\n        if (excessAmount1 > 0) {\n            // send excess amount of token1 back to sender\n            if (pool.token1 == address(0)) {\n                sender.transfer(excessAmount1);\n            } else {\n                IERC20(pool.token1).safeTransfer(sender, excessAmount1);\n            }\n        }\n\n        // send token1 to beneficiary\n        if (pool.token1 == address(0)) {\n            uint256 txFee = _amount1.mul(getTxFeeRatio()).div(1 ether);\n            uint256 _actualAmount1 = _amount1.sub(txFee);\n            if (_actualAmount1 > 0) {\n                pool.beneficiary.transfer(_actualAmount1);\n            }\n            if (txFee > 0) {\n                // deposit transaction fee to staking contract\n                IBounceStake(getStakeContract()).depositReward{value: txFee}();\n            }\n        } else {\n            IERC20(pool.token1).safeTransfer(pool.beneficiary, _amount1);\n        }\n\n        emit Swapped(index, sender, _amount0, _amount1);\n    }\n\n    function claim(uint index) external payable {\n        address payable beneficiary = msg.sender;\n        require(teamPool[beneficiary][index], \"invalid owner\");\n        require(!teamClaimed[beneficiary][index], \"claimed\");\n\n        teamClaimed[beneficiary][index] = true;\n\n        Pool memory pool = pools[index];\n        require(index < pools.length, \"this pool does not exist\");\n        if (pool.amountTotal1 != amountSwap1P[index]) {\n            require(pool.closeAt <= now, \"this pool is not closed\");\n        }\n        // require(pool.amountTotal0 > amountSwap0P[index], \"the total amount of this pool is swapped\");\n\n        uint unSwapAmount0 = pool.amountTotal0 - amountSwap0P[index];\n        if (unSwapAmount0 > 0) {\n            IERC20(pool.token0).safeTransfer(beneficiary, unSwapAmount0);\n        }\n\n        emit Claimed(index, beneficiary, unSwapAmount0);\n    }\n\n    function userClaim(uint index) external\n        isPoolExist(index)\n    {\n        Pool memory pool = pools[index];\n        address sender = msg.sender;\n        require(pools[index].claimDelaySec > 0, \"invalid claim\");\n        require(!myClaimed[sender][index], \"claimed\");\n        require(filledAtP[index] > 0 && filledAtP[index].add(pool.claimDelaySec) <= now || pool.closeAt <= now, \"claim not ready\");\n        myClaimed[sender][index] = true;\n        if (myAmountSwapped0[sender][index] > 0) {\n            // send token0 to sender\n            if (pool.token0 == address(0)) {\n                msg.sender.transfer(myAmountSwapped0[sender][index]);\n            } else {\n                IERC20(pool.token0).safeTransfer(msg.sender, myAmountSwapped0[sender][index]);\n            }\n        }\n        emit UserClaimed(index, sender, myAmountSwapped0[sender][index]);\n    }\n\n    function transferGovernor(address _governor) external {\n        require(msg.sender == governor || governor == address(0), \"invalid governor\");\n        governor = _governor;\n    }\n\n    function addWhitelist(uint index, address[] memory whitelist_) public\n        isCreator(msg.sender)\n    {\n        for (uint i = 0; i < whitelist_.length; i++) {\n            whitelistP[index][whitelist_[i]] = true;\n        }\n    }\n\n    function removeWhitelist(uint index, address[] memory whitelist_) external\n        isCreator(msg.sender)\n    {\n        for (uint i = 0; i < whitelist_.length; i++) {\n            delete whitelistP[index][whitelist_[i]];\n        }\n    }\n\n    function addKycList(address[] memory kyclist_) external\n        isCreator(msg.sender)\n    {\n        for (uint i = 0; i < kyclist_.length; i++) {\n            kyclist[kyclist_[i]] = true;\n        }\n    }\n\n    function removeKycList(address[] memory kyclist_) external\n        isCreator(msg.sender)\n    {\n        for (uint i = 0; i < kyclist_.length; i++) {\n            delete kyclist[kyclist_[i]];\n        }\n    }\n\n    function setKycSigner(address kycSigner_) external\n        isCreator(msg.sender)\n    {\n        kycSigner = kycSigner_;\n    }\n\n    function registerKyc(bytes memory signature) external {\n        bytes32 message = keccak256(abi.encode(msg.sender));\n        bytes32 hashMessage = message.toEthSignedMessageHash();\n        require(kycSigner == hashMessage.recover(signature), \"invalid signature\");\n        kyclist[msg.sender] = true;\n        emit KycAdded(msg.sender);\n    }\n\n    function addCreator(address creator_) public {\n        require(msg.sender == governor, \"invalid governor\");\n        creator[creator_] = true;\n    }\n\n    function removeCreator(address removeCreator_) external {\n        require(msg.sender == governor, \"invalid governor\");\n        delete creator[removeCreator_];\n    }\n\n    function getPoolCount() public view returns (uint) {\n        return pools.length;\n    }\n\n    function getTxFeeRatio() public view returns (uint) {\n        return config[TxFeeRatio];\n    }\n\n    function getMinValueOfBotHolder() public view returns (uint) {\n        return config[MinValueOfBotHolder];\n    }\n\n    function getBotToken() public view returns (address) {\n        return address(config[BotToken]);\n    }\n\n    function getStakeContract() public view returns (address) {\n        return address(config[StakeContract]);\n    }\n\n    modifier isPoolClosed(uint index) {\n        require(pools[index].closeAt <= now, \"this pool is not closed\");\n        _;\n    }\n\n    modifier isPoolNotClosed(uint index) {\n        require(pools[index].closeAt > now, \"this pool is closed\");\n        _;\n    }\n\n    modifier isPoolExist(uint index) {\n        require(index < pools.length, \"this pool does not exist\");\n        _;\n    }\n\n    modifier checkBotHolder(uint index) {\n        if (onlyBotHolderP[index]) {\n            require(IERC20(getBotToken()).balanceOf(msg.sender) >= getMinValueOfBotHolder(), \"BOT is not enough\");\n        }\n        _;\n    }\n\n    modifier isCreator(address target) {\n        require(creator[target], \"invalid creator\");\n        _;\n    }\n}\n",
  "sourcePath": "contracts/BouncePro.sol",
  "abi": [
    {
      "anonymous": false,
      "inputs": [
        {
          "indexed": true,
          "internalType": "uint256",
          "name": "index",
          "type": "uint256"
        },
        {
          "indexed": true,
          "internalType": "address",
          "name": "sender",
          "type": "address"
        },
        {
          "indexed": false,
          "internalType": "uint256",
          "name": "amount0",
          "type": "uint256"
        }
      ],
      "name": "Claimed",
      "type": "event"
    },
    {
      "anonymous": false,
      "inputs": [
        {
          "indexed": true,
          "internalType": "uint256",
          "name": "index",
          "type": "uint256"
        },
        {
          "indexed": true,
          "internalType": "address",
          "name": "sender",
          "type": "address"
        },
        {
          "components": [
            {
              "internalType": "uint256",
              "name": "projectId",
              "type": "uint256"
            },
            {
              "internalType": "address payable",
              "name": "beneficiary",
              "type": "address"
            },
            {
              "internalType": "address",
              "name": "token0",
              "type": "address"
            },
            {
              "internalType": "address",
              "name": "token1",
              "type": "address"
            },
            {
              "internalType": "uint256",
              "name": "amountTotal0",
              "type": "uint256"
            },
            {
              "internalType": "uint256",
              "name": "amountTotal1",
              "type": "uint256"
            },
            {
              "internalType": "uint256",
              "name": "openAt",
              "type": "uint256"
            },
            {
              "internalType": "uint256",
              "name": "closeAt",
              "type": "uint256"
            },
            {
              "internalType": "uint256",
              "name": "claimDelaySec",
              "type": "uint256"
            },
            {
              "internalType": "bool",
              "name": "enableWhiteList",
              "type": "bool"
            },
            {
              "internalType": "bool",
              "name": "enableKycList",
              "type": "bool"
            }
          ],
          "indexed": false,
          "internalType": "struct BouncePro.Pool",
          "name": "pool",
          "type": "tuple"
        }
      ],
      "name": "Created",
      "type": "event"
    },
    {
      "anonymous": false,
      "inputs": [
        {
          "indexed": true,
          "internalType": "address",
          "name": "previousGovernor",
          "type": "address"
        },
        {
          "indexed": true,
          "internalType": "address",
          "name": "newGovernor",
          "type": "address"
        }
      ],
      "name": "GovernorshipTransferred",
      "type": "event"
    },
    {
      "anonymous": false,
      "inputs": [
        {
          "indexed": true,
          "internalType": "address",
          "name": "kycAddr",
          "type": "address"
        }
      ],
      "name": "KycAdded",
      "type": "event"
    },
    {
      "anonymous": false,
      "inputs": [
        {
          "indexed": true,
          "internalType": "uint256",
          "name": "index",
          "type": "uint256"
        },
        {
          "indexed": true,
          "internalType": "address",
          "name": "sender",
          "type": "address"
        },
        {
          "indexed": false,
          "internalType": "uint256",
          "name": "amount0",
          "type": "uint256"
        },
        {
          "indexed": false,
          "internalType": "uint256",
          "name": "amount1",
          "type": "uint256"
        }
      ],
      "name": "Swapped",
      "type": "event"
    },
    {
      "anonymous": false,
      "inputs": [
        {
          "indexed": true,
          "internalType": "uint256",
          "name": "index",
          "type": "uint256"
        },
        {
          "indexed": true,
          "internalType": "address",
          "name": "sender",
          "type": "address"
        },
        {
          "indexed": false,
          "internalType": "uint256",
          "name": "amount0",
          "type": "uint256"
        }
      ],
      "name": "UserClaimed",
      "type": "event"
    },
    {
      "inputs": [
        {
          "internalType": "address",
          "name": "creator_",
          "type": "address"
        }
      ],
      "name": "addCreator",
      "outputs": [],
      "stateMutability": "nonpayable",
      "type": "function"
    },
    {
      "inputs": [
        {
          "internalType": "address[]",
          "name": "kyclist_",
          "type": "address[]"
        }
      ],
      "name": "addKycList",
      "outputs": [],
      "stateMutability": "nonpayable",
      "type": "function"
    },
    {
      "inputs": [
        {
          "internalType": "uint256",
          "name": "index",
          "type": "uint256"
        },
        {
          "internalType": "address[]",
          "name": "whitelist_",
          "type": "address[]"
        }
      ],
      "name": "addWhitelist",
      "outputs": [],
      "stateMutability": "nonpayable",
      "type": "function"
    },
    {
      "inputs": [
        {
          "internalType": "uint256",
          "name": "",
          "type": "uint256"
        }
      ],
      "name": "amountSwap0P",
      "outputs": [
        {
          "internalType": "uint256",
          "name": "",
          "type": "uint256"
        }
      ],
      "stateMutability": "view",
      "type": "function"
    },
    {
      "inputs": [
        {
          "internalType": "uint256",
          "name": "",
          "type": "uint256"
        }
      ],
      "name": "amountSwap1P",
      "outputs": [
        {
          "internalType": "uint256",
          "name": "",
          "type": "uint256"
        }
      ],
      "stateMutability": "view",
      "type": "function"
    },
    {
      "inputs": [
        {
          "internalType": "uint256",
          "name": "index",
          "type": "uint256"
        }
      ],
      "name": "claim",
      "outputs": [],
      "stateMutability": "payable",
      "type": "function"
    },
    {
      "inputs": [
        {
          "components": [
            {
              "internalType": "uint256",
              "name": "projectId",
              "type": "uint256"
            },
            {
              "internalType": "address payable",
              "name": "beneficiary",
              "type": "address"
            },
            {
              "internalType": "address",
              "name": "token0",
              "type": "address"
            },
            {
              "internalType": "address",
              "name": "token1",
              "type": "address"
            },
            {
              "internalType": "uint256",
              "name": "amountTotal0",
              "type": "uint256"
            },
            {
              "internalType": "uint256",
              "name": "amountTotal1",
              "type": "uint256"
            },
            {
              "internalType": "uint256",
              "name": "duration",
              "type": "uint256"
            },
            {
              "internalType": "uint256",
              "name": "openAt",
              "type": "uint256"
            },
            {
              "internalType": "uint256",
              "name": "claimDelaySec",
              "type": "uint256"
            },
            {
              "internalType": "bool",
              "name": "onlyBot",
              "type": "bool"
            },
            {
              "internalType": "uint256",
              "name": "maxEthPerWallet",
              "type": "uint256"
            },
            {
              "internalType": "bool",
              "name": "enableWhiteList",
              "type": "bool"
            },
            {
              "internalType": "bool",
              "name": "enableKycList",
              "type": "bool"
            }
          ],
          "internalType": "struct BouncePro.CreateReq",
          "name": "poolReq",
          "type": "tuple"
        },
        {
          "internalType": "address[]",
          "name": "whitelist_",
          "type": "address[]"
        }
      ],
      "name": "create",
      "outputs": [],
      "stateMutability": "payable",
      "type": "function"
    },
    {
      "inputs": [
        {
          "internalType": "address",
          "name": "",
          "type": "address"
        }
      ],
      "name": "creator",
      "outputs": [
        {
          "internalType": "bool",
          "name": "",
          "type": "bool"
        }
      ],
      "stateMutability": "view",
      "type": "function"
    },
    {
      "inputs": [
        {
          "internalType": "uint256",
          "name": "",
          "type": "uint256"
        }
      ],
      "name": "filledAtP",
      "outputs": [
        {
          "internalType": "uint256",
          "name": "",
          "type": "uint256"
        }
      ],
      "stateMutability": "view",
      "type": "function"
    },
    {
      "inputs": [],
      "name": "getBotToken",
      "outputs": [
        {
          "internalType": "address",
          "name": "",
          "type": "address"
        }
      ],
      "stateMutability": "view",
      "type": "function"
    },
    {
      "inputs": [
        {
          "internalType": "bytes32",
          "name": "key",
          "type": "bytes32"
        },
        {
          "internalType": "address",
          "name": "addr",
          "type": "address"
        }
      ],
      "name": "getConfig",
      "outputs": [
        {
          "internalType": "uint256",
          "name": "",
          "type": "uint256"
        }
      ],
      "stateMutability": "view",
      "type": "function"
    },
    {
      "inputs": [
        {
          "internalType": "bytes32",
          "name": "key",
          "type": "bytes32"
        }
      ],
      "name": "getConfig",
      "outputs": [
        {
          "internalType": "uint256",
          "name": "",
          "type": "uint256"
        }
      ],
      "stateMutability": "view",
      "type": "function"
    },
    {
      "inputs": [
        {
          "internalType": "bytes32",
          "name": "key",
          "type": "bytes32"
        },
        {
          "internalType": "uint256",
          "name": "index",
          "type": "uint256"
        }
      ],
      "name": "getConfig",
      "outputs": [
        {
          "internalType": "uint256",
          "name": "",
          "type": "uint256"
        }
      ],
      "stateMutability": "view",
      "type": "function"
    },
    {
      "inputs": [],
      "name": "getMinValueOfBotHolder",
      "outputs": [
        {
          "internalType": "uint256",
          "name": "",
          "type": "uint256"
        }
      ],
      "stateMutability": "view",
      "type": "function"
    },
    {
      "inputs": [],
      "name": "getPoolCount",
      "outputs": [
        {
          "internalType": "uint256",
          "name": "",
          "type": "uint256"
        }
      ],
      "stateMutability": "view",
      "type": "function"
    },
    {
      "inputs": [],
      "name": "getStakeContract",
      "outputs": [
        {
          "internalType": "address",
          "name": "",
          "type": "address"
        }
      ],
      "stateMutability": "view",
      "type": "function"
    },
    {
      "inputs": [],
      "name": "getTxFeeRatio",
      "outputs": [
        {
          "internalType": "uint256",
          "name": "",
          "type": "uint256"
        }
      ],
      "stateMutability": "view",
      "type": "function"
    },
    {
      "inputs": [],
      "name": "governor",
      "outputs": [
        {
          "internalType": "address",
          "name": "",
          "type": "address"
        }
      ],
      "stateMutability": "view",
      "type": "function"
    },
    {
      "inputs": [
        {
          "internalType": "address",
          "name": "_governor",
          "type": "address"
        },
        {
          "internalType": "address",
          "name": "kycSigner_",
          "type": "address"
        },
        {
          "internalType": "address[]",
          "name": "creators_",
          "type": "address[]"
        }
      ],
      "name": "initialize",
      "outputs": [],
      "stateMutability": "nonpayable",
      "type": "function"
    },
    {
      "inputs": [
        {
          "internalType": "address",
          "name": "governor_",
          "type": "address"
        }
      ],
      "name": "initialize",
      "outputs": [],
      "stateMutability": "nonpayable",
      "type": "function"
    },
    {
      "inputs": [
        {
          "internalType": "address",
          "name": "_governor",
          "type": "address"
        },
        {
          "internalType": "address",
          "name": "kycSigner_",
          "type": "address"
        },
        {
          "internalType": "address[]",
          "name": "creators_",
          "type": "address[]"
        }
      ],
      "name": "initialize_rinkeby",
      "outputs": [],
      "stateMutability": "nonpayable",
      "type": "function"
    },
    {
      "inputs": [],
      "name": "kycSigner",
      "outputs": [
        {
          "internalType": "address",
          "name": "",
          "type": "address"
        }
      ],
      "stateMutability": "view",
      "type": "function"
    },
    {
      "inputs": [
        {
          "internalType": "address",
          "name": "",
          "type": "address"
        }
      ],
      "name": "kyclist",
      "outputs": [
        {
          "internalType": "bool",
          "name": "",
          "type": "bool"
        }
      ],
      "stateMutability": "view",
      "type": "function"
    },
    {
      "inputs": [
        {
          "internalType": "uint256",
          "name": "",
          "type": "uint256"
        }
      ],
      "name": "maxEthPerWalletP",
      "outputs": [
        {
          "internalType": "uint256",
          "name": "",
          "type": "uint256"
        }
      ],
      "stateMutability": "view",
      "type": "function"
    },
    {
      "inputs": [
        {
          "internalType": "address",
          "name": "",
          "type": "address"
        },
        {
          "internalType": "uint256",
          "name": "",
          "type": "uint256"
        }
      ],
      "name": "myAmountSwapped0",
      "outputs": [
        {
          "internalType": "uint256",
          "name": "",
          "type": "uint256"
        }
      ],
      "stateMutability": "view",
      "type": "function"
    },
    {
      "inputs": [
        {
          "internalType": "address",
          "name": "",
          "type": "address"
        },
        {
          "internalType": "uint256",
          "name": "",
          "type": "uint256"
        }
      ],
      "name": "myAmountSwapped1",
      "outputs": [
        {
          "internalType": "uint256",
          "name": "",
          "type": "uint256"
        }
      ],
      "stateMutability": "view",
      "type": "function"
    },
    {
      "inputs": [
        {
          "internalType": "address",
          "name": "",
          "type": "address"
        },
        {
          "internalType": "uint256",
          "name": "",
          "type": "uint256"
        }
      ],
      "name": "myClaimed",
      "outputs": [
        {
          "internalType": "bool",
          "name": "",
          "type": "bool"
        }
      ],
      "stateMutability": "view",
      "type": "function"
    },
    {
      "inputs": [
        {
          "internalType": "uint256",
          "name": "",
          "type": "uint256"
        }
      ],
      "name": "onlyBotHolderP",
      "outputs": [
        {
          "internalType": "bool",
          "name": "",
          "type": "bool"
        }
      ],
      "stateMutability": "view",
      "type": "function"
    },
    {
      "inputs": [
        {
          "internalType": "uint256",
          "name": "",
          "type": "uint256"
        }
      ],
      "name": "pools",
      "outputs": [
        {
          "internalType": "uint256",
          "name": "projectId",
          "type": "uint256"
        },
        {
          "internalType": "address payable",
          "name": "beneficiary",
          "type": "address"
        },
        {
          "internalType": "address",
          "name": "token0",
          "type": "address"
        },
        {
          "internalType": "address",
          "name": "token1",
          "type": "address"
        },
        {
          "internalType": "uint256",
          "name": "amountTotal0",
          "type": "uint256"
        },
        {
          "internalType": "uint256",
          "name": "amountTotal1",
          "type": "uint256"
        },
        {
          "internalType": "uint256",
          "name": "openAt",
          "type": "uint256"
        },
        {
          "internalType": "uint256",
          "name": "closeAt",
          "type": "uint256"
        },
        {
          "internalType": "uint256",
          "name": "claimDelaySec",
          "type": "uint256"
        },
        {
          "internalType": "bool",
          "name": "enableWhiteList",
          "type": "bool"
        },
        {
          "internalType": "bool",
          "name": "enableKycList",
          "type": "bool"
        }
      ],
      "stateMutability": "view",
      "type": "function"
    },
    {
      "inputs": [
        {
          "internalType": "bytes",
          "name": "signature",
          "type": "bytes"
        }
      ],
      "name": "registerKyc",
      "outputs": [],
      "stateMutability": "nonpayable",
      "type": "function"
    },
    {
      "inputs": [
        {
          "internalType": "address",
          "name": "removeCreator_",
          "type": "address"
        }
      ],
      "name": "removeCreator",
      "outputs": [],
      "stateMutability": "nonpayable",
      "type": "function"
    },
    {
      "inputs": [
        {
          "internalType": "address[]",
          "name": "kyclist_",
          "type": "address[]"
        }
      ],
      "name": "removeKycList",
      "outputs": [],
      "stateMutability": "nonpayable",
      "type": "function"
    },
    {
      "inputs": [
        {
          "internalType": "uint256",
          "name": "index",
          "type": "uint256"
        },
        {
          "internalType": "address[]",
          "name": "whitelist_",
          "type": "address[]"
        }
      ],
      "name": "removeWhitelist",
      "outputs": [],
      "stateMutability": "nonpayable",
      "type": "function"
    },
    {
      "inputs": [],
      "name": "renounceGovernorship",
      "outputs": [],
      "stateMutability": "nonpayable",
      "type": "function"
    },
    {
      "inputs": [
        {
          "internalType": "bytes32",
          "name": "key",
          "type": "bytes32"
        },
        {
          "internalType": "uint256",
          "name": "value",
          "type": "uint256"
        }
      ],
      "name": "setConfig",
      "outputs": [],
      "stateMutability": "nonpayable",
      "type": "function"
    },
    {
      "inputs": [
        {
          "internalType": "bytes32",
          "name": "key",
          "type": "bytes32"
        },
        {
          "internalType": "address",
          "name": "addr",
          "type": "address"
        },
        {
          "internalType": "uint256",
          "name": "value",
          "type": "uint256"
        }
      ],
      "name": "setConfig",
      "outputs": [],
      "stateMutability": "nonpayable",
      "type": "function"
    },
    {
      "inputs": [
        {
          "internalType": "bytes32",
          "name": "key",
          "type": "bytes32"
        },
        {
          "internalType": "uint256",
          "name": "index",
          "type": "uint256"
        },
        {
          "internalType": "uint256",
          "name": "value",
          "type": "uint256"
        }
      ],
      "name": "setConfig",
      "outputs": [],
      "stateMutability": "nonpayable",
      "type": "function"
    },
    {
      "inputs": [
        {
          "internalType": "address",
          "name": "kycSigner_",
          "type": "address"
        }
      ],
      "name": "setKycSigner",
      "outputs": [],
      "stateMutability": "nonpayable",
      "type": "function"
    },
    {
      "inputs": [
        {
          "internalType": "uint256",
          "name": "index",
          "type": "uint256"
        },
        {
          "internalType": "uint256",
          "name": "amount1",
          "type": "uint256"
        }
      ],
      "name": "swap",
      "outputs": [],
      "stateMutability": "payable",
      "type": "function"
    },
    {
      "inputs": [
        {
          "internalType": "address",
          "name": "",
          "type": "address"
        },
        {
          "internalType": "uint256",
          "name": "",
          "type": "uint256"
        }
      ],
      "name": "teamClaimed",
      "outputs": [
        {
          "internalType": "bool",
          "name": "",
          "type": "bool"
        }
      ],
      "stateMutability": "view",
      "type": "function"
    },
    {
      "inputs": [
        {
          "internalType": "address",
          "name": "",
          "type": "address"
        },
        {
          "internalType": "uint256",
          "name": "",
          "type": "uint256"
        }
      ],
      "name": "teamPool",
      "outputs": [
        {
          "internalType": "bool",
          "name": "",
          "type": "bool"
        }
      ],
      "stateMutability": "view",
      "type": "function"
    },
    {
      "inputs": [
        {
          "internalType": "address",
          "name": "_governor",
          "type": "address"
        }
      ],
      "name": "transferGovernor",
      "outputs": [],
      "stateMutability": "nonpayable",
      "type": "function"
    },
    {
      "inputs": [
        {
          "internalType": "address",
          "name": "newGovernor",
          "type": "address"
        }
      ],
      "name": "transferGovernorship",
      "outputs": [],
      "stateMutability": "nonpayable",
      "type": "function"
    },
    {
      "inputs": [
        {
          "internalType": "uint256",
          "name": "index",
          "type": "uint256"
        }
      ],
      "name": "userClaim",
      "outputs": [],
      "stateMutability": "nonpayable",
      "type": "function"
    },
    {
      "inputs": [
        {
          "internalType": "uint256",
          "name": "",
          "type": "uint256"
        },
        {
          "internalType": "address",
          "name": "",
          "type": "address"
        }
      ],
      "name": "whitelistP",
      "outputs": [
        {
          "internalType": "bool",
          "name": "",
          "type": "bool"
        }
      ],
      "stateMutability": "view",
      "type": "function"
    }
  ],
  "bytecode": "0x608060405234801561001057600080fd5b50613b87806100206000396000f3fe6080604052600436106102725760003560e01c80638ec872e31161014f578063c7011b7b116100c1578063ddf2be3f1161007a578063ddf2be3f14610737578063dfd29d9e14610757578063e47103901461076c578063ed9ec8c61461078c578063fc0cdf76146107a1578063fe43efda146107c157610272565b8063c7011b7b1461068f578063c92a46bb146106a4578063ca0262bd146106c4578063d8ab734c146106e4578063d8b99cb214610704578063d96073cf1461072457610272565b8063b21544f311610113578063b21544f3146105cf578063b6aa515b146105ef578063b8cc9ce61461060f578063bd6018bb1461062f578063c4d66de81461064f578063c6472b121461066f57610272565b80638ec872e3146105305780638eec5d701461055057806391e9e92914610565578063a5ed536f14610578578063ac4afa381461059857610272565b806363cb6c42116101e857806381c0c263116101ac57806381c0c2631461047b57806388fd825b146104905780638aa1e44e146104b05780638ad8b6e5146104d05780638cfbe9d5146104f05780638d0929af1461051057610272565b806363cb6c42146103e65780636c221098146103fb5780636dd5b69d1461041b57806377a24f361461043b5780637adaeebe1461045b57610272565b806326d3e5de1161023a57806326d3e5de14610333578063379607f5146103535780633b9dce051461036657806352665f471461038657806354864415146103a6578063636b0475146103c657610272565b80630c340a241461027757806315048241146102a257806315fe96dc146102cf5780631bb2dd6c146102f1578063211f419114610313575b600080fd5b34801561028357600080fd5b5061028c6107e1565b6040516102999190613198565b60405180910390f35b3480156102ae57600080fd5b506102c26102bd366004612e14565b6107f0565b6040516102999190613203565b3480156102db57600080fd5b506102ef6102ea366004612f0c565b610810565b005b3480156102fd57600080fd5b50610306610835565b6040516102999190613a65565b34801561031f57600080fd5b5061030661032e366004612e14565b610876565b34801561033f57600080fd5b506102ef61034e366004612e3f565b610893565b6102ef610361366004612e8e565b61091f565b34801561037257600080fd5b506102ef610381366004612d98565b610b69565b34801561039257600080fd5b506103066103a1366004612ea6565b610bb7565b3480156103b257600080fd5b506103066103c1366004612e8e565b610bd9565b3480156103d257600080fd5b506103066103e1366004612e8e565b610beb565b3480156103f257600080fd5b50610306610bfd565b34801561040757600080fd5b506102ef610416366004613109565b610c4b565b34801561042757600080fd5b50610306610436366004612e8e565b610ce0565b34801561044757600080fd5b506102ef610456366004612db4565b610cf2565b34801561046757600080fd5b506102ef610476366004612d98565b610e78565b34801561048757600080fd5b506102ef610eca565b34801561049c57600080fd5b506102ef6104ab366004612e3f565b610f2b565b3480156104bc57600080fd5b506102ef6104cb366004613109565b610fb2565b3480156104dc57600080fd5b506102ef6104eb366004612db4565b61104a565b3480156104fc57600080fd5b5061030661050b366004612e8e565b6111c3565b34801561051c57600080fd5b506102c261052b366004612ea6565b6111d5565b34801561053c57600080fd5b5061030661054b366004612f0c565b6111f2565b34801561055c57600080fd5b50610306611205565b6102ef610573366004612fe1565b61120b565b34801561058457600080fd5b50610306610593366004612e14565b6117c3565b3480156105a457600080fd5b506105b86105b3366004612e8e565b6117e0565b6040516102999b9a99989796959493929190613a6e565b3480156105db57600080fd5b506102ef6105ea366004612ed5565b61185c565b3480156105fb57600080fd5b506102ef61060a366004612d98565b611888565b34801561061b57600080fd5b506102ef61062a366004612d98565b6118ab565b34801561063b57600080fd5b506102ef61064a366004612d98565b61190b565b34801561065b57600080fd5b506102ef61066a366004612d98565b611956565b34801561067b57600080fd5b506102c261068a366004612e8e565b611a28565b34801561069b57600080fd5b5061028c611a3d565b3480156106b057600080fd5b506103066106bf366004612e8e565b611a7c565b3480156106d057600080fd5b506102c26106df366004612e14565b611a8e565b3480156106f057600080fd5b506102ef6106ff366004612f58565b611aae565b34801561071057600080fd5b506102c261071f366004612d98565b611b62565b6102ef610732366004612f0c565b611b77565b34801561074357600080fd5b506102ef610752366004612f2d565b61232b565b34801561076357600080fd5b5061028c61234e565b34801561077857600080fd5b506102c2610787366004612e14565b612392565b34801561079857600080fd5b5061028c6123b2565b3480156107ad57600080fd5b506102c26107bc366004612d98565b6123c1565b3480156107cd57600080fd5b506102ef6107dc366004612e8e565b6123d6565b6033546001600160a01b031681565b603b60209081526000928352604080842090915290825290205460ff1681565b6033546001600160a01b0316331461082757600080fd5b61083182826126de565b5050565b6f4250524f3a3a5478466565526174696f60801b60005260346020527fffbf84605eb52262a41c847c7791b7b6dd535e0b4316697de9753a2beb5d90c25490565b603e60209081526000928352604080842090915290825290205481565b3360008181526042602052604090205460ff166108cb5760405162461bcd60e51b81526004016108c290613548565b60405180910390fd5b60005b825181101561091a57604160008483815181106108e757fe5b6020908102919091018101516001600160a01b03168252810191909152604001600020805460ff191690556001016108ce565b505050565b336000818152603b6020908152604080832085845290915290205460ff166109595760405162461bcd60e51b81526004016108c290613571565b6001600160a01b0381166000908152603c6020908152604080832085845290915290205460ff161561099d5760405162461bcd60e51b81526004016108c290613527565b6001600160a01b0381166000908152603c602090815260408083208584529091529020805460ff191660011790556109d3612c80565b603583815481106109e057fe5b60009182526020918290206040805161016081018252600a9093029091018054835260018101546001600160a01b039081169484019490945260028101548416918301919091526003810154909216606082015260048201546080820152600582015460a0820152600682015460c0820152600782015460e082015260088201546101008083019190915260099092015460ff808216151561012084015292900490911615156101408201526035549091508310610ab05760405162461bcd60e51b81526004016108c2906133c7565b60008381526038602052604090205460a082015114610aed57428160e001511115610aed5760405162461bcd60e51b81526004016108c290613987565b6000838152603760205260409020546080820151038015610b21576040820151610b21906001600160a01b03168483612705565b826001600160a01b0316847f4ec90e965519d92681267467f775ada5bd214aa92c0dc93d90a5e880ce9ed02683604051610b5b9190613a65565b60405180910390a350505050565b6033546001600160a01b03163314610b935760405162461bcd60e51b81526004016108c29061332f565b6001600160a01b03166000908152604260205260409020805460ff19166001179055565b6001600160a01b03811682186000908152603460205260409020545b92915050565b60366020526000908152604090205481565b60386020526000908152604090205481565b7f4250524f3a3a4d696e56616c75654f66426f74486f6c6465720000000000000060005260346020527f91e939d72bdb77b6a15376661a793418c7afd7afe8bca794c87800142364c7165490565b3360008181526042602052604090205460ff16610c7a5760405162461bcd60e51b81526004016108c290613548565b60005b8251811015610cda57604060008581526020019081526020016000206000848381518110610ca757fe5b6020908102919091018101516001600160a01b03168252810191909152604001600020805460ff19169055600101610c7d565b50505050565b60009081526034602052604090205490565b6033546001600160a01b0316331480610d1457506033546001600160a01b0316155b610d305760405162461bcd60e51b81526004016108c29061332f565b603380546001600160a01b038086166001600160a01b031992831617909255604380549285169290911691909117905560005b8151811015610d9057610d88828281518110610d7b57fe5b6020026020010151610b69565b600101610d63565b50506034602052505066354a6ba7a180007fffbf84605eb52262a41c847c7791b7b6dd535e0b4316697de9753a2beb5d90c2556706f05b59d3b200007f91e939d72bdb77b6a15376661a793418c7afd7afe8bca794c87800142364c71655735beabaebb3146685dd74176f68a0721f91297d377f327aca578c649dc79927fe59d303dc9cdadfadab7d9399d4580c7237822d13de557210941493ce8e94dd185ad950dbdb9d1c9858dd606a1b6000527398945bc69a554f8b129b09ac8afdc2cc2431c48e7faa56f7e443c3b6958893335d7a601ded3aa26adb5788a7d9faf2cc3447d8325d55565b3360008181526042602052604090205460ff16610ea75760405162461bcd60e51b81526004016108c290613548565b50604380546001600160a01b0319166001600160a01b0392909216919091179055565b6033546001600160a01b03163314610ee157600080fd5b6033546040516000916001600160a01b0316907fc7c0c772add429241571afb3805861fb3cfa2af374534088b76cdb4325a87e9a908390a3603380546001600160a01b0319169055565b3360008181526042602052604090205460ff16610f5a5760405162461bcd60e51b81526004016108c290613548565b60005b825181101561091a57600160416000858481518110610f7857fe5b6020908102919091018101516001600160a01b03168252810191909152604001600020805460ff1916911515919091179055600101610f5d565b3360008181526042602052604090205460ff16610fe15760405162461bcd60e51b81526004016108c290613548565b60005b8251811015610cda57600160406000868152602001908152602001600020600085848151811061101057fe5b6020908102919091018101516001600160a01b03168252810191909152604001600020805460ff1916911515919091179055600101610fe4565b6033546001600160a01b031633148061106c57506033546001600160a01b0316155b6110885760405162461bcd60e51b81526004016108c29061332f565b603380546001600160a01b038086166001600160a01b031992831617909255604380549285169290911691909117905560005b81518110156110db576110d3828281518110610d7b57fe5b6001016110bb565b50506034602052505066354a6ba7a180007fffbf84605eb52262a41c847c7791b7b6dd535e0b4316697de9753a2beb5d90c2556706f05b59d3b200007f91e939d72bdb77b6a15376661a793418c7afd7afe8bca794c87800142364c7165573abf690e2ebc6690c4fdc303fc3ee0fbfeb1818ed7f327aca578c649dc79927fe59d303dc9cdadfadab7d9399d4580c7237822d13de557210941493ce8e94dd185ad950dbdb9d1c9858dd606a1b60005273a77a9fcba2ae5599e0054369d1655d186020ece17faa56f7e443c3b6958893335d7a601ded3aa26adb5788a7d9faf2cc3447d8325d55565b60376020526000908152604090205481565b604060208181526000938452818420905290825290205460ff1681565b1860009081526034602052604090205490565b60355490565b3360008181526042602052604090205460ff1661123a5760405162461bcd60e51b81526004016108c290613548565b603554606084015160408501516001600160a01b03908116911614156112725760405162461bcd60e51b81526004016108c2906132c1565b60808401516112935760405162461bcd60e51b81526004016108c2906134f9565b60a08401516112b45760405162461bcd60e51b81526004016108c2906134cb565b428460e0015110156112d85760405162461bcd60e51b81526004016108c2906135c3565b60c08401516112f95760405162461bcd60e51b81526004016108c290613720565b6101408401511561131a576101408401516000828152603a60205260409020555b83610120015115611349576101208401516000828152603960205260409020805460ff19169115159190911790555b60408085015190516370a0823160e01b81526000906001600160a01b038316906370a082319061137d903090600401613198565b60206040518083038186803b15801561139557600080fd5b505afa1580156113a9573d6000803e3d6000fd5b505050506040513d601f19601f820116820180604052508101906113cd91906130f1565b90506113f78660200151308860800151856001600160a01b031661275b909392919063ffffffff16565b856080015161148282846001600160a01b03166370a08231306040518263ffffffff1660e01b815260040161142c9190613198565b60206040518083038186803b15801561144457600080fd5b505afa158015611458573d6000803e3d6000fd5b505050506040513d601f19601f8201168201806040525081019061147c91906130f1565b9061277c565b1461149f5760405162461bcd60e51b81526004016108c290613826565b6114b46001600160a01b0383163060006127c5565b6114be8386610fb2565b6114c6612c80565b865181526020808801516001600160a01b0390811691830191909152604080890151821690830152606080890151909116908201526080808801519082015260a0808801519082015260e08701805160c080840191909152880151905161152c91612888565b60e08201908152610100888101518184019081526101608a0151151561012085019081526101808b0151151561014086019081526035805460018082018355600092835288517fcfa4bec1d3298408bb5afcfcd9c430549c5b31f8aa5c5848151c0a55f473c34d600a909302928301556020808a01517fcfa4bec1d3298408bb5afcfcd9c430549c5b31f8aa5c5848151c0a55f473c34e840180546001600160a01b03199081166001600160a01b03938416179091556040808d01517fcfa4bec1d3298408bb5afcfcd9c430549c5b31f8aa5c5848151c0a55f473c34f87018054841691851691909117905560608d01517fcfa4bec1d3298408bb5afcfcd9c430549c5b31f8aa5c5848151c0a55f473c350870180549093169084161790915560808c01517fcfa4bec1d3298408bb5afcfcd9c430549c5b31f8aa5c5848151c0a55f473c35186015560a08c01517fcfa4bec1d3298408bb5afcfcd9c430549c5b31f8aa5c5848151c0a55f473c35286015560c08c01517fcfa4bec1d3298408bb5afcfcd9c430549c5b31f8aa5c5848151c0a55f473c35386015599517fcfa4bec1d3298408bb5afcfcd9c430549c5b31f8aa5c5848151c0a55f473c35485015596517fcfa4bec1d3298408bb5afcfcd9c430549c5b31f8aa5c5848151c0a55f473c35584015594517fcfa4bec1d3298408bb5afcfcd9c430549c5b31f8aa5c5848151c0a55f473c3569092018054945160ff199586169315159390931761ff00191692151590970291909117909555828d01519093168352603b8252848320898452909152908390208054909116909117905551339085907ff4ee2f688bb22d4ff776a21ef09379402d5344fb14f8646f3b486b560ff67589906117b29085906139be565b60405180910390a350505050505050565b603d60209081526000928352604080842090915290825290205481565b603581815481106117ed57fe5b60009182526020909120600a909102018054600182015460028301546003840154600485015460058601546006870154600788015460088901546009909901549799506001600160a01b0396871698958716979490961695929491939092919060ff808216916101009004168b565b6033546001600160a01b0316331461187357600080fd5b61091a6001600160a01b0383168418826126de565b6033546001600160a01b0316331461189f57600080fd5b6118a8816128ad565b50565b6033546001600160a01b03163314806118cd57506033546001600160a01b0316155b6118e95760405162461bcd60e51b81526004016108c29061332f565b603380546001600160a01b0319166001600160a01b0392909216919091179055565b6033546001600160a01b031633146119355760405162461bcd60e51b81526004016108c29061332f565b6001600160a01b03166000908152604260205260409020805460ff19169055565b600054610100900460ff168061196f575061196f61291c565b8061197d575060005460ff16155b6119995760405162461bcd60e51b81526004016108c2906136d2565b600054610100900460ff161580156119c4576000805460ff1961ff0019909116610100171660011790555b603380546001600160a01b0319166001600160a01b0384811691909117918290556040519116906000907fc7c0c772add429241571afb3805861fb3cfa2af374534088b76cdb4325a87e9a908290a38015610831576000805461ff00191690555050565b60396020526000908152604090205460ff1681565b6d212829279d1d2137ba2a37b5b2b760911b60005260346020527f327aca578c649dc79927fe59d303dc9cdadfadab7d9399d4580c7237822d13de5490565b603a6020526000908152604090205481565b603c60209081526000928352604080842090915290825290205460ff1681565b600033604051602001611ac19190613198565b6040516020818303038152906040528051906020012090506000611ae482612922565b9050611af08184612952565b6043546001600160a01b03908116911614611b1d5760405162461bcd60e51b81526004016108c290613296565b33600081815260416020526040808220805460ff19166001179055517f85396e6b136f05251a7bba22a3e7cdf6cbf3164ec85fa133d506a25c2008d4b59190a2505050565b60416020526000908152604090205460ff1681565b60355482908110611b9a5760405162461bcd60e51b81526004016108c2906133c7565b824260358281548110611ba957fe5b90600052602060002090600a02016007015411611bd85760405162461bcd60e51b81526004016108c29061345c565b600084815260396020526040902054849060ff1615611c9a57611bf9610bfd565b611c01611a3d565b6001600160a01b03166370a08231336040518263ffffffff1660e01b8152600401611c2c9190613198565b60206040518083038186803b158015611c4457600080fd5b505afa158015611c58573d6000803e3d6000fd5b505050506040513d601f19601f82011682018060405250810190611c7c91906130f1565b1015611c9a5760405162461bcd60e51b81526004016108c290613598565b33611ca3612c80565b60358781548110611cb057fe5b60009182526020918290206040805161016081018252600a9093029091018054835260018101546001600160a01b039081169484019490945260028101548416918301919091526003810154909216606082015260048201546080820152600582015460a0820152600682015460c0820152600782015460e082015260088201546101008083019190915260099092015460ff808216158015610120850152939091041615156101408201529150611da1576000878152604060208181528183206001600160a01b0386168452905290205460ff16611da15760405162461bcd60e51b81526004016108c29061362d565b80610140015115611de4576001600160a01b03821660009081526041602052604090205460ff16611de45760405162461bcd60e51b81526004016108c2906137c7565b428160c001511115611e085760405162461bcd60e51b81526004016108c29061374a565b85611e255760405162461bcd60e51b81526004016108c290613359565b60008781526038602052604090205460a082015111611e565760405162461bcd60e51b81526004016108c2906136a5565b60008781526038602052604081205460a08301518291611e76919061277c565b905087811015611e9157611e8a888261277c565b9150611e94565b50865b6000611ebb8460a00151611eb5866080015185612a8090919063ffffffff16565b90612aba565b60008b81526037602052604081205460808701519293509091611edd9161277c565b905081811015611f0e57606481830311611f095760405162461bcd60e51b81526004016108c2906138ce565b611f11565b50805b60008b815260376020526040902054611f2a9082612888565b60008c815260376020908152604080832093909355603890522054611f4f9084612888565b60008c8152603860209081526040808320939093556001600160a01b0389168252603d81528282208e835290522054611f889082612888565b6001600160a01b0387166000908152603d602090815260408083208f8452825280832093909355603a90522054156120645760008b8152603a60209081526040808320546001600160a01b038a168452603e83528184208f855290925290912054611ff39085612888565b11156120115760405162461bcd60e51b81526004016108c290613771565b6001600160a01b0386166000908152603e602090815260408083208e845290915290205461203f9084612888565b6001600160a01b0387166000908152603e602090815260408083208f84529091529020555b60008b81526038602052604090205460a086015114156120905760008b81526036602052604090204290555b60608501516001600160a01b03166120c6578934146120c15760405162461bcd60e51b81526004016108c2906137f7565b6120e0565b60608501516120e0906001600160a01b031687308d61275b565b6101008501516121575780156121575760408501516001600160a01b031661213e576040516001600160a01b0387169082156108fc029083906000818181858888f19350505050158015612138573d6000803e3d6000fd5b50612157565b6040850151612157906001600160a01b03168783612705565b83156121c45760608501516001600160a01b03166121ab576040516001600160a01b0387169085156108fc029086906000818181858888f193505050501580156121a5573d6000803e3d6000fd5b506121c4565b60608501516121c4906001600160a01b03168786612705565b60608501516001600160a01b03166122b45760006121f6670de0b6b3a7640000611eb56121ef610835565b8790612a80565b90506000612204858361277c565b9050801561224b5786602001516001600160a01b03166108fc829081150290604051600060405180830381858888f19350505050158015612249573d6000803e3d6000fd5b505b81156122ad5761225961234e565b6001600160a01b0316635ec2dc8d836040518263ffffffff1660e01b81526004016000604051808303818588803b15801561229357600080fd5b505af11580156122a7573d6000803e3d6000fd5b50505050505b50506122da565b6122da85602001518487606001516001600160a01b03166127059092919063ffffffff16565b856001600160a01b03168b7fe5903af08592742a0f3632ef378be3612814d51c4169d376f3eff65dd798be6d8386604051612316929190613acd565b60405180910390a35050505050505050505050565b6033546001600160a01b0316331461234257600080fd5b61091a838318826126de565b7210941493ce8e94dd185ad950dbdb9d1c9858dd606a1b60005260346020527faa56f7e443c3b6958893335d7a601ded3aa26adb5788a7d9faf2cc3447d8325d5490565b603f60209081526000928352604080842090915290825290205460ff1681565b6043546001600160a01b031681565b60426020526000908152604090205460ff1681565b603554819081106123f95760405162461bcd60e51b81526004016108c2906133c7565b612401612c80565b6035838154811061240e57fe5b600091825260208083206040805161016081018252600a9094029091018054845260018101546001600160a01b039081169385019390935260028101548316918401919091526003810154909116606083015260048101546080830152600581015460a0830152600681015460c0830152600781015460e083015260088101546101008084019190915260099091015460ff808216151561012085015291900416151561014082015260358054919350339291869081106124cb57fe5b90600052602060002090600a020160080154116124fa5760405162461bcd60e51b81526004016108c2906138a7565b6001600160a01b0381166000908152603f6020908152604080832087845290915290205460ff161561253e5760405162461bcd60e51b81526004016108c290613527565b6000848152603660205260409020541580159061257a575061010082015160008581526036602052604090205442916125779190612888565b11155b806125895750428260e0015111155b6125a55760405162461bcd60e51b81526004016108c2906133fe565b6001600160a01b0381166000818152603f602090815260408083208884528252808320805460ff19166001179055928252603d815282822087835290522054156126885760408201516001600160a01b0316612650576001600160a01b0381166000908152603d60209081526040808320878452909152808220549051339282156108fc02929190818181858888f1935050505015801561264a573d6000803e3d6000fd5b50612688565b6001600160a01b038082166000908152603d602090815260408083208884529091529081902054908401516126889216903390612705565b6001600160a01b0381166000818152603d602090815260408083208884529091529081902054905186917fff29b281372993483c1ce6b621ae07832d519c2294e43340f051312701ad132a91610b5b9190613a65565b60008281526034602052604090205481146108315760009182526034602052604090912055565b61091a8363a9059cbb60e01b84846040516024016127249291906131ea565b60408051601f198184030181529190526020810180516001600160e01b03166001600160e01b031990931692909217909152612afc565b610cda846323b872dd60e01b858585604051602401612724939291906131c6565b60006127be83836040518060400160405280601e81526020017f536166654d6174683a207375627472616374696f6e206f766572666c6f770000815250612be1565b9392505050565b80158061284d5750604051636eb1769f60e11b81526001600160a01b0384169063dd62ed3e906127fb90309086906004016131ac565b60206040518083038186803b15801561281357600080fd5b505afa158015612827573d6000803e3d6000fd5b505050506040513d601f19601f8201168201806040525081019061284b91906130f1565b155b6128695760405162461bcd60e51b81526004016108c2906138fa565b61091a8363095ea7b360e01b84846040516024016127249291906131ea565b6000828201838110156127be5760405162461bcd60e51b81526004016108c290613390565b6001600160a01b0381166128c057600080fd5b6033546040516001600160a01b038084169216907fc7c0c772add429241571afb3805861fb3cfa2af374534088b76cdb4325a87e9a90600090a3603380546001600160a01b0319166001600160a01b0392909216919091179055565b303b1590565b6000816040516020016129359190613167565b604051602081830303815290604052805190602001209050919050565b600081516041146129755760405162461bcd60e51b81526004016108c2906132f8565b60208201516040830151606084015160001a7f7fffffffffffffffffffffffffffffff5d576e7357a4501ddfe92f46681b20a08211156129c75760405162461bcd60e51b81526004016108c290613489565b8060ff16601b141580156129df57508060ff16601c14155b156129fc5760405162461bcd60e51b81526004016108c2906135eb565b600060018783868660405160008152602001604052604051612a21949392919061320e565b6020604051602081039080840390855afa158015612a43573d6000803e3d6000fd5b5050604051601f1901519150506001600160a01b038116612a765760405162461bcd60e51b81526004016108c29061325f565b9695505050505050565b600082612a8f57506000610bd3565b82820282848281612a9c57fe5b04146127be5760405162461bcd60e51b81526004016108c290613664565b60006127be83836040518060400160405280601a81526020017f536166654d6174683a206469766973696f6e206279207a65726f000000000000815250612c0d565b612b0e826001600160a01b0316612c44565b612b2a5760405162461bcd60e51b81526004016108c290613950565b60006060836001600160a01b031683604051612b46919061314b565b6000604051808303816000865af19150503d8060008114612b83576040519150601f19603f3d011682016040523d82523d6000602084013e612b88565b606091505b509150915081612baa5760405162461bcd60e51b81526004016108c290613427565b805115610cda5780806020019051810190612bc59190612e72565b610cda5760405162461bcd60e51b81526004016108c29061385d565b60008184841115612c055760405162461bcd60e51b81526004016108c2919061322c565b505050900390565b60008183612c2e5760405162461bcd60e51b81526004016108c2919061322c565b506000838581612c3a57fe5b0495945050505050565b6000813f7fc5d2460186f7233c927e7db2dcc703c0e500b653ca82273b7bfad8045d85a470818114801590612c7857508115155b949350505050565b6040518061016001604052806000815260200160006001600160a01b0316815260200160006001600160a01b0316815260200160006001600160a01b0316815260200160008152602001600081526020016000815260200160008152602001600081526020016000151581526020016000151581525090565b8035610bd381613b2e565b600082601f830112612d14578081fd5b813567ffffffffffffffff811115612d2a578182fd5b6020808202612d3a828201613adb565b83815293508184018583018287018401881015612d5657600080fd5b600092505b84831015612d82578035612d6e81613b2e565b825260019290920191908301908301612d5b565b505050505092915050565b8035610bd381613b43565b600060208284031215612da9578081fd5b81356127be81613b2e565b600080600060608486031215612dc8578182fd5b8335612dd381613b2e565b92506020840135612de381613b2e565b9150604084013567ffffffffffffffff811115612dfe578182fd5b612e0a86828701612d04565b9150509250925092565b60008060408385031215612e26578182fd5b8235612e3181613b2e565b946020939093013593505050565b600060208284031215612e50578081fd5b813567ffffffffffffffff811115612e66578182fd5b612c7884828501612d04565b600060208284031215612e83578081fd5b81516127be81613b43565b600060208284031215612e9f578081fd5b5035919050565b60008060408385031215612eb8578182fd5b823591506020830135612eca81613b2e565b809150509250929050565b600080600060608486031215612ee9578283fd5b833592506020840135612efb81613b2e565b929592945050506040919091013590565b60008060408385031215612f1e578182fd5b50508035926020909101359150565b600080600060608486031215612f41578283fd5b505081359360208301359350604090920135919050565b60006020808385031215612f6a578182fd5b823567ffffffffffffffff80821115612f81578384fd5b818501915085601f830112612f94578384fd5b813581811115612fa2578485fd5b612fb4601f8201601f19168501613adb565b91508082528684828501011115612fc9578485fd5b80848401858401378101909201929092529392505050565b6000808284036101c0811215612ff5578283fd5b6101a080821215613004578384fd5b61300d81613adb565b9150843582526130208660208701612cf9565b60208301526130328660408701612cf9565b60408301526130448660608701612cf9565b60608301526080850135608083015260a085013560a083015260c085013560c083015260e085013560e083015261010080860135818401525061012061308c87828801612d8d565b9083015261014085810135908301526101606130aa87828801612d8d565b908301526101806130bd87878301612d8d565b9083015290925083013567ffffffffffffffff8111156130db578182fd5b6130e785828601612d04565b9150509250929050565b600060208284031215613102578081fd5b5051919050565b6000806040838503121561311b578182fd5b82359150602083013567ffffffffffffffff8111156130db578182fd5b6001600160a01b03169052565b15159052565b6000825161315d818460208701613b02565b9190910192915050565b7f19457468657265756d205369676e6564204d6573736167653a0a3332000000008152601c810191909152603c0190565b6001600160a01b0391909116815260200190565b6001600160a01b0392831681529116602082015260400190565b6001600160a01b039384168152919092166020820152604081019190915260600190565b6001600160a01b03929092168252602082015260400190565b901515815260200190565b93845260ff9290921660208401526040830152606082015260800190565b600060208252825180602084015261324b816040850160208701613b02565b601f01601f19169190910160400192915050565b60208082526018908201527f45434453413a20696e76616c6964207369676e61747572650000000000000000604082015260600190565b602080825260119082015270696e76616c6964207369676e617475726560781b604082015260600190565b60208082526019908201527f746f6b656e3020616e6420746f6b656e312069732073616d6500000000000000604082015260600190565b6020808252601f908201527f45434453413a20696e76616c6964207369676e6174757265206c656e67746800604082015260600190565b60208082526010908201526f34b73b30b634b21033b7bb32b93737b960811b604082015260600190565b6020808252601c908201527f7468652076616c7565206f6620616d6f756e7431206973207a65726f00000000604082015260600190565b6020808252601b908201527f536166654d6174683a206164646974696f6e206f766572666c6f770000000000604082015260600190565b60208082526018908201527f7468697320706f6f6c20646f6573206e6f742065786973740000000000000000604082015260600190565b6020808252600f908201526e636c61696d206e6f7420726561647960881b604082015260600190565b6020808252818101527f5361666545524332303a206c6f772d6c6576656c2063616c6c206661696c6564604082015260600190565b6020808252601390820152721d1a1a5cc81c1bdbdb081a5cc818db1bdcd959606a1b604082015260600190565b60208082526022908201527f45434453413a20696e76616c6964207369676e6174757265202773272076616c604082015261756560f01b606082015260800190565b602080825260149082015273696e76616c696420616d6f756e74546f74616c3160601b604082015260600190565b6020808252601490820152730696e76616c696420616d6f756e74546f74616c360641b604082015260600190565b60208082526007908201526618db185a5b595960ca1b604082015260600190565b6020808252600f908201526e34b73b30b634b21031b932b0ba37b960891b604082015260600190565b6020808252600d908201526c34b73b30b634b21037bbb732b960991b604082015260600190565b6020808252601190820152700849ea840d2e640dcdee840cadcdeeaced607b1b604082015260600190565b6020808252600e908201526d1a5b9d985b1a59081bdc195b905d60921b604082015260600190565b60208082526022908201527f45434453413a20696e76616c6964207369676e6174757265202776272076616c604082015261756560f01b606082015260800190565b60208082526017908201527f73656e646572206e6f7420696e2077686974656c697374000000000000000000604082015260600190565b60208082526021908201527f536166654d6174683a206d756c7469706c69636174696f6e206f766572666c6f6040820152607760f81b606082015260800190565b6020808252601390820152727377617020616d6f756e74206973207a65726f60681b604082015260600190565b6020808252602e908201527f436f6e747261637420696e7374616e63652068617320616c726561647920626560408201526d195b881a5b9a5d1a585b1a5e995960921b606082015260800190565b60208082526010908201526f34b73b30b634b210323ab930ba34b7b760811b604082015260600190565b6020808252600d908201526c3837b7b6103737ba1037b832b760991b604082015260600190565b60208082526036908201527f7377617070656420616d6f756e74206f6620746f6b656e31206973206578636560408201527565646564206d6178696d756d20616c6c6f77616e636560501b606082015260800190565b6020808252601690820152751cd95b99195c881b9bdd081a5b8812d650c81b1a5cdd60521b604082015260600190565b6020808252601590820152740d2dcecc2d8d2c840c2dadeeadce840decc408aa89605b1b604082015260600190565b6020808252601e908201527f6e6f7420737570706f7274206465666c6174696f6e61727920746f6b656e0000604082015260600190565b6020808252602a908201527f5361666545524332303a204552433230206f7065726174696f6e20646964206e6040820152691bdd081cdd58d8d9595960b21b606082015260800190565b6020808252600d908201526c696e76616c696420636c61696d60981b604082015260600190565b602080825260129082015271616d6f756e743020697320746f6f2062696760701b604082015260600190565b60208082526036908201527f5361666545524332303a20617070726f76652066726f6d206e6f6e2d7a65726f60408201527520746f206e6f6e2d7a65726f20616c6c6f77616e636560501b606082015260800190565b6020808252601f908201527f5361666545524332303a2063616c6c20746f206e6f6e2d636f6e747261637400604082015260600190565b60208082526017908201527f7468697320706f6f6c206973206e6f7420636c6f736564000000000000000000604082015260600190565b815181526020808301516101608301916139da90840182613138565b5060408301516139ed6040840182613138565b506060830151613a006060840182613138565b506080830151608083015260a083015160a083015260c083015160c083015260e083015160e083015261010080840151818401525061012080840151613a4882850182613145565b505061014080840151613a5d82850182613145565b505092915050565b90815260200190565b9a8b526001600160a01b03998a1660208c015297891660408b0152959097166060890152608088019390935260a087019190915260c086015260e085015261010084019290925290151561012083015215156101408201526101600190565b918252602082015260400190565b60405181810167ffffffffffffffff81118282101715613afa57600080fd5b604052919050565b60005b83811015613b1d578181015183820152602001613b05565b83811115610cda5750506000910152565b6001600160a01b03811681146118a857600080fd5b80151581146118a857600080fdfea264697066735822122044e17f0c395b4e3e4e56a394cc84a91e1fd9a52454cec639fba668fff5718c0864736f6c634300060c0033",
  "compiler": {
    "name": "solc",
    "version": "0.6.12+commit.27d51765.Emscripten.clang",
    "optimizer": {
      "enabled": true,
      "runs": 200
    },
    "evmVersion": "petersburg"
  }
}